ARM GAS  C:\Users\CHRIST~1\AppData\Local\Temp\ccFS16wJ.s 			page 1


   1              		.cpu cortex-m4
   2              		.eabi_attribute 27, 1
   3              		.eabi_attribute 28, 1
   4              		.eabi_attribute 20, 1
   5              		.eabi_attribute 21, 1
   6              		.eabi_attribute 23, 3
   7              		.eabi_attribute 24, 1
   8              		.eabi_attribute 25, 1
   9              		.eabi_attribute 26, 1
  10              		.eabi_attribute 30, 1
  11              		.eabi_attribute 34, 1
  12              		.eabi_attribute 18, 4
  13              		.file	"stm32_dma.c"
  14              		.text
  15              	.Ltext0:
  16              		.cfi_sections	.debug_frame
  17              		.section	.text.Vector6C,"ax",%progbits
  18              		.align	1
  19              		.p2align 4,,15
  20              		.global	Vector6C
  21              		.syntax unified
  22              		.thumb
  23              		.thumb_func
  24              		.fpu fpv4-sp-d16
  25              		.type	Vector6C, %function
  26              	Vector6C:
  27              	.LFB260:
  28              		.file 1 "ChibiOS_3.0.2/os/hal/ports/STM32/STM32F4xx/stm32_dma.c"
  29              		.loc 1 127 0
  30              		.cfi_startproc
  31              		@ args = 0, pretend = 0, frame = 0
  32              		@ frame_needed = 0, uses_anonymous_args = 0
  33 0000 08B5     		push	{r3, lr}
  34              		.cfi_def_cfa_offset 8
  35              		.cfi_offset 3, -8
  36              		.cfi_offset 14, -4
  37              		.loc 1 132 0
  38 0002 074B     		ldr	r3, .L4
  39 0004 1968     		ldr	r1, [r3]
  40 0006 01F03D01 		and	r1, r1, #61
  41              	.LVL0:
  42              		.loc 1 133 0
  43 000a 9960     		str	r1, [r3, #8]
  44              		.loc 1 134 0
  45 000c 054B     		ldr	r3, .L4+4
  46 000e 1B68     		ldr	r3, [r3]
  47 0010 13B1     		cbz	r3, .L2
  48              		.loc 1 135 0
  49 0012 044A     		ldr	r2, .L4+4
  50 0014 5068     		ldr	r0, [r2, #4]
  51 0016 9847     		blx	r3
  52              	.LVL1:
  53              	.L2:
  54              		.loc 1 137 0
  55 0018 FFF7FEFF 		bl	_port_irq_epilogue
  56              	.LVL2:
  57              		.loc 1 138 0
ARM GAS  C:\Users\CHRIST~1\AppData\Local\Temp\ccFS16wJ.s 			page 2


  58 001c 08BD     		pop	{r3, pc}
  59              	.L5:
  60 001e 00BF     		.align	2
  61              	.L4:
  62 0020 00600240 		.word	1073897472
  63 0024 00000000 		.word	.LANCHOR0
  64              		.cfi_endproc
  65              	.LFE260:
  66              		.size	Vector6C, .-Vector6C
  67              		.section	.text.Vector70,"ax",%progbits
  68              		.align	1
  69              		.p2align 4,,15
  70              		.global	Vector70
  71              		.syntax unified
  72              		.thumb
  73              		.thumb_func
  74              		.fpu fpv4-sp-d16
  75              		.type	Vector70, %function
  76              	Vector70:
  77              	.LFB261:
  78              		.loc 1 145 0
  79              		.cfi_startproc
  80              		@ args = 0, pretend = 0, frame = 0
  81              		@ frame_needed = 0, uses_anonymous_args = 0
  82 0000 08B5     		push	{r3, lr}
  83              		.cfi_def_cfa_offset 8
  84              		.cfi_offset 3, -8
  85              		.cfi_offset 14, -4
  86              		.loc 1 150 0
  87 0002 084B     		ldr	r3, .L9
  88 0004 1968     		ldr	r1, [r3]
  89 0006 8909     		lsrs	r1, r1, #6
  90 0008 01F03D01 		and	r1, r1, #61
  91              	.LVL3:
  92              		.loc 1 151 0
  93 000c 8A01     		lsls	r2, r1, #6
  94 000e 9A60     		str	r2, [r3, #8]
  95              		.loc 1 152 0
  96 0010 054B     		ldr	r3, .L9+4
  97 0012 9B68     		ldr	r3, [r3, #8]
  98 0014 13B1     		cbz	r3, .L7
  99              		.loc 1 153 0
 100 0016 044A     		ldr	r2, .L9+4
 101 0018 D068     		ldr	r0, [r2, #12]
 102 001a 9847     		blx	r3
 103              	.LVL4:
 104              	.L7:
 105              		.loc 1 155 0
 106 001c FFF7FEFF 		bl	_port_irq_epilogue
 107              	.LVL5:
 108              		.loc 1 156 0
 109 0020 08BD     		pop	{r3, pc}
 110              	.L10:
 111 0022 00BF     		.align	2
 112              	.L9:
 113 0024 00600240 		.word	1073897472
 114 0028 00000000 		.word	.LANCHOR0
ARM GAS  C:\Users\CHRIST~1\AppData\Local\Temp\ccFS16wJ.s 			page 3


 115              		.cfi_endproc
 116              	.LFE261:
 117              		.size	Vector70, .-Vector70
 118              		.section	.text.Vector74,"ax",%progbits
 119              		.align	1
 120              		.p2align 4,,15
 121              		.global	Vector74
 122              		.syntax unified
 123              		.thumb
 124              		.thumb_func
 125              		.fpu fpv4-sp-d16
 126              		.type	Vector74, %function
 127              	Vector74:
 128              	.LFB262:
 129              		.loc 1 163 0
 130              		.cfi_startproc
 131              		@ args = 0, pretend = 0, frame = 0
 132              		@ frame_needed = 0, uses_anonymous_args = 0
 133 0000 08B5     		push	{r3, lr}
 134              		.cfi_def_cfa_offset 8
 135              		.cfi_offset 3, -8
 136              		.cfi_offset 14, -4
 137              		.loc 1 168 0
 138 0002 084B     		ldr	r3, .L14
 139 0004 1968     		ldr	r1, [r3]
 140 0006 090C     		lsrs	r1, r1, #16
 141 0008 01F03D01 		and	r1, r1, #61
 142              	.LVL6:
 143              		.loc 1 169 0
 144 000c 0A04     		lsls	r2, r1, #16
 145 000e 9A60     		str	r2, [r3, #8]
 146              		.loc 1 170 0
 147 0010 054B     		ldr	r3, .L14+4
 148 0012 1B69     		ldr	r3, [r3, #16]
 149 0014 13B1     		cbz	r3, .L12
 150              		.loc 1 171 0
 151 0016 044A     		ldr	r2, .L14+4
 152 0018 5069     		ldr	r0, [r2, #20]
 153 001a 9847     		blx	r3
 154              	.LVL7:
 155              	.L12:
 156              		.loc 1 173 0
 157 001c FFF7FEFF 		bl	_port_irq_epilogue
 158              	.LVL8:
 159              		.loc 1 174 0
 160 0020 08BD     		pop	{r3, pc}
 161              	.L15:
 162 0022 00BF     		.align	2
 163              	.L14:
 164 0024 00600240 		.word	1073897472
 165 0028 00000000 		.word	.LANCHOR0
 166              		.cfi_endproc
 167              	.LFE262:
 168              		.size	Vector74, .-Vector74
 169              		.section	.text.Vector78,"ax",%progbits
 170              		.align	1
 171              		.p2align 4,,15
ARM GAS  C:\Users\CHRIST~1\AppData\Local\Temp\ccFS16wJ.s 			page 4


 172              		.global	Vector78
 173              		.syntax unified
 174              		.thumb
 175              		.thumb_func
 176              		.fpu fpv4-sp-d16
 177              		.type	Vector78, %function
 178              	Vector78:
 179              	.LFB263:
 180              		.loc 1 181 0
 181              		.cfi_startproc
 182              		@ args = 0, pretend = 0, frame = 0
 183              		@ frame_needed = 0, uses_anonymous_args = 0
 184 0000 08B5     		push	{r3, lr}
 185              		.cfi_def_cfa_offset 8
 186              		.cfi_offset 3, -8
 187              		.cfi_offset 14, -4
 188              		.loc 1 186 0
 189 0002 084B     		ldr	r3, .L19
 190 0004 1968     		ldr	r1, [r3]
 191 0006 890D     		lsrs	r1, r1, #22
 192 0008 01F03D01 		and	r1, r1, #61
 193              	.LVL9:
 194              		.loc 1 187 0
 195 000c 8A05     		lsls	r2, r1, #22
 196 000e 9A60     		str	r2, [r3, #8]
 197              		.loc 1 188 0
 198 0010 054B     		ldr	r3, .L19+4
 199 0012 9B69     		ldr	r3, [r3, #24]
 200 0014 13B1     		cbz	r3, .L17
 201              		.loc 1 189 0
 202 0016 044A     		ldr	r2, .L19+4
 203 0018 D069     		ldr	r0, [r2, #28]
 204 001a 9847     		blx	r3
 205              	.LVL10:
 206              	.L17:
 207              		.loc 1 191 0
 208 001c FFF7FEFF 		bl	_port_irq_epilogue
 209              	.LVL11:
 210              		.loc 1 192 0
 211 0020 08BD     		pop	{r3, pc}
 212              	.L20:
 213 0022 00BF     		.align	2
 214              	.L19:
 215 0024 00600240 		.word	1073897472
 216 0028 00000000 		.word	.LANCHOR0
 217              		.cfi_endproc
 218              	.LFE263:
 219              		.size	Vector78, .-Vector78
 220              		.section	.text.Vector7C,"ax",%progbits
 221              		.align	1
 222              		.p2align 4,,15
 223              		.global	Vector7C
 224              		.syntax unified
 225              		.thumb
 226              		.thumb_func
 227              		.fpu fpv4-sp-d16
 228              		.type	Vector7C, %function
ARM GAS  C:\Users\CHRIST~1\AppData\Local\Temp\ccFS16wJ.s 			page 5


 229              	Vector7C:
 230              	.LFB264:
 231              		.loc 1 199 0
 232              		.cfi_startproc
 233              		@ args = 0, pretend = 0, frame = 0
 234              		@ frame_needed = 0, uses_anonymous_args = 0
 235 0000 08B5     		push	{r3, lr}
 236              		.cfi_def_cfa_offset 8
 237              		.cfi_offset 3, -8
 238              		.cfi_offset 14, -4
 239              		.loc 1 204 0
 240 0002 074B     		ldr	r3, .L24
 241 0004 5968     		ldr	r1, [r3, #4]
 242 0006 01F03D01 		and	r1, r1, #61
 243              	.LVL12:
 244              		.loc 1 205 0
 245 000a D960     		str	r1, [r3, #12]
 246              		.loc 1 206 0
 247 000c 054B     		ldr	r3, .L24+4
 248 000e 1B6A     		ldr	r3, [r3, #32]
 249 0010 13B1     		cbz	r3, .L22
 250              		.loc 1 207 0
 251 0012 044A     		ldr	r2, .L24+4
 252 0014 506A     		ldr	r0, [r2, #36]
 253 0016 9847     		blx	r3
 254              	.LVL13:
 255              	.L22:
 256              		.loc 1 209 0
 257 0018 FFF7FEFF 		bl	_port_irq_epilogue
 258              	.LVL14:
 259              		.loc 1 210 0
 260 001c 08BD     		pop	{r3, pc}
 261              	.L25:
 262 001e 00BF     		.align	2
 263              	.L24:
 264 0020 00600240 		.word	1073897472
 265 0024 00000000 		.word	.LANCHOR0
 266              		.cfi_endproc
 267              	.LFE264:
 268              		.size	Vector7C, .-Vector7C
 269              		.section	.text.Vector80,"ax",%progbits
 270              		.align	1
 271              		.p2align 4,,15
 272              		.global	Vector80
 273              		.syntax unified
 274              		.thumb
 275              		.thumb_func
 276              		.fpu fpv4-sp-d16
 277              		.type	Vector80, %function
 278              	Vector80:
 279              	.LFB265:
 280              		.loc 1 217 0
 281              		.cfi_startproc
 282              		@ args = 0, pretend = 0, frame = 0
 283              		@ frame_needed = 0, uses_anonymous_args = 0
 284 0000 08B5     		push	{r3, lr}
 285              		.cfi_def_cfa_offset 8
ARM GAS  C:\Users\CHRIST~1\AppData\Local\Temp\ccFS16wJ.s 			page 6


 286              		.cfi_offset 3, -8
 287              		.cfi_offset 14, -4
 288              		.loc 1 222 0
 289 0002 084B     		ldr	r3, .L29
 290 0004 5968     		ldr	r1, [r3, #4]
 291 0006 8909     		lsrs	r1, r1, #6
 292 0008 01F03D01 		and	r1, r1, #61
 293              	.LVL15:
 294              		.loc 1 223 0
 295 000c 8A01     		lsls	r2, r1, #6
 296 000e DA60     		str	r2, [r3, #12]
 297              		.loc 1 224 0
 298 0010 054B     		ldr	r3, .L29+4
 299 0012 9B6A     		ldr	r3, [r3, #40]
 300 0014 13B1     		cbz	r3, .L27
 301              		.loc 1 225 0
 302 0016 044A     		ldr	r2, .L29+4
 303 0018 D06A     		ldr	r0, [r2, #44]
 304 001a 9847     		blx	r3
 305              	.LVL16:
 306              	.L27:
 307              		.loc 1 227 0
 308 001c FFF7FEFF 		bl	_port_irq_epilogue
 309              	.LVL17:
 310              		.loc 1 228 0
 311 0020 08BD     		pop	{r3, pc}
 312              	.L30:
 313 0022 00BF     		.align	2
 314              	.L29:
 315 0024 00600240 		.word	1073897472
 316 0028 00000000 		.word	.LANCHOR0
 317              		.cfi_endproc
 318              	.LFE265:
 319              		.size	Vector80, .-Vector80
 320              		.section	.text.Vector84,"ax",%progbits
 321              		.align	1
 322              		.p2align 4,,15
 323              		.global	Vector84
 324              		.syntax unified
 325              		.thumb
 326              		.thumb_func
 327              		.fpu fpv4-sp-d16
 328              		.type	Vector84, %function
 329              	Vector84:
 330              	.LFB266:
 331              		.loc 1 235 0
 332              		.cfi_startproc
 333              		@ args = 0, pretend = 0, frame = 0
 334              		@ frame_needed = 0, uses_anonymous_args = 0
 335 0000 08B5     		push	{r3, lr}
 336              		.cfi_def_cfa_offset 8
 337              		.cfi_offset 3, -8
 338              		.cfi_offset 14, -4
 339              		.loc 1 240 0
 340 0002 084B     		ldr	r3, .L34
 341 0004 5968     		ldr	r1, [r3, #4]
 342 0006 090C     		lsrs	r1, r1, #16
ARM GAS  C:\Users\CHRIST~1\AppData\Local\Temp\ccFS16wJ.s 			page 7


 343 0008 01F03D01 		and	r1, r1, #61
 344              	.LVL18:
 345              		.loc 1 241 0
 346 000c 0A04     		lsls	r2, r1, #16
 347 000e DA60     		str	r2, [r3, #12]
 348              		.loc 1 242 0
 349 0010 054B     		ldr	r3, .L34+4
 350 0012 1B6B     		ldr	r3, [r3, #48]
 351 0014 13B1     		cbz	r3, .L32
 352              		.loc 1 243 0
 353 0016 044A     		ldr	r2, .L34+4
 354 0018 506B     		ldr	r0, [r2, #52]
 355 001a 9847     		blx	r3
 356              	.LVL19:
 357              	.L32:
 358              		.loc 1 245 0
 359 001c FFF7FEFF 		bl	_port_irq_epilogue
 360              	.LVL20:
 361              		.loc 1 246 0
 362 0020 08BD     		pop	{r3, pc}
 363              	.L35:
 364 0022 00BF     		.align	2
 365              	.L34:
 366 0024 00600240 		.word	1073897472
 367 0028 00000000 		.word	.LANCHOR0
 368              		.cfi_endproc
 369              	.LFE266:
 370              		.size	Vector84, .-Vector84
 371              		.section	.text.VectorFC,"ax",%progbits
 372              		.align	1
 373              		.p2align 4,,15
 374              		.global	VectorFC
 375              		.syntax unified
 376              		.thumb
 377              		.thumb_func
 378              		.fpu fpv4-sp-d16
 379              		.type	VectorFC, %function
 380              	VectorFC:
 381              	.LFB267:
 382              		.loc 1 253 0
 383              		.cfi_startproc
 384              		@ args = 0, pretend = 0, frame = 0
 385              		@ frame_needed = 0, uses_anonymous_args = 0
 386 0000 08B5     		push	{r3, lr}
 387              		.cfi_def_cfa_offset 8
 388              		.cfi_offset 3, -8
 389              		.cfi_offset 14, -4
 390              		.loc 1 258 0
 391 0002 084B     		ldr	r3, .L39
 392 0004 5968     		ldr	r1, [r3, #4]
 393 0006 890D     		lsrs	r1, r1, #22
 394 0008 01F03D01 		and	r1, r1, #61
 395              	.LVL21:
 396              		.loc 1 259 0
 397 000c 8A05     		lsls	r2, r1, #22
 398 000e DA60     		str	r2, [r3, #12]
 399              		.loc 1 260 0
ARM GAS  C:\Users\CHRIST~1\AppData\Local\Temp\ccFS16wJ.s 			page 8


 400 0010 054B     		ldr	r3, .L39+4
 401 0012 9B6B     		ldr	r3, [r3, #56]
 402 0014 13B1     		cbz	r3, .L37
 403              		.loc 1 261 0
 404 0016 044A     		ldr	r2, .L39+4
 405 0018 D06B     		ldr	r0, [r2, #60]
 406 001a 9847     		blx	r3
 407              	.LVL22:
 408              	.L37:
 409              		.loc 1 263 0
 410 001c FFF7FEFF 		bl	_port_irq_epilogue
 411              	.LVL23:
 412              		.loc 1 264 0
 413 0020 08BD     		pop	{r3, pc}
 414              	.L40:
 415 0022 00BF     		.align	2
 416              	.L39:
 417 0024 00600240 		.word	1073897472
 418 0028 00000000 		.word	.LANCHOR0
 419              		.cfi_endproc
 420              	.LFE267:
 421              		.size	VectorFC, .-VectorFC
 422              		.section	.text.Vector120,"ax",%progbits
 423              		.align	1
 424              		.p2align 4,,15
 425              		.global	Vector120
 426              		.syntax unified
 427              		.thumb
 428              		.thumb_func
 429              		.fpu fpv4-sp-d16
 430              		.type	Vector120, %function
 431              	Vector120:
 432              	.LFB268:
 433              		.loc 1 271 0
 434              		.cfi_startproc
 435              		@ args = 0, pretend = 0, frame = 0
 436              		@ frame_needed = 0, uses_anonymous_args = 0
 437 0000 08B5     		push	{r3, lr}
 438              		.cfi_def_cfa_offset 8
 439              		.cfi_offset 3, -8
 440              		.cfi_offset 14, -4
 441              		.loc 1 276 0
 442 0002 074B     		ldr	r3, .L44
 443 0004 1968     		ldr	r1, [r3]
 444 0006 01F03D01 		and	r1, r1, #61
 445              	.LVL24:
 446              		.loc 1 277 0
 447 000a 9960     		str	r1, [r3, #8]
 448              		.loc 1 278 0
 449 000c 054B     		ldr	r3, .L44+4
 450 000e 1B6C     		ldr	r3, [r3, #64]
 451 0010 13B1     		cbz	r3, .L42
 452              		.loc 1 279 0
 453 0012 044A     		ldr	r2, .L44+4
 454 0014 506C     		ldr	r0, [r2, #68]
 455 0016 9847     		blx	r3
 456              	.LVL25:
ARM GAS  C:\Users\CHRIST~1\AppData\Local\Temp\ccFS16wJ.s 			page 9


 457              	.L42:
 458              		.loc 1 281 0
 459 0018 FFF7FEFF 		bl	_port_irq_epilogue
 460              	.LVL26:
 461              		.loc 1 282 0
 462 001c 08BD     		pop	{r3, pc}
 463              	.L45:
 464 001e 00BF     		.align	2
 465              	.L44:
 466 0020 00640240 		.word	1073898496
 467 0024 00000000 		.word	.LANCHOR0
 468              		.cfi_endproc
 469              	.LFE268:
 470              		.size	Vector120, .-Vector120
 471              		.section	.text.Vector124,"ax",%progbits
 472              		.align	1
 473              		.p2align 4,,15
 474              		.global	Vector124
 475              		.syntax unified
 476              		.thumb
 477              		.thumb_func
 478              		.fpu fpv4-sp-d16
 479              		.type	Vector124, %function
 480              	Vector124:
 481              	.LFB269:
 482              		.loc 1 289 0
 483              		.cfi_startproc
 484              		@ args = 0, pretend = 0, frame = 0
 485              		@ frame_needed = 0, uses_anonymous_args = 0
 486 0000 08B5     		push	{r3, lr}
 487              		.cfi_def_cfa_offset 8
 488              		.cfi_offset 3, -8
 489              		.cfi_offset 14, -4
 490              		.loc 1 294 0
 491 0002 084B     		ldr	r3, .L49
 492 0004 1968     		ldr	r1, [r3]
 493 0006 8909     		lsrs	r1, r1, #6
 494 0008 01F03D01 		and	r1, r1, #61
 495              	.LVL27:
 496              		.loc 1 295 0
 497 000c 8A01     		lsls	r2, r1, #6
 498 000e 9A60     		str	r2, [r3, #8]
 499              		.loc 1 296 0
 500 0010 054B     		ldr	r3, .L49+4
 501 0012 9B6C     		ldr	r3, [r3, #72]
 502 0014 13B1     		cbz	r3, .L47
 503              		.loc 1 297 0
 504 0016 044A     		ldr	r2, .L49+4
 505 0018 D06C     		ldr	r0, [r2, #76]
 506 001a 9847     		blx	r3
 507              	.LVL28:
 508              	.L47:
 509              		.loc 1 299 0
 510 001c FFF7FEFF 		bl	_port_irq_epilogue
 511              	.LVL29:
 512              		.loc 1 300 0
 513 0020 08BD     		pop	{r3, pc}
ARM GAS  C:\Users\CHRIST~1\AppData\Local\Temp\ccFS16wJ.s 			page 10


 514              	.L50:
 515 0022 00BF     		.align	2
 516              	.L49:
 517 0024 00640240 		.word	1073898496
 518 0028 00000000 		.word	.LANCHOR0
 519              		.cfi_endproc
 520              	.LFE269:
 521              		.size	Vector124, .-Vector124
 522              		.section	.text.Vector128,"ax",%progbits
 523              		.align	1
 524              		.p2align 4,,15
 525              		.global	Vector128
 526              		.syntax unified
 527              		.thumb
 528              		.thumb_func
 529              		.fpu fpv4-sp-d16
 530              		.type	Vector128, %function
 531              	Vector128:
 532              	.LFB270:
 533              		.loc 1 307 0
 534              		.cfi_startproc
 535              		@ args = 0, pretend = 0, frame = 0
 536              		@ frame_needed = 0, uses_anonymous_args = 0
 537 0000 08B5     		push	{r3, lr}
 538              		.cfi_def_cfa_offset 8
 539              		.cfi_offset 3, -8
 540              		.cfi_offset 14, -4
 541              		.loc 1 312 0
 542 0002 084B     		ldr	r3, .L54
 543 0004 1968     		ldr	r1, [r3]
 544 0006 090C     		lsrs	r1, r1, #16
 545 0008 01F03D01 		and	r1, r1, #61
 546              	.LVL30:
 547              		.loc 1 313 0
 548 000c 0A04     		lsls	r2, r1, #16
 549 000e 9A60     		str	r2, [r3, #8]
 550              		.loc 1 314 0
 551 0010 054B     		ldr	r3, .L54+4
 552 0012 1B6D     		ldr	r3, [r3, #80]
 553 0014 13B1     		cbz	r3, .L52
 554              		.loc 1 315 0
 555 0016 044A     		ldr	r2, .L54+4
 556 0018 506D     		ldr	r0, [r2, #84]
 557 001a 9847     		blx	r3
 558              	.LVL31:
 559              	.L52:
 560              		.loc 1 317 0
 561 001c FFF7FEFF 		bl	_port_irq_epilogue
 562              	.LVL32:
 563              		.loc 1 318 0
 564 0020 08BD     		pop	{r3, pc}
 565              	.L55:
 566 0022 00BF     		.align	2
 567              	.L54:
 568 0024 00640240 		.word	1073898496
 569 0028 00000000 		.word	.LANCHOR0
 570              		.cfi_endproc
ARM GAS  C:\Users\CHRIST~1\AppData\Local\Temp\ccFS16wJ.s 			page 11


 571              	.LFE270:
 572              		.size	Vector128, .-Vector128
 573              		.section	.text.Vector12C,"ax",%progbits
 574              		.align	1
 575              		.p2align 4,,15
 576              		.global	Vector12C
 577              		.syntax unified
 578              		.thumb
 579              		.thumb_func
 580              		.fpu fpv4-sp-d16
 581              		.type	Vector12C, %function
 582              	Vector12C:
 583              	.LFB271:
 584              		.loc 1 325 0
 585              		.cfi_startproc
 586              		@ args = 0, pretend = 0, frame = 0
 587              		@ frame_needed = 0, uses_anonymous_args = 0
 588 0000 08B5     		push	{r3, lr}
 589              		.cfi_def_cfa_offset 8
 590              		.cfi_offset 3, -8
 591              		.cfi_offset 14, -4
 592              		.loc 1 330 0
 593 0002 084B     		ldr	r3, .L59
 594 0004 1968     		ldr	r1, [r3]
 595 0006 890D     		lsrs	r1, r1, #22
 596 0008 01F03D01 		and	r1, r1, #61
 597              	.LVL33:
 598              		.loc 1 331 0
 599 000c 8A05     		lsls	r2, r1, #22
 600 000e 9A60     		str	r2, [r3, #8]
 601              		.loc 1 332 0
 602 0010 054B     		ldr	r3, .L59+4
 603 0012 9B6D     		ldr	r3, [r3, #88]
 604 0014 13B1     		cbz	r3, .L57
 605              		.loc 1 333 0
 606 0016 044A     		ldr	r2, .L59+4
 607 0018 D06D     		ldr	r0, [r2, #92]
 608 001a 9847     		blx	r3
 609              	.LVL34:
 610              	.L57:
 611              		.loc 1 335 0
 612 001c FFF7FEFF 		bl	_port_irq_epilogue
 613              	.LVL35:
 614              		.loc 1 336 0
 615 0020 08BD     		pop	{r3, pc}
 616              	.L60:
 617 0022 00BF     		.align	2
 618              	.L59:
 619 0024 00640240 		.word	1073898496
 620 0028 00000000 		.word	.LANCHOR0
 621              		.cfi_endproc
 622              	.LFE271:
 623              		.size	Vector12C, .-Vector12C
 624              		.section	.text.Vector130,"ax",%progbits
 625              		.align	1
 626              		.p2align 4,,15
 627              		.global	Vector130
ARM GAS  C:\Users\CHRIST~1\AppData\Local\Temp\ccFS16wJ.s 			page 12


 628              		.syntax unified
 629              		.thumb
 630              		.thumb_func
 631              		.fpu fpv4-sp-d16
 632              		.type	Vector130, %function
 633              	Vector130:
 634              	.LFB272:
 635              		.loc 1 343 0
 636              		.cfi_startproc
 637              		@ args = 0, pretend = 0, frame = 0
 638              		@ frame_needed = 0, uses_anonymous_args = 0
 639 0000 08B5     		push	{r3, lr}
 640              		.cfi_def_cfa_offset 8
 641              		.cfi_offset 3, -8
 642              		.cfi_offset 14, -4
 643              		.loc 1 348 0
 644 0002 074B     		ldr	r3, .L64
 645 0004 5968     		ldr	r1, [r3, #4]
 646 0006 01F03D01 		and	r1, r1, #61
 647              	.LVL36:
 648              		.loc 1 349 0
 649 000a D960     		str	r1, [r3, #12]
 650              		.loc 1 350 0
 651 000c 054B     		ldr	r3, .L64+4
 652 000e 1B6E     		ldr	r3, [r3, #96]
 653 0010 13B1     		cbz	r3, .L62
 654              		.loc 1 351 0
 655 0012 044A     		ldr	r2, .L64+4
 656 0014 506E     		ldr	r0, [r2, #100]
 657 0016 9847     		blx	r3
 658              	.LVL37:
 659              	.L62:
 660              		.loc 1 353 0
 661 0018 FFF7FEFF 		bl	_port_irq_epilogue
 662              	.LVL38:
 663              		.loc 1 354 0
 664 001c 08BD     		pop	{r3, pc}
 665              	.L65:
 666 001e 00BF     		.align	2
 667              	.L64:
 668 0020 00640240 		.word	1073898496
 669 0024 00000000 		.word	.LANCHOR0
 670              		.cfi_endproc
 671              	.LFE272:
 672              		.size	Vector130, .-Vector130
 673              		.section	.text.Vector150,"ax",%progbits
 674              		.align	1
 675              		.p2align 4,,15
 676              		.global	Vector150
 677              		.syntax unified
 678              		.thumb
 679              		.thumb_func
 680              		.fpu fpv4-sp-d16
 681              		.type	Vector150, %function
 682              	Vector150:
 683              	.LFB273:
 684              		.loc 1 361 0
ARM GAS  C:\Users\CHRIST~1\AppData\Local\Temp\ccFS16wJ.s 			page 13


 685              		.cfi_startproc
 686              		@ args = 0, pretend = 0, frame = 0
 687              		@ frame_needed = 0, uses_anonymous_args = 0
 688 0000 08B5     		push	{r3, lr}
 689              		.cfi_def_cfa_offset 8
 690              		.cfi_offset 3, -8
 691              		.cfi_offset 14, -4
 692              		.loc 1 366 0
 693 0002 084B     		ldr	r3, .L69
 694 0004 5968     		ldr	r1, [r3, #4]
 695 0006 8909     		lsrs	r1, r1, #6
 696 0008 01F03D01 		and	r1, r1, #61
 697              	.LVL39:
 698              		.loc 1 367 0
 699 000c 8A01     		lsls	r2, r1, #6
 700 000e DA60     		str	r2, [r3, #12]
 701              		.loc 1 368 0
 702 0010 054B     		ldr	r3, .L69+4
 703 0012 9B6E     		ldr	r3, [r3, #104]
 704 0014 13B1     		cbz	r3, .L67
 705              		.loc 1 369 0
 706 0016 044A     		ldr	r2, .L69+4
 707 0018 D06E     		ldr	r0, [r2, #108]
 708 001a 9847     		blx	r3
 709              	.LVL40:
 710              	.L67:
 711              		.loc 1 371 0
 712 001c FFF7FEFF 		bl	_port_irq_epilogue
 713              	.LVL41:
 714              		.loc 1 372 0
 715 0020 08BD     		pop	{r3, pc}
 716              	.L70:
 717 0022 00BF     		.align	2
 718              	.L69:
 719 0024 00640240 		.word	1073898496
 720 0028 00000000 		.word	.LANCHOR0
 721              		.cfi_endproc
 722              	.LFE273:
 723              		.size	Vector150, .-Vector150
 724              		.section	.text.Vector154,"ax",%progbits
 725              		.align	1
 726              		.p2align 4,,15
 727              		.global	Vector154
 728              		.syntax unified
 729              		.thumb
 730              		.thumb_func
 731              		.fpu fpv4-sp-d16
 732              		.type	Vector154, %function
 733              	Vector154:
 734              	.LFB274:
 735              		.loc 1 379 0
 736              		.cfi_startproc
 737              		@ args = 0, pretend = 0, frame = 0
 738              		@ frame_needed = 0, uses_anonymous_args = 0
 739 0000 08B5     		push	{r3, lr}
 740              		.cfi_def_cfa_offset 8
 741              		.cfi_offset 3, -8
ARM GAS  C:\Users\CHRIST~1\AppData\Local\Temp\ccFS16wJ.s 			page 14


 742              		.cfi_offset 14, -4
 743              		.loc 1 384 0
 744 0002 084B     		ldr	r3, .L74
 745 0004 5968     		ldr	r1, [r3, #4]
 746 0006 090C     		lsrs	r1, r1, #16
 747 0008 01F03D01 		and	r1, r1, #61
 748              	.LVL42:
 749              		.loc 1 385 0
 750 000c 0A04     		lsls	r2, r1, #16
 751 000e DA60     		str	r2, [r3, #12]
 752              		.loc 1 386 0
 753 0010 054B     		ldr	r3, .L74+4
 754 0012 1B6F     		ldr	r3, [r3, #112]
 755 0014 13B1     		cbz	r3, .L72
 756              		.loc 1 387 0
 757 0016 044A     		ldr	r2, .L74+4
 758 0018 506F     		ldr	r0, [r2, #116]
 759 001a 9847     		blx	r3
 760              	.LVL43:
 761              	.L72:
 762              		.loc 1 389 0
 763 001c FFF7FEFF 		bl	_port_irq_epilogue
 764              	.LVL44:
 765              		.loc 1 390 0
 766 0020 08BD     		pop	{r3, pc}
 767              	.L75:
 768 0022 00BF     		.align	2
 769              	.L74:
 770 0024 00640240 		.word	1073898496
 771 0028 00000000 		.word	.LANCHOR0
 772              		.cfi_endproc
 773              	.LFE274:
 774              		.size	Vector154, .-Vector154
 775              		.section	.text.Vector158,"ax",%progbits
 776              		.align	1
 777              		.p2align 4,,15
 778              		.global	Vector158
 779              		.syntax unified
 780              		.thumb
 781              		.thumb_func
 782              		.fpu fpv4-sp-d16
 783              		.type	Vector158, %function
 784              	Vector158:
 785              	.LFB275:
 786              		.loc 1 397 0
 787              		.cfi_startproc
 788              		@ args = 0, pretend = 0, frame = 0
 789              		@ frame_needed = 0, uses_anonymous_args = 0
 790 0000 08B5     		push	{r3, lr}
 791              		.cfi_def_cfa_offset 8
 792              		.cfi_offset 3, -8
 793              		.cfi_offset 14, -4
 794              		.loc 1 402 0
 795 0002 084B     		ldr	r3, .L79
 796 0004 5968     		ldr	r1, [r3, #4]
 797 0006 890D     		lsrs	r1, r1, #22
 798 0008 01F03D01 		and	r1, r1, #61
ARM GAS  C:\Users\CHRIST~1\AppData\Local\Temp\ccFS16wJ.s 			page 15


 799              	.LVL45:
 800              		.loc 1 403 0
 801 000c 8A05     		lsls	r2, r1, #22
 802 000e DA60     		str	r2, [r3, #12]
 803              		.loc 1 404 0
 804 0010 054B     		ldr	r3, .L79+4
 805 0012 9B6F     		ldr	r3, [r3, #120]
 806 0014 13B1     		cbz	r3, .L77
 807              		.loc 1 405 0
 808 0016 044A     		ldr	r2, .L79+4
 809 0018 D06F     		ldr	r0, [r2, #124]
 810 001a 9847     		blx	r3
 811              	.LVL46:
 812              	.L77:
 813              		.loc 1 407 0
 814 001c FFF7FEFF 		bl	_port_irq_epilogue
 815              	.LVL47:
 816              		.loc 1 408 0
 817 0020 08BD     		pop	{r3, pc}
 818              	.L80:
 819 0022 00BF     		.align	2
 820              	.L79:
 821 0024 00640240 		.word	1073898496
 822 0028 00000000 		.word	.LANCHOR0
 823              		.cfi_endproc
 824              	.LFE275:
 825              		.size	Vector158, .-Vector158
 826              		.section	.text.dmaInit,"ax",%progbits
 827              		.align	1
 828              		.p2align 4,,15
 829              		.global	dmaInit
 830              		.syntax unified
 831              		.thumb
 832              		.thumb_func
 833              		.fpu fpv4-sp-d16
 834              		.type	dmaInit, %function
 835              	dmaInit:
 836              	.LFB276:
 837              		.loc 1 419 0
 838              		.cfi_startproc
 839              		@ args = 0, pretend = 0, frame = 0
 840              		@ frame_needed = 0, uses_anonymous_args = 0
 841              		@ link register save eliminated.
 842 0000 10B4     		push	{r4}
 843              		.cfi_def_cfa_offset 4
 844              		.cfi_offset 4, -4
 845              		.loc 1 422 0
 846 0002 0023     		movs	r3, #0
 847 0004 0C4A     		ldr	r2, .L85
 848 0006 1360     		str	r3, [r2]
 849              	.LVL48:
 850 0008 0C49     		ldr	r1, .L85+4
 851              		.loc 1 424 0
 852 000a 1A46     		mov	r2, r3
 853              		.loc 1 425 0
 854 000c 0C4C     		ldr	r4, .L85+8
 855              	.LVL49:
ARM GAS  C:\Users\CHRIST~1\AppData\Local\Temp\ccFS16wJ.s 			page 16


 856              	.L82:
 857              		.loc 1 424 0 discriminator 3
 858 000e 51F80C0B 		ldr	r0, [r1], #12
 859 0012 0260     		str	r2, [r0]
 860              		.loc 1 425 0 discriminator 3
 861 0014 44F83320 		str	r2, [r4, r3, lsl #3]
 862              		.loc 1 423 0 discriminator 3
 863 0018 0133     		adds	r3, r3, #1
 864              	.LVL50:
 865 001a 102B     		cmp	r3, #16
 866 001c F7D1     		bne	.L82
 867              		.loc 1 427 0
 868 001e 094A     		ldr	r2, .L85+12
 869 0020 4FF0FF33 		mov	r3, #-1
 870              	.LVL51:
 871 0024 9360     		str	r3, [r2, #8]
 872              		.loc 1 428 0
 873 0026 D360     		str	r3, [r2, #12]
 874              		.loc 1 429 0
 875 0028 02F58062 		add	r2, r2, #1024
 876 002c 9360     		str	r3, [r2, #8]
 877              		.loc 1 430 0
 878 002e D360     		str	r3, [r2, #12]
 879              		.loc 1 431 0
 880 0030 5DF8044B 		ldr	r4, [sp], #4
 881              		.cfi_restore 4
 882              		.cfi_def_cfa_offset 0
 883 0034 7047     		bx	lr
 884              	.L86:
 885 0036 00BF     		.align	2
 886              	.L85:
 887 0038 00000000 		.word	.LANCHOR1
 888 003c 00000000 		.word	.LANCHOR2
 889 0040 00000000 		.word	.LANCHOR0
 890 0044 00600240 		.word	1073897472
 891              		.cfi_endproc
 892              	.LFE276:
 893              		.size	dmaInit, .-dmaInit
 894              		.section	.text.dmaStreamAllocate,"ax",%progbits
 895              		.align	1
 896              		.p2align 4,,15
 897              		.global	dmaStreamAllocate
 898              		.syntax unified
 899              		.thumb
 900              		.thumb_func
 901              		.fpu fpv4-sp-d16
 902              		.type	dmaStreamAllocate, %function
 903              	dmaStreamAllocate:
 904              	.LFB277:
 905              		.loc 1 460 0
 906              		.cfi_startproc
 907              		@ args = 0, pretend = 0, frame = 0
 908              		@ frame_needed = 0, uses_anonymous_args = 0
 909              	.LVL52:
 910 0000 70B5     		push	{r4, r5, r6, lr}
 911              		.cfi_def_cfa_offset 16
 912              		.cfi_offset 4, -16
ARM GAS  C:\Users\CHRIST~1\AppData\Local\Temp\ccFS16wJ.s 			page 17


 913              		.cfi_offset 5, -12
 914              		.cfi_offset 6, -8
 915              		.cfi_offset 14, -4
 916              		.loc 1 465 0
 917 0002 467A     		ldrb	r6, [r0, #9]	@ zero_extendqisi2
 918 0004 204C     		ldr	r4, .L96
 919 0006 2568     		ldr	r5, [r4]
 920 0008 0124     		movs	r4, #1
 921 000a B440     		lsls	r4, r4, r6
 922 000c 2C42     		tst	r4, r5
 923 000e 37D1     		bne	.L92
 924              		.loc 1 469 0
 925 0010 1E4C     		ldr	r4, .L96+4
 926 0012 44F83620 		str	r2, [r4, r6, lsl #3]
 927              		.loc 1 470 0
 928 0016 467A     		ldrb	r6, [r0, #9]	@ zero_extendqisi2
 929 0018 04EBC604 		add	r4, r4, r6, lsl #3
 930 001c 6360     		str	r3, [r4, #4]
 931              		.loc 1 471 0
 932 001e 447A     		ldrb	r4, [r0, #9]	@ zero_extendqisi2
 933 0020 0123     		movs	r3, #1
 934              	.LVL53:
 935 0022 A340     		lsls	r3, r3, r4
 936 0024 2B43     		orrs	r3, r3, r5
 937 0026 184C     		ldr	r4, .L96
 938 0028 2360     		str	r3, [r4]
 939              		.loc 1 474 0
 940 002a 13F0FF0F 		tst	r3, #255
 941 002e 04D0     		beq	.L89
 942              		.loc 1 475 0
 943 0030 174D     		ldr	r5, .L96+8
 944 0032 2C6B     		ldr	r4, [r5, #48]
 945 0034 44F40014 		orr	r4, r4, #2097152
 946 0038 2C63     		str	r4, [r5, #48]
 947              	.LVL54:
 948              	.L89:
 949              		.loc 1 476 0
 950 003a 13F47F4F 		tst	r3, #65280
 951 003e 04D0     		beq	.L90
 952              		.loc 1 477 0
 953 0040 134C     		ldr	r4, .L96+8
 954 0042 236B     		ldr	r3, [r4, #48]
 955 0044 43F48003 		orr	r3, r3, #4194304
 956 0048 2363     		str	r3, [r4, #48]
 957              	.L90:
 958              		.loc 1 480 0
 959 004a 0468     		ldr	r4, [r0]
 960 004c 2368     		ldr	r3, [r4]
 961 004e 23F01F03 		bic	r3, r3, #31
 962 0052 2360     		str	r3, [r4]
 963 0054 0468     		ldr	r4, [r0]
 964              	.L91:
 965              		.loc 1 480 0 is_stmt 0 discriminator 2
 966 0056 2368     		ldr	r3, [r4]
 967 0058 13F0010F 		tst	r3, #1
 968 005c FBD1     		bne	.L91
 969              		.loc 1 480 0 discriminator 3
ARM GAS  C:\Users\CHRIST~1\AppData\Local\Temp\ccFS16wJ.s 			page 18


 970 005e 4468     		ldr	r4, [r0, #4]
 971 0060 057A     		ldrb	r5, [r0, #8]	@ zero_extendqisi2
 972 0062 3D23     		movs	r3, #61
 973 0064 AB40     		lsls	r3, r3, r5
 974 0066 2360     		str	r3, [r4]
 975              		.loc 1 481 0 is_stmt 1 discriminator 3
 976 0068 0368     		ldr	r3, [r0]
 977 006a 0024     		movs	r4, #0
 978 006c 1C60     		str	r4, [r3]
 979              		.loc 1 482 0 discriminator 3
 980 006e 0368     		ldr	r3, [r0]
 981 0070 2124     		movs	r4, #33
 982 0072 5C61     		str	r4, [r3, #20]
 983              		.loc 1 485 0 discriminator 3
 984 0074 32B1     		cbz	r2, .L93
 985              		.loc 1 486 0
 986 0076 807A     		ldrb	r0, [r0, #10]	@ zero_extendqisi2
 987              	.LVL55:
 988 0078 FFF7FEFF 		bl	nvicEnableVector
 989              	.LVL56:
 990              		.loc 1 488 0
 991 007c 0020     		movs	r0, #0
 992 007e 00E0     		b	.L88
 993              	.LVL57:
 994              	.L92:
 995              		.loc 1 466 0
 996 0080 0120     		movs	r0, #1
 997              	.LVL58:
 998              	.L88:
 999              		.loc 1 489 0
 1000 0082 70BD     		pop	{r4, r5, r6, pc}
 1001              	.LVL59:
 1002              	.L93:
 1003              		.loc 1 488 0
 1004 0084 0020     		movs	r0, #0
 1005              	.LVL60:
 1006 0086 FCE7     		b	.L88
 1007              	.L97:
 1008              		.align	2
 1009              	.L96:
 1010 0088 00000000 		.word	.LANCHOR1
 1011 008c 00000000 		.word	.LANCHOR0
 1012 0090 00380240 		.word	1073887232
 1013              		.cfi_endproc
 1014              	.LFE277:
 1015              		.size	dmaStreamAllocate, .-dmaStreamAllocate
 1016              		.section	.text.dmaStreamRelease,"ax",%progbits
 1017              		.align	1
 1018              		.p2align 4,,15
 1019              		.global	dmaStreamRelease
 1020              		.syntax unified
 1021              		.thumb
 1022              		.thumb_func
 1023              		.fpu fpv4-sp-d16
 1024              		.type	dmaStreamRelease, %function
 1025              	dmaStreamRelease:
 1026              	.LFB278:
ARM GAS  C:\Users\CHRIST~1\AppData\Local\Temp\ccFS16wJ.s 			page 19


 1027              		.loc 1 504 0
 1028              		.cfi_startproc
 1029              		@ args = 0, pretend = 0, frame = 0
 1030              		@ frame_needed = 0, uses_anonymous_args = 0
 1031              	.LVL61:
 1032 0000 10B5     		push	{r4, lr}
 1033              		.cfi_def_cfa_offset 8
 1034              		.cfi_offset 4, -8
 1035              		.cfi_offset 14, -4
 1036 0002 0446     		mov	r4, r0
 1037              		.loc 1 513 0
 1038 0004 807A     		ldrb	r0, [r0, #10]	@ zero_extendqisi2
 1039              	.LVL62:
 1040 0006 FFF7FEFF 		bl	nvicDisableVector
 1041              	.LVL63:
 1042              		.loc 1 516 0
 1043 000a 627A     		ldrb	r2, [r4, #9]	@ zero_extendqisi2
 1044 000c 0123     		movs	r3, #1
 1045 000e 03FA02F2 		lsl	r2, r3, r2
 1046 0012 0B49     		ldr	r1, .L102
 1047 0014 0B68     		ldr	r3, [r1]
 1048 0016 23EA0203 		bic	r3, r3, r2
 1049 001a 0B60     		str	r3, [r1]
 1050              		.loc 1 519 0
 1051 001c 13F0FF0F 		tst	r3, #255
 1052 0020 04D1     		bne	.L99
 1053              		.loc 1 520 0
 1054 0022 0849     		ldr	r1, .L102+4
 1055 0024 0A6B     		ldr	r2, [r1, #48]
 1056 0026 22F40012 		bic	r2, r2, #2097152
 1057 002a 0A63     		str	r2, [r1, #48]
 1058              	.L99:
 1059              		.loc 1 521 0
 1060 002c 13F47F4F 		tst	r3, #65280
 1061 0030 04D1     		bne	.L98
 1062              		.loc 1 522 0
 1063 0032 044A     		ldr	r2, .L102+4
 1064 0034 136B     		ldr	r3, [r2, #48]
 1065 0036 23F48003 		bic	r3, r3, #4194304
 1066 003a 1363     		str	r3, [r2, #48]
 1067              	.L98:
 1068              		.loc 1 523 0
 1069 003c 10BD     		pop	{r4, pc}
 1070              	.LVL64:
 1071              	.L103:
 1072 003e 00BF     		.align	2
 1073              	.L102:
 1074 0040 00000000 		.word	.LANCHOR1
 1075 0044 00380240 		.word	1073887232
 1076              		.cfi_endproc
 1077              	.LFE278:
 1078              		.size	dmaStreamRelease, .-dmaStreamRelease
 1079              		.global	_stm32_dma_streams
 1080              		.section	.bss.dma_isr_redir,"aw",%nobits
 1081              		.align	2
 1082              		.set	.LANCHOR0,. + 0
 1083              		.type	dma_isr_redir, %object
ARM GAS  C:\Users\CHRIST~1\AppData\Local\Temp\ccFS16wJ.s 			page 20


 1084              		.size	dma_isr_redir, 128
 1085              	dma_isr_redir:
 1086 0000 00000000 		.space	128
 1086      00000000 
 1086      00000000 
 1086      00000000 
 1086      00000000 
 1087              		.section	.bss.dma_streams_mask,"aw",%nobits
 1088              		.align	2
 1089              		.set	.LANCHOR1,. + 0
 1090              		.type	dma_streams_mask, %object
 1091              		.size	dma_streams_mask, 4
 1092              	dma_streams_mask:
 1093 0000 00000000 		.space	4
 1094              		.section	.rodata._stm32_dma_streams,"a",%progbits
 1095              		.align	2
 1096              		.set	.LANCHOR2,. + 0
 1097              		.type	_stm32_dma_streams, %object
 1098              		.size	_stm32_dma_streams, 192
 1099              	_stm32_dma_streams:
 1100 0000 10600240 		.word	1073897488
 1101 0004 08600240 		.word	1073897480
 1102 0008 00       		.byte	0
 1103 0009 00       		.byte	0
 1104 000a 0B       		.byte	11
 1105 000b 00       		.space	1
 1106 000c 28600240 		.word	1073897512
 1107 0010 08600240 		.word	1073897480
 1108 0014 06       		.byte	6
 1109 0015 01       		.byte	1
 1110 0016 0C       		.byte	12
 1111 0017 00       		.space	1
 1112 0018 40600240 		.word	1073897536
 1113 001c 08600240 		.word	1073897480
 1114 0020 10       		.byte	16
 1115 0021 02       		.byte	2
 1116 0022 0D       		.byte	13
 1117 0023 00       		.space	1
 1118 0024 58600240 		.word	1073897560
 1119 0028 08600240 		.word	1073897480
 1120 002c 16       		.byte	22
 1121 002d 03       		.byte	3
 1122 002e 0E       		.byte	14
 1123 002f 00       		.space	1
 1124 0030 70600240 		.word	1073897584
 1125 0034 0C600240 		.word	1073897484
 1126 0038 00       		.byte	0
 1127 0039 04       		.byte	4
 1128 003a 0F       		.byte	15
 1129 003b 00       		.space	1
 1130 003c 88600240 		.word	1073897608
 1131 0040 0C600240 		.word	1073897484
 1132 0044 06       		.byte	6
 1133 0045 05       		.byte	5
 1134 0046 10       		.byte	16
 1135 0047 00       		.space	1
 1136 0048 A0600240 		.word	1073897632
ARM GAS  C:\Users\CHRIST~1\AppData\Local\Temp\ccFS16wJ.s 			page 21


 1137 004c 0C600240 		.word	1073897484
 1138 0050 10       		.byte	16
 1139 0051 06       		.byte	6
 1140 0052 11       		.byte	17
 1141 0053 00       		.space	1
 1142 0054 B8600240 		.word	1073897656
 1143 0058 0C600240 		.word	1073897484
 1144 005c 16       		.byte	22
 1145 005d 07       		.byte	7
 1146 005e 2F       		.byte	47
 1147 005f 00       		.space	1
 1148 0060 10640240 		.word	1073898512
 1149 0064 08640240 		.word	1073898504
 1150 0068 00       		.byte	0
 1151 0069 08       		.byte	8
 1152 006a 38       		.byte	56
 1153 006b 00       		.space	1
 1154 006c 28640240 		.word	1073898536
 1155 0070 08640240 		.word	1073898504
 1156 0074 06       		.byte	6
 1157 0075 09       		.byte	9
 1158 0076 39       		.byte	57
 1159 0077 00       		.space	1
 1160 0078 40640240 		.word	1073898560
 1161 007c 08640240 		.word	1073898504
 1162 0080 10       		.byte	16
 1163 0081 0A       		.byte	10
 1164 0082 3A       		.byte	58
 1165 0083 00       		.space	1
 1166 0084 58640240 		.word	1073898584
 1167 0088 08640240 		.word	1073898504
 1168 008c 16       		.byte	22
 1169 008d 0B       		.byte	11
 1170 008e 3B       		.byte	59
 1171 008f 00       		.space	1
 1172 0090 70640240 		.word	1073898608
 1173 0094 0C640240 		.word	1073898508
 1174 0098 00       		.byte	0
 1175 0099 0C       		.byte	12
 1176 009a 3C       		.byte	60
 1177 009b 00       		.space	1
 1178 009c 88640240 		.word	1073898632
 1179 00a0 0C640240 		.word	1073898508
 1180 00a4 06       		.byte	6
 1181 00a5 0D       		.byte	13
 1182 00a6 44       		.byte	68
 1183 00a7 00       		.space	1
 1184 00a8 A0640240 		.word	1073898656
 1185 00ac 0C640240 		.word	1073898508
 1186 00b0 10       		.byte	16
 1187 00b1 0E       		.byte	14
 1188 00b2 45       		.byte	69
 1189 00b3 00       		.space	1
 1190 00b4 B8640240 		.word	1073898680
 1191 00b8 0C640240 		.word	1073898508
 1192 00bc 16       		.byte	22
 1193 00bd 0F       		.byte	15
ARM GAS  C:\Users\CHRIST~1\AppData\Local\Temp\ccFS16wJ.s 			page 22


 1194 00be 46       		.byte	70
 1195 00bf 00       		.space	1
 1196              		.text
 1197              	.Letext0:
 1198              		.file 2 "c:\\program files (x86)\\gnu tools arm embedded\\7 2017-q4-major\\lib\\gcc\\arm-none-eabi
 1199              		.file 3 "c:\\program files (x86)\\gnu tools arm embedded\\7 2017-q4-major\\arm-none-eabi\\include\
 1200              		.file 4 "c:\\program files (x86)\\gnu tools arm embedded\\7 2017-q4-major\\arm-none-eabi\\include\
 1201              		.file 5 "ChibiOS_3.0.2/os/rt/ports/ARMCMx/compilers/GCC/chtypes.h"
 1202              		.file 6 "ChibiOS_3.0.2/os/rt/include/chsystypes.h"
 1203              		.file 7 "ChibiOS_3.0.2/os/rt/include/chschd.h"
 1204              		.file 8 "ChibiOS_3.0.2/os/ext/CMSIS/include/core_cm4.h"
 1205              		.file 9 "ChibiOS_3.0.2/os/ext/CMSIS/ST/system_stm32f4xx.h"
 1206              		.file 10 "ChibiOS_3.0.2/os/ext/CMSIS/ST/stm32f407xx.h"
 1207              		.file 11 "ChibiOS_3.0.2/os/rt/ports/ARMCMx/chcore.h"
 1208              		.file 12 "ChibiOS_3.0.2/os/rt/ports/ARMCMx/chcore_v7m.h"
 1209              		.file 13 "ChibiOS_3.0.2/os/rt/include/chtm.h"
 1210              		.file 14 "ChibiOS_3.0.2/os/rt/include/chsem.h"
 1211              		.file 15 "ChibiOS_3.0.2/os/rt/include/chmtx.h"
 1212              		.file 16 "ChibiOS_3.0.2/os/rt/include/chregistry.h"
 1213              		.file 17 "ChibiOS_3.0.2/os/rt/include/chevents.h"
 1214              		.file 18 "ChibiOS_3.0.2/os/rt/include/chqueues.h"
 1215              		.file 19 "ChibiOS_3.0.2/os/hal/ports/STM32/STM32F4xx/stm32_dma.h"
 1216              		.file 20 "ChibiOS_3.0.2/os/hal/ports/STM32/LLD/GPIOv2/pal_lld.h"
 1217              		.file 21 "ChibiOS_3.0.2/os/hal/include/i2c.h"
 1218              		.file 22 "ChibiOS_3.0.2/os/hal/ports/STM32/LLD/I2Cv1/i2c_lld.h"
 1219              		.file 23 "ChibiOS_3.0.2/os/hal/include/serial.h"
 1220              		.file 24 "ChibiOS_3.0.2/os/hal/ports/STM32/LLD/USARTv1/serial_lld.h"
 1221              		.file 25 "ChibiOS_3.0.2/os/hal/include/usb.h"
 1222              		.file 26 "ChibiOS_3.0.2/os/hal/ports/STM32/LLD/OTGv1/usb_lld.h"
 1223              		.file 27 "ChibiOS_3.0.2/os/hal/ports/STM32/LLD/OTGv1/stm32_otg.h"
 1224              		.file 28 "ChibiOS_3.0.2/os/hal/ports/common/ARMCMx/nvic.h"
