ARM GAS  C:\Users\CHRIST~1\AppData\Local\Temp\ccWwuLje.s 			page 1


   1              		.cpu cortex-m4
   2              		.eabi_attribute 27, 1
   3              		.eabi_attribute 28, 1
   4              		.eabi_attribute 20, 1
   5              		.eabi_attribute 21, 1
   6              		.eabi_attribute 23, 3
   7              		.eabi_attribute 24, 1
   8              		.eabi_attribute 25, 1
   9              		.eabi_attribute 26, 1
  10              		.eabi_attribute 30, 1
  11              		.eabi_attribute 34, 1
  12              		.eabi_attribute 18, 4
  13              		.file	"vectors.c"
  14              		.text
  15              	.Ltext0:
  16              		.cfi_sections	.debug_frame
  17              		.section	.text._unhandled_exception,"ax",%progbits
  18              		.align	1
  19              		.p2align 4,,15
  20              		.global	_unhandled_exception
  21              		.syntax unified
  22              		.thumb
  23              		.thumb_func
  24              		.fpu fpv4-sp-d16
  25              		.type	_unhandled_exception, %function
  26              	_unhandled_exception:
  27              	.LFB112:
  28              		.file 1 "ChibiOS_3.0.2/os/common/ports/ARMCMx/compilers/GCC/vectors.c"
  29              		.loc 1 77 0
  30              		.cfi_startproc
  31              		@ Volatile: function does not return.
  32              		@ args = 0, pretend = 0, frame = 0
  33              		@ frame_needed = 0, uses_anonymous_args = 0
  34              		@ link register save eliminated.
  35              	.L2:
  36 0000 FEE7     		b	.L2
  37              		.cfi_endproc
  38              	.LFE112:
  39              		.size	_unhandled_exception, .-_unhandled_exception
  40              		.weak	Vector1BC
  41              		.thumb_set Vector1BC,_unhandled_exception
  42              		.weak	Vector1B8
  43              		.thumb_set Vector1B8,_unhandled_exception
  44              		.weak	Vector1B4
  45              		.thumb_set Vector1B4,_unhandled_exception
  46              		.weak	Vector1B0
  47              		.thumb_set Vector1B0,_unhandled_exception
  48              		.weak	Vector1AC
  49              		.thumb_set Vector1AC,_unhandled_exception
  50              		.weak	Vector1A8
  51              		.thumb_set Vector1A8,_unhandled_exception
  52              		.weak	Vector1A4
  53              		.thumb_set Vector1A4,_unhandled_exception
  54              		.weak	Vector1A0
  55              		.thumb_set Vector1A0,_unhandled_exception
  56              		.weak	Vector19C
  57              		.thumb_set Vector19C,_unhandled_exception
ARM GAS  C:\Users\CHRIST~1\AppData\Local\Temp\ccWwuLje.s 			page 2


  58              		.weak	Vector198
  59              		.thumb_set Vector198,_unhandled_exception
  60              		.weak	Vector194
  61              		.thumb_set Vector194,_unhandled_exception
  62              		.weak	Vector190
  63              		.thumb_set Vector190,_unhandled_exception
  64              		.weak	Vector18C
  65              		.thumb_set Vector18C,_unhandled_exception
  66              		.weak	Vector188
  67              		.thumb_set Vector188,_unhandled_exception
  68              		.weak	Vector184
  69              		.thumb_set Vector184,_unhandled_exception
  70              		.weak	Vector180
  71              		.thumb_set Vector180,_unhandled_exception
  72              		.weak	Vector17C
  73              		.thumb_set Vector17C,_unhandled_exception
  74              		.weak	Vector178
  75              		.thumb_set Vector178,_unhandled_exception
  76              		.weak	Vector174
  77              		.thumb_set Vector174,_unhandled_exception
  78              		.weak	Vector170
  79              		.thumb_set Vector170,_unhandled_exception
  80              		.weak	Vector16C
  81              		.thumb_set Vector16C,_unhandled_exception
  82              		.weak	Vector168
  83              		.thumb_set Vector168,_unhandled_exception
  84              		.weak	Vector164
  85              		.thumb_set Vector164,_unhandled_exception
  86              		.weak	Vector160
  87              		.thumb_set Vector160,_unhandled_exception
  88              		.weak	Vector15C
  89              		.thumb_set Vector15C,_unhandled_exception
  90              		.weak	Vector158
  91              		.thumb_set Vector158,_unhandled_exception
  92              		.weak	Vector154
  93              		.thumb_set Vector154,_unhandled_exception
  94              		.weak	Vector150
  95              		.thumb_set Vector150,_unhandled_exception
  96              		.weak	Vector14C
  97              		.thumb_set Vector14C,_unhandled_exception
  98              		.weak	Vector148
  99              		.thumb_set Vector148,_unhandled_exception
 100              		.weak	Vector144
 101              		.thumb_set Vector144,_unhandled_exception
 102              		.weak	Vector140
 103              		.thumb_set Vector140,_unhandled_exception
 104              		.weak	Vector13C
 105              		.thumb_set Vector13C,_unhandled_exception
 106              		.weak	Vector138
 107              		.thumb_set Vector138,_unhandled_exception
 108              		.weak	Vector134
 109              		.thumb_set Vector134,_unhandled_exception
 110              		.weak	Vector130
 111              		.thumb_set Vector130,_unhandled_exception
 112              		.weak	Vector12C
 113              		.thumb_set Vector12C,_unhandled_exception
 114              		.weak	Vector128
ARM GAS  C:\Users\CHRIST~1\AppData\Local\Temp\ccWwuLje.s 			page 3


 115              		.thumb_set Vector128,_unhandled_exception
 116              		.weak	Vector124
 117              		.thumb_set Vector124,_unhandled_exception
 118              		.weak	Vector120
 119              		.thumb_set Vector120,_unhandled_exception
 120              		.weak	Vector11C
 121              		.thumb_set Vector11C,_unhandled_exception
 122              		.weak	Vector118
 123              		.thumb_set Vector118,_unhandled_exception
 124              		.weak	Vector114
 125              		.thumb_set Vector114,_unhandled_exception
 126              		.weak	Vector110
 127              		.thumb_set Vector110,_unhandled_exception
 128              		.weak	Vector10C
 129              		.thumb_set Vector10C,_unhandled_exception
 130              		.weak	Vector108
 131              		.thumb_set Vector108,_unhandled_exception
 132              		.weak	Vector104
 133              		.thumb_set Vector104,_unhandled_exception
 134              		.weak	Vector100
 135              		.thumb_set Vector100,_unhandled_exception
 136              		.weak	VectorFC
 137              		.thumb_set VectorFC,_unhandled_exception
 138              		.weak	VectorF8
 139              		.thumb_set VectorF8,_unhandled_exception
 140              		.weak	VectorF4
 141              		.thumb_set VectorF4,_unhandled_exception
 142              		.weak	VectorF0
 143              		.thumb_set VectorF0,_unhandled_exception
 144              		.weak	VectorEC
 145              		.thumb_set VectorEC,_unhandled_exception
 146              		.weak	VectorE8
 147              		.thumb_set VectorE8,_unhandled_exception
 148              		.weak	VectorE4
 149              		.thumb_set VectorE4,_unhandled_exception
 150              		.weak	VectorE0
 151              		.thumb_set VectorE0,_unhandled_exception
 152              		.weak	VectorDC
 153              		.thumb_set VectorDC,_unhandled_exception
 154              		.weak	VectorD8
 155              		.thumb_set VectorD8,_unhandled_exception
 156              		.weak	VectorD4
 157              		.thumb_set VectorD4,_unhandled_exception
 158              		.weak	VectorD0
 159              		.thumb_set VectorD0,_unhandled_exception
 160              		.weak	VectorCC
 161              		.thumb_set VectorCC,_unhandled_exception
 162              		.weak	VectorC8
 163              		.thumb_set VectorC8,_unhandled_exception
 164              		.weak	VectorC4
 165              		.thumb_set VectorC4,_unhandled_exception
 166              		.weak	VectorC0
 167              		.thumb_set VectorC0,_unhandled_exception
 168              		.weak	VectorBC
 169              		.thumb_set VectorBC,_unhandled_exception
 170              		.weak	VectorB8
 171              		.thumb_set VectorB8,_unhandled_exception
ARM GAS  C:\Users\CHRIST~1\AppData\Local\Temp\ccWwuLje.s 			page 4


 172              		.weak	VectorB4
 173              		.thumb_set VectorB4,_unhandled_exception
 174              		.weak	VectorB0
 175              		.thumb_set VectorB0,_unhandled_exception
 176              		.weak	VectorAC
 177              		.thumb_set VectorAC,_unhandled_exception
 178              		.weak	VectorA8
 179              		.thumb_set VectorA8,_unhandled_exception
 180              		.weak	VectorA4
 181              		.thumb_set VectorA4,_unhandled_exception
 182              		.weak	VectorA0
 183              		.thumb_set VectorA0,_unhandled_exception
 184              		.weak	Vector9C
 185              		.thumb_set Vector9C,_unhandled_exception
 186              		.weak	Vector98
 187              		.thumb_set Vector98,_unhandled_exception
 188              		.weak	Vector94
 189              		.thumb_set Vector94,_unhandled_exception
 190              		.weak	Vector90
 191              		.thumb_set Vector90,_unhandled_exception
 192              		.weak	Vector8C
 193              		.thumb_set Vector8C,_unhandled_exception
 194              		.weak	Vector88
 195              		.thumb_set Vector88,_unhandled_exception
 196              		.weak	Vector84
 197              		.thumb_set Vector84,_unhandled_exception
 198              		.weak	Vector80
 199              		.thumb_set Vector80,_unhandled_exception
 200              		.weak	Vector7C
 201              		.thumb_set Vector7C,_unhandled_exception
 202              		.weak	Vector78
 203              		.thumb_set Vector78,_unhandled_exception
 204              		.weak	Vector74
 205              		.thumb_set Vector74,_unhandled_exception
 206              		.weak	Vector70
 207              		.thumb_set Vector70,_unhandled_exception
 208              		.weak	Vector6C
 209              		.thumb_set Vector6C,_unhandled_exception
 210              		.weak	Vector68
 211              		.thumb_set Vector68,_unhandled_exception
 212              		.weak	Vector64
 213              		.thumb_set Vector64,_unhandled_exception
 214              		.weak	Vector60
 215              		.thumb_set Vector60,_unhandled_exception
 216              		.weak	Vector5C
 217              		.thumb_set Vector5C,_unhandled_exception
 218              		.weak	Vector58
 219              		.thumb_set Vector58,_unhandled_exception
 220              		.weak	Vector54
 221              		.thumb_set Vector54,_unhandled_exception
 222              		.weak	Vector50
 223              		.thumb_set Vector50,_unhandled_exception
 224              		.weak	Vector4C
 225              		.thumb_set Vector4C,_unhandled_exception
 226              		.weak	Vector48
 227              		.thumb_set Vector48,_unhandled_exception
 228              		.weak	Vector44
ARM GAS  C:\Users\CHRIST~1\AppData\Local\Temp\ccWwuLje.s 			page 5


 229              		.thumb_set Vector44,_unhandled_exception
 230              		.weak	Vector40
 231              		.thumb_set Vector40,_unhandled_exception
 232              		.weak	SysTick_Handler
 233              		.thumb_set SysTick_Handler,_unhandled_exception
 234              		.weak	PendSV_Handler
 235              		.thumb_set PendSV_Handler,_unhandled_exception
 236              		.weak	Vector34
 237              		.thumb_set Vector34,_unhandled_exception
 238              		.weak	DebugMon_Handler
 239              		.thumb_set DebugMon_Handler,_unhandled_exception
 240              		.weak	SVC_Handler
 241              		.thumb_set SVC_Handler,_unhandled_exception
 242              		.weak	Vector28
 243              		.thumb_set Vector28,_unhandled_exception
 244              		.weak	Vector24
 245              		.thumb_set Vector24,_unhandled_exception
 246              		.weak	Vector20
 247              		.thumb_set Vector20,_unhandled_exception
 248              		.weak	Vector1C
 249              		.thumb_set Vector1C,_unhandled_exception
 250              		.weak	UsageFault_Handler
 251              		.thumb_set UsageFault_Handler,_unhandled_exception
 252              		.weak	BusFault_Handler
 253              		.thumb_set BusFault_Handler,_unhandled_exception
 254              		.weak	MemManage_Handler
 255              		.thumb_set MemManage_Handler,_unhandled_exception
 256              		.weak	HardFault_Handler
 257              		.thumb_set HardFault_Handler,_unhandled_exception
 258              		.weak	NMI_Handler
 259              		.thumb_set NMI_Handler,_unhandled_exception
 260              		.weak	Reset_Handler
 261              		.thumb_set Reset_Handler,_unhandled_exception
 262              		.global	_vectors
 263 0002 00BF     		.section	.vectors,"aw",%progbits
 264              		.align	2
 265              		.type	_vectors, %object
 266              		.size	_vectors, 448
 267              	_vectors:
 268 0000 00000000 		.word	__main_stack_end__
 269 0004 00000000 		.word	Reset_Handler
 270 0008 00000000 		.word	NMI_Handler
 271 000c 00000000 		.word	HardFault_Handler
 272 0010 00000000 		.word	MemManage_Handler
 273 0014 00000000 		.word	BusFault_Handler
 274 0018 00000000 		.word	UsageFault_Handler
 275 001c 00000000 		.word	Vector1C
 276 0020 00000000 		.word	Vector20
 277 0024 00000000 		.word	Vector24
 278 0028 00000000 		.word	Vector28
 279 002c 00000000 		.word	SVC_Handler
 280 0030 00000000 		.word	DebugMon_Handler
 281 0034 00000000 		.word	Vector34
 282 0038 00000000 		.word	PendSV_Handler
 283 003c 00000000 		.word	SysTick_Handler
 284 0040 00000000 		.word	Vector40
 285 0044 00000000 		.word	Vector44
ARM GAS  C:\Users\CHRIST~1\AppData\Local\Temp\ccWwuLje.s 			page 6


 286 0048 00000000 		.word	Vector48
 287 004c 00000000 		.word	Vector4C
 288 0050 00000000 		.word	Vector50
 289 0054 00000000 		.word	Vector54
 290 0058 00000000 		.word	Vector58
 291 005c 00000000 		.word	Vector5C
 292 0060 00000000 		.word	Vector60
 293 0064 00000000 		.word	Vector64
 294 0068 00000000 		.word	Vector68
 295 006c 00000000 		.word	Vector6C
 296 0070 00000000 		.word	Vector70
 297 0074 00000000 		.word	Vector74
 298 0078 00000000 		.word	Vector78
 299 007c 00000000 		.word	Vector7C
 300 0080 00000000 		.word	Vector80
 301 0084 00000000 		.word	Vector84
 302 0088 00000000 		.word	Vector88
 303 008c 00000000 		.word	Vector8C
 304 0090 00000000 		.word	Vector90
 305 0094 00000000 		.word	Vector94
 306 0098 00000000 		.word	Vector98
 307 009c 00000000 		.word	Vector9C
 308 00a0 00000000 		.word	VectorA0
 309 00a4 00000000 		.word	VectorA4
 310 00a8 00000000 		.word	VectorA8
 311 00ac 00000000 		.word	VectorAC
 312 00b0 00000000 		.word	VectorB0
 313 00b4 00000000 		.word	VectorB4
 314 00b8 00000000 		.word	VectorB8
 315 00bc 00000000 		.word	VectorBC
 316 00c0 00000000 		.word	VectorC0
 317 00c4 00000000 		.word	VectorC4
 318 00c8 00000000 		.word	VectorC8
 319 00cc 00000000 		.word	VectorCC
 320 00d0 00000000 		.word	VectorD0
 321 00d4 00000000 		.word	VectorD4
 322 00d8 00000000 		.word	VectorD8
 323 00dc 00000000 		.word	VectorDC
 324 00e0 00000000 		.word	VectorE0
 325 00e4 00000000 		.word	VectorE4
 326 00e8 00000000 		.word	VectorE8
 327 00ec 00000000 		.word	VectorEC
 328 00f0 00000000 		.word	VectorF0
 329 00f4 00000000 		.word	VectorF4
 330 00f8 00000000 		.word	VectorF8
 331 00fc 00000000 		.word	VectorFC
 332 0100 00000000 		.word	Vector100
 333 0104 00000000 		.word	Vector104
 334 0108 00000000 		.word	Vector108
 335 010c 00000000 		.word	Vector10C
 336 0110 00000000 		.word	Vector110
 337 0114 00000000 		.word	Vector114
 338 0118 00000000 		.word	Vector118
 339 011c 00000000 		.word	Vector11C
 340 0120 00000000 		.word	Vector120
 341 0124 00000000 		.word	Vector124
 342 0128 00000000 		.word	Vector128
ARM GAS  C:\Users\CHRIST~1\AppData\Local\Temp\ccWwuLje.s 			page 7


 343 012c 00000000 		.word	Vector12C
 344 0130 00000000 		.word	Vector130
 345 0134 00000000 		.word	Vector134
 346 0138 00000000 		.word	Vector138
 347 013c 00000000 		.word	Vector13C
 348 0140 00000000 		.word	Vector140
 349 0144 00000000 		.word	Vector144
 350 0148 00000000 		.word	Vector148
 351 014c 00000000 		.word	Vector14C
 352 0150 00000000 		.word	Vector150
 353 0154 00000000 		.word	Vector154
 354 0158 00000000 		.word	Vector158
 355 015c 00000000 		.word	Vector15C
 356 0160 00000000 		.word	Vector160
 357 0164 00000000 		.word	Vector164
 358 0168 00000000 		.word	Vector168
 359 016c 00000000 		.word	Vector16C
 360 0170 00000000 		.word	Vector170
 361 0174 00000000 		.word	Vector174
 362 0178 00000000 		.word	Vector178
 363 017c 00000000 		.word	Vector17C
 364 0180 00000000 		.word	Vector180
 365 0184 00000000 		.word	Vector184
 366 0188 00000000 		.word	Vector188
 367 018c 00000000 		.word	Vector18C
 368 0190 00000000 		.word	Vector190
 369 0194 00000000 		.word	Vector194
 370 0198 00000000 		.word	Vector198
 371 019c 00000000 		.word	Vector19C
 372 01a0 00000000 		.word	Vector1A0
 373 01a4 00000000 		.word	Vector1A4
 374 01a8 00000000 		.word	Vector1A8
 375 01ac 00000000 		.word	Vector1AC
 376 01b0 00000000 		.word	Vector1B0
 377 01b4 00000000 		.word	Vector1B4
 378 01b8 00000000 		.word	Vector1B8
 379 01bc 00000000 		.word	Vector1BC
 380              		.text
 381              	.Letext0:
 382              		.file 2 "c:\\program files (x86)\\gnu tools arm embedded\\7 2017-q4-major\\arm-none-eabi\\include\
 383              		.file 3 "c:\\program files (x86)\\gnu tools arm embedded\\7 2017-q4-major\\arm-none-eabi\\include\
 384              		.file 4 "ChibiOS_3.0.2/os/ext/CMSIS/include/core_cm4.h"
 385              		.file 5 "ChibiOS_3.0.2/os/ext/CMSIS/ST/system_stm32f4xx.h"
