:020000040800F2
:1000000000040020C1010008C1080008C108000860
:10001000C1080008C1080008C1080008C10800089C
:10002000C1080008C1080008C1080008C10800088C
:10003000C1080008C1080008C108000871050008CF
:10004000C1080008C1080008C1080008C10800086C
:10005000C1080008C1080008C1080008C10800085C
:10006000C1080008C1080008C1080008C10800084C
:10007000C1080008C1080008C1080008C10800083C
:10008000C1080008C1080008C1080008C10800082C
:10009000C1080008C1080008C1080008C10800081C
:1000A000C1080008C1080008C1080008C10800080C
:1000B000C1080008C1080008C1080008C1080008FC
:1000C000C1080008C1080008C1080008C1080008EC
:1000D000C1080008C1080008F1030008C1080008B1
:1000E000C1080008C1080008C1080008C1080008CC
:1000F000C1080008C1080008C1080008C1080008BC
:10010000C1080008C1080008C1080008C1080008AB
:10011000C1080008C1080008C1080008C10800089B
:10012000C1080008C1080008C1080008C10800088B
:10013000C1080008C1080008C1080008C10800087B
:10014000C1080008C1080008C1080008C10800086B
:10015000C1080008C1080008C1080008C10800085B
:10016000C1080008C1080008C1080008C10800084B
:10017000C1080008C1080008C1080008C10800083B
:10018000C1080008C1080008C1080008C10800082B
:10019000C1080008C1080008C1080008C10800081B
:1001A000C1080008C1080008C1080008C10800080B
:1001B000C1080008C1080008C1080008C1080008FB
:1001C00072B6224880F30988022080F31488BFF3B6
:1001D0006F8F00F07DFD00F00BFD4FF055301C4996
:1001E0001C4A91423CBF41F8040BFAE71A49174AEE
:1001F00091423CBF41F8040BFAE71849184A194BE1
:100200009A423EBF51F8040B42F8040BF8E7002075
:100210001549164A91423CBF41F8040BFAE700F039
:100220004FFD134C134DAC4203DA54F8041B8847BE
:10023000F9E700F04DFB104C104DAC4203DA54F8D6
:10024000041B8847F9E700F033BD000000080020D8
:10025000000000200004002000040020100D000811
:100260000008002000080020000800208808002066
:10027000C0010008C0010008C0010008C00100085A
:1002800010B41C481C4A036889B09968069208AAF1
:10029000002442F81C4DB1F5FA7F07924FF4FA7230
:1002A00004D21B68521A99689142FAD35968049192
:1002B00003A95960049C039383422160059202D0F4
:1002C00099688A1A9A6008AB6FF0090243F8182DF2
:1002D000029A01930A3208D10021012281F3118888
:1002E00082F31188029B0A33F8D0029B09B010BC3C
:1002F000704700BF780800200103000800000000DC
:10030000012383F31188036823B16FF001010022F8
:1003100019600260002383F3118870470000000019
:10032000044B5A6899681043586009B1181D084772
:10033000704700BF0008002000000000000000001F
:100340002DE9F041244A0021022407260F254FF011
:10035000010C032726E0D2F8208003EA080343EAD1
:100360000E03136253680CFA01FE23EA0E03536076
:100370004B00D2F808E007FA03F3DB430EEA030E62
:10038000C2F808E0D2F80CE003EA0E0EC2F80CE066
:10039000D2F800E003EA0E0323431360400818D0AC
:1003A000A400013101F0070E4FEA8E0E05FA0EF39C
:1003B00010F0010F06FA0EFE6FEA0303EED00729D4
:1003C000C9D9D2F8248003EA080343EA0E03536232
:1003D000C8E7BDE8F08100BF000002400000000057
:1003E000024AD36843F08003D36070470044004062
:1003F0002DE9F8435D4D6E6FD6F80C903368DF053C
:100400009CB273D4012383F3118814F02F0F41D0D1
:100410004FF0000807E0A10677681CD43468A4B246
:1004200014F02F0F36D02107F5D014F0080F0CBFB1
:1004300000208020E20748BF40F02000A30748BF0B
:1004400040F04000670748BF40F48070FFF768FF46
:10045000A1067768E2D5AB69002B39D0D5E909321E
:1004600093423CD0AA69591C0132AA6169621F708B
:10047000D5E908329A4201D3EB696B626B69002BB4
:10048000CCD0C3F800803468C5F81480A4B214F04E
:100490002F0FC8D1002383F3118819F0800F01D0EA
:1004A000220631D4630611D5012383F31188D5E9DF
:1004B00011239A4244D04FF6BF7309EA03036FF049
:1004C0004002F3600023326083F31188BDE8F883B3
:1004D0000420FFF725FFD5E909329342C2D1AA696A
:1004E000002ABFD08020FFF71BFF97E7012383F38B
:1004F00011884FF40070FFF713FF6FF480733360BF
:10050000002383F311887DE7012383F31188D5E964
:1005100011239A421BD0AA6B296C581C0132AA6382
:10052000A86488421F7801D3EB6BAB646B6B13B18B
:1005300000221A606A637760002383F31188B1E7B1
:10054000AB6B002BB7D01020FFF7EAFEB3E7AA6B26
:10055000002AE0D00820FFF7E3FE4FF63F7309EAD8
:10056000030343F04003F360E6E700BF0008002008
:1005700070B5012686F311880E4CE2682368324478
:10058000A342E26012D09D68013D9D6075B91A6872
:10059000D9682260DD60546085F311881869884746
:1005A00086F3118823689A68002AF0D0002383F329
:1005B000118870BD780800200000000000000000D5
:1005C000002957D030B400234A1C86B003603CD0C9
:1005D0002A4C2B4D236805909A680495914204D9C2
:1005E0001B68891A9A688A42FAD301935A68029260
:1005F00001AA5A60029DA3422A60039102D09A6820
:10060000511A996006AB6FF0090243F8182D009A51
:1006100003600A3208D10021012281F3118882F39C
:100620001188009B0A33F8D0049B009853B1019BBA
:10063000A34203D09A6803990A449A60029A13600D
:10064000019B5A6006B030BC704706AA6FF00901E2
:1006500042F8141D019902600A3107D1012183F388
:10066000118881F31188019A0A32F8D0019806B0F6
:1006700030BC70476FF00100704700BF7808002061
:10068000010300080000000000000000000000005E
:100690002DE9F04F83B004460D4616460193D0F87D
:1006A00018804FF0010989F311880027BA46636862
:1006B00005F1010B204603B3216963684A1C013B25
:1006C000226163602B780B70D4E90331994224BF17
:1006D000A3682361B8F1000F00D0C0478AF31188E6
:1006E000013E07F1010712D089F3118863685D4666
:1006F00005F1010B2046002BDED101990093204625
:10070000FFF75EFF009B0028D1D083F311883846A5
:1007100003B0BDE8F08F00BF000000000000000043
:100720003430FFF7B5BF00BF00000000000000003C
:1007300034304FF0FF33FFF7ABBF00BF00000000C5
:10074000F8B504460F461646012383F3118803E0EB
:10075000FFF736FF002818DB656831462046002D7C
:10076000F6D022696368511C013B216163601770F8
:10077000D4E903329A4224BFA3682361A36903B179
:100780009847002080F31188F8BD85F31188F8BDE3
:100790003430FFF7D5BF00BF0000000000000000AC
:1007A00034304FF0FF32FFF7CBBF00BF0000000036
:1007B0002DE9F04F044683B0894693461D46D0F894
:1007C0001880012787F3118800260197B246B8F1F7
:1007D000000F05D02046C04702E0FFF7F1FEE0B968
:1007E000676829462046002FF7D062696368511C6C
:1007F000013B61616360137809F8013BE36862695A
:100800009A4224BFA36863618AF311880136B34515
:1008100005D0019B83F31188D9E787F3118830460F
:1008200003B0BDE8F08F00BF000000000000000032
:100830001430FFF7BDBF00BF000000000000000043
:1008400014304FF0FF33FFF7B3BF00BF00000000CC
:1008500070B501230E46044683F3118883692BB1DA
:10086000984703E0FFF7ACFE002815DB65683146CA
:100870002046002DF6D061696368E5684A1C013B9B
:10088000AA426360626128BFA368087828BF6361D9
:10089000002383F3118870BD85F3118870BD00BFFC
:1008A0001430FFF7D5BF00BF0000000000000000BB
:1008B00014304FF0FF31FFF7CBBF00BF0000000046
:1008C000FEE700BF00000000000000000000000084
:1008D000AB49AC4BAC4D002280B54FF0FF30CA6045
:1008E0001C69096018611A615C6958615A611C6A67
:1008F000496064F080541C621A625C6A58625A62F1
:100900001C6C886044F080541C64296841F4807138
:100910002960196F01F44071B1F5007F03D04FF4E5
:10092000803119671A67984A964E536897499848D4
:10093000984F994D994CDFF8AC8223F400735360C3
:10094000336B40F2FF1C43EA0C033363326D42EA1F
:100950000C02002332656FF4A8424B608A604FF6A8
:10096000FF72CF60DFF880C24A618D4F0D624FF495
:100970001075C1F824C00F6045604FF0FF31894FFA
:1009800081604FF08065C76042610562864D4027F7
:100990004762056005F1AA45A5F54305A5F62C3586
:1009A0006360A160E5604FF0C045626125627F4DE4
:1009B00065627F4D25607F4DC0F80438C0F8081887
:1009C000C0F80C5840F6FF75C0F814587A4DC0F8BE
:1009D0002038C0F82438C0F8005800F50060C4F88A
:1009E0000438764DC4F8081800F50060C4F80C38D7
:1009F000C4F81428C4F82038C4F82438C4F800789F
:100A0000436004F500648160C36042610362436235
:100A100003606B60A960EB606A612B626B622B60A4
:100A2000C4F8043C664DC4F8081CC4F80C3CC4F877
:100A3000142CC4F8203CC4F8243CC4F8003CC0F892
:100A4000043CC0F8081CC0F80C3CC0F8142C5D4AEB
:100A5000C0F8203C1021C8F80830C0F8243CC8F881
:100A60000C30C0F8003CC8F800200720564AC8F8EF
:100A70000430C8F82C30C8F81830C8F83080C8F8EE
:100A80003810C8F85080514C6A605149AB6008F189
:100A9000740228604F48C8F8402008F1640308F148
:100AA0005402C8F84C10C8F8740001218020C8F81E
:100AB0001C20C8E90922C8F82030C8F83C30C8E931
:100AC000113388F8101084F8230062B681F311887E
:100AD00098F810308B4243D0D8F874303E4A934295
:100AE0004AD002F58062934246D040F245429A6075
:100AF00044F24004012142F22C1000221C61596191
:100B0000D86002211A6018685B6888F8101082F3B8
:100B100011880420FFF714FC0820FFF711FCDFF810
:100B2000CCA0DFF8C0902D4FD8F800204FF0FF3355
:100B3000946951460E2248464FF40056A0470125BD
:100B40003E8385F31188FFF79BFB002484F3118813
:100B50007E8385F31188FFF793FB84F31188E3E725
:100B6000326C1F4B42F40032C021326483F82613EA
:100B7000C3F884715F60AFE740F68B029A60B7E715
:100B80007808002000380240007000400000024059
:100B90000004024054000140000056550008024085
:100BA00000AAA02A1545515580200800000606001D
:100BB00001802002555055000001005500180240E8
:100BC00010E000E0F00C00083F90020000ED00E0B3
:100BD000E10300080044004000100140000C024006
:100BE00000E100E00008002000AA0A00E00C000874
:100BF0002A4B2B4A4FF080504FF44041186411604B
:100C00001A6842F001021A601A689207FCD59968C6
:100C1000224A21F00301996099689960936813F062
:100C20000C03FBD110681D4900F0F90010609360BF
:100C3000136843F4803313600B689803FCD54B6F43
:100C4000164A43F001034B67536F9907FCD5154BC8
:100C500053601368124943F0807313604B685A0461
:100C6000FCD50E490B689B01FCD50F4B0F4A8A60DF
:100C700040F205721A608B68084A43F002038B60E9
:100C8000936803F00C03082BFAD1536C43F48043B0
:100C90005364536E43F480435366704700380240F8
:100CA0000070004008544007003C0240009408389F
:100CB000FEE700BF00000000000000000000000090
:100CC000704700BF000000000000000000000000AE
:100CD000704700BF0000000000000000000000009E
:100CE00048656C6C6F20576F726C64210D0A0000B0
:100CF0003107000841080008A1070008B1080008F2
:100D000091070008A1080008210700083108000821
:04000005080001C12D
:00000001FF
