ARM GAS  C:\Users\CHRIST~1\AppData\Local\Temp\cc351EOy.s 			page 1


   1              		.cpu cortex-m4
   2              		.eabi_attribute 20, 1
   3              		.eabi_attribute 21, 1
   4              		.eabi_attribute 23, 3
   5              		.eabi_attribute 24, 1
   6              		.eabi_attribute 25, 1
   7              		.eabi_attribute 26, 1
   8              		.eabi_attribute 30, 2
   9              		.eabi_attribute 34, 1
  10              		.eabi_attribute 18, 4
  11              		.file	"chcond.c"
  12              		.section	.gnu.lto_.profile.67ee54fd,"",%progbits
  13 0000 789C6363 		.ascii	"x\234cc```\005bF\206\367\214\205\000\003\315\001n"
  13      60606005 
  13      624686F7 
  13      8C850003 
  13      CD016E
  14              		.text
  15              		.section	.gnu.lto_.icf.67ee54fd,"",%progbits
  16 0000 789C6363 		.ascii	"x\234cc``0c@\000N\206)\357[\273x\030\373\036\275\354"
  16      60603063 
  16      40004E86 
  16      29EF5BBB 
  16      7818FB1E 
  17 0016 E5663AF6 		.ascii	"\345f:\366~\356*^\346\246\023'\325X\016>\335\304\301"
  17      7EEE2A5E 
  17      E6A61327 
  17      D5580E3E 
  17      DDC4C1
  18 0029 BAA6E3DE 		.ascii	"\272\246\343\336sV\366\263s\332~\362p\274\237\371{\033"
  18      7356F6B3 
  18      73DA7EF2 
  18      70BC9FF9 
  18      7B1B
  19 003b 3BE7DB96 		.ascii	";\347\333\226\231\377\230\031\000\2770\031\333"
  19      99FF9819 
  19      00BF3019 
  19      DB
  20              		.text
  21              		.section	.gnu.lto_.jmpfuncs.67ee54fd,"",%progbits
  22 0000 789C758F 		.ascii	"x\234u\217\261\012\002A\014Dg\222\325\365\012\361\007"
  22      B10A0241 
  22      0C446792 
  22      D5F50AF1 
  22      07
  23 0011 FCD1AB14 		.ascii	"\374\321\253\024\341\232\263\265\334\177\260\320\306"
  23      E19AB3B5 
  23      DC7FB0D0 
  23      C6
  24 001e CE0FB214 		.ascii	"\316\017\262\024\304J7\347\262`\\\003K`'\3632\231\003"
  24      C44A37E7 
  24      B2605C03 
  24      4B6027F3 
  24      329903
  25 0031 D811B53A 		.ascii	"\330\021\265:\220\334$\2656\365\000\360\032\210\374"
  25      90DC24B5 
  25      36F500F0 
ARM GAS  C:\Users\CHRIST~1\AppData\Local\Temp\cc351EOy.s 			page 2


  25      1A88FC
  26 0040 5EB956E0 		.ascii	"^\271V\340Ay\274]\236\313\275&%\301\023\327u\004\220"
  26      4179BC5D 
  26      9ECBBD26 
  26      25C113D7 
  26      750490
  27 0053 E2934CD8 		.ascii	"\342\223L\330\212\211\337v-z\036p\340P\235N\230\375"
  27      8A89DF76 
  27      2D7A1E70 
  27      E0509D4E 
  27      98FD
  28 0065 13C4B2DC 		.ascii	"\023\304\262\334\307\341\241\226E\030y.Y\342'\2137D"
  28      C7E1A196 
  28      4518792E 
  28      59E2278B 
  28      3744
  29 0077 BBCA48D2 		.ascii	"\273\312H\322\303k\213\234\\\247\313\223j+\234c\367"
  29      C36B8B9C 
  29      5CA7CB93 
  29      6A2B9C63 
  29      F7
  30 0088 FC89E33F 		.ascii	"\374\211\343?:C\262 Ccg\003\2027\251Cb\262"
  30      3A43B220 
  30      43636703 
  30      8237A943 
  30      62B2
  31              		.text
  32              		.section	.gnu.lto_.inline.67ee54fd,"",%progbits
  33 0000 789C5D90 		.ascii	"x\234]\2201\016\302 \024\206\177(-Ti\305\321\301\264"
  33      310EC220 
  33      14867F28 
  33      2D5469C5 
  33      D1C1B4
  34 0013 896E261E 		.ascii	"\211n&\036\304\201\023x\027=\002G\350\031\034\235\234"
  34      C4811378 
  34      173D0247 
  34      E8191C9D 
  34      9C
  35 0024 3A39B8D6 		.ascii	":9\270\326\241\211\213q\324\003\230\010\264E#\303\203"
  35      A1898B71 
  35      D4039808 
  35      B44523C3 
  35      83
  36 0035 F7BFFF7D 		.ascii	"\367\277\377}\017H\000l\010\302J\201\230\021\202\322"
  36      0F48006C 
  36      08C24A81 
  36      981182D2 
  37 0045 6A945E26 		.ascii	"j\224^&\020\3175u\005\202\\\015z\336n!\352\225\327#"
  37      10CF3575 
  37      05825C0D 
  37      7ADE6E21 
  37      EA95D723 
  38 0059 6905A341 		.ascii	"i\005\243A!sB}\335\205\0101?\024\340\355\202\202<\270"
  38      2173427D 
  38      DD850831 
  38      3F14E0ED 
  38      82823CB8 
ARM GAS  C:\Users\CHRIST~1\AppData\Local\Temp\cc351EOy.s 			page 3


  39 006d E8225855 		.ascii	"\350\"XUH\327E\307\226ht\004\365\306@U\247\206A\234"
  39      48D745C7 
  39      96687404 
  39      F5C64055 
  39      A786419C 
  40 0081 77DDB891 		.ascii	"w\335\270\221g\023\347b\310^\301%\253\343\327\325\033"
  40      6713E762 
  40      C85EC125 
  40      ABE3D7D5 
  40      1B
  41 0092 62CCAEC1 		.ascii	"b\314\256\301P\326\267\004IU\320\2379~\033\022\016\241"
  41      50D6B704 
  41      4955D09F 
  41      397E1B12 
  41      0EA1
  42 00a4 6C62AF12 		.ascii	"lb\257\022l\356\021\266\"0o\002gy\337\363\177\016\313"
  42      6CEE11B6 
  42      22306F02 
  42      6779DFF3 
  42      7F0ECB
  43 00b7 EC113DCF 		.ascii	"\354\021=\317\350\024\351\364\217\344\035F\333\017\371"
  43      E814E9F4 
  43      8FE41D46 
  43      DB0FF9
  44 00c6 00200B27 		.ascii	"\000 \013'\372"
  44      FA
  45              		.text
  46              		.section	.gnu.lto_.pureconst.67ee54fd,"",%progbits
  47 0000 789C6363 		.ascii	"x\234cc``\020\007bN\006)\306]\214LR\314\273\030Y\244"
  47      60601007 
  47      624E0629 
  47      C65D8C4C 
  47      52CCBB18 
  48 0016 58A5D877 		.ascii	"X\245\330w1rHq\356b\004\000*1\003\274"
  48      31724871 
  48      EE620400 
  48      2A3103BC 
  49              		.text
  50              		.section	.gnu.lto_chCondObjectInit.67ee54fd,"",%progbits
  51 0000 789C8D52 		.ascii	"x\234\215R]k\023A\024\275go\272\215$\366U\321\200\213"
  51      5D6B1341 
  51      14BD676F 
  51      BA8D24F6 
  51      55D1808B 
  52 0014 584A5FB2 		.ascii	"XJ_\262\377\242\177d#\244 mm\352\233\220iLM\245\212"
  52      FFA27F64 
  52      23A4206D 
  52      6DEA9B90 
  52      694C4DA5 
  53 0029 0A36D2B8 		.ascii	"\0126\322\270\304\225\322\372 ~\021\255\3266u\215\037"
  53      C495D2FA 
  53      207E11AD 
  53      D636758D 
  53      1F
  54 003a 4F4DA5EA 		.ascii	"OM\245\352C\037$\024\205\252E\304>*4zg\222\026Z_\034"
  54      431F2414 
  54      85AA45C4 
ARM GAS  C:\Users\CHRIST~1\AppData\Local\Temp\cc351EOy.s 			page 4


  54      3E2A347A 
  54      6792165A 
  55 0050 76D83B7B 		.ascii	"v\330;{\317\2349\347\314\332DT\266\210\372\344}T&\230"
  55      CF9C39E7 
  55      CCDA4454 
  55      B688FAE4 
  55      7D542698 
  56 0064 605D5921 		.ascii	"`]Y!\032\215Z\200.T\024\224\265\220\305E\276\306\250"
  56      1A8D5A80 
  56      2E541494 
  56      B590C545 
  56      BEC6A8
  57 0077 1536E6AD 		.ascii	"\0256\346\255\336\333JFx}\316>\257\306\016\373LT\224"
  57      DEDB4A46 
  57      787DCE3E 
  57      AFC60EFB 
  57      4C5494
  58 008a A9072AE8 		.ascii	"\251\007*\350\025\324j\376\201\317\023\3543\020\221"
  58      15D46AFE 
  58      81CF13EC 
  58      331091
  59 0099 E556BDF4 		.ascii	"\345V\275\364\271K/-8\262|\377\245X\215\3621\220\324"
  59      B94B2F2D 
  59      38B27CFF 
  59      A5588DF2 
  59      3190D4
  60 00ac B7D6CA5F 		.ascii	"\267\326\312_c=3J\345T\370}\206\325\011\237\031s`!\304"
  60      633D334A 
  60      E554F87D 
  60      86D5099F 
  60      19736021 
  61 00c1 6324F008 		.ascii	"c$\360\010\011\222O\204'\350\321\370O\017\233\223\007"
  61      09924F84 
  61      27E8D1F8 
  61      4F0F9B93 
  61      07
  62 00d2 ED48B073 		.ascii	"\355H\260s&\236\302&Hq\377]G\250\232\177\012*\\\236"
  62      269EC226 
  62      4871FF5D 
  62      47A89A7F 
  62      0A2A5C9E 
  63 00e6 C56A9F0D 		.ascii	"\305j\237\015\331\026\021\013z\037\215\013T\274\250"
  63      D916110B 
  63      7A1F8D0B 
  63      54BCA8
  64 00f5 902EB0A5 		.ascii	"\220.\260\245\253s!m\"\367\273\260]\211k\206\022C\270"
  64      AB73216D 
  64      22F7BBB0 
  64      5D896B86 
  64      1243B8
  65 0108 8B63B5B7 		.ascii	"\213c\265\267\235Z&\033i\213\265\372\033;@yT\274\006"
  65      9D5A261B 
  65      698BB5FA 
  65      1B3B4079 
  65      54BC06
  66 011b B39AAFA3 		.ascii	"\263\232\257\243$\016\346E\221n\177(\2545b\356]\235"
  66      240EE645 
ARM GAS  C:\Users\CHRIST~1\AppData\Local\Temp\cc351EOy.s 			page 5


  66      916E7F28 
  66      AC3562EE 
  66      5D9D
  67 012d 84E3B38D 		.ascii	"\204\343\263\215g\0100ib\220\346\235\372f\303\316n\353"
  67      67083069 
  67      6290E69D 
  67      FA66C3CE 
  67      6EEB
  68 013f 66D02542 		.ascii	"f\320%B\260\000W\304.\"K\033\3109\372LA}\274\321h\036"
  68      B00057C4 
  68      2E224B1B 
  68      C839FA4C 
  68      417DBCD1 
  69 0155 E0E3E6B4 		.ascii	"\340\343\346\264\345\313\367\256\306\272\247M\020\215"
  69      E5CBF7AE 
  69      C6BAA74D 
  69      108D
  70 0163 A9784985 		.ascii	"\251xI\205yGo\254\356\315\302\204\274\204nQ\254\035"
  70      79476FAC 
  70      EECDC284 
  70      BC846E51 
  70      AC1D
  71 0175 947EADFC 		.ascii	"\224~\255\374\254o\361n0\371\326\305,\331\254A&\235"
  71      AC6FF16E 
  71      30F9D6C5 
  71      2CD9AC41 
  71      269D
  72 0187 62CB4D3B 		.ascii	"b\313M;8\302s\330\010uh\241\321\260k:\262\3074\304\222"
  72      38C273D8 
  72      087568A1 
  72      D1B06B3A 
  72      B2C734C4 
  73 019c 76FBE25F 		.ascii	"v\373\342_\267\353\013\265CSq\237;Q3\226a8\011/\341"
  73      B7EB0BB5 
  73      4353719F 
  73      3B513396 
  73      6138092F 
  74 01b1 EEA8FA56 		.ascii	"\356\250\372V\255\234m\363\377\007apD\223\2752dV\233"
  74      AD9C6DF3 
  74      FF076170 
  74      4493BD32 
  74      64569B
  75 01c4 EC758B4C 		.ascii	"\354u\213L\302Z\237\270\351i\037\306\020\375@.\230\276"
  75      C25A9FB8 
  75      E9691FC6 
  75      10FD402E 
  75      98BE
  76 01d6 0473ED7A 		.ascii	"\004s\355z\214\013H\356S\376\340D2\351\266\236\301\214"
  76      8C0B48EE 
  76      53FEE044 
  76      32E9B69E 
  76      C18C
  77 01e8 3B3CE266 		.ascii	";<\342f\206=\327K{\203\003\251\244G\2267\304#\247\207"
  77      863DD74B 
  77      7B8303A9 
  77      A4479637 
  77      C423A787 
ARM GAS  C:\Users\CHRIST~1\AppData\Local\Temp\cc351EOy.s 			page 6


  78 01fc 9C7D98FE 		.ascii	"\234}\230\376\001\357\324\231\324I\301e\274t*\231\246"
  78      01EFD499 
  78      D449C165 
  78      BC742A99 
  78      A6
  79 020d BFF538EF 		.ascii	"\277\3658\357\024"
  79      14
  80              		.text
  81              		.section	.gnu.lto_chCondSignal.67ee54fd,"",%progbits
  82 0000 789C7D54 		.ascii	"x\234}T]L\024W\024\276g\356\314\354\312\202\305>\231"
  82      5D4C1457 
  82      14BE67EE 
  82      CCECCA82 
  82      C53E99
  83 0013 86E812BB 		.ascii	"\206\350\022\273\261$d\327\007\223&M_Z\223&}\340E^\372"
  83      B12464D7 
  83      0793264D 
  83      5F5A9326 
  83      7DE0455E 
  84 0028 D6D86513 		.ascii	"\326\330e\023L\344\247\273`\264/\\W\350b\221H\255BY"
  84      4CE4A7BB 
  84      60B42F5C 
  84      57E86291 
  84      48AD4259 
  85 003c 36B02D31 		.ascii	"6\260-16\361\007\253\245-\313\217[\020\265\010\250\200"
  85      36F107AB 
  85      A52DCB8F 
  85      5B10B508 
  85      A880
  86 004e 2D2D96F2 		.ascii	"--\226\362#\177B,\372R1\226\3559w\007\273;P'\3540s\357"
  86      237F422C 
  86      FA523196 
  86      ED397707 
  86      BB3B5027 
  87 0066 B9DFF9BE 		.ascii	"\271\337\371\276\357\2349:c\314aal\012\377\357\306\037"
  87      EF9C393A 
  87      63CC6161 
  87      6C0AFFEF 
  87      C61F
  88 0078 680C949A 		.ascii	"h\014\224\232A\306\216X\025\205/g3\221\242\2063\231"
  88      41C68E58 
  88      15852F67 
  88      3391A286 
  88      3399
  89 008a 48E5A0C6 		.ascii	"H\345\240\306\227U\000z\020V`e\012W\241\014\216\363"
  89      9755007A 
  89      10566065 
  89      0A57A10C 
  89      8EF3
  90 009c 531CBA03 		.ascii	"S\034\272\003\263mJ\326Y\201W\264\356\211\376\251\250"
  90      B36D4AD6 
  90      598157B4 
  90      EE89FEA9 
  90      A8
  91 00ad D81AE28C 		.ascii	"\330\032\342\214\325\342\217.\270\002Y\030u\267\374"
  91      D5E28F2E 
  91      B8025918 
ARM GAS  C:\Users\CHRIST~1\AppData\Local\Temp\cc351EOy.s 			page 7


  91      75B7FC
  92 00bc 528857F1 		.ascii	"R\210W\361\020\007P\361\365\361@pz3\275*`\307\327\341"
  92      100750F1 
  92      F5F14070 
  92      7A33BD2A 
  92      60C7D7E1 
  93 00d0 B9DA4E2B 		.ascii	"\271\332N+\337\016\014\237\277\032m\234\267\355<#\204"
  93      DF0E0C9F 
  93      BF1A6D9C 
  93      B7ED3C23 
  93      84
  94 00e1 5F44FBCF 		.ascii	"_D\373\317p\361z\210s\370\0368\002B+d\300w\220\301p"
  94      70F17A88 
  94      73F81E38 
  94      02422B64 
  94      C07790C1 
  95 00f6 89C10FB0 		.ascii	"\211\301\017\260\223\342\247\276]=\235\246\253\341\265"
  95      93E2A7BE 
  95      5D3D9DA6 
  95      ABE1B5
  96 0105 9CF023E8 		.ascii	"\234\360#\350\360b\275\\\362\032\014\351r\275\226C\302"
  96      F062BD5C 
  96      F21A0CE9 
  96      72BD9643 
  96      C2
  97 0116 11066D18 		.ascii	"\021\006m\030\032\001\235\231\302\207\037\274\205nD"
  97      1A019D99 
  97      C2871FBC 
  97      856E44
  98 0125 285EA1BD 		.ascii	"(^\241\275\271\216\300\010\360w\345\331\245\331\312"
  98      B98EC008 
  98      F077E5D9 
  98      A5D9CA
  99 0134 A8EA6896 		.ascii	"\250\352h\226\364n\324\277\2612:/\304I\001!4\244#\231"
  99      F46ED4BF 
  99      B1323A2F 
  99      C4490121 
  99      34A42399 
 100 0148 245D26E0 		.ascii	"$]&\340G+:t\202\203A;a\363$.]\310\345*r\241\033\340"
 100      472B3A74 
 100      8283413B 
 100      61F3242E 
 100      5DC8E52A 
 101 0160 D196212D 		.ascii	"\321\226!-*Vc\001t\365\325\206\310B\337\216T@\335\032"
 101      2A566301 
 101      74F5D586 
 101      C842DF8E 
 101      5440DD1A 
 102 0174 5601856B 		.ascii	"V\001\205k\370\250[\350\306X%\252\306\302\210(;\206"
 102      F8A85BE8 
 102      C65825AA 
 102      C6C28828 
 102      3B86
 103 0186 74F1E968 		.ascii	"t\361\351h\224\315\202\262\236\354\256\277^N\026\242"
 103      94CD82B2 
 103      9EECAEBF 
 103      5E4E16A2 
ARM GAS  C:\Users\CHRIST~1\AppData\Local\Temp\cc351EOy.s 			page 8


 104 0196 E0C04381 		.ascii	"\340\300C\201\005\321\251RmT\260\303O\270\267\010\376"
 104      05D1A952 
 104      6D54B0C3 
 104      4FB8B708 
 104      FE
 105 01a7 A973274E 		.ascii	"\251s'NMo5\251\371\342\331\232\253\352:\007\313]\350"
 105      4D6F35A9 
 105      F9E2D99A 
 105      ABEA3A07 
 105      CB5DE8
 106 01ba 6037ED69 		.ascii	"`7\355i\346\275\236\372\267\213(\025\203\236\365.\\"
 106      E6BD9EFA 
 106      B78B2815 
 106      839EF52E 
 106      5C
 107 01cb 43F1BDE4 		.ascii	"C\361\275\344B/\271\000\254\211J\371u\323\345\247)\231"
 107      422FB900 
 107      AC894AF9 
 107      75D3E5A7 
 107      2999
 108 01dd 97A0497C 		.ascii	"\227\240I|i\017q\013\035\2700\335.\254\252\202\244\257"
 108      690F710B 
 108      1DB830DD 
 108      2EACAA82 
 108      A4AF
 109 01ef 43A6F479 		.ascii	"C\246\364yyidL\301\025\270\001\252\244\315\340\246\354"
 109      7969644C 
 109      C115B801 
 109      AAA4CDE0 
 109      A6EC
 110 0201 B56FBA7A 		.ascii	"\265o\272zfR3\257\030\247\255\024\373\344\342\345{6"
 110      665233AF 
 110      18A7AD14 
 110      FBE4E2E5 
 110      7B36
 111 0213 79FA673A 		.ascii	"y\372g:\015}\240\242e~\273\264\200\261\207\340\177\026"
 111      0D7DA0A2 
 111      657EBBB4 
 111      80B187E0 
 111      7F16
 112 0225 68795AED 		.ascii	"hyZ\355$uAN\024j+\272o[\310\224x\007ut\017\\\327\303"
 112      2475414E 
 112      146A2BBA 
 112      6F5BC894 
 112      78077574 
 113 023d D0780405 		.ascii	"\320x\004\005\205g\2510\233\202\350\327-J\213\333#\201"
 113      8567A930 
 113      9B82E8D7 
 113      2D4A8BDB 
 113      2381
 114 024f D1719BEB 		.ascii	"\321q\233\353\002\311\305\224)\320\017a8\315\215\206"
 114      02C9C594 
 114      29D00F61 
 114      38CD8D86 
 115 025f 3837F070 		.ascii	"87\360p\\/\373\2076\303\021\254\205\006\003\340B\022"
 115      5C2FFB87 
 115      36C311AC 
ARM GAS  C:\Users\CHRIST~1\AppData\Local\Temp\cc351EOy.s 			page 9


 115      850603E0 
 115      4212
 116 0271 83502649 		.ascii	"\203P&IPR\014\273\3370\276\272\211\267\203\314\327\177"
 116      50520CBB 
 116      DF30BEBA 
 116      89B783CC 
 116      D77F
 117 0283 E2E2E736 		.ascii	"\342\342\3476\243\220\203\015\251A\021-G`\033\334\336"
 117      A390830D 
 117      A941112D 
 117      47601BDC 
 117      DE
 118 0294 A08A77C0 		.ascii	"\240\212w\300\201\234IDd%\326\373w\375\007&\377\353"
 118      819C4944 
 118      6425D6FB 
 118      77FD0726 
 118      FFEB
 119 02a6 9EEB160A 		.ascii	"\236\353\026\0122j\247'\371\177\027m\037\"\377\207H"
 119      326AA727 
 119      F97F176D 
 119      1F22FF87 
 119      48
 120 02b7 B996A8DC 		.ascii	"\271\226\250\334\226\244\034\211\247\222\344aC\362\343"
 120      96A41C89 
 120      A792E461 
 120      43F2E3
 121 02c6 AA93A380 		.ascii	"\252\223\243\200\222k\204\230\210\325mk<j\013\3614\030"
 121      926B8498 
 121      88D56D6B 
 121      3C6A0BF1 
 121      3418
 122 02d8 91C241E2 		.ascii	"\221\302A\3422\270\207:Q\341DU\3274\310\317\224X\260"
 122      32B8873A 
 122      51E14455 
 122      D734C8CF 
 122      9458B0
 123 02eb 19281FEB 		.ascii	"\031(\037\353\331mX\2159\245\212c\330\027\313\331\262"
 123      D96D588D 
 123      39A58A63 
 123      D817CBD9 
 123      B2
 124 02fc 93FDE158 		.ascii	"\223\375\341X\265f\230\262\261\017\332\206>\374\022"
 124      B56698B2 
 124      B10FDA86 
 124      3EFC12
 125 030b F78112C6 		.ascii	"\367\201\022\306\352j\026\347\315C\241nU\327(\310\360"
 125      EA6A16E7 
 125      CD43A16E 
 125      55D728C8 
 125      F0
 126 031c 41B6D5B5 		.ascii	"A\266\325\265\231\347C6>\0217}\261\362\346Y\253\221"
 126      99E74336 
 126      3E11377D 
 126      B1F2E659 
 126      AB91
 127 032e 2CD6623F 		.ascii	",\326b?\337\034\250\026a\177:~t0\372\222O]\205\337\010"
 127      DF1CA816 
ARM GAS  C:\Users\CHRIST~1\AppData\Local\Temp\cc351EOy.s 			page 10


 127      617F3A7E 
 127      7430FA92 
 127      4F5D85DF 
 128 0343 F457D4F7 		.ascii	"\364W\324\367;\251\306\033\255\2202\252\311B_\353y\240"
 128      3BA9C61B 
 128      AD9032AA 
 128      C9425FEB 
 128      79A0
 129 0355 C520B724 		.ascii	"\305 \267$\332\253\233\355\335\214'`l\303\216\322\341"
 129      DAAB9BED 
 129      DD8C2760 
 129      6CC38ED2 
 129      E1
 130 0366 BE345691 		.ascii	"\2764V\221i\030\374\201\306\"\366\310g+\234\220\023"
 130      6918FC81 
 130      C622F6C8 
 130      672B9C90 
 130      13
 131 0377 6135336C 		.ascii	"a53l\012Um|=l\3705\302\375s\255`\022w\002\\\310\222"
 131      0A556D7C 
 131      3D6CF835 
 131      C2FD73AD 
 131      60127702 
 132 038e A0830BB7 		.ascii	"\240\203\013\267Z;\300\000O&i\331\210d\370\023B\233"
 132      5A3BC000 
 132      4F2669D9 
 132      8864F813 
 132      429B
 133 03a0 9468DC40 		.ascii	"\224h\334@\233\"\264xA\252\2566\307;\200\374\177\321"
 133      9B22B478 
 133      41AAAE36 
 133      C73B80FC 
 133      7FD1
 134 03b2 F5D238B6 		.ascii	"\365\3228\266\004\025\362\215\020\333\332\226\306,\370"
 134      0415F28D 
 134      10DBDA96 
 134      C62CF8
 135 03c1 AD5843FC 		.ascii	"\255XC\374\225Z\374v\031L\343W\022o\314\226\245\266"
 135      955AFC76 
 135      194CE357 
 135      126FCC96 
 135      A5B6
 136 03d3 95349298 		.ascii	"\2254\222\230\216t\037@F\210o\221\215\243&\314@\232"
 136      8E741F40 
 136      46886F91 
 136      8DA326CC 
 136      409A
 137 03e5 B6896EA8 		.ascii	"\266\211n\250\030:\2238\322\342\323\326\2303\253M\223"
 137      183A9338 
 137      D2E2D3D6 
 137      9833AB4D 
 137      93
 138 03f6 5DB6B511 		.ascii	"]\266\265\0212#G\310\254\034!\346y1\027\237\027\023"
 138      322347C8 
 138      AC1C21E6 
 138      7931179F 
 138      1713
ARM GAS  C:\Users\CHRIST~1\AppData\Local\Temp\cc351EOy.s 			page 11


 139 0408 93C723DB 		.ascii	"\223\307#\333d\016\306\036\221\252\276\035\2228]\225"
 139      640EC61E 
 139      91AABE1D 
 139      92385D95 
 140 0418 A81479E0 		.ascii	"\250\024y\340\231\014\247\323\025\377+\362\271\274%"
 140      990CA7D3 
 140      15FF2BF2 
 140      B9BC25
 141 0427 2E9FD7ED 		.ascii	".\237\327\355r\347\273\213\012\363\234n\246\270\213"
 141      72E7BB8B 
 141      0AF39C6E 
 141      A6B88B
 142 0436 B79BF6F7 		.ascii	"\267\233\366\367\027\272\017\224\346y0\306w\330\347"
 142      17BA0F94 
 142      E67930C6 
 142      77D8E7
 143 0445 CC67DAC1 		.ascii	"\314g\332\301}\007J=Y\246\250\342\"o\211\317\365\316"
 143      7D074A3D 
 143      59A6A8E2 
 143      226F89CF 
 143      F5CE
 144 0457 DE9C3D39 		.ascii	"\336\234=9\207$\234\327\363\341\3017\0130>;1\322s\250"
 144      87249CD7 
 144      F3E1C137 
 144      0B303E3B 
 144      31D273A8 
 145 046b C4B52727 		.ascii	"\304\265''\367\375\334\377`)\322]\360^i\241\033\203"
 145      F7FDDCFF 
 145      6029D25D 
 145      F05E69A1 
 145      1B83
 146 047d D37372F7 		.ascii	"\323sr\367\332?\332\347\363\024{\367g\333\035\273\230"
 146      DA3FDAE7 
 146      F3147BF7 
 146      67DB1DBB 
 146      98
 147 048e E2659602 		.ascii	"\342e\226\002OA\221\3670\343%\037\027\333\377\237\234"
 147      4F4191F7 
 147      30E3251F 
 147      17DBFF9F 
 147      9C
 148 049f 3B3F0F01 		.ascii	";?\017\001\224\222\342\177\001\342\033\230P"
 148      9492E27F 
 148      01E21B98 
 148      50
 149              		.text
 150              		.section	.gnu.lto_chCondSignalI.67ee54fd,"",%progbits
 151 0000 789C8554 		.ascii	"x\234\205T[KTQ\024\336\337\331\347\314\234\032\265\036"
 151      5B4B5451 
 151      14DEDFD9 
 151      E7CC9C1A 
 151      B51E
 152 0012 23CCEC22 		.ascii	"#\314\354\"\022\210\007\242?\321?\350}\014\014\242L"
 152      128807A2 
 152      3FD13FE8 
 152      7D0C0CA2 
 152      4C
ARM GAS  C:\Users\CHRIST~1\AppData\Local\Temp\cc351EOy.s 			page 12


 153 0023 8DA01777 		.ascii	"\215\240\027w\343\230\226\201\0259\321t\222\023\021"
 153      E3989681 
 153      1539D174 
 153      921311
 154 0032 3D74A7AC 		.ascii	"=t\247\254\306F\035/\231\245\243eVF!\221\344-\223\212"
 154      C6461D2F 
 154      99A5A365 
 154      56462191 
 154      E42D938A 
 155 0046 5E8CB2D6 		.ascii	"^\214\262\326\3323\222NV\2339g\366e\315\267\276\357"
 155      DA33924E 
 155      569B3967 
 155      F665CDB7 
 155      BEEF
 156 0058 5B6B8F4F 		.ascii	"[k\217O\010q\300\022b;}o\243\007\226\200q|@\210C\266"
 156      0871C012 
 156      623B7D6F 
 156      A3079680 
 156      717C4088 
 157 006e 61C84F45 		.ascii	"a\310OEB\2554\275\015BeI\230\251m\023\340\211\262!\252"
 157      42AD34BD 
 157      0D426549 
 157      98A96D13 
 157      E089B221 
 158 0083 0C69A20A 		.ascii	"\014i\242\012\307\344)\211\316\332\361\230\261\345\222"
 158      C7E42989 
 158      CEDAF198 
 158      B1E592
 159 0092 A29138DD 		.ascii	"\242\2218\335\346?\254j\326\270R\210\010=<p\013[(\352"
 159      E63FAC6A 
 159      D6B85288 
 159      083D3C70 
 159      0B5B28EA 
 160 00a6 69F8862B 		.ascii	"i\370\206+\353\245+\001\223\226\237\223\321\261\034"
 160      EBA52B01 
 160      93969F93 
 160      D1B11C
 161 00b5 5E1AC8A7 		.ascii	"^\032\310\247\345\263\211H\253-\327C\320\374\374H\323"
 161      E5B38948 
 161      AB2DD743 
 161      D0FCFC48 
 161      D3
 162 00c6 64A0F0A2 		.ascii	"d\240\360\242R!\225\030\276(\325fWJ\334\201$@4#\027"
 162      52219518 
 162      BE28D566 
 162      574ADC81 
 162      24403423 
 163 00db B7912B68 		.ascii	"\267\221+hK\340.\0129\376\335\315\371\306l\237\351-"
 163      4BE02E0A 
 163      39FEDDCD 
 163      F9C66C9F 
 163      E92D
 164 00ed E4C43DF8 		.ascii	"\344\304=\370@\373\335\357\277\017\005\344F\215\371"
 164      40FBDDEF 
 164      BF0F05E4 
 164      468DF9
 165 00fc A1AEF792 		.ascii	"\241\256\367\222]pAc\3166\345\235\257V\275\312tICl)"
ARM GAS  C:\Users\CHRIST~1\AppData\Local\Temp\cc351EOy.s 			page 13


 165      5D704163 
 165      CE36E59D 
 165      AF56BDCA 
 165      7449436C 
 166 0111 2E8FDF90 		.ascii	".\217\337\220hA\201\206\323\233o\316\216\316\257\220"
 166      68418186 
 166      D39B6FCE 
 166      8ECEAF90 
 167 0121 051AAFBF 		.ascii	"\005\032\257\277\341\332\211@\032o\376\\VT%\302\371"
 167      E1DA8940 
 167      1A6FFE5C 
 167      565425C2 
 167      F9
 168 0132 AEB410FF 		.ascii	"\256\264\020\377\007\\X;D\331\201V\306\275\017_D\376"
 168      075C583B 
 168      44D98156 
 168      C6BD0F5F 
 168      44FE
 169 0144 C16EB066 		.ascii	"\301n\260fk\264eR\251\223\012\377\347\327\3168m$7A\034"
 169      6BB46552 
 169      A9930AFF 
 169      E7D7CE38 
 169      6D243741 
 170 0159 F9053ABF 		.ascii	"\371\005:\277>d%\324\374\317Z\252F\336\271\370\324\334"
 170      3E6425D4 
 170      FCCF5AAA 
 170      46DEB9F8 
 170      D4DC
 171 016b A600C82F 		.ascii	"\246\000\310/\213\214'\303,\232\2326\277\204\250#\267"
 171      8B8C27C3 
 171      2C9A9A36 
 171      BF84A823 
 171      B7
 172 017c A8A02A21 		.ascii	"\250\240*!\216H\203g\325\0111\215\320\267\332d\353="
 172      8E488367 
 172      D509318D 
 172      D0B7DA64 
 172      EB3D
 173 018e B0ECA864 		.ascii	"\260\354\250d\037#5\235\203~.U\212l\2743\331\343\363"
 173      1F23359D 
 173      837E2E55 
 173      8A6CBC33 
 173      D9E3F3
 174 01a1 D07488D4 		.ascii	"\320t\210\324x\343\014Mq\022\035\314\216\216\207kGF"
 174      78E30C4D 
 174      71121DCC 
 174      8E8E876B 
 174      4746
 175 01b3 03CE55D6 		.ascii	"\003\316U\326J\216\370\321\011\017\2152\315\373rrz\324"
 175      4A8EF8D1 
 175      090F8D32 
 175      CDFB7272 
 175      7AD4
 176 01c5 57F5830F 		.ascii	"W\365\203\017\275\026\260a]p\250b\335\250\022\343\010"
 176      BD16B061 
 176      5D70A862 
 176      DDA812E3 
ARM GAS  C:\Users\CHRIST~1\AppData\Local\Temp\cc351EOy.s 			page 14


 176      08
 177 01d6 E573D2BF 		.ascii	"\345s\322\277\272k/\347.\036\240\200h2\357\226\271W"
 177      BA6B2FE7 
 177      2E1EA080 
 177      6832EF96 
 177      B957
 178 01e8 F1C10E2B 		.ascii	"\361\301\016+\303\357\323#~?\007\351:FH\347o\373\004"
 178      C3EFD323 
 178      7E3F07E9 
 178      3A4648E7 
 178      6FFB04
 179 01fb 7AC8B187 		.ascii	"z\310\261\207l\335C\026k-\026k/\021K\\W\260\312\336"
 179      6CDD4316 
 179      6B2D166B 
 179      2F114B5C 
 179      57B0CADE 
 180 020f B4CACFF5 		.ascii	"\264\312\317\365'G@*\217+\365v\342\313\2723;\\\271\022"
 180      2747402A 
 180      8F2BF576 
 180      E2CBBA33 
 180      3B5CB912 
 181 0223 8FB45468 		.ascii	"\217\264ThX\201\307\244\2144\275\255\237\031\323fj\022"
 181      5881C7A4 
 181      8C34BDAD 
 181      9F19D366 
 181      6A12
 182 0235 E23DC2AF 		.ascii	"\342=\302\257\273\266\245\315\245\224Z\304\021\352\346"
 182      BBB6A5CD 
 182      A5945AC4 
 182      11EAE6
 183 0244 4F45E43E 		.ascii	"OE\344>\305{w\033\212\2705\270GX\030CL\204^\365\344"
 183      C57B771B 
 183      8AB835B8 
 183      47581843 
 183      4C845EF5 
 184 0259 E8F2B6F3 		.ascii	"\350\362\266\363\246\245\325N=n\276\002\336\214J{1q"
 184      A6A5D54E 
 184      3D6EBE02 
 184      DE8C4A7B 
 184      3171
 185 026b 33937880 		.ascii	"3\223x\200~\201\276e\313c\242_s6t\027\011$\2113a\017"
 185      7E81BE65 
 185      CB63A25F 
 185      73367417 
 185      09248933 
 186 0281 1F9D938C 		.ascii	"\037\235\223\214\274\030\326\312\204\365\263\037\003"
 186      BC18D6CA 
 186      84F5B31F 
 186      03
 187 028e 7FC27A6B 		.ascii	"\177\302zk\031wp\301\013\215\373\004\016\261d\350\350"
 187      197770C1 
 187      0B8DFB04 
 187      0EB164E8 
 187      E8
 188 029f 545F731C 		.ascii	"T_s\034i\360\245$\355\345Hz\007\031\355\251F\223i\264"
 188      69F0A524 
 188      EDE5487A 
ARM GAS  C:\Users\CHRIST~1\AppData\Local\Temp\cc351EOy.s 			page 15


 188      0719EDA9 
 188      469369B4 
 189 02b3 21464B39 		.ascii	"!FK9S\377q\314\277\340\226H\265\320\375\224M\213V|\213"
 189      53FF71CC 
 189      BFE09648 
 189      B5D0FD94 
 189      4D8B567C 
 190 02c8 39F7D7C9 		.ascii	"9\367\327\311\331\352\000\357dvq\336?M\312\3023\235"
 190      D9EA00EF 
 190      647671DE 
 190      3F4DCAC2 
 190      339D
 191 02da DE4CF5F0 		.ascii	"\336L\365\360\265\217\241\0013M\256\334\225\331\030"
 191      B58FA101 
 191      334DAEDC 
 191      95D918
 192 02e9 86D3A80B 		.ascii	"\206\323\250\013\211\347p(\340\372Ll.\233-\313!\371"
 192      89E77028 
 192      E0FA4C6C 
 192      2E9B2DCB 
 192      21F9
 193 02fb 2F087206 		.ascii	"/\010r\006a\257\275\301\342\314\014\020\213\315\274"
 193      61AFBDC1 
 193      E2CC0C10 
 193      8BCDBC
 194 030a F6D325B0 		.ascii	"\366\323%\260]\271*B\242\004^R\373S~W\256\326\315`\246"
 194      5DB92A42 
 194      A2045E52 
 194      FB537E57 
 194      AED6CD60 
 195 031f EFE22C75 		.ascii	"\357\342,u\303D\003R\177@\202\357+\370\304\020\"\267"
 195      C3440352 
 195      7F4082EF 
 195      2BF8C410 
 195      22B7
 196 0331 B8D8497D 		.ascii	"\270\330I}\366V8\345\225NEy\320\011\226\006\367\356"
 196      F65638E5 
 196      954E4579 
 196      D0099606 
 196      F7EE
 197 0343 29290E0A 		.ascii	"))\016\012#XfT\226\311\312}e\371\031a\273\366\004w\357"
 197      23586654 
 197      96C9CA7D 
 197      65F91961 
 197      BBF60477 
 198 0358 2FD949A1 		.ascii	"/\331I\241\025\301\322\222\342R\361\013\202\022\335"
 198      15C1D292 
 198      E252F10B 
 198      8212DD
 199 0367 95       		.ascii	"\225"
 200              		.text
 201              		.section	.gnu.lto_chCondBroadcast.67ee54fd,"",%progbits
 202 0000 789C7D55 		.ascii	"x\234}U]L\024W\024\276g\356\314\354\272\213\212\255"
 202      5D4C1457 
 202      14BE67EE 
 202      CCECBA8B 
 202      8AAD
ARM GAS  C:\Users\CHRIST~1\AppData\Local\Temp\cc351EOy.s 			page 16


 203 0012 4D8C31BA 		.ascii	"M\2141\272$\335X\022\303\370\326\244\355Kk\322\264\017"
 203      24DD5812 
 203      C3F8D6A4 
 203      ED4B6BD2 
 203      B40F
 204 0024 BCC84BDF 		.ascii	"\274\310K\337\032\273\222h\"Bw\301h\037d\272\254]\254"
 204      1ABB9268 
 204      224277C1 
 204      681F64BA 
 204      AC5DAC
 205 0037 1AA98505 		.ascii	"\032\251\205\005\266\033\331\326Xi\361\257\376\226\337"
 205      B61BD9D6 
 205      5869F1AF 
 205      FE96DF
 206 0046 AE204AE5 		.ascii	"\256 J\345G\005TZ\220\"\377\010\322j\232X\214\205\236"
 206      4705545A 
 206      9022FF08 
 206      D26A9A58 
 206      8C859E
 207 0059 736796B2 		.ascii	"sg\226\262\313\352\004\356\316\275\367\334\357|\347"
 207      CBEA04EE 
 207      CEBDF7DC 
 207      EF7CE7
 208 0068 3BE79E51 		.ascii	";\347\236Q\031co[\031\033\304\337\017\360\037T\006R"
 208      19636F5B 
 208      191BC4DF 
 208      0FF01F54 
 208      0652
 209 007a 5107639F 		.ascii	"Q\007c\237[%\220\215\027n\274\\\261\312\022\277\320"
 209      5B25908D 
 209      176EBC5C 
 209      B1CA12BF 
 209      D0
 210 008b C8986E53 		.ascii	"\310\230nS\372\354LOR\000h]\267\002\313\227\270\254"
 210      FAEC4C4F 
 210      5200685D 
 210      B702CB97 
 210      B8AC
 211 009d 40BE2433 		.ascii	"@\276$3\3639\310\21394\372G\253\245\324\023:>\221\322"
 211      F339C88B 
 211      3934FA47 
 211      ABA5D413 
 211      3A3E91D2 
 212 00b1 62DB17FA 		.ascii	"b\333\027\372\276U!\316X\200\0336p\036R\321\352\266"
 212      BE5521CE 
 212      58801B36 
 212      701E52D1 
 212      EAB6
 213 00c3 EF6C881F 		.ascii	"\357l\210\037\340!\016 \343\364q{ph\031M%p\340\264k"
 213      E0210E20 
 213      E3F4717B 
 213      7068194D 
 213      2570E0B4 
 214 00d8 2C506FE5 		.ascii	",Po\345\353\200\341\373\267=G\307\355\353\217\353\272"
 214      EB80E1FB 
 214      B73D47C7 
 214      EDEB8FEB 
ARM GAS  C:\Users\CHRIST~1\AppData\Local\Temp\cc351EOy.s 			page 17


 214      BA
 215 00e9 578F0C1F 		.ascii	"W\217\014\037\347\372\353!\316\341\022p\004\204\213"
 215      E7FAEB21 
 215      CEE11270 
 215      04848B
 216 00f8 B0062EC0 		.ascii	"\260\006.\300\032\206K\014.\303z\262\037\374i\266d\251"
 216      1A864B0C 
 216      2EC37AB2 
 216      1FFC69B6 
 216      64A9
 217 010a 2A1B0EE1 		.ascii	"*\033\016\341gPa~\321'H\315V\252b=\300a\241=T\243i\015"
 217      6750617E 
 217      D12748CD 
 217      56AA623D 
 217      C061A13D 
 218 0122 4A1167DE 		.ascii	"J\021g\3365\374\226\302h#\300%\332\033\253\363w\003"
 218      35FC96C2 
 218      6823C025 
 218      DA1BABF3 
 218      7703
 219 0134 7F4F9C9D 		.ascii	"\177O\234\235\032-\214\310\316c\202\333\365\3627fz\306"
 219      1A2D8CC8 
 219      CE6382DB 
 219      F5F23766 
 219      7AC6
 220 0146 75FD880E 		.ascii	"u\375\210\016!.C],Cz\342\200\247gT\250\007'\203Z\302"
 220      212E435D 
 220      2C437AE2 
 220      80A76754 
 220      A8072783 
 221 015c E6315C1A 		.ascii	"\3461\\\032\220\313/\224\026\034\000\217\236\351T\""
 221      90CB2F94 
 221      161C008F 
 221      9EE95422 
 222 016c FAEC9C1F 		.ascii	"\372\354\234\037%]Yyk\242\314\271\\\002\012X\306\320"
 222      255D5979 
 222      6BA2CCB9 
 222      5C020A58 
 222      C6D0
 223 017e 15850615 		.ascii	"\025\205\006\025\007\325Bo\214\025b\350}v=\302\366#"
 223      07D5426F 
 223      8C1562E8 
 223      7D763DC2 
 223      F623
 224 0190 E53E7B41 		.ascii	"\345>{A\204\215\202\264\230\357\306?_\316\027\"\340"
 224      848D82B4 
 224      98EFC63F 
 224      5FCE1722 
 224      E0
 225 01a1 C443FE09 		.ascii	"\304C\376\011\275^\246\334\310\340\200+\2707\011\336"
 225      BD5EA6DC 
 225      C8E0802B 
 225      B83709DE 
 226 01b1 C1AAC3C5 		.ascii	"\301\252\303\305C\253\342\002\372\272\314f\012+/\022"
 226      43ABE202 
 226      FABACC66 
 226      0A2B2F12 
ARM GAS  C:\Users\CHRIST~1\AppData\Local\Temp\cc351EOy.s 			page 18


 227 01c1 D1A7A188 		.ascii	"\321\247\241\210\215\264\247\304\3575\225\277\223M\256"
 227      8DB4A7C4 
 227      EF3595BF 
 227      934DAE
 228 01d0 18342D16 		.ascii	"\0304-\026\342*\306\337LB4\223\020\300*(\233\337U\234"
 228      E22AC6DF 
 228      4C423493 
 228      10C02A28 
 228      9BDF559C 
 229 01e4 FBC79672 		.ascii	"\373\307\226r\026*\3642G\210[\350\300\251\241Z\035K"
 229      162AF432 
 229      47885BE8 
 229      C0A9A15A 
 229      1D4B
 230 01f6 15495F83 		.ascii	"\025I_\203\024!\365_S\335\275\022\256\300u\220\005m"
 230      1421F55F 
 230      53DDBD12 
 230      AEC07590 
 230      056D
 231 0208 062DA2D6 		.ascii	"\006-\242\326*\033\232F\222R\316\233\247\255d\373\344"
 231      2A1B9A46 
 231      9252CE9B 
 231      A7AD64FB 
 231      E4
 232 0219 F4B93B76 		.ascii	"\364\271;vq\372W:\0157@F\311\274\016!\001I\261\037i"
 232      71FA573A 
 232      0D374046 
 232      C9BC0E21 
 232      0149B11F 
 233 022e E12D104A 		.ascii	"\341-\020Jz\007\0164\034\027EUu\250\310n\252y\2672)"
 233      7A070E34 
 233      1C174555 
 233      75A8C86E 
 233      AA79B732 
 234 0243 A8477C8E 		.ascii	"\250G|\216\004\305\231(\365\225*\264R\304B-5&\3426\014"
 234      04C59928 
 234      F5952AB4 
 234      52C4422D 
 234      3526E236 
 235 0258 B49D22C6 		.ascii	"\264\235\"\306\001\327\373\276\351\237]\302kA\324[\333"
 235      01D7FBBE 
 235      E99F5DC2 
 235      6B41D45B 
 235      DB
 236 0269 E1D35F45 		.ascii	"\341\323_E=N\377\030\365\250BG\202\344\335\004g\020"
 236      3D4EFF18 
 236      F5A84247 
 236      82E4DD04 
 236      6710
 237 027b A189EF5C 		.ascii	"\241\211\357\\i\321\344x\3745(}nS\310H8\012\030*^\035"
 237      69D1E478 
 237      FC35287D 
 237      6E53C848 
 237      380A182A 
 238 0291 79DE69E7 		.ascii	"y\336i\347\003\206\263\311\302\226\023V\323\331\334"
 238      0386B3C9 
 238      C2961356 
ARM GAS  C:\Users\CHRIST~1\AppData\Local\Temp\cc351EOy.s 			page 19


 238      D3D9DC
 239 02a0 19C7C963 		.ascii	"\031\307\311c\376Cz\330\233\214\025\006\267_\022\241"
 239      FE437AD8 
 239      9B8C1506 
 239      B75F12A1 
 240 02b0 0C9D047A 		.ascii	"\014\235\004z\013\303\350\2420p\240\225 \026\305C\360"
 240      0BC3E8A2 
 240      3070A095 
 240      2016C543 
 240      F0
 241 02c1 D64CDCB8 		.ascii	"\326L\334\270x\022h1\310\025<\023\330\327x\323B\305"
 241      78126831 
 241      C8153C13 
 241      D8D778D3 
 241      42C5
 242 02d3 A5089F75 		.ascii	"\245\010\237u\215\355\327\3240\034\305\222\\\202'\240"
 242      8DEDD7D4 
 242      301CC592 
 242      5C8227A0 
 243 02e3 9BD071BD 		.ascii	"\233\320q\275\333\337\323o\327N\021q\007\331\336\201"
 243      DBDFD36F 
 243      D74E1171 
 243      07D9DE81 
 244 02f3 30946095 		.ascii	"0\224`\225\223\033\006wA#\354\356/g8!/\204U\343amA\354"
 244      931B0677 
 244      4123ECEE 
 244      2F673821 
 244      2F8455E3 
 245 030b 31F716C3 		.ascii	"1\367\026\303\206W\023n\217\300\005\023\3677\320\220"
 245      8657136E 
 245      8FC00513 
 245      F737D090 
 246 031b 25410727 		.ascii	"%A\007'Z/\326\201\011\036KRID2\374\031\241\375.\320"
 246      5A2FD681 
 246      091E4B52 
 246      494432FC 
 246      19A1FD2E 
 247 0330 2413AD97 		.ascii	"$\023\255\227\320\324\371\002\"\331\205\376\242\322"
 247      D0D4F902 
 247      22D985FE 
 247      A2D2
 248 033e C48C8463 		.ascii	"\304\214\204cS\340\023\263 \267 fu\365T\257%\377_\335"
 248      53E013B3 
 248      20B72066 
 248      75F554AF 
 248      25FF5FDD 
 249 0352 1AE2F600 		.ascii	"\032\342\366\000\267Ru0\350\203|\206\352\204x\022q\373"
 249      B7527530 
 249      E8837C86 
 249      EA847812 
 249      71FB
 250 0364 BB65AF59 		.ascii	"\273e\257Y+\261\304,\011\211}\217\242,\205\373\202\031"
 250      2BB1C42C 
 250      09897D8F 
 250      A22C85FB 
 250      8219
 251 0376 17D54616 		.ascii	"\027\325F\026\247\037y;d\323\242\006-\226A?h%\334(G"
ARM GAS  C:\Users\CHRIST~1\AppData\Local\Temp\cc351EOy.s 			page 20


 251      A71F793B 
 251      64D3A206 
 251      2D96413F 
 251      6825DC28 
 252 038b 067F8046 		.ascii	"\006\177\200F\360\347\016=\005\022u9\354\205\001\221"
 252      F0E70E3D 
 252      05127539 
 252      EC850191 
 253 039b F7FD6882 		.ascii	"\367\375h\202\237\003\274\027H\344\231\377\376\275a"
 253      9F03BC17 
 253      48E499FF 
 253      FEBD61
 254 03aa 30B8C724 		.ascii	"0\270\307$\201\307'!\231\222\360 \001\273'\224!\030"
 254      81C72721 
 254      9992F020 
 254      01BB2794 
 254      2118
 255 03bc 14EC9479 		.ascii	"\024\354\224yvU\355\017\373U\024\201,F\201\222:\004"
 255      7655ED0F 
 255      FB551481 
 255      2C468192 
 255      3A04
 256 03ce 9AC16C18 		.ascii	"\232\301l\030\245\210\352\367\302\013\262\"\341\005"
 256      A588EAF7 
 256      C20BB222 
 256      E105
 257 03dc 19312E08 		.ascii	"\0311.\010\025\345\314\\\363\323\362\217\342/\3103\333"
 257      15E5CC5C 
 257      F3D3F28F 
 257      E22FC833 
 257      DB
 258 03ed 6A32322F 		.ascii	"j22/\310\222\230[:\212\351\032#\002c\024\255\2740\332"
 258      C892985B 
 258      3A8AE91A 
 258      23026314 
 258      ADBC30DA 
 259 0401 15F1D1BE 		.ascii	"\025\361\321\276B\321\216\233\321>>p\244\0070\332\""
 259      42D18E9B 
 259      D13E3E70 
 259      A40730DA 
 259      22
 260 0412 5DC77BB9 		.ascii	"]\307{\271\366h\201=\304_\205\211h\335\215\022\346C"
 260      F668813D 
 260      C45F8589 
 260      68DD8D12 
 260      E643
 261 0424 AC675126 		.ascii	"\254gQ&\365\315\242\027\010\026l\004|\275Mm\246\276"
 261      F5CDA217 
 261      08166C04 
 261      7CBD4D6D 
 261      A6BE
 262 0436 3251373A 		.ascii	"2Q7:\223\022m\361\336\360et@_\274V\243\220\012\302\325"
 262      93126DF1 
 262      DEF06574 
 262      405FBC56 
 262      A3900AC2 
 263 044b 2B69CE62 		.ascii	"+i\316b\013ie\200\3330\376I\224.\304_\023\337\006\372"
ARM GAS  C:\Users\CHRIST~1\AppData\Local\Temp\cc351EOy.s 			page 21


 263      0B696580 
 263      DB30FE49 
 263      942EC45F 
 263      13DF06FA 
 264 045f 102D8C41 		.ascii	"\020-\214AF*Sf\253\377\341p\261\313\370\016\231\355"
 264      462A5366 
 264      ABFFE170 
 264      B1CBF80E 
 264      99ED
 265 0471 77B6E241 		.ascii	"w\266\342A\203=\332Y\247Dg}$:k|\033\2356\332\350\300"
 265      833DDA59 
 265      A744677D 
 265      243A6B7C 
 265      1B9D36DA 
 266 0487 8383356B 		.ascii	"\203\2035k\205\013\306\246)\2542\247`EO!\006\335g\307"
 266      850BC6A6 
 266      29AC32A7 
 266      60454F21 
 266      06DD67C7 
 267 049b 236BD2D2 		.ascii	"#k\322\3224\343/\333\243\271s5\217\333\245\271\266\271"
 267      34E32FDB 
 267      A3B97335 
 267      8FDBA5B9 
 267      B6B9
 268 04ad B2776E4D 		.ascii	"\262wnMs1\311\225\263.n\177\373N\327\216\274\255\231"
 268      7331C995 
 268      B32E6E7F 
 268      FB4ED78E 
 268      BCAD99
 269 04c0 68E3D9E3 		.ascii	"h\343\331\343I\333\306\224][v\344e\246\306Y\345d\273"
 269      49DBC694 
 269      5D5B76E4 
 269      65A6C659 
 269      E564BB
 270 04d3 733DDABB 		.ascii	"s=\332\273\233\3237\245\357\026p\356\314\217w\275\231"
 270      9BD337A5 
 270      EF1670EE 
 270      CC8F77BD 
 270      99
 271 04e4 85F61B16 		.ascii	"\205\366\033\026Zf\356\316\3256\245g|\230\361?,Y\272"
 271      5A66EECE 
 271      D536A567 
 271      7C98F13F 
 271      2C59BA
 272 04f7 B2DECFDB 		.ascii	"\262\336\317\333\351B\343\344\364\214\315\216O\266x"
 272      E942E3E4 
 272      F48CCD8E 
 272      4FB678
 273 0506 3273DCDB 		.ascii	"2s\334\33378\234\033\231\344f\226\254\314\254l\367\036"
 273      37389C1B 
 273      99E46696 
 273      ACCCAC6C 
 273      F71E
 274 0518 C6733FCD 		.ascii	"\306s?\315q\274\230\234k\333V\004\220rs\376\003\262"
 274      71BC989C 
 274      6BDB5604 
 274      907273FE 
ARM GAS  C:\Users\CHRIST~1\AppData\Local\Temp\cc351EOy.s 			page 22


 274      03B2
 275 052a 54F44E   		.ascii	"T\364N"
 276              		.text
 277              		.section	.gnu.lto_chCondBroadcastI.67ee54fd,"",%progbits
 278 0000 789C7554 		.ascii	"x\234uT\355oLi\024?\277\373\334;\2753S\265\037E*&BD"
 278      ED6F4C69 
 278      143FBFFB 
 278      DC3BBD33 
 278      53B51F45 
 279 0018 22BDC9FE 		.ascii	"\"\275\311\376\023\210\177`\277O7\251D\350j}\361A\037"
 279      13887F60 
 279      BF4F37A9 
 279      44E86A7D 
 279      F1411F
 280 002b 63686D89 		.ascii	"chm\211\227\350\210k\"#R\022o\273\213\242oL\007U\364"
 280      97E8886B 
 280      22235212 
 280      6FBB8BA2 
 280      6F4C0755 
 281 0040 45ABB25D 		.ascii	"E\253\262]\252\021/]lI\210DX\333u\316s\357\320V\335"
 281      AA112F5D 
 281      6C498844 
 281      58DB75CE 
 281      73EFD056 
 282 0055 CCDC7B9E 		.ascii	"\314\334{\236\347\236\347w~\347w\316\271\021\"Z\356"
 282      E79EE777 
 282      7EE777CE 
 282      B911225A 
 282      EE
 283 0066 10ADE2E7 		.ascii	"\020\255\342\347J\376#B\260\366\364\023mq-\330\201\241"
 283      4AFE2342 
 283      B0F6F413 
 283      6D712DD8 
 283      81A1
 284 0078 02A3CBB5 		.ascii	"\002\243\313\265-u\276@\244c\316h\234t\251\003\310\276"
 284      2D75BE40 
 284      A463CE68 
 284      9C74A903 
 284      C8BE
 285 008a 76417596 		.ascii	"vAu\226\262\035\324Y6\205\327N\265_\241P?\336j-;\256"
 285      B21DD459 
 285      3685D74E 
 285      B55FA150 
 285      3FDE6A2D 
 286 00a0 F9CA1FB8 		.ascii	"\371\312\037\270\037\333\256\267\315\313*\242\214\012"
 286      1FDBAEB7 
 286      CDCB2AA2 
 286      8C0A
 287 00ae 7C700ECB 		.ascii	"|p\016\313\330k0\375{V5\252\254\002l^\276\351\363\237"
 287      D86B30FD 
 287      7B5635AA 
 287      AC026C5E 
 287      BEE9F39F 
 288 00c2 94C9D242 		.ascii	"\224\311\322B\202\227w\377\316t\272j!\210\355##\207"
 288      829777FF 
 288      CE74BA6A 
 288      2188ED23 
ARM GAS  C:\Users\CHRIST~1\AppData\Local\Temp\cc351EOy.s 			page 23


 288      2387
 289 00d4 9FC79736 		.ascii	"\237\307\2276k\235\322\371\211f\245\027g\225\302\005"
 289      6B9DD2F9 
 289      8966A517 
 289      6795C205 
 290 00e4 2806440B 		.ascii	"(\006D\013\312q\036\345\304[\204\213X*\376\217\377\230"
 290      CA711EE5 
 290      C45B848B 
 290      582AFE8F 
 290      FF98
 291 00f6 6C9A13B1 		.ascii	"l\232\023\261s\305\230\270$\351\261\361\333\220\223"
 291      73C598B8 
 291      24E9B1F1 
 291      DB9093
 292 0105 D793FFD7 		.ascii	"\327\223\377\327\353|\3571\354]]\012>f[|s8'>\354\312"
 292      EB7CEF31 
 292      EC5D5D0A 
 292      3E665B7C 
 292      7338273E 
 293 011b 3A2A37A2 		.ascii	":*7\242\006>9\032\327y6,6\266\346i\007\207`\035\330"
 293      063E391A 
 293      D779362C 
 293      36B6E669 
 293      0787601D 
 294 0130 1A472AF7 		.ascii	"\032G*\367o\223#\270\034n\364\320\330dT-2T{w\237\331"
 294      6F9323B8 
 294      1C6EF4D0 
 294      D864542D 
 294      32547B77 
 295 0146 1B5F72D4 		.ascii	"\033_r\324P}}\242\324\327\371t\202\341\321:\235\255"
 295      507D7DA2 
 295      D4D7F974 
 295      82E1D13A 
 295      9DAD
 296 0158 91A10D4B 		.ascii	"\221\241\015K|\306f\260G\355\251\277\272\313\2760O\007"
 296      7CC666B0 
 296      47EDA9BF 
 296      BACBBE30 
 296      4F07
 297 016a CA7D8A39 		.ascii	"\312}\2129\342c\350g\224\201\277\366\354\323P\\\255"
 297      E263E867 
 297      9481BFF6 
 297      ECD3505C 
 297      AD
 298 017b 30F63F0D 		.ascii	"0\366?\015=\307\3350\324\373\364\217~\333s\255\367i"
 298      3DC7DD30 
 298      D4FBF48F 
 298      7EDB73AD 
 298      F769
 299 018d 3079747C 		.ascii	"0yt|\033\355\253,\350\024\314vDpYd\341\233\354\370*"
 299      1BEDAB2C 
 299      E814CC76 
 299      44705964 
 299      E19BECF8 
 300 01a2 4A2F916A 		.ascii	"J/\221j{q\253\345\024d\323W.\237\311l+\014\224HUl\023"
 300      7B71ABE5 
 300      1464D357 
ARM GAS  C:\Users\CHRIST~1\AppData\Local\Temp\cc351EOy.s 			page 24


 300      2E9FC96C 
 300      2B0C9448 
 301 01b9 B3A3D0D7 		.ascii	"\263\243\320\327\035\311\3410Ga\207(\256\010:\357\017"
 301      1DC9E130 
 301      47618728 
 301      AE083AEF 
 301      0F
 302 01ca D78F8CC5 		.ascii	"\327\217\214\305\275\323\302;!\276y\344\320\304\002"
 302      BDD3C23B 
 302      21BE79E4 
 302      D0C402
 303 01d9 4A184217 		.ascii	"J\030B\027<\301\036\376\365\203\022\344\251\260\316"
 303      3CC11EFE 
 303      F58312E4 
 303      A9B0CE
 304 01e8 4CD8129F 		.ascii	"L\330\022\237\367\012\337\302\346\346\013\356U\203\213"
 304      F70ADFC2 
 304      E6E60BEE 
 304      55838B
 305 01f7 10F71A3C 		.ascii	"\020\367\032<f)\320\376\213\333-\035\010\301\247\223"
 305      6629D0FE 
 305      8BDB2D1D 
 305      08C1A793 
 306 0207 74672399 		.ascii	"tg#\231\333$h\327\015\232\025\242u\013ZP\216\306\313"
 306      DB2468D7 
 306      0D9A15A2 
 306      750B5A50 
 306      8EC6CB
 307 021a CD10D58D 		.ascii	"\315\020\325\215\374\262\2230+\021\216&\2206+_\2011"
 307      FCB29330 
 307      2B118E26 
 307      90362B5F 
 307      8131
 308 022c 5B5B271E 		.ascii	"[['\036\224\324\375\247\335\254r3|\232p\003u\304\322"
 308      94D4FDA7 
 308      DDAC7233 
 308      7C9A7003 
 308      75C4D2
 309 023f 64033DDF 		.ascii	"d\003=\337\365l\016\273\244\310j\213\204?\246\310\220"
 309      F56C0EBB 
 309      A4C86A8B 
 309      843FA6C8 
 309      90
 310 0250 C377148C 		.ascii	"\303w\024\214\241\307pSA\345\316\274J\365\333!\3636"
 310      A1C77053 
 310      41E5CEBC 
 310      4AF5DB21 
 310      F336
 311 0262 562D8E9B 		.ascii	"V-\216\233\360\232\244K\011\267\340\011\372\331]\357"
 311      F09AA44B 
 311      09B7E009 
 311      FAD95DEF 
 312 0272 21829662 		.ascii	"!\202\226b3n\233\232\357\340\367<\247\334\256\314\343"
 312      336E9B9A 
 312      EFE0F73C 
 312      A7DCAECC 
 312      E3
ARM GAS  C:\Users\CHRIST~1\AppData\Local\Temp\cc351EOy.s 			page 25


 313 0283 63FDC33F 		.ascii	"c\375\303?\237\"\340mM-\200\232V\000C\356\255\214\305"
 313      9F22E06D 
 313      4D2D809A 
 313      560043EE 
 313      AD8CC5
 314 0296 1CA943EF 		.ascii	"\034\251C\357\254\344J\320g\3109\001\271\223}/\307\""
 314      ACE44AD0 
 314      67C83901 
 314      B9937D2F 
 314      C722
 315 02a8 2C811C1D 		.ascii	",\201\034\035\207\224\264\237\353M\030`!\212\322}w2"
 315      8794B49F 
 315      EB4D1860 
 315      218AD27D 
 315      7732
 316 02ba CA669D8C 		.ascii	"\312f\235\214;\301dH?~\350\357\030\350rf\216\306\307"
 316      3BC16448 
 316      3F7EE8EF 
 316      18E87266 
 316      8EC6C7
 317 02cd D87C710A 		.ascii	"\330|q\012GCM\351n\302 WjH\012:$\311F\247&[6\263\333"
 317      47434DE9 
 317      6EC22057 
 317      6A480A3A 
 317      24C946A7 
 318 02e6 E64A9677 		.ascii	"\346J\226w\303,\3374\356\033\001g\271G\353G\355o\027"
 318      C32CDF34 
 318      EE1B0167 
 318      B947EB47 
 318      ED6F17
 319 02f9 1CFC29AB 		.ascii	"\034\374)\253~\300p\261\343\006\005\362\036gf\032\244"
 319      7EC070B1 
 319      E30605F2 
 319      1E67661A 
 319      A4
 320 030a F37AC4B4 		.ascii	"\363z\304\264\204\220\240gH?\270\332[TW&\211\214\376"
 320      8490A067 
 320      483FB8DA 
 320      5B545726 
 320      898CFE
 321 031d 4EF0DD78 		.ascii	"N\360\335x\315_\213\243\031\363\332\274h`\270\3218\367"
 321      CD5F8BA3 
 321      19F3DABC 
 321      6860B8D1 
 321      38F7
 322 032f 4A794585 		.ascii	"JyE\205\027\374\326\327x\033j\275\232\015I/Y\225\\\277"
 322      17FCD6D7 
 322      781B6ABD 
 322      9A0D492F 
 322      59955CBF 
 323 0343 AEB22249 		.ascii	"\256\262\"IV\262Z\325\376R\235\230\341\263f]r\355\306"
 323      56B25AD5 
 323      FE529D98 
 323      E1B3665D 
 323      72EDC6
 324 0356 CA9FD9AF 		.ascii	"\312\237\331\257&YUYQEVm\365g\332\347\306\366"
 324      26595559 
ARM GAS  C:\Users\CHRIST~1\AppData\Local\Temp\cc351EOy.s 			page 26


 324      5145566D 
 324      F567DAE7 
 324      C6F6
 325              		.text
 326              		.section	.gnu.lto_chCondWaitS.67ee54fd,"",%progbits
 327 0000 789C9556 		.ascii	"x\234\225V]P[U\020>{\317\315MB `\377\246\303P\3138\""
 327      5D505B55 
 327      103E7BCF 
 327      CD4D4220 
 327      60FFA6C3 
 328 0018 C30B79F5 		.ascii	"\303\013y\365Q\337|\361\331W\307\340\024g\204R\300N"
 328      51DF7CF1 
 328      D957C7E0 
 328      14678452 
 328      C04E
 329 002a DFB81018 		.ascii	"\337\270\020\030~Z\306Z%\235\2111\246\002\246\202\322"
 329      7E5AC65A 
 329      259D8931 
 329      A602A682 
 329      D2
 330 003b 3A02120A 		.ascii	":\002\022\012%B\015\324\362#\224\012-?\305R\376)3u\034"
 330      25420DD4 
 330      F223940A 
 330      2D3FC552 
 330      FE293375 
 331 0050 98D28AEE 		.ascii	"\230\322\212\356\236s\251\011$c\275\223\344\336{\316"
 331      9E73A909 
 331      2463BD93 
 331      E4DE7BCE 
 332 0060 EEB7DF7E 		.ascii	"\356\267\337~gw'\032c\354m+c\305x\177\007\277`f\240"
 332      6777271A 
 332      63EC6D2B 
 332      63C5787F 
 332      07BF6066 
 333 0075 9C1F66AC 		.ascii	"\234\037f\254\324\242\000\227\017\\Q\277\032`LO0m\230"
 333      D4A20097 
 333      0F5C51BF 
 333      1A604C4F 
 333      306D98
 334 0088 989EA82A 		.ascii	"\230\236\250*Z\344\253&\315\3364\001\320]\267\000+Q"
 334      5AE4AB26 
 334      CDDE3401 
 334      D05DB700 
 334      2B51
 335 009a B8AA9900 		.ascii	"\270\252\231\000o\314\270\316\361\3178\214\226_\365"
 335      6FCCB8CE 
 335      F1CF388C 
 335      965FF5
 336 00a9 F2B3DCCB 		.ascii	"\362\263\334\313\031\250\370\372x\3103o\247W\200t|m"
 336      19A8F8FA 
 336      78C8336F 
 336      A7578074 
 336      7C6D
 337 00bb EC767541 		.ascii	"\354vuAV@\307+t\261\323\036pU\274\345\345\012s\243u"
 337      5640C72B 
 337      74B1D31E 
 337      7055BCE5 
ARM GAS  C:\Users\CHRIST~1\AppData\Local\Temp\cc351EOy.s 			page 27


 337      E50A73A3 
 338 00d0 2BA4C10F 		.ascii	"+\244\301\017\220F\364\332 \013mo/\271\273-\37480|\276"
 338      9046F4DA 
 338      200B6D6F 
 338      2FB9BB2D 
 338      FC38307C 
 339 00e5 34E95BB6 		.ascii	"4\351[\266e6\352z\231\036\032l\344\372\253^\316\241"
 339      6536EA7A 
 339      991E1A6C 
 339      E4FAAB5E 
 339      CEA1
 340 00f7 1D78A423 		.ascii	"\035x\244#.1\370\0212\311~\360jpB\345\257\010\337P\303"
 340      2E31F811 
 340      32C97EF0 
 340      6A7042E5 
 340      AF08DF50 
 341 010c BD514B46 		.ascii	"\275QKF\275\210\031\356<p\311\245\017\350*F\205\216"
 341      BD8819EE 
 341      3C70C9A5 
 341      0FE82A46 
 341      858E
 342 011e 687FBAD0 		.ascii	"h\177\272\320|\271#\\e\341\257\011\327k\375\015\237"
 342      7CB9235C 
 342      65E1AF09 
 342      D76BFD0D 
 342      9F
 343 012f AAE48A61 		.ascii	"\252\344\212aw\202Gw]U\350\214\351:\270\323:\222\300"
 343      77824777 
 343      5D55E88C 
 343      E93AB8D3 
 343      3A92C0
 344 0142 B3846BCD 		.ascii	"\263\204k\315\375\236-\263\341\272\031L\335u5AWL\327"
 344      FD9E2DB3 
 344      E1BA194C 
 344      DD753541 
 344      574CD7
 345 0155 07DFEFD4 		.ascii	"\007\337\357\324%i*tC\006\\\303o\0202\374(\254\233\304"
 345      25692A74 
 345      43065CC3 
 345      6F1032FC 
 345      28AC9BC4 
 346 0169 85EBA031 		.ascii	"\205\353\2401`\214\213]\334!\373\346\332\3636\003~\255"
 346      608C8B5D 
 346      DC21FBE6 
 346      DAF33603 
 346      7EAD
 347 017b 31D3D3AA 		.ascii	"1\323\323\252\353\325o\020|\373~x\350\201\214+c\246"
 347      EBD56F10 
 347      7CFB7E78 
 347      E8818C2B 
 347      63A6
 348 018d 90BEF377 		.ascii	"\220\276\363w%\312\236\032\354\\\271\225yXA\3014\264"
 348      25CA9E1A 
 348      EC5CB995 
 348      795841C1 
 348      34B4
 349 019f 444C5598 		.ascii	"DLU\230h@\352Y\031E\260\211\225D41'\321\217\035\177"
ARM GAS  C:\Users\CHRIST~1\AppData\Local\Temp\cc351EOy.s 			page 28


 349      6840EA59 
 349      1945B089 
 349      95443431 
 349      27D18F1D 
 350 01b4 4CC96231 		.ascii	"L\311b1\005\037U\306\252\220Y\203M\017\261j<\277\006"
 350      051F55C6 
 350      AA905983 
 350      4D0FB16A 
 350      3CBF06
 351 01c7 9B2BC456 		.ascii	"\233+\304V\241\254s\305\0270\023]\017\247ZpW\364\216"
 351      A1AC73C5 
 351      1730135D 
 351      0FA75A70 
 351      57F48E
 352 01da 98E9F02D 		.ascii	"\230\351\360-B\222`p}\312\\\362\227n\301\005?\007\221"
 352      42926070 
 352      7DCA5CF2 
 352      976EC105 
 352      3F0791
 353 01ed 77ABEBF1 		.ascii	"w\253\353\361\005\273\037|\340\345V\370\011J D\244q"
 353      05BB1F7C 
 353      E0E556F8 
 353      094A2044 
 353      A471
 354 01ff A3BD7FFA 		.ascii	"\243\275\177\372\251\305\361\035\235\232\277\005w\023"
 354      A9C5F11D 
 354      9D9ABF05 
 354      7713
 355 020d A017FC50 		.ascii	"\240\027\374P\307\015\275\266'\\\025\212\334N\247\264"
 355      C70DBDB6 
 355      275C158A 
 355      DC4EA7B4 
 356 021d FBC05147 		.ascii	"\373\300QG\220\014n\200\203-B\231\3774\361\240\354\220"
 356      900C6E80 
 356      832D4299 
 356      FF34F1A0 
 356      EC90
 357 022f 8BE0F6C4 		.ascii	"\213\340\366\304\347\272s\301\374\\\353rY\204\263vM"
 357      E7BA73C1 
 357      FC5CEB72 
 357      5984B376 
 357      4D
 358 0240 08ECE610 		.ascii	"\010\354\346\020q\016\014~F\3470\351\036\246lR\"\263"
 358      710E0C7E 
 358      46E730E9 
 358      1EA66C52 
 358      22B3
 359 0252 3109CBAE 		.ascii	"1\011\313\256\336\241\260&\231\3330\004\364\033\304"
 359      DEA1B026 
 359      99DB3004 
 359      F41BC4
 360 0261 C72B2767 		.ascii	"\307+'gm\222\331\334\323s\207\232\012\275<\021\006\004"
 360      6D92D9DC 
 360      D373879A 
 360      0ABD3C11 
 360      0604
 361 0273 7745C032 		.ascii	"wE\3002\270))\316\235\275\322\017\202%\2368c\353P\356"
ARM GAS  C:\Users\CHRIST~1\AppData\Local\Temp\cc351EOy.s 			page 29


 361      B82929CE 
 361      9DBDD20F 
 361      82259E38 
 361      63EB50EE 
 362 0287 9FFF828B 		.ascii	"\237\377\202\213\323\216V+\311\215\256\014~\201\022"
 362      D38E562B 
 362      C98DAE0C 
 362      7E8112
 363 0296 8654BCDC 		.ascii	"\206T\274\334N\371xV\272\226\022\3108\202K)\251\225"
 363      4EF97856 
 363      BA9612C8 
 363      38824B29 
 363      A995
 364 02a8 1A9F104A 		.ascii	"\032\237\020J\225\014\267\004\027.u\234n\254/\333\225"
 364      950CB704 
 364      172E759C 
 364      6EAC2FDB 
 364      95
 365 02b9 39DFCB53 		.ascii	"9\337\313S`\220\204TI\310!px\270F\241\266+g\266\022"
 365      60908454 
 365      49C82170 
 365      78B846A1 
 365      B62B67B6 
 366 02ce E5B12A91 		.ascii	"\345\261*\221B\360(!D\360M\300\362x\011\375`8f\370\003"
 366      42F02821 
 366      44F04DC0 
 366      F27809FD 
 366      603866F8 
 367 02e3 3022C29B 		.ascii	"0\"\302\233d\370\346\241\325Y\015\223$W;\326#\374\212"
 367      64F8E6A1 
 367      D5590D93 
 367      24573BD6 
 367      23FC8A
 368 02f6 D23018C5 		.ascii	"\3220\030\305LQ\240t#\275\033\013\317\306l<_D[\253\032"
 368      4C51A074 
 368      23BD1B0B 
 368      CFC66C3C 
 368      5F445BAB 
 369 030b 08588CC2 		.ascii	"\010X\214\302\337\010\332=z\250\\\024\300X\214\272\277"
 369      DF08DA3D 
 369      7AA85C14 
 369      C0588CBA 
 369      BF
 370 031c 2D0F9FAA 		.ascii	"-\017\237\252aK\012K\031\177>\273c\345\247\004\330\340"
 370      614B0A4B 
 370      197F3EBB 
 370      63E5A704 
 370      D8E0
 371 032e C72D9FD8 		.ascii	"\307-\237\330\366\201i0\036\003\354\016\201\3411`\301"
 371      F6816930 
 371      1E03EC0E 
 371      81E13160 
 371      C1
 372 033f 73864310 		.ascii	"s\206C\020+~\021\024\321\022\036\024LT\330\314\263\361"
 372      2B7E1114 
 372      D1121E14 
 372      4C54D8CC 
ARM GAS  C:\Users\CHRIST~1\AppData\Local\Temp\cc351EOy.s 			page 30


 372      B3F1
 373 0351 52BEB7C2 		.ascii	"R\276\267\302\266\355\234\234\211\215Qi<\262\343{h\371"
 373      B6ED9C9C 
 373      898D5169 
 373      3CB2E37B 
 373      68F9
 374 0363 372C8209 		.ascii	"7,\202\011*\215\011\022\331\266\257\274\324\230\345"
 374      2A8D0912 
 374      D9B6AFBC 
 374      D498E5
 375 0372 B5F5C741 		.ascii	"\265\365\307A\317\353\224\374\244\320T\0238\014\356"
 375      CFEB94FC 
 375      A4D05413 
 375      380CEE
 376 0381 1A1DF01E 		.ascii	"\032\035\360\036\241I~6\266\000\345S}\341&\247\214\240"
 376      A1497E36 
 376      B600E553 
 376      7DE126A7 
 376      8CA0
 377 0393 D0125E9B 		.ascii	"\320\022^\233\240\342\213\322\031\250=\206+\332v\240"
 377      A0E28BD2 
 377      19A83D86 
 377      2BDA76A0 
 378 03a3 F628E6A7 		.ascii	"\366(\346\2472\234\375\273\035}\271mY\221N\211\373h"
 378      329CFDBB 
 378      1D7DB96D 
 378      59914E89 
 378      FB68
 379 03b5 D9E214D9 		.ascii	"\331\342\024\331A\270'\030\231\015FS\310\210\300n\236"
 379      41B82718 
 379      990D4653 
 379      C888C06E 
 379      9E
 380 03c6 9148492F 		.ascii	"\221HI/\326?\002i:\012i\006\2210\225\273}\017U\203\024"
 380      D63F0269 
 380      3A0A6906 
 380      913095BB 
 380      7D0F5583 
 381 03db A28903AA 		.ascii	"\242\211\003\252\302\374\327{\031Tcm\355\316#\367\312"
 381      C2FCD77B 
 381      1954636D 
 381      EDCE23F7 
 381      CA
 382 03ec 376D22E4 		.ascii	"7m\"\344\213\305\363\037!1g\243\304\274O]\220,\245h"
 382      8BC5F31F 
 382      213167A3 
 382      C4BC4F5D 
 382      902CA568 
 383 0400 6ABB0C32 		.ascii	"j\273\0142\252}\037`r\234\004L0'\360,\006\336\357R\212"
 383      AA7D1F60 
 383      729C044C 
 383      3027F02C 
 383      06DEEF52 
 384 0415 F19A15FE 		.ascii	"\361\232\025\376\177\211=\210\002\232'b\306$hn\353\200"
 384      7F893D88 
 384      029A2762 
 384      C624686E 
ARM GAS  C:\Users\CHRIST~1\AppData\Local\Temp\cc351EOy.s 			page 31


 384      EB80
 385 0427 9868F698 		.ascii	"\230h\366\230h\247\011\355aT\232\013\204\306%\332\267"
 385      68A709ED 
 385      61549A0B 
 385      84C625DA 
 385      B7
 386 0438 71348B99 		.ascii	"q4\213\231\242\244\266\030EmI\202\211\021\327}BL8*\376"
 386      A2A4B618 
 386      456D4982 
 386      8911D77D 
 386      424C382A 
 387 044d E72D4DED 		.ascii	"\347-M\355\020\361\326\263;\375\236\034\2131\374\016"
 387      10F1D6B3 
 387      3BFD9E1C 
 387      8B31FC0E 
 388 045d B9691CC1 		.ascii	"\271i\034\3012\216\004\334\370\263\246bK\374\2758\014"
 388      328E04DC 
 388      F8B3A662 
 388      4BFCBD38 
 388      0C
 389 046e 66588134 		.ascii	"fX\2014/?\"\317\246g\011\344\204\262\356\035I\205\354"
 389      2F3F22CF 
 389      A66709E4 
 389      84B2EE1D 
 389      4985EC
 390 0481 3F06E26A 		.ascii	"?\006\342j\344@lyT6\254\032\251}\015\3647a\215&\242"
 390      E4406C79 
 390      5436AC1A 
 390      A97D0DF4 
 390      37618D26 
 391 0496 9546C0BA 		.ascii	"\225F\300\272\321X/\013\332Aj,\253 ^\357\2133\266q\314"
 391      D1582F0B 
 391      DA416A2C 
 391      AB205EEF 
 391      8B33B671 
 392 04ab C1A37FC7 		.ascii	"\301\243\177\307\366\006:7\373R\015\242\242\377\222"
 392      F6063A37 
 392      FB520DA2 
 392      A2FF92
 393 04ba B18BF8F5 		.ascii	"\261\213\370\365\213_\266\275\213\017\252\202e\014X"
 393      8B5FB6BD 
 393      8B0FAA82 
 393      650C58
 394 04c9 BE3867D2 		.ascii	"\2768g\322\262\263\035\362s\262\310QX\354(*t:\234\271"
 394      B2B31DF2 
 394      73B2C851 
 394      58EC282A 
 394      743A9CB9 
 395 04dd CE93F939 		.ascii	"\316\223\3719\331N\2468\013x^\321\011%\257\200;\213"
 395      D94EA638 
 395      0B785ED1 
 395      0925AF80 
 395      3B8B
 396 04ef 0BD2F798 		.ascii	"\013\322\367\230~\220\357\374\360\243\234\367\321\274"
 396      7E90EFFC 
 396      F0A39CF7 
 396      D1BC
ARM GAS  C:\Users\CHRIST~1\AppData\Local\Temp\cc351EOy.s 			page 32


 397 04fd C8999B93 		.ascii	"\310\231\233\223\235\313\216\3075\310+>\203\373Jq\001"
 397      9DCB8EC7 
 397      35C82B3E 
 397      83FB4A71 
 397      01
 398 050e 2F3E55F0 		.ascii	"/>U\360\017&n'\334"
 398      0F266E27 
 398      DC
 399              		.text
 400              		.section	.gnu.lto_chCondWait.67ee54fd,"",%progbits
 401 0000 789C7D52 		.ascii	"x\234}R\335K\223Q\030\177\236\367\274n\243UD\027\021"
 401      DD4B9351 
 401      187F9EF7 
 401      BC6EA355 
 401      441711
 402 0013 2439A361 		.ascii	"$9\243a\202l\336\005\321M\010R\027\273\321? l\216\024"
 402      826CDE05 
 402      D14D0852 
 402      17BBD13F 
 402      206C8E14 
 403 0027 9C934D45 		.ascii	"\234\223ME\257vr\023\015\205\242l\245\214\304L\354&"
 403      AF767213 
 403      0D85A26C 
 403      A58CC44C 
 403      EC26
 404 0039 35B3FC9C 		.ascii	"5\263\374\234-\277+?\262\254$#L\363\213\206f\335d\220"
 404      2DBF2B3F 
 404      B2AC2423 
 404      4CF38B86 
 404      66DD6490 
 405 004d F59CB355 		.ascii	"\365\234\263U:\301\227\367\335\3169\317\357\367<\277"
 405      3AC197F7 
 405      DDCE39CF 
 405      EFF73CBF 
 406 005d E7F71C0D 		.ascii	"\347\367\034\015\000|d\000\275\364\177\204>d\200\312"
 406      007C6400 
 406      BDF47F84 
 406      3E6480CA 
 407 006d D571804B 		.ascii	"\325q\200K:\005Q,\270\016\301\255\240\033+Y\025\303"
 407      3A05512C 
 407      B80EC1AD 
 407      A01B2B59 
 407      15C3
 408 007f 496F8B9F 		.ascii	"Io\213\237U0?\301T\332\256\217\325\314\357\027[D\003"
 408      55303FC1 
 408      54DAAE8F 
 408      D5CCEF17 
 408      5B4403
 409 0092 6D1B029E 		.ascii	"m\033\002\236\036Ll\344\364\004o\276\3257zJ\317\372"
 409      1E4C6CE4 
 409      F4046FBE 
 409      D5377A4A 
 409      CFFA
 410 00a4 99023E42 		.ascii	"\231\002>B\267a,>\304XQ\342\021&\022\366\365\222/\240"
 410      B7612C3E 
 410      C45851E2 
 410      112612F6 
ARM GAS  C:\Users\CHRIST~1\AppData\Local\Temp\cc351EOy.s 			page 33


 410      F5922FA0 
 411 00b8 637108B4 		.ascii	"cq\010\264\256\233\276\275\254Oh\340\274\204\007\007"
 411      AE9BBEBD 
 411      AC4F68E0 
 411      BC840707 
 412 00c8 1A183FEE 		.ascii	"\032\030?\356g\014\037#\333J\244#\300vL\020\370\321"
 412      670C1F23 
 412      DB4AA423 
 412      C0764C10 
 412      F8D1
 413 00da 96CE772A 		.ascii	"\226\316w*;&\271\301\273\357'u\306zYs\261\351`\235\207"
 413      3B26B9C1 
 413      BBEF2775 
 413      C67A5973 
 413      B1E9609D 
 414 00ef 8F7095AA 		.ascii	"\217p\225\252b\307v\276x\010>\367`\363\306>\215\212"
 414      62C776BE 
 414      78083EF7 
 414      60F3C63E 
 414      8D8A
 415 0101 9D6814BA 		.ascii	"\235h\024\272HN\027j\360_\300+\363\0145k\344\271\217"
 415      484E176A 
 415      F05FC02B 
 415      F30C356B 
 415      E4B98F
 416 0114 E1160E60 		.ascii	"\341\026\016`7A{P\003Q\360\357\237O\305\200\010\370"
 416      37417B50 
 416      0351F0EF 
 416      9F4FC580 
 416      08F8
 417 0126 A8598A2D 		.ascii	"\250Y\212-\365\224M!K\225\334\320byP\025\362\250\265"
 417      F5944D21 
 417      4B95DCD0 
 417      62795015 
 417      F2A8B5
 418 0139 A5EA131B 		.ascii	"\245\352\023\033\323\313\234_\343\350g*\366\356\"0\234"
 418      D3CB9C5F 
 418      E3E8672A 
 418      F6EE2230 
 418      9C
 419 014a 78754383 		.ascii	"xuC\203OH(\006Dn\266MK\220\264<%-\342\007\251\015\321"
 419      4F482806 
 419      446EB64D 
 419      4B90B43C 
 419      252DE207 
 420 0161 51F3AB98 		.ascii	"Q\363\253\230 \337\374]F\356\037j\352X\371i\324\322"
 420      20DFFC5D 
 420      46EE1F6A 
 420      EA58F969 
 420      D4D2
 421 0173 10C93382 		.ascii	"\020\3113\202\213~\241\234\032\246\231\362 \\&\245\264"
 421      8B7EA19C 
 421      1AA699F2 
 421      205C26A5 
 421      B4
 422 0184 F2046111 		.ascii	"\362\004a\021\225\235:\223\327v\327\211}h$R\331\012"
 422      959D3A93 
ARM GAS  C:\Users\CHRIST~1\AppData\Local\Temp\cc351EOy.s 			page 34


 422      D776D789 
 422      7D682452 
 422      D90A
 423 0196 0FA862FC 		.ascii	"\017\250b\374*\032\260\237b_\260d\256\373J\325\374\341"
 423      2A1AB09F 
 423      625FB064 
 423      AEFB4AD5 
 423      FCE1
 424 01a8 A846AE7F 		.ascii	"\250F\256\177\320G\014Uw\230\3475\223y\003\"\026\023"
 424      D0470C55 
 424      7798E735 
 424      93790322 
 424      1613
 425 01ba 1D9BAF3E 		.ascii	"\035\233\257>\355\020\245\000\007w\0320D}\017\013\003"
 425      ED10A500 
 425      07771A30 
 425      447D0F0B 
 425      03
 426 01cb 86850108 		.ascii	"\206\205\001\010\365b\212wj[\177\354\211o\303Z~\313"
 426      F5628A77 
 426      6A5B7FEC 
 426      896FC35A 
 426      7ECB
 427 01dd E00F27BC 		.ascii	"\340\017'\274?\337\315u\252B\242G0^Z\374545\243\320"
 427      3FDFCD75 
 427      AA42A247 
 427      305E5AFC 
 427      353435A3 
 428 01f2 093E4355 		.ascii	"\011>CU\312\006|.\257\363\275\336\376\205\275\361\355"
 428      CA067C2E 
 428      AFF3BDDE 
 428      FE85BDF1 
 428      ED
 429 0203 11B69CF3 		.ascii	"\021\266\234\363\267\246\3267z\311~!\3308\212*YVb\220"
 429      B7A6D637 
 429      7AC97E21 
 429      D8388A2A 
 429      59566290 
 430 0217 160084D0 		.ascii	"\026\000\204\320;[\261\266\200\242\271\032&rtv\206f"
 430      3B5BB1B6 
 430      80A2B91A 
 430      26727476 
 430      8666
 431 0229 B4EE5F5C 		.ascii	"\264\356_\\\347gZ\037\345\000\034C7\3240\305\317t\222"
 431      E7675A1F 
 431      E5001C43 
 431      37D430C5 
 431      CF7492
 432 023c 292F1C8D 		.ascii	")/\034\215\203\340\322|1a\342\371J\373&\264a/\001\307"
 432      83E0D27C 
 432      3161E2F9 
 432      4AFB26B4 
 432      612F01C7 
 433 0250 B77A199E 		.ascii	"\267z\031\236p\244\301\315\332O\275\372\277\332\307"
 433      70A4C1CD 
 433      DA4FBDFA 
 433      BFDAC7
ARM GAS  C:\Users\CHRIST~1\AppData\Local\Temp\cc351EOy.s 			page 35


 434 025f A5F609A9 		.ascii	"\245\366\011\251=Z\350\313\260\320\331\365\312\256\243"
 434      3D5AE8CB 
 434      B0D0D9F5 
 434      CAAEA3
 435 026e B206C02A 		.ascii	"\262\006\300*m+6\0065\021\261b\220\345t\303\351\036"
 435      6D2B3606 
 435      3511B162 
 435      90E574C3 
 435      E91E
 436 0280 102DD664 		.ascii	"\020-\326d2\207_\207\313\354\3147\273\234V\2635\313"
 436      32875F87 
 436      CBECCC37 
 436      BB9C56B3 
 436      35CB
 437 0292 EAC8CD34 		.ascii	"\352\310\3154YA\261\3461\273\353b\\\024&;\327\232S\220"
 437      5941B1E6 
 437      31BBEB62 
 437      5C14263B 
 437      D79A5390 
 438 02a6 69239CAB 		.ascii	"i#\234\253\330e\312\202\230\302\214\234\002[b\024*\317"
 438      D865CA82 
 438      98C28C9C 
 438      025B6214 
 438      2ACF
 439 02b8 E1CC7799 		.ascii	"\341\314w\231\317\244YR,E2\245\323v\276\360\244\235"
 439      CFA45952 
 439      2C4532A5 
 439      D376BEF0 
 439      A49D
 440 02ca F0495B91 		.ascii	"\360I[\221\266\242|s\212%\375\\\372\377\264\002i\265"
 440      B6A27C73 
 440      8A25FD5C 
 440      FAFFB402 
 440      69B5
 441 02dc A716E45A 		.ascii	"\247\026\344Z\011|\300\222\236f\270\220\341\262\345"
 441      097CC092 
 441      9E66B890 
 441      E1B2E5
 442 02eb 39B3930C 		.ascii	"9\263\223\014\306dP\234\240\265\333\354\016g1\374\001"
 442      C664509C 
 442      A0B5DBEC 
 442      0E6731FC 
 442      01
 443 02fc 756B77AF 		.ascii	"ukw\257"
 444              		.text
 445              		.section	.gnu.lto_chCondWaitTimeoutS.67ee54fd,"",%progbits
 446 0000 789C9556 		.ascii	"x\234\225V\353S\224e\024\177\316\373\2747X\\.k\3464"
 446      EB539465 
 446      147FCEFB 
 446      BC37585C 
 446      2E6BE634 
 447 0014 34322543 		.ascii	"42%CN\023\373\245\017~\355[\177F\2718\301L(\0119~\343"
 447      4E13FBA5 
 447      0F7EED5B 
 447      7F46B938 
 447      C14C2809 
 448 002b 8585042F 		.ascii	"\205\205\004/\223a\254\265m\272*\264\\\312l\022\023"
ARM GAS  C:\Users\CHRIST~1\AppData\Local\Temp\cc351EOy.s 			page 36


 448      9361ACB5 
 448      6DBA2AB4 
 448      5CCA6C12 
 448      13
 449 003c BCB00171 		.ascii	"\274\260\001q)\026\022\361\256+y\345&f\343\310\004\012"
 449      291612F1 
 449      AE2B79E5 
 449      2666E3C8 
 449      040A
 450 004e 9DF33CAF 		.ascii	"\235\363<\257\272\013\2733\366\016\274<\227s~\347w~"
 450      BA0BBB33 
 450      F60EBC3C 
 450      97737EE7 
 450      777E
 451 0060 CF39CF8B 		.ascii	"\3179\317\213\316\030\353Oa\354k\374[\202\277\220\302"
 451      CE18EB4F 
 451      61EC6BFC 
 451      5B82BF90 
 451      C2
 452 0071 40D933C4 		.ascii	"@\3313\304X\205\251\000\227\003\256\250\207\372\031"
 452      5885A900 
 452      9703AEA8 
 452      87FA19
 453 0080 B352B519 		.ascii	"\263R\265\031\215Yi\252b\306NMi\366\236\246\350M\353"
 453      8D5969AA 
 453      62C64E4D 
 453      69F69EA6 
 453      E84DEB
 454 0093 70D5185F 		.ascii	"p\325\030_\213\253:\030\322\331\000\240\201e\002+W\270"
 454      8BAB3A18 
 454      D2D900A0 
 454      8165022B 
 454      57B8
 455 00a5 6A6ABA01 		.ascii	"jj\272\0018`\366\263\213\177\311\341l\325\321\000\337"
 455      3860F6B3 
 455      8B7FC9E1 
 455      6CD5D100 
 455      DF
 456 00b6 C9039C81 		.ascii	"\311\003\234\201\212\323\207\021\377-'M\001rp\332x\332"
 456      8AD38711 
 456      FF2D274D 
 456      017270DA 
 456      78DA
 457 00c8 7B0AD685 		.ascii	"{\012\326\205,|\302\373\216\272B\336\352\367\003\\a"
 457      2C7CC2FB 
 457      8EBA42DE 
 457      EAF7035C 
 457      61
 458 00d9 3EB43E06 		.ascii	">\264>\006\331\3603d\023\3576X\207\266\347\356\371N"
 458      D9F03364 
 458      13EF3658 
 458      87B6E7EE 
 458      F94E
 459 00eb 9B7C0D30 		.ascii	"\233|\0150\034\037\274\264\177\334\221\327hY\225V\270"
 459      1C1FBCB4 
 459      7FDC91D7 
 459      68599556 
ARM GAS  C:\Users\CHRIST~1\AppData\Local\Temp\cc351EOy.s 			page 37


 459      B8
 460 00fc E73B6EAD 		.ascii	"\347;n\255\015p\016\307\201\307:\342\022\203_ \017\315"
 460      0D700EC7 
 460      81C73AE2 
 460      12835F20 
 460      0FCD
 461 010e 6BC33B7A 		.ascii	"k\303;zR\371\033\302u\376\361\275\326t\333\365QH\270"
 461      52F91BC2 
 461      75FEF1BD 
 461      D674DBF5 
 461      5148B8
 462 0121 AA7062A9 		.ascii	"\252pb\251\253\312\240\035\362\310~\360h\373E\225\347"
 462      ABCAA01D 
 462      F2C87EF0 
 462      68FB4595 
 462      E7
 463 0132 09DF70C3 		.ascii	"\011\337p\303\225\263f\356aA\367B$\353\240\327\352\267"
 463      95B366EE 
 463      6141F742 
 463      24EBA0D7 
 463      EAB7
 464 0144 54240C1D 		.ascii	"T$\014\035\361\376\364\240\371\370\211\336\032\223\277"
 464      F1FEF4A0 
 464      F9F889DE 
 464      1A93BF
 465 0153 2D5C4FF6 		.ascii	"-\\O\3665\354U\311\025\303\016EV?s\325\340TB\327\233"
 465      35EC55C9 
 465      15C30E45 
 465      563F73D5 
 465      E05442D7 
 466 0168 3F2DD4AF 		.ascii	"?-\324\257\320U8\015\271p\022r\203(\252\217\204\205"
 466      D055380D 
 466      B9701272 
 466      8328AA8F 
 466      8485
 467 017a 33A03360 		.ascii	"3\2403`L\241U\262k\335\275\307a\303\3166\346\371;\306"
 467      4CA155B2 
 467      6BDDBDC7 
 467      61C3CE36 
 467      E6F93BC6 
 468 018e 2DABCE82 		.ascii	"-\253\316\202\000\327\227\312A\017tB\356\217#Z\330Z"
 468      00D797CA 
 468      410F7442 
 468      EE8F235A 
 468      D85A
 469 01a0 58DC8E82 		.ascii	"X\334\216\202gD\276\372\354\376\001m5\307\204uU\354"
 469      6744BEFA 
 469      ECFE016D 
 469      35C78475 
 469      55EC
 470 01b2 6A383474 		.ascii	"j84t14\201\324K\005\022\"\215Q<\247XOG\0233\203^\231"
 470      313481D4 
 470      4B051222 
 470      8D513CA7 
 470      584F4713 
 471 01ca E497452F 		.ascii	"\344\227E/\027\2764\306j\220b\203\303\012\263Z<\304"
 471      17BE34C6 
ARM GAS  C:\Users\CHRIST~1\AppData\Local\Temp\cc351EOy.s 			page 38


 471      6A906283 
 471      C30AB35A 
 471      3CC4
 472 01dc 068737CC 		.ascii	"\006\2077\314&\241\262\343\337\003\336G\207\264\347"
 472      26A1B2E3 
 472      DF03DE47 
 472      87B4E7
 473 01eb 4955C9D3 		.ascii	"IU\311\323\036q\351\"\033\037\207\230\204\031\204A\207"
 473      1E71E922 
 473      1B1F8798 
 473      84198441 
 473      87
 474 01fc 5F31C925 		.ascii	"_1\311%\3667\366\277\325\362.\243\035\037b\307:t\241"
 474      F637F6BF 
 474      D5F22EA3 
 474      1D1F62C7 
 474      3A74A1
 475 020f 4337A982 		.ascii	"C7\251\202/?\317\302-_u\327\260AE\226\"\240\333\333"
 475      2F3FCFC2 
 475      2D5F75D7 
 475      B0414596 
 475      22A0DBDB 
 476 0223 A7AF1AE5 		.ascii	"\247\257\032\345O-\023\027\202\030\215\326\216y\037"
 476      4F2D1317 
 476      82188DD6 
 476      8E791F
 477 0232 D63983B0 		.ascii	"\3269\203\260\037\225J\205\337\240\034zH\"\3348\336"
 477      1F954A85 
 477      DFA01C7A 
 477      4822DC38 
 477      DE
 478 0243 776DDE74 		.ascii	"wm\336t\377@1\307\026we\034Y\037\340\016\350\205 \324"
 478      FF4031C7 
 478      1677651C 
 478      591FE00E 
 478      E88520D4 
 479 0257 636E148B 		.ascii	"cn\024\213\214\346.z\253\025i\024l\021b\367\201\273"
 479      8CE62E7A 
 479      AB156914 
 479      6C1162F7 
 479      81BB
 480 0269 1EA18501 		.ascii	"\036\241\205\001\364\203[&>\345=_g\020g?w\305\362\322"
 480      F4835B26 
 480      3EE53D5F 
 480      6710673F 
 480      77C5F2D2 
 481 027d 05AF535D 		.ascii	"\005\257S]\221^]rHC\3420`S\030\335~)\352\220\3509\001"
 481      915E5D72 
 481      4843E230 
 481      605318DD 
 481      7E29EA90 
 482 0294 BE027E17 		.ascii	"\276\002~\027\321\025!\015\203?\020\374.T\216\355\234"
 482      D115210D 
 482      833F10FC 
 482      2E548EED 
 482      9C
 483 02a5 1800D28F 		.ascii	"\030\000\322\217J\204\261i\250\012\266\206\270(\217"
ARM GAS  C:\Users\CHRIST~1\AppData\Local\Temp\cc351EOy.s 			page 39


 483      4A84B169 
 483      A80AB686 
 483      B8288F
 484 02b4 F8949D3E 		.ascii	"\370\224\235>N\314\007\241\234!\213\000O\027\324\232"
 484      4ECC07A1 
 484      9C218B00 
 484      4F17D49A 
 485 02c4 6752C8D6 		.ascii	"gR\310\326\317\371\313\010\024I,P\016i3dk\303\226\010"
 485      CFF9CB08 
 485      14492C50 
 485      0E693364 
 485      6BC39608 
 486 02d8 9343690E 		.ascii	"\223Ci\016KY0\376\237R\023\377\300;\0247&\373\012\022"
 486      4B5930FE 
 486      9F5213FF 
 486      C03B1437 
 486      26FB0A12 
 487 02ec 7103131A 		.ascii	"q\003\023\032\360$\032d\300Y\021\205\313(\327\032\017"
 487      F0241A64 
 487      C0591185 
 487      CB28D71A 
 487      0F
 488 02fd 57DA1482 		.ascii	"W\332\024\202[\003<\023F(\214Ja\316\201\333\317M\212"
 488      5B033C13 
 488      46288C4A 
 488      61CE81DB 
 488      CF4D8A
 489 0310 34B7FDE9 		.ascii	"4\267\375\351\267+d\216Z\254\366<N{\021}\0010|\026\372"
 489      B72B648E 
 489      5AACF63C 
 489      4E7B117D 
 489      01307C16 
 490 0325 C168C2F0 		.ascii	"\301h\302\360.8/\302k2|kd2\252\243\\\344\352\304v\201"
 490      2E382FC2 
 490      6B327C6B 
 490      6432AAA3 
 490      5CE4EAC4 
 491 033b 0B981B83 		.ascii	"\013\230\033\203\213\2500\036L\216\235_\317\235'#\016"
 491      8BA8301E 
 491      4C8E9D5F 
 491      CF9D2723 
 491      0E
 492 034c BE1744B8 		.ascii	"\276\027D\270\251\232\376\220i\267io\304\351\267\302"
 492      A99AFE90 
 492      69B7696F 
 492      C4E9B7C2 
 493 035c 55429F4B 		.ascii	"UB\237K\011z\3642\344\242\022\004\025\354\224'J)\177"
 493      097AF432 
 493      E4A21204 
 493      15EC9427 
 493      4A297F
 494 036f 135D48E1 		.ascii	"\023]H\341>\2116\370\371\221/\034\313\320\014\270\222"
 494      3E8936F8 
 494      F9912F1C 
 494      CBD00CB8 
 494      92
 495 0380 00ED2AA1 		.ascii	"\000\355*\241\021\361Z\304\304\333\032{\362.(\242\221"
ARM GAS  C:\Users\CHRIST~1\AppData\Local\Temp\cc351EOy.s 			page 40


 495      11F15AC4 
 495      C4DB1A7B 
 495      F22E28A2 
 495      91
 496 0391 FD5C9765 		.ascii	"\375\\\227e\032}2Z\301\227\366g\324\305\311\231\350"
 496      1A7D325A 
 496      C197F667 
 496      D4C5C999 
 496      E8
 497 03a2 D87DAAC6 		.ascii	"\330}\252\306^L\235\264|\015\313\357:\025\345u\222\331"
 497      5E4C9DB4 
 497      7C0DCBEF 
 497      3A15E575 
 497      92D9
 498 03b4 B9ACA6F5 		.ascii	"\271\254\246\365D\34796\377\217\313\277\236\262\217"
 498      44E73936 
 498      FF8FCBBF 
 498      9EB28F
 499 03c3 0A557581 		.ascii	"\012Uu\201\303\340\206,\354\340\006B\223\374\234\354"
 499      C3E0862C 
 499      ECE00642 
 499      93FC9CEC 
 500 03d3 0E545DED 		.ascii	"\016T]\355\356m\361\310\010\032-\341\363XL\224\216\320"
 500      EE6DF1C8 
 500      081A2DE1 
 500      F3584C94 
 500      8ED0
 501 03e5 EED771C5 		.ascii	"\356\327q\305\234\013\355^\215\371\251\014\277]\366"
 501      9C0BED5E 
 501      8DF9A90C 
 501      BF5DF6
 502 03f4 9D33D1D4 		.ascii	"\2353\321\3246\256H\247\364e\264\234I\312l%\214\011"
 502      36AE48A7 
 502      F465B49C 
 502      49CA6C25 
 502      8C09
 503 0406 4686CDE8 		.ascii	"F\206\315\350/\273\217\007\266I\244\214eH\311\012v%"
 503      2FBB8F07 
 503      B649A48C 
 503      6548C90A 
 503      7625
 504 0418 DC8C43BA 		.ascii	"\334\214C\272\205H\230\312\345\356\333\252M\012\321"
 504      854898CA 
 504      E5EEDBAA 
 504      4D0AD1
 505 0427 C401D560 		.ascii	"\304\001\325`\265Nw1\250\305Czvc\372&\232\333D\310\227"
 505      B54E7731 
 505      A8C5437A 
 505      7663FA26 
 505      9ADB44C8 
 506 043c 8B175C45 		.ascii	"\213\027\\Eb\336\216\023\363\016\365\201*\245hik\002"
 506      62DE8E13 
 506      F30EF581 
 506      2AA56869 
 506      6B02
 507 044e 19357319 		.ascii	"\0315s\031\240\232$\001\035\356\012<\323\306\273'\245"
 507      A09A2401 
ARM GAS  C:\Users\CHRIST~1\AppData\Local\Temp\cc351EOy.s 			page 41


 507      1DEE0A3C 
 507      D3C6BB27 
 507      A5
 508 045f 18DD31C1 		.ascii	"\030\3351\301\377/\261\3618\240\011\"\226)\256\202\211"
 508      FF2FB1F1 
 508      38A00922 
 508      9629AE82 
 508      89
 509 0470 D6B61390 		.ascii	"\326\266\023\220\020-3!\332VB\233\214Ks\212\320\270"
 509      102D3321 
 509      DA56429B 
 509      8C4B738A 
 509      D0B8
 510 0482 44FB3E89 		.ascii	"D\373>\211f\011S\224\324\246\343\250\335\227`\342r}"
 510      66095394 
 510      D4A6E3A8 
 510      DD9760E2 
 510      727D
 511 0494 5024EE56 		.ascii	"P$\356V*\376\347MM\355\0203\353\224\367nu\360V\310\220"
 511      2AFEE74D 
 511      4DED1033 
 511      EB94F76E 
 511      75F056C8 
 512 04a9 F74C5AFC 		.ascii	"\367LZ\374]\372\212\217\032\017f\360^\300\215G;\252"
 512      5DFA8A8F 
 512      1A0F66F0 
 512      5EC08D47 
 512      3BAA
 513 04bb 67C53F42 		.ascii	"g\305?B\253\300\200\007\220\355\347\251\001\376\352"
 513      ABC08007 
 513      90EDE7A9 
 513      01FEEA
 514 04ca 0BB89354 		.ascii	"\013\270\223T\360i\262\340\207\206\323^ .6\317t\350"
 514      F069B2E0 
 514      8786D35E 
 514      202E36CF 
 514      74E8
 515 04dc E4A8E02D 		.ascii	"\344\250\340-\374\267\354\353\307\240b\031\363\350\276"
 515      FCB7ECEB 
 515      C7A06219 
 515      F3E8BE
 516 04eb 036D1FE0 		.ascii	"\003m\037\340@U\260\374u6\257a\375\340\227`l\347\\3"
 516      4055B0FC 
 516      7536AF61 
 516      FDE09760 
 516      6CE75C33 
 517 04ff 24FE14E8 		.ascii	"$\376\024\350H\350\341\213O\001]\013\206\254\273\031"
 517      48E8E18B 
 517      4F015D0B 
 517      86ACBB19 
 518 050f 6CBDD9D0 		.ascii	"l\275\331\320kv\\Y\232\200[\012c\331\371\371n\371\263"
 518      6B765C59 
 518      9A805B0A 
 518      63D9F9F9 
 518      6EF9B3
 519 0522 B9D4BDA5 		.ascii	"\271\324\275\245\314]\272\305\343\366\024z6o*\310\367"
 519      CC5DBAC5 
ARM GAS  C:\Users\CHRIST~1\AppData\Local\Temp\cc351EOy.s 			page 42


 519      E3F6147A 
 519      366F2AC8 
 519      F7
 520 0533 30C553A2 		.ascii	"0\305S\242\226\025\025o\344\305\245\037)\305%9Kl\213"
 520      9615156F 
 520      E4C5A51F 
 520      29C52539 
 520      4B6C8B
 521 0546 36793EFE 		.ascii	"6y>\376\264`#\332\227z\012\013\362\013\331\233I\015"
 521      B46023DA 
 521      977A0A0B 
 521      F20BD99B 
 521      490D
 522 0558 CA0AB76C 		.ascii	"\312\012\267l\374\260\240\024m\326$\265).\333\206\373"
 522      FCB0A014 
 522      6DD624B5 
 522      292EDB86 
 522      FB
 523 0569 4A59092F 		.ascii	"JY\011/\373\244\344?\346:_\225"
 523      FBA4E43F 
 523      E63A5F95 
 524              		.text
 525              		.section	.gnu.lto_chCondWaitTimeout.67ee54fd,"",%progbits
 526 0000 789C7D53 		.ascii	"x\234}S[KTQ\024^\353\3543\343\244\335\220\036\202$\307"
 526      5B4B5451 
 526      145EEBEC 
 526      33E3A4DD 
 526      901E8224 
 527 0015 4A4C10C7 		.ascii	"JL\020\307\267 z\011!\212\360E\177@\3308\244\340823"
 527      B7207A09 
 527      218AF045 
 527      7F40D838 
 527      A4E03832 
 528 002a 8A3EB9F3 		.ascii	"\212>\271\363\222\232\335H\233j\030\022+Q\010\313\354"
 528      929ADD48 
 528      9B6A1812 
 528      2B5108CB 
 528      EC
 529 003b 3ADE3AA9 		.ascii	":\336:\251\325\230w3\222\2040\305\033\015Z=DRYk\357"
 529      D5987733 
 529      928430C5 
 529      1B0D5A3D 
 529      4452596B 
 530 0050 994A47F0 		.ascii	"\231JG\3600\227\275\367\372\276\265\277\365\255u\364"
 530      3097BDF7 
 530      FABEB5BF 
 530      F5AD75F4 
 531 0060 00B05705 		.ascii	"\000\260W\005\350\246\377]\364E\006\250\\\032\0048m"
 531      E8A6FF5D 
 531      F44506A8 
 531      5C1A0438 
 531      6D
 532 0071 5010C582 		.ascii	"P\020\305\202\033\020\212\024,\302s\254\206\341Hi\263"
 532      1B108A14 
 532      2CC273AC 
 532      86E14869 
 532      B3
ARM GAS  C:\Users\CHRIST~1\AppData\Local\Temp\cc351EOy.s 			page 43


 533 0082 8755310F 		.ascii	"\207U1\017\301T\332~\031pOo\025[D#m\353;J\3321\276\201"
 533      C154DA7E 
 533      19704F6F 
 533      155B4423 
 533      6DEB3B4A 
 534 009a D3A35DAD 		.ascii	"\323\243]\255\211l();\352a\012\270\010\375\020\243\360"
 534      896C2829 
 534      3BEA610A 
 534      B808FD10 
 534      A3F0
 535 00ac 0146892B 		.ascii	"\001F\211+\036a<a\337\314\271:\014,\032\201\326u\343"
 535      1E613C61 
 535      DFCCB93A 
 535      0C2C1A81 
 535      D675E3
 536 00bf 37E623E2 		.ascii	"7\346#\342\3529/\346\332\317z\306\367y\030\303\307\310"
 536      EA392FE6 
 536      DACF7AC6 
 536      F77918C3 
 536      C7C8
 537 00d1 5613E908 		.ascii	"V\023\351\010\360\011\306\021\274R;\333\023\316\366"
 537      F009C611 
 537      BC523BDB 
 537      13CEF6
 538 00e0 48EA8F6F 		.ascii	"H\352\217osw\266\005\251\376\006IU\361i(U\005\364b\234"
 538      7377B605 
 538      A9FE0649 
 538      55F16928 
 538      5505F462 
 539 00f5 C0F7377B 		.ascii	"\300\3677{\337\251,Nr\265\333\357G\014\261\267\244\334"
 539      DFA92C4E 
 539      72B5DBEF 
 539      470CB1B7 
 539      A4DC
 540 0107 0FBEC8BA 		.ascii	"\017\276\310\272\022\356\343*\011\306\326\265|\361\020"
 540      12EEE32A 
 540      09C6D6B5 
 540      7CF110
 541 0116 7CEAFECA 		.ascii	"|\352\376\312\225-z\025\3330V\224D\225\264\243\036\377"
 541      952D7A15 
 541      DB305694 
 541      4495B4A3 
 541      1EFF
 542 0128 054A659E 		.ascii	"\005Je\236\025\237^\236\273\030\256\342\000v\020\264"
 542      159F5E9E 
 542      BB18AEE2 
 542      007610B4 
 543 0138 13F51002 		.ascii	"\023\365\020\002\237\2309\250\003\021p\221O\024\233"
 543      9F9839A8 
 543      03117091 
 543      4F149B
 544 0147 6B2F1F43 		.ascii	"k/\037Cv\\r\375\263\025\232*\344QiC\356\375\313\343"
 544      765C72FD 
 544      B3159A2A 
 544      E4516943 
 544      EEFDCBE3 
 545 015b F39C5FE6 		.ascii	"\363\234_\346\350a:\3246\020\030H\274\270\254\307\347"
ARM GAS  C:\Users\CHRIST~1\AppData\Local\Temp\cc351EOy.s 			page 44


 545      E8613AD4 
 545      36101848 
 545      BCB8ACC7 
 545      E7
 546 016c 24149F89 		.ascii	"$\024\237\211\334l\215\226.\322\322MZ\304\017R\031\242"
 546      DC6C8D96 
 546      2ED2D24D 
 546      5AC40F52 
 546      19A2
 547 017e A27BA33A 		.ascii	"\242{\243:\215\257\374.\247\306\355\360\271\3164U\353"
 547      8DAFFC2E 
 547      A7C6EDF0 
 547      B9CE3455 
 547      EB
 548 018f C40090DF 		.ascii	"\304\000\220\337\324Z\262\216D\212\262\241\202\352\246"
 548      D45AB28E 
 548      448AB2A1 
 548      82EAA6
 549 019e A9E01A54 		.ascii	"\251\340\032T\222`Z\225h0\213\312z\271IK\033\313\305"
 549      92605A95 
 549      68308BCA 
 549      7AB9494B 
 549      1BCBC5
 550 01b1 1E8C2552 		.ascii	"\036\214%R\371\002\357P\305\000\351\320\210/(\366\011"
 550      F902EF50 
 550      C500E9D0 
 550      882F28F6 
 550      09
 551 01c2 8BA7962E 		.ascii	"\213\247\226.\326L\357\014\251\247\332\035\031\364U"
 551      D64CEF0C 
 551      A9A7DA1D 
 551      19F455
 552 01d1 5DE76199 		.ascii	"]\347a\231\211\344\275\0241]h\254\317}\310&\256\002"
 552      89E4BD14 
 552      315D68AC 
 552      CF7DC826 
 552      AE02
 553 01e3 7CB5DE07 		.ascii	"|\265\336\007\037\225\337+|\350\025> 4\212f\336\254"
 553      1F95DF2B 
 553      7CE8153E 
 553      20348A66 
 553      DEAC
 554 01f5 6DF91E1E 		.ascii	"m\371\036\036\343\305Z~\315\350a\262aM\323m\334\240"
 554      E3C55A7E 
 554      CDE861B2 
 554      614DD36D 
 554      DCA0
 555 0207 2A24FA35 		.ascii	"*$\3725\306H\247?\373\307&\024:\301>T\245l\300~\371"
 555      C648A73F 
 555      FBC72614 
 555      3AC13E54 
 555      A56CC07E 
 556 021c 42347676 		.ascii	"B4vv\317l\216i\017\262\303\004\366\353\335\226\267\021"
 556      CF6C8E69 
 556      0FB2C304 
 556      F6EBDD96 
 556      B711
ARM GAS  C:\Users\CHRIST~1\AppData\Local\Temp\cc351EOy.s 			page 45


 557 022e 923D20D8 		.ascii	"\222= \3308\210*YVl\224\026\000\370\261l\262\352\302"
 557      38882A59 
 557      566C9416 
 557      00F8B16C 
 557      B2EAC2
 558 0241 028AE2DC 		.ascii	"\002\212\342\334LG\004\257\327?\021V\364\213\033<\314"
 558      4C4704AF 
 558      D73F1156 
 558      F48B1B3C 
 558      CC
 559 0252 E0220580 		.ascii	"\340\"\005\200CX\004n\246\270\031\031\265I\222\345\350"
 559      4358046E 
 559      A6B81919 
 559      B54992E5 
 559      E8
 560 0263 51478821 		.ascii	"QG\210!\375\027\275&\252\253\254k(,`'\340\360j;\003"
 560      FD17BD26 
 560      AAABAC6B 
 560      282C6027 
 560      E0F06A3B 
 561 0278 BD0ED6B8 		.ascii	"\275\016\326\270R\373\2613\342\257\374a)\177D\312\017"
 561      52FBB133 
 561      E2AFFC61 
 561      297F44CA 
 561      0F
 562 0289 D53A1AD0 		.ascii	"\325:\032\320:Y\177\276u\267\274\003`\221\266U\327{"
 562      3A597FBE 
 562      75B7BC03 
 562      6091B655 
 562      D77B
 563 029b F541BDA2 		.ascii	"\365A\275\242\227\0254\3534\012D\213JL4\005>6\207\311"
 563      971534EB 
 563      340A448B 
 563      4A4C3405 
 563      3E3687C9 
 564 02af EE3439EC 		.ascii	"\35649\354f\2239\323l\313\311H4\203b\316U\235YV\013"
 564      669339D3 
 564      6CCBC948 
 564      348362CE 
 564      559D5956 
 565 02c4 B33A4E45 		.ascii	"\263:NE\207\000\263r\314\331y\031\026\002;\012\035\211"
 565      8700B372 
 565      CCD97919 
 565      16023B0A 
 565      1D89
 566 02d6 99A0CB4F 		.ascii	"\231\240\313O\317\316\263\304\207\240rmv\247\303t85"
 566      CFCEB3C4 
 566      87A0726D 
 566      76A7C374 
 566      3835
 567 02e8 2539A540 		.ascii	"%9\245@\346\265[N\344\037\260\022>a5\322R\3404%\247"
 567      E6B55B4E 
 567      E41FB012 
 567      3E6135D2 
 567      52E03425 
 568 02fd A41D4BFB 		.ascii	"\244\035K\373\237V \315\326#y9f\002oOIK5\236LwXr\355"
 568      9F5620CD 
ARM GAS  C:\Users\CHRIST~1\AppData\Local\Temp\cc351EOy.s 			page 46


 568      D6237939 
 568      66026F4F 
 568      494B359E 
 569 0316 5909C6D8 		.ascii	"Y\011\306\330$P\354\020f\265Xm\366B\370\003\332\267"
 569      2450EC10 
 569      66B5586D 
 569      F642F803 
 569      DAB7
 570 0328 8BFC     		.ascii	"\213\374"
 571              		.text
 572              		.section	.gnu.lto_.symbol_nodes.67ee54fd,"",%progbits
 573 0000 789C55CD 		.ascii	"x\234U\315Kj\002Q\020\205\341s\272\274\366Km\207\316"
 573      4B6A0251 
 573      1085E173 
 573      BABCF64B 
 573      6D87CE
 574 0013 CC52CCCA 		.ascii	"\314R\314\312\252\221&\202\220\350\"\262\210\340\330"
 574      AA912682 
 574      90E822B2 
 574      88E0D8
 575 0022 B1233710 		.ascii	"\261#7\020h\037I\024A\304$\010&\267\333\2115\271?|\247"
 575      681F4914 
 575      41C42408 
 575      26B7DB89 
 575      35B93F7C 
 576 0037 E036013C 		.ascii	"\3406\001<\323?\301\212\012L\027\200\317,\177\364\262"
 576      D33FC18A 
 576      0A4C1780 
 576      CF2C7FF4 
 576      B2
 577 0048 A6D2CA86 		.ascii	"\246\322\312\206\032X\331R\305\312\007\265a\345\213"
 577      1A58D952 
 577      C5CA07B5 
 577      61E58B
 578 0057 EA8CB833 		.ascii	"\352\214\2703\361P\375\371Im\332\333=5\264\262\243F"
 578      F150FDF9 
 578      496DDADB 
 578      3D35B4B2 
 578      A346
 579 0069 4678A0C6 		.ascii	"Fx\240\306\265\000y>\360p\244&\006N\324\324\300/\265"
 579      B500793E 
 579      F070A426 
 579      064ED4D4 
 579      C02FB5
 580 007c 65E087DA 		.ascii	"e\340\207\3326\360M\355\030\270P\263{\020&(\306\177"
 580      36F04DED 
 580      18B850B3 
 580      7B102628 
 580      C67F
 581 008e 3D095294 		.ascii	"=\011R\224#_\361}Z\275\211H\013\345x\327\227F\212\242"
 581      235FF17D 
 581      5ABD8948 
 581      0BE578D7 
 581      97468AA2 
 582 00a2 0697E1F5 		.ascii	"\006\227\341\365\375Jq\035\224/~pm\314'\276\241\303"
 582      FD4A711D 
 582      942F7E70 
ARM GAS  C:\Users\CHRIST~1\AppData\Local\Temp\cc351EOy.s 			page 47


 582      6DCC27BE 
 582      A1C3
 583 00b4 B0F22843 		.ascii	"\260\362(CQ\267{\333\243j_\366$\216\352\035\377\251"
 583      51B77BDB 
 583      A36A5FF6 
 583      248EEA1D 
 583      FFA9
 584 00c6 FF6AB1   		.ascii	"\377j\261"
 585              		.text
 586              		.section	.gnu.lto_.refs.67ee54fd,"",%progbits
 587 0000 789C6363 		.ascii	"x\234cc``\340\003bFV\0066F&\016 \301\300\306\312\000"
 587      6060E003 
 587      62465606 
 587      3646260E 
 587      20C1C0C6 
 588 0016 0002C800 		.ascii	"\000\002\310\000>"
 588      3E
 589              		.text
 590              		.section	.gnu.lto_.decls.67ee54fd,"",%progbits
 591 0000 789CB57B 		.ascii	"x\234\265{\011T\025Y\232\346\213\270o\201\307f\252]"
 591      09541559 
 591      9AE68BB8 
 591      6F81C766 
 591      AA5D
 592 0012 6D77DB3D 		.ascii	"mw\333=\236\032j\212\232\236\324\264r\255\232\236:]"
 592      9E1A6A8A 
 592      9A9ED4B4 
 592      72AD9A9E 
 592      3A5D
 593 0024 993D93E9 		.ascii	"\231=\223\351TgUMYu\252\372tv\277Fx*\231l\365x\246Z"
 593      5467554D 
 593      5975AAFA 
 593      7476BF46 
 593      782A996C 
 594 003c D3CB6395 		.ascii	"\323\313c\225M\001AYUdQ\020\021\024\004\331dG\005Y\024"
 594      4D014159 
 594      55645110 
 594      111404D9 
 594      64470559 
 595 0051 45641711 		.ascii	"Ed\027\021\001\001e\021PP\346\277K\274\210\027\274g"
 595      01016511 
 595      5050E6BF 
 595      4BBC8817 
 595      BC67
 596 0063 E69CD3FD 		.ascii	"\346\234\323\375\216\227\210\033\361\337\377\377\376"
 596      8E97881B 
 596      F1DFFFFF 
 596      FE
 597 0070 F5DEB811 		.ascii	"\365\336\270\021\252\025\012E\342O\024\212l;\205\"M"
 597      AA150A45 
 597      E24F148A 
 597      6C3B8522 
 597      4D
 598 0081 A550ACC2 		.ascii	"\245P\254\302O\013\327j\241)\241\035\342\024\0125\034"
 598      4F0BD76A 
 598      A129A11D 
 598      E2140A35 
ARM GAS  C:\Users\CHRIST~1\AppData\Local\Temp\cc351EOy.s 			page 48


 598      1C
 599 0092 37438B80 		.ascii	"7C\213\200s\374[\007\355(\234'@;\016-\011Z\012\264\223"
 599      73FC5B07 
 599      ED289C27 
 599      403B0E2D 
 599      095A0AB4 
 600 00a7 D0D2A165 		.ascii	"\320\322\241eC;\013\355<\264BhE\320J\241U@\253\202V"
 600      433B0BED 
 600      3CB44268 
 600      45D04AA1 
 600      5540AB82 
 601 00bc 070DB37A 		.ascii	"\007\015\263z\237WX\374\276\207\024\012\200\241\370"
 601      9F5758FC 
 601      BE87140A 
 601      80A1F8
 602 00cb 2768EBA1 		.ascii	"'h\353\241md\362?\000\27208\376\032\332\247\320\200"
 602      6D64F23F 
 602      00BA3038 
 602      FE1ADAA7 
 602      D080
 603 00dd 4C110CC7 		.ascii	"L\021\014\307\337B\373\0154\236\341\3711O\371~,\343"
 603      DF42FB0D 
 603      349EE1F9 
 603      314FF97E 
 603      2CE3
 604 00ef FB0344F9 		.ascii	"\373\003D\371\311\3716*(o\314\363o\340\270C\"\347gp"
 604      C9F9362A 
 604      286FCCF3 
 604      6FE0B843 
 604      22E76770 
 605 0103 FEBFA1FD 		.ascii	"\376\277\241\375-\264\317\240\3779O\355\220\307Q\273"
 605      2DB4CFA0 
 605      FF394FED 
 605      90C751BB 
 606 0113 08F2FF15 		.ascii	"\010\362\377\025\332\277@\263WP{\374\002\350\376\017"
 606      DABF40B3 
 606      57507BFC 
 606      02E8FE0F 
 607 0123 B4DF42FB 		.ascii	"\264\337B\373;h\177\017\315\023\332^\236\332\003\343"
 607      3B687F0F 
 607      CD13DA5E 
 607      9EDA03E3 
 608 0133 F393E17B 		.ascii	"\363\223\341{\033\360\275e\005\337\2472\335\345\230"
 608      1BF0BD65 
 608      05DFA732 
 608      DDE598
 609 0142 3CA10D2B 		.ascii	"<\241\015+(.\177\270V\300|%\307\346\001-\200\341\306"
 609      282E7FB8 
 609      56C07C25 
 609      C7E6012D 
 609      80E1C6
 610 0155 FEDACB30 		.ascii	"\376\332\3130\0252<\373ex\266\003\236\357\330\260\227"
 610      15323CFB 
 610      6578B603 
 610      9EEFD8B0 
 610      97
 611 0166 8049B0D7 		.ascii	"\200I\260\327g\014\233 _\212)L\206\371\000\264K\014"
ARM GAS  C:\Users\CHRIST~1\AppData\Local\Temp\cc351EOy.s 			page 49


 611      670C9B20 
 611      5F8A294C 
 611      86F900B4 
 611      4B0C
 612 0178 E3BF328C 		.ascii	"\343\2772\214R|\030\267\203\202\306\2235;\2460\354\030"
 612      527C18B7 
 612      8382C693 
 612      353BA630 
 612      EC18
 613 018a 37C65FC4 		.ascii	"7\306_\304)\326\374\336\377\006[\376\377\340}\023Nl"
 613      29D6FCDE 
 613      FF065BFE 
 613      FFE07D13 
 613      4E6C
 614 019c 4B391E0C 		.ascii	"K9\036\014\347\0172[\376\017\300\363\307\022,\303\014"
 614      E70F325B 
 614      FE0FC0F3 
 614      C7122CC3 
 614      0C
 615 01ad CF2F2598 		.ascii	"\317/%\230\276\017\327\376/\034\337\203\266I\2107h\377"
 615      BE0FD7FE 
 615      2F1CDF83 
 615      B6498837 
 615      68FF
 616 01bf 0CE7250C 		.ascii	"\014\347%\014\243N!\306\301u8\377\027\236\346d9\364"
 616      A34E21C6 
 616      C17538FF 
 616      179EE664 
 616      39F4
 617 01d1 71BEFE25 		.ascii	"q\276\376%\364\337\302\270\031\316\3373\234\030\377"
 617      F4DFC2B8 
 617      19CEDF33 
 617      9C18FF
 618 01e0 3F33FC01 		.ascii	"?3\374\001\314\3668OM<\315\305P\236\346e)\313\243(~"
 618      CCF6384F 
 618      4D3CCDC5 
 618      509EE665 
 618      29CBA328 
 619 01f5 6D5EFE14 		.ascii	"m^\376\024\321\370\226\353\200\343A\210\203hh'\230?"
 619      D1F896EB 
 619      80E34188 
 619      83686827 
 619      983F
 620 0207 340A5A07 		.ascii	"4\012Z\007\254\371\360\244\025\237\375\014\370o\262"
 620      ACF9F0A4 
 620      159FFD0C 
 620      F86FB2
 621 0216 C23FE2DF 		.ascii	"\302?\342\337\301N\207\231\235jY\216~\033;a\374\331"
 621      C14E8799 
 621      9D6A598E 
 621      7E1B3B61 
 621      FCD9
 622 0228 CC46B112 		.ascii	"\314F\261\022;\325I\354\224d\305N\277@\324\027\326\364"
 622      3BD549EC 
 622      9464C54E 
 622      BF40D417 
 622      D6F4
ARM GAS  C:\Users\CHRIST~1\AppData\Local\Temp\cc351EOy.s 			page 50


 623 023a 90DA2A19 		.ascii	"\220\332*\031Z\226\304Vgm\330*\333\212\255\022\020w"
 623      5A96C456 
 623      676DD82A 
 623      DB8AAD12 
 623      1077
 624 024c 2BA4300D 		.ascii	"+\2440\015E!n\275\226SBw\2465\345\2413t7j\271-\320M"
 624      45216EBD 
 624      96534277 
 624      A635E5A1 
 624      3374376A 
 625 0264 A9986F56 		.ascii	"\251\230oV\321\273v\320-\235\316+u\242wk\360\340\307"
 625      D1BB76D0 
 625      2D9DCE2B 
 625      75A2776B 
 625      F0E0C7
 626 0277 A143BD6A 		.ascii	"\241C\275j\304s\370\274\256`a@\275\365\274\211\376\354"
 626      C473F8BC 
 626      AE606140 
 626      BDF5BC89 
 626      FEEC
 627 0289 7EA2E04A 		.ascii	"~\242\340J9$H\271\031r\370\266\026}\237\020N4D\327\251"
 627      392448B9 
 627      1972F8B6 
 627      167D9F10 
 627      4E3444D7 
 628 029e D18FC9F9 		.ascii	"\321\217\311\371\245\371\250?A\037\223S\201\367z\306"
 628      A5F9A83F 
 628      411F9353 
 628      81F77AC6 
 629 02ae 3B6734ED 		.ascii	";g4\355\210#\355\177\004\335C\301/\357)\321\016B\332"
 629      8823ED7F 
 629      04DD43C1 
 629      2FEF29D1 
 629      0E42DA
 630 02c1 7F3D370F 		.ascii	"\177=7\017c\376\276\226\3033\214\013\\*\230,{\341D/"
 630      63FEBE96 
 630      C3338C0B 
 630      5C2A982C 
 630      7BE1442F 
 631 02d5 618ADB31 		.ascii	"a\212\3331\263Y\032\364k|\316\017\336_\356s\346\264"
 631      B3591AF4 
 631      6B7CCE0F 
 631      DE5FEE73 
 631      E6B4
 632 02e7 6EE12653 		.ascii	"n\341&S\220)=\330d\377\231\202+\3466sE\334f\005W\317"
 632      90293DD8 
 632      64FF9982 
 632      2BE63673 
 632      45DC6605 
 633 02fd B9E13157 		.ascii	"\271\3411W\270\255\012\256\006.V\303\3053X\201\232\325"
 633      B8AD0AAE 
 633      062E56C3 
 633      C5335881 
 633      9AD5
 634 030f D49F24CF 		.ascii	"\324\237$\317\232L[\270:N\313\325r\210\320@Z~_KU\312"
 634      9A4C5BB8 
 634      3A4ECBD5 
ARM GAS  C:\Users\CHRIST~1\AppData\Local\Temp\cc351EOy.s 			page 51


 634      7288D040 
 634      5A7E5F4B 
 635 0325 CD8ACB50 		.ascii	"\315\212\313P\243V\216\310\250H}\324\310\333\222\321"
 635      A3568EC8 
 635      A8487DD4 
 635      C8DB92D1 
 636 0335 6453C662 		.ascii	"dS\306b\371w\233BM&\236k\004\031\015\242\014\020I\205"
 636      F9779B42 
 636      4D269E6B 
 636      04190DA2 
 636      0C104985 
 637 0349 9812964F 		.ascii	"\230\022\226O9\2412ba\376ipj\266MEn\330\024\322\336"
 637      39A13262 
 637      61FE6970 
 637      6AB64D45 
 637      6ED814D2 
 638 035e FD4EF24B 		.ascii	"\375N\362K\254\310u\020rM\024\322(\010\351{z<L\215\026"
 638      ACC87510 
 638      724D14D2 
 638      2808E97B 
 638      7A3C4C8D 
 639 0373 A81B5F5C 		.ascii	"\250\033_\\y\222\246F&D:\315\303\011\375<:D;'\226\213"
 639      7992A646 
 639      26443ACD 
 639      C309FD3C 
 639      3A443B27 
 640 0389 1B1D500C 		.ascii	"\033\035P\014\355\324\276\272\237\246E\211\264s\373"
 640      EDD4BEBA 
 640      9FA64589 
 640      B473FB
 641 0398 D9CD130E 		.ascii	"\331\315\023\016\324U\353\240[2z\243IK\243\304\304A"
 641      D455EBA0 
 641      5B327AA3 
 641      494BA3C4 
 641      C441
 642 03aa 7F25BBBD 		.ascii	"\177%\273\275\333\016\235\242\264\025\245\225M,\242"
 642      DB0E9DA2 
 642      B415A595 
 642      4D2CA2
 643 03b9 DE816E74 		.ascii	"\336\201nt\254\351\232\003\312\241\367\232bB\242\265"
 643      ACE99A03 
 643      CAA1F79A 
 643      6242A2B5 
 644 03c9 A88874F8 		.ascii	"\250\210t\370\347\267&\223\325\266\264\355\262\251\355"
 644      E7B72693 
 644      D5B6B4ED 
 644      B2A9ED
 645 03d8 CB3F81E0 		.ascii	"\313?\201\340\343\356\202\252w\254\250\3324\364j\326"
 645      E3EE82AA 
 645      77ACA8DA 
 645      34F46AD6 
 646 03e8 05555371 		.ascii	"\005USq\241\207\363\0231N5\015#\015\\\032y\366\262D"
 646      A187F313 
 646      314E350D 
 646      230D5C1A 
 646      79F6B244 
 647 03fc 492F616E 		.ascii	"I/an\007\260\332\311}\027\235Q#\005u\265\363J\210\023"
ARM GAS  C:\Users\CHRIST~1\AppData\Local\Temp\cc351EOy.s 			page 52


 647      07B0DAC9 
 647      7D179D51 
 647      230575B5 
 647      F34A8813 
 648 0410 E7A61542 		.ascii	"\347\246\025B\344\203\344g\330\262} \256G\024\247\306"
 648      E483E467 
 648      D8B27D20 
 648      AE4714A7 
 648      C6
 649 0421 D2C23189 		.ascii	"\322\3021\211\034w/\340V3\334\367\341b7\\\004\031\263"
 649      1C772FE0 
 649      5633DCF7 
 649      E162375C 
 649      0419B3
 650 0434 2F9E152B 		.ascii	"/\236\025+Q;\225Q\024\277\222\344l\226\261X\376\303"
 650      513B9551 
 650      14BF92E4 
 650      6C96B158 
 650      FEC3
 651 0446 CB244406 		.ascii	"\313$D\006AF\277(\243\217\263)d\300\272\220{\321\235"
 651      4146BF28 
 651      A38FB329 
 651      64C0BA90 
 651      7BD19D
 652 0459 90ACF7A8 		.ascii	"\220\254\367\250\220\322\226\276ed\026\322\336\375\036"
 652      90D296BE 
 652      656416D2 
 652      DEFD1E
 653 0468 0D916110 		.ascii	"\015\221a\0202$\012\031\264-\344\201u!\251s\375\343"
 653      32240A19 
 653      B42DE481 
 653      7521A973 
 653      FDE3
 654 047a F6D4BD6E 		.ascii	"\366\324\275n\320\215\231\213\273\247B\375\324\336B"
 654      D08D998B 
 654      BBA742FD 
 654      D4DE42
 655 0489 6D594F6B 		.ascii	"mYOk\313\211\230\273%\010\215\321{\021\347#\232\234"
 655      CB8998BB 
 655      25088DD1 
 655      7B11E723 
 655      9A9C
 656 049b D12CED64 		.ascii	"\321,\355dTWLjP\220\222\216\352\012z\250Eq\264\363\240"
 656      54574C6A 
 656      5090928E 
 656      EA0A7AA8 
 656      4571B4F3 
 657 04b0 EF5AA133 		.ascii	"\357Z\2413:F;\025\213\251\025.(\215vZ\037\256\316jQ"
 657      3A463B15 
 657      8BA9152E 
 657      288D765A 
 657      1FAECE6A 
 658 04c5 26EDDC0A 		.ascii	"&\355\334\012<=e\207\316\2611\246\345dGTH:|j]F\021o"
 658      3C3D6587 
 658      CEB131A6 
 658      E5644754 
 658      483A7C6A 
ARM GAS  C:\Users\CHRIST~1\AppData\Local\Temp\cc351EOy.s 			page 53


 659 04dd D6BBF94F 		.ascii	"\326\273\371Oq\260<\003\245\247\277\225\322O\255+\335"
 659      71B03C03 
 659      A5A7BF95 
 659      D24FAD2B 
 659      DD
 660 04ee 3613B9E2 		.ascii	"6\023\271\342\202J\250\270\250cSg\234\321U\332Y\036"
 660      824AA8B8 
 660      A8635367 
 660      9CD155DA 
 660      591E
 661 0500 4BB8CF51 		.ascii	"K\270\317Q\225\035\241\033Tq?\316\205f\306\020\011\307"
 661      951DA11B 
 661      54713FCE 
 661      8566C610 
 661      09C7
 662 0512 F6F4393B 		.ascii	"\366\3649;\324Bi\313\342\216\002\350[\2643\220\024U"
 662      D44269CB 
 662      E28E02E8 
 662      5BB43390 
 662      1455
 663 0524 E1804668 		.ascii	"\341\200Fh\347j\314\354\025{\364\204v\016-\015\027\272"
 663      E76ACCEC 
 663      157BF484 
 663      760E2D0D 
 663      17BA
 664 0536 A079A545 		.ascii	"\240y\245E6m\244\3314\035\362h\210%\342&\350f\336\251"
 664      366DA4D9 
 664      341DF268 
 664      8825E226 
 664      E866DEA9 
 665 054a 9F55A165 		.ascii	"\237U\241eJZ\020:\222k\007\3676C\264s\222\212\271\231"
 665      4A5A103A 
 665      926B07F7 
 665      3643B473 
 665      928AB999 
 666 055e 56CCE29A 		.ascii	"V\314\342\232\271|%\012R\021+]\314\037\371R\022\345"
 666      B97C250A 
 666      52112B5D 
 666      CC1FF952 
 666      12E5
 667 0570 5B430FE1 		.ascii	"[C\017\341\010\014\344\361P\263\235633\005\231L\231"
 667      080CE4F1 
 667      50B39D36 
 667      33330599 
 667      4C99
 668 0582 26B449C1 		.ascii	"&\264I\301\275\273\231{\007\214d\342\3350Sb\244\327"
 668      BDBB997B 
 668      078C64E2 
 668      DD305362 
 668      A4D7
 669 0594 60A457D4 		.ascii	"`\244W\324H\271\247r\032\234P4\0250\220\377\264\015"
 669      48B9A772 
 669      1A9C5034 
 669      153090FF 
 669      B40D
 670 05a6 4962FCBB 		.ascii	"Ib\374\273E$\306C@B\020o\226\000\002\255\213\010\266"
 670      4524C643 
ARM GAS  C:\Users\CHRIST~1\AppData\Local\Temp\cc351EOy.s 			page 54


 670      4042106F 
 670      960002AD 
 670      8B08B6
 671 05b9 2E2228BE 		.ascii	".\"(\276\363\274=J\240\"\202\032coi\204\372a9\374\220"
 671      F3BC3D4A 
 671      A022821A 
 671      636F6984 
 671      FA6139FC 
 672 05ce 95E14222 		.ascii	"\225\341B\"\270\321D\010\003$\241\"\222\020\236\025"
 672      B8D14408 
 672      0324A122 
 672      92109E15 
 673 05de 1021BE37 		.ascii	"\020!\2767\322\370n\310)\033pBi*\352\371\350\327\005"
 673      D2F86EC8 
 673      291B7042 
 673      692AEAF9 
 673      E8D705
 674 05f1 086551F1 		.ascii	"\010eQ\361SGrJ\325\326\305G\333\024_G\212W\024\310\216"
 674      5347724A 
 674      D5D6C547 
 674      DB145F47 
 674      8A5714C8 
 675 0606 B422BB2A 		.ascii	"\264\"\273*l\326\037\235\247\262\262\352\013niP1\225"
 675      6CD61F9D 
 675      A7B2B2EA 
 675      0B6E6950 
 675      3195
 676 0618 75FF794B 		.ascii	"u\377yK\274$\250\011\223X`rD\316\304\012\230\030\353"
 676      BC24A809 
 676      93586072 
 676      44CEC40A 
 676      9818EB
 677 062b A63C5575 		.ascii	"\246<Uu+W\211\252\250\260\273KU/\035Q\003\351(\317\007"
 677      2B5789AA 
 677      A8B0BB4B 
 677      552F1D51 
 677      03E928CF 
 678 0640 9F7BA6E4 		.ascii	"\237{\246\344\3346s@\314Q\221x\276Wp\307A\342Q\036\011"
 678      DC367340 
 678      CC519178 
 678      BE5770C7 
 678      41E2511E 
 679 0655 6B8B1413 		.ascii	"k\213\024\023H{\366o\3702\234\333\221\243\025\371\361"
 679      487BF66F 
 679      F8329CDB 
 679      91A315F9 
 679      F1
 680 0666 201FDF52 		.ascii	" \037\337Rp\307\370\315\\\002O\244_L\273\376\302^\313"
 680      70C7F8CD 
 680      5C024FA4 
 680      5F4CBBFE 
 680      C25ECB
 681 0679 A8C3BF89 		.ascii	"\250\303\277\211\372\301\322j\203\243c\244y\236\340"
 681      FAC1D26A 
 681      83A363A4 
 681      799EE0
 682 0688 12018990 		.ascii	"\022\001\211\220\263\012.\211wd\253\220S\335e\003Jt"
ARM GAS  C:\Users\CHRIST~1\AppData\Local\Temp\cc351EOy.s 			page 55


 682      B30A2E89 
 682      7764AB90 
 682      53DD6503 
 682      4A74
 683 069a 832AF5D0 		.ascii	"\203*\365\320T\337\311\243[\264\223\2379\220m\217\356"
 683      54DFC9A3 
 683      5BB4939F 
 683      39906D8F 
 683      EE
 684 06ab D34E55CF 		.ascii	"\323NU\317\3211'4H;\003\027^W\252\321C\3329\3257\223"
 684      D1312734 
 684      483B0317 
 684      5E57AAD1 
 684      43DA39D5 
 685 06c1 AF41A3D4 		.ascii	"\257A\243\324\352]\253cc\220\326n\022\301\377\364\035"
 685      EA5DAB63 
 685      6390D66E 
 685      12C1FFF4 
 685      1D
 686 06d2 B156A403 		.ascii	"\261V\244\003T\235#\263?\313\244*\324\372\020RI\311"
 686      549D23B3 
 686      3FCBA42A 
 686      D4FA1052 
 686      49C9
 687 06e4 9DE21DB9 		.ascii	"\235\342\035\271\223\242wt\216\024\340PPS\247\035:\246"
 687      93A27774 
 687      8E14E050 
 687      5053A71D 
 687      3AA6
 688 06f6 A6856FFA 		.ascii	"\246\205o\372\316\212\023J\246\035\323\213\253=jt\202"
 688      CE8A134A 
 688      A61DD38B 
 688      AB3D6A74 
 688      82
 689 0707 767A8F2D 		.ascii	"vz\217-\015\331\243t\332\271~7\252Z\2112i\347l\313\220"
 689      0DD9A374 
 689      DAB97E37 
 689      AA5A8932 
 689      69E76CCB 
 690 071c 4985CED0 		.ascii	"I\205\316\320Ned\313\212\035\312\245\235\224\362CAZ"
 690      4E6564CB 
 690      8A1DCAA5 
 690      9D94F243 
 690      415A
 691 072e 749E76F2 		.ascii	"t\236v\362V\347b\034Q\001\355,U\336\312\340i\321p\205"
 691      56E7621C 
 691      5101ED2C 
 691      55DECAE0 
 691      69D17085 
 692 0742 EEB99AA8 		.ascii	"\356\271\232\250\353\210Fx:\237\200\034n\206\336<d\307"
 692      EB884678 
 692      3A9F801C 
 692      6E86DE3C 
 692      64C7
 693 0754 B9D2DF06 		.ascii	"\271\322\337\0067W\327\014\254o\315`;:\231\033y\330"
 693      3757D70C 
 693      AC6FCD60 
ARM GAS  C:\Users\CHRIST~1\AppData\Local\Temp\cc351EOy.s 			page 56


 693      3B3A991B 
 693      79D8
 694 0766 945EC711 		.ascii	"\224^\307\021mN\2036E\374\006Q\377eb\374b\374WA\207"
 694      6D4E8336 
 694      45FC0651 
 694      FF6562FC 
 694      62FC5741 
 695 077b BCFC2CC5 		.ascii	"\274\374,\305T\023\202\010y\216\234|\033\246\336.\022"
 695      54138208 
 695      798E9C7C 
 695      1BA6DE2E 
 695      12
 696 078c D7ED1089 		.ascii	"\327\355\020\211\317Z%\226\262\276-\241\316\226S_^\203"
 696      CF5A2596 
 696      B2BE2DA1 
 696      CE96535F 
 696      5E83
 697 079e 6458429E 		.ascii	"dXB\236)'o_\013\\B~BN\376\210\223!\237\220PgX\267\012"
 697      29276F5F 
 697      0B5C427E 
 697      424EFE88 
 697      93219F90 
 698 07b7 A18EC331 		.ascii	"\241\216\3031\021\013\215S*\270<\010\347s\020\316\\"
 698      110B8D53 
 698      2AB83C08 
 698      E77310CE 
 698      5C
 699 07c8 2E1B0191 		.ascii	".\033\001\221\301\025C\010"
 699      C1154308 
 700 07d0 E5F3AEDC 		.ascii	"\345\363\256\334\005h%\320\012\240]\206V\010\355\022"
 700      056825D0 
 700      0AA05D86 
 700      5608ED12 
 701 07e0 B4F3D02E 		.ascii	"\264\363\320.\362\256$\335h\204\215^]\027\010\0141\007"
 701      F2AE24DD 
 701      68848D5E 
 701      5D17080C 
 701      3107
 702 07f2 050B2E85 		.ascii	"\005\013.\205\031\330\300\215\365\031\301\246\353\357"
 702      19D8C08D 
 702      F519C1A6 
 702      EBEF
 703 0800 106459D6 		.ascii	"\020dY\326\325\226\350\321,\321\343\214u\233\022j<\225"
 703      D596E8D1 
 703      2CD1E38C 
 703      759B126A 
 703      3C95
 704 0812 0F4F4DAB 		.ascii	"\017OM\253\244\031(\245\205\007\001s\006\226\256N<S"
 704      A41928A5 
 704      85070173 
 704      0696AE4E 
 704      3C53
 705 0824 A14724F0 		.ascii	"\241G$\360\320\305'\227s\\\270\015\256nql\256%\2260"
 705      D0C52797 
 705      735CB80D 
 705      AE6E716C 
 705      AE259630 
ARM GAS  C:\Users\CHRIST~1\AppData\Local\Temp\cc351EOy.s 			page 57


 706 0838 8BB80232 		.ascii	"\213\270\0022\313\230%*\300\022\345LS\212\016r)\345"
 706      CB98252A 
 706      C012E54C 
 706      538A0E72 
 706      29E5
 707 084a 51148D3F 		.ascii	"Q\024\215?\340\317\2451j+\001EM\323\226KMSfi\032\274"
 707      E0CFA531 
 707      6A2B0145 
 707      4DD3964B 
 707      4D536669 
 708 0860 48E9AB9D 		.ascii	"H\351\253\235\340\321\024\315\206\250\242\220\323J4"
 708      E0D114CD 
 708      86A8A290 
 708      D34A34
 709 086f 4F3B4F46 		.ascii	"O;OF\363\272x\264L;i\203u\003li\323\200\373%\203\011"
 709      F3BA78B4 
 709      4C3B6983 
 709      75036C69 
 709      D380FB25 
 710 0885 118E2C51 		.ascii	"\021\216,Q\360\243S\323\255\325\253\366(TC\210\213V"
 710      F0A353D3 
 710      ADD5ABF6 
 710      28544388 
 710      8B56
 711 0897 73C3103A 		.ascii	"s\303\020:L;\015\017;\257\253\320q\332)?V\011\323\374"
 711      4C3B0D0F 
 711      3BAFABD0 
 711      71DA293F 
 711      5609D3FC 
 712 08ab 59D2F9AB 		.ascii	"Y\322\371\253\263\235}O\354\301\004\216\033\\7\270\342"
 712      B39D7D4F 
 712      ECC1048E 
 712      1B5C37B8 
 712      E2
 713 08bc BFF0CF15 		.ascii	"\277\360\317\025\237\273\301\217&\234\233\353FWr\313"
 713      9FBBC18F 
 713      269C9BEB 
 713      465772CB 
 714 08cc D5CDD5D1 		.ascii	"\325\315\325\321\021_ts5\377\334l\330\3561L\323\215"
 714      115F7473 
 714      35FFDC6C 
 714      D8EE314C 
 714      D38D
 715 08de CC760FC0 		.ascii	"\314v\017\300vM\226\266\233F\343\215G\250\355\256\201"
 715      764D96B6 
 715      9B46E38D 
 715      47A8EDAE 
 715      81
 716 08ef ED2A18B5 		.ascii	"\355*\030\265\025\333I|z\335\302\247x\034\265\242E\034"
 716      15DB497C 
 716      7ADDC2A7 
 716      781CB5A2 
 716      451C
 717 0901 D7401C57 		.ascii	"\327@\034W\34386!7\256\231!X\005\004\257!V_A[\201\266"
 717      E3383621 
 717      37AE9921 
 717      580504AF 
ARM GAS  C:\Users\CHRIST~1\AppData\Local\Temp\cc351EOy.s 			page 58


 717      21565F41 
 718 0918 0CED25B4 		.ascii	"\014\355%\264\027\320\226\240-B[\200\366\034\332Ch\203"
 718      17D096A0 
 718      2D425B80 
 718      F61CDA43 
 718      6883
 719 092a D006A0F5 		.ascii	"\320\006\240\365C\353\203v\023Z\013\264\033\026Z\324"
 719      43EB8376 
 719      135A0BB4 
 719      1B165AD4 
 720 093a FD3D8D4F 		.ascii	"\375=\215O(\262\265\340\374f\251\002\2256\322\314\014"
 720      28B2B5E0 
 720      FC66A902 
 720      9536D2CC 
 720      0C
 721 094b EF2A1BF1 		.ascii	"\357*\033\361\037\007\257\255g}&\3116\374\330u\225\223"
 721      1F07AFAD 
 721      677D26C9 
 721      36FCD875 
 721      9593
 722 095d 01AC5A53 		.ascii	"\001\254ZSd\246\357o\244\364\255`\331f\353\364r\227"
 722      64A6EF6F 
 722      A4F4AD60 
 722      D966EBF4 
 722      7297
 723 096f B459B8A4 		.ascii	"\264Y\270\244\225\246\231\205\302\035p\027g6w\0138\266"
 723      95A69985 
 723      C21D7017 
 723      6736770B 
 723      38B6
 724 0981 31857B40 		.ascii	"1\205{@\341N\000|\033Z\273\005\350\372e\364\272\330"
 724      E14E007C 
 724      1B5ABB05 
 724      E8FA65F4 
 724      BAD8
 725 0993 648A5073 		.ascii	"d\212Ps\035\200\242\205\215\261ZI%0nY\300\350x\023\214"
 725      1D80A285 
 725      8DB15A49 
 725      25306E59 
 725      C0E87813 
 726 09a8 5E10FDCD 		.ascii	"^\020\375\3150\206\317\"S\326&\022c7\255c\020\352\024"
 726      3086CF22 
 726      53D62612 
 726      6337AD63 
 726      10EA14
 727 09bb 247657A2 		.ascii	"$vW\242&\220\004\302\035 ke\344%@~\3312\224-\000\231"
 727      269004C2 
 727      1D206B65 
 727      E425407E 
 727      D932942D 
 728 09d1 EFDF0710 		.ascii	"\357\337\007\020]\014P7\234\337\0030w\345\331\362B\232"
 728      5D0C5037 
 728      9CDF0330 
 728      77E5D9F2 
 728      429A
 729 09e3 2D55103A 		.ascii	"-U\020:]6f#\3532\352\331\010\3332\352\266\321X\026\262"
 729      5D366623 
ARM GAS  C:\Users\CHRIST~1\AppData\Local\Temp\cc351EOy.s 			page 59


 729      EB32EAD9 
 729      08DB32EA 
 729      B6D15816 
 730 09f8 712D7F49 		.ascii	"q-\177I%{}\201V\262.\313JFo^[E9\231G\361\032\003\233"
 730      257B7D81 
 730      56B22ECB 
 730      4A466F5E 
 730      5B453999 
 731 0a11 A3415C63 		.ascii	"\243A\\c`j3\3212zQ\210\227\271m\326X\214\036\327\340"
 731      606A33D1 
 731      327A5188 
 731      97B96DD6 
 731      588C1ED7 
 732 0a26 1524F66A 		.ascii	"\025$\366j\233\270\334o#\343)\334\345it\244%\314\024"
 732      9BB8DC6F 
 732      23E329DC 
 732      E56974A4 
 732      25CC14
 733 0a39 EB4E1EB4 		.ascii	"\353N\036\264;\345\301z\3332\270\361\302\366wT?\374"
 733      3BE5C17A 
 733      DB32B8F1 
 733      C2F67754 
 733      3FFC
 734 0a4b 7C79CF3A 		.ascii	"|y\317:\271\304\243\303\277\020\035:\302\250\315\306"
 734      B9C4A3C3 
 734      BF101D3A 
 734      C2A8CDC6 
 735 0a5b 7C28A79E 		.ascii	"|(\247\236\3759\345=\004T\243r\336\2178\231s\326\224"
 735      FD39E53D 
 735      0454A372 
 735      DE8F3899 
 735      73D694
 736 0a6e CA617088 		.ascii	"\312ap\210\265RIm\321\304l\335h\303\326\311\301\304"
 736      B552496D 
 736      D1C46CDD 
 736      68C3D6C9 
 736      C1C4
 737 0a80 D658F698 		.ascii	"\326X\366\230d\277A\260\225\211\026\333\\\026>#\374"
 737      64BF41B0 
 737      958916DB 
 737      5C163E23 
 737      FC
 738 0a91 466EDC3A 		.ascii	"Fn\334:D\242\320Qk\010\025d\030\2067\017\360\346 vf"
 738      44A2D051 
 738      6B081564 
 738      1886370F 
 738      F0E62076 
 739 0aa6 A1CD409B 		.ascii	"\241\315@\233\202\366\030\332(\264G\026\361\364\362"
 739      82F618DA 
 739      28B44716 
 739      F1F4F2
 740 0ab5 736A13EC 		.ascii	"sj\023\354\236\011\020\2109\330\\j\275\276)\251<O\276"
 740      9E091088 
 740      39D85C6A 
 740      BDBE29A9 
 740      3C4FBE
 741 0ac8 897AF667 		.ascii	"\211z\366g\224\365\030\020O\332&\226\224\207q\213\362"
ARM GAS  C:\Users\CHRIST~1\AppData\Local\Temp\cc351EOy.s 			page 60


 741      94F51810 
 741      4FDA2696 
 741      9487718B 
 741      F2
 742 0ad9 3066A53C 		.ascii	"0f\245<\314\303\3359<~\026\030\2163gL\202\266O@\263"
 742      CCC3DD39 
 742      3C7E1618 
 742      8E33674C 
 742      82B64F40 
 743 0aee 09513330 		.ascii	"\011Q30\347\323(\325\323\3311\223\351\250#yn\237b\003"
 743      E7D328D5 
 743      D3D93193 
 743      E9A82379 
 743      6E9F6203 
 744 0b02 6C978789 		.ascii	"l\227\207\211\357\340R\202Ci\206\321Z\251\015,\360\303"
 744      EFE05282 
 744      436986D1 
 744      5AA90D2C 
 744      F0C3
 745 0b14 5438F0C7 		.ascii	"T8\360\307\255-\236\300\215\027n07N\203\352\317\277"
 745      AD2D9EC0 
 745      8D176E30 
 745      374E83EA 
 745      CFBF
 746 0b26 95EA4F81 		.ascii	"\225\352O\201RT}\232\252ncN\345\236\201\302\342\264"
 746      52547D9A 
 746      AA6E634E 
 746      E59E81C2 
 746      E2B4
 747 0b38 6A0EB1E8 		.ascii	"j\016\261\350\340(\034b\230\325\202\030b\327\010/3\266"
 747      E0281C62 
 747      98D58218 
 747      62D7082F 
 747      33B6
 748 0b4a 53023698 		.ascii	"S\0026\230\015\027\337\350B\034\3247\330\324\204\323"
 748      0D17DFE8 
 748      421CD437 
 748      D8D484D3 
 749 0b5a 71E99BA8 		.ascii	"q\351\233\250\233?\023s\367\205mb\212\267\253Z\215M"
 749      9B3F1373 
 749      F7856D62 
 749      8AB7AB5A 
 749      8D4D
 750 0b6c 08346B4D 		.ascii	"\0104kM\270P\271>8\330\224\364\016y\270^ai\300\036\354"
 750      B850B93E 
 750      38D894F4 
 750      0E79B85E 
 750      6169C01E 
 751 0b81 E8BAF8A5 		.ascii	"\350\272\370\245d>l\376\253$SM \"O\303\021\274\025\342"
 751      643E6CFE 
 751      AB24534D 
 751      20224FC3 
 751      11BC15E2 
 752 0b95 705EB2E6 		.ascii	"p^\262\346\376\357\224\030?\365\036\266F,\235i\273\312"
 752      FEEF9418 
 752      3FF51EB6 
 752      462C9D69 
ARM GAS  C:\Users\CHRIST~1\AppData\Local\Temp\cc351EOy.s 			page 61


 752      BBCA
 753 0ba7 59BCC393 		.ascii	"Y\274\303\223!\027'_:,s\262\200\357\371\221X\233\223"
 753      2117275F 
 753      3A2C73B2 
 753      80EFF991 
 753      589B93
 754 0bba E5D46B1F 		.ascii	"\345\324k\037\026nK\310S\254\223K]Q\306\\\201\327\256"
 754      166E4BC8 
 754      53AC934B 
 754      5D51C65C 
 754      81D7AE
 755 0bcd A972F2B5 		.ascii	"\251r\362\265O./?\242\334\361\242\242\322:\271\004\372"
 755      4F2E2F3F 
 755      A2DCF1A2 
 755      A2D23AB9 
 755      04FA
 756 0bdf F415A6A9 		.ascii	"\364\025\246\2510o5\333\230\267\230\246\037Y\316Bk\251"
 756      306F35DB 
 756      98B798A6 
 756      1F59CE42 
 756      6BA9
 757 0bf1 A59EBE42 		.ascii	"\245\236\276B+c\263\215\312\270:O\366\234\201E\2358"
 757      2B63B38D 
 757      CAB83A4F 
 757      F69C8145 
 757      9D38
 758 0c03 093593C2 		.ascii	"\0115\223\302\010k\377\253\271\003\217\0358x\234\264"
 758      086BFFAB 
 758      B9038F1D 
 758      38789CB4 
 759 0c13 3E639681 		.ascii	">c\226\201\364@D\353@\020\254$\203\221\264(?\215Q-w"
 759      F44044EB 
 759      4010AC24 
 759      8391B428 
 759      3F8D512D 
 760 0c28 60EE4022 		.ascii	"`\356@\"\0133\234\305\322\365@9cd%\347a-\336\222\230"
 760      0B339CC5 
 760      D2F54039 
 760      636425E7 
 760      612DDE92 
 761 0c3d 30AF4603 		.ascii	"0\257F\003v\344y~\371\354\374!\027\316m\003\225\261"
 761      76E4797E 
 761      F9ECFC21 
 761      17CE6D03 
 761      95B1
 762 0c4f F0218EE3 		.ascii	"\360!\216\3430\030\032\202\304\015)\264\301\346$\037"
 762      30181A82 
 762      C40D29B4 
 762      C1E6241F 
 763 0c5f 0A30AD41 		.ascii	"\0120\255A\306\017\342Y\227fy\351\343\021f+\226\205"
 763      C60FE259 
 763      976679E9 
 763      E311662B 
 763      9685
 764 0c71 43889405 		.ascii	"C\210\224\005|\304O#\227{W\\\320\034\305\024\332^2n"
 764      7CC44F23 
 764      977B575C 
ARM GAS  C:\Users\CHRIST~1\AppData\Local\Temp\cc351EOy.s 			page 62


 764      D01CC514 
 764      DA5E326E 
 765 0c85 F3BD4224 		.ascii	"\363\275B$\262\265\011\016\346\177r\007\033(\002i\271"
 765      B2B5090E 
 765      E67F7207 
 765      1B280269 
 765      B9
 766 0c96 7024DB07 		.ascii	"p$\333\007\307W\361\203HmU\265\303 \327\317\341\227"
 766      C757F183 
 766      486D55B5 
 766      C320D7CF 
 766      E197
 767 0ca8 8DEB0856 		.ascii	"\215\353\010V\216\243\177\341\210\033\351\257\012?\216"
 767      8EA37FE1 
 767      881BE9AF 
 767      0A3F8E
 768 0cb7 5E87AB3C 		.ascii	"^\207\253<=0R\334\021\206p\346+<\343\301\013|\311?\306"
 768      3D3052DC 
 768      118670E6 
 768      2B3CE3C1 
 768      0B7CC93F 
 769 0ccc 809372A5 		.ascii	"\200\223r\245\367\2518\341\247\240\364\024\2178\216"
 769      F7A938E1 
 769      A7A0F414 
 769      8F388E
 770 0cdb 5EE24561 		.ascii	"^\342Ea\222!k\260*\314\267\315\240D%9\346\232\273\223"
 770      92216BB0 
 770      2ACCB7CD 
 770      A0442539 
 770      E69ABB93 
 771 0cef D1171C87 		.ascii	"\321\027\034\207\270\001\270\373w\012E\254\235\017y"
 771      B801B8FB 
 771      770A45AC 
 771      9D0F79
 772 0cfe 46BBF2E0 		.ascii	"F\273\362\340\346\001\364\212\270\200\273\031\321r\311"
 772      E601F48A 
 772      B880BB19 
 772      D172C9
 773 0d0d 5EC953FF 		.ascii	"^\311S\377p\276J|\255qu\261\306\205>\012\362\222\367"
 773      70BE4A7C 
 773      AD7175B1 
 773      C6853E0A 
 773      F292F7
 774 0d20 1F1BE9FB 		.ascii	"\037\033\351\373\217\233\017\302c\370M\307I\224\004"
 774      8F9B0FC2 
 774      63F84DC7 
 774      499404
 775 0d2f 9BD6F178 		.ascii	"\233\326\361x[(\026m\346b\020\366v\034\332\004\177\217"
 775      5B28166D 
 775      E66210F6 
 775      761CDA04 
 775      7F8F
 776 0d41 20250570 		.ascii	" %\005pyd\244[\373\335tS\372\220\251f1W\225Z?n2i\225"
 776      7964A45B 
 776      FBDD7453 
 776      FA90A966 
 776      3157955A 
ARM GAS  C:\Users\CHRIST~1\AppData\Local\Temp\cc351EOy.s 			page 63


 777 0d5a 988A3B2C 		.ascii	"\230\212;,:\016N\341o4\032\342\270(4\010`\217\242\357"
 777      3A0E4EE1 
 777      6F341AE2 
 777      B8283408 
 777      608FA2EF 
 778 0d6e 6249677B 		.ascii	"bIg{\027]P\236=\001Z\363|\250X\31185\377\031dr\220\011"
 778      175D509E 
 778      3D015AF3 
 778      7CA858C9 
 778      3835FF19 
 779 0d86 EFA9624E 		.ascii	"\357\251bN\361\"\247x9\247\004\302\251v!5\322\001]\241"
 779      F122A778 
 779      39A704C2 
 779      A9762135 
 779      D2015DA1 
 780 0d9a 9C16EF06 		.ascii	"\234\026\357\006\20592N/\377\334\202\3231\221\32319"
 780      8539324E 
 780      2FFFDC82 
 780      D33191D3 
 780      3139
 781 0dac A7E38453 		.ascii	"\247\343\204S\311HI\255\0125QN\243E\017\356\012\234"
 781      C94849AD 
 781      0A35514E 
 781      A3450FEE 
 781      0A9C
 782 0dbe 6EBB5970 		.ascii	"n\273YpJ\0249%\3129%\021N\201wN\246\363\250\213r:2s"
 782      4A143925 
 782      CA392511 
 782      4E81774E 
 782      A6F3A88B 
 783 0dd6 240E6B37 		.ascii	"$\016k7\004\234&\376+\345\024H9%\213\234\222\345\234"
 783      049C26FE 
 783      2BE51448 
 783      39258B9C 
 783      92E59C
 784 0de9 5208A7A0 		.ascii	"R\010\247\240\234\332 -zlo\323\241\203O\033\217+\245"
 784      9CDA202D 
 784      7A6C6FD3 
 784      A1834F1B 
 784      8F2BA5
 785 0dfc 2EC3939D 		.ascii	".\303\223\235\350\263\023\304gi\202\3172\302\262^s\014"
 785      E8B313C4 
 785      676982CF 
 785      32C2B25E 
 785      730C
 786 0e0e CB7499B3 		.ascii	"\313t\231\263Y- \343RE0\251r0'\011\230\347\005\265\177"
 786      592D20E3 
 786      524530A9 
 786      72302709 
 786      98E705B5 
 787 0e23 8CE62896 		.ascii	"\214\346(\226\336\261\262\016\301\373=[-\030\235\022"
 787      DEB1B20E 
 787      C1FB3D5B 
 787      2D189D12 
 788 0e33 199D9233 		.ascii	"\031\235\2223J'\214\032o\037\232B\3505\345Tx>\277\337"
 788      4A278C1A 
 788      6F1F9A42 
ARM GAS  C:\Users\CHRIST~1\AppData\Local\Temp\cc351EOy.s 			page 64


 788      E835E554 
 788      783EBFDF 
 789 0e47 8E688573 		.ascii	"\216h\205s\236j\225\227\026\261\342h\3264\003\221\213"
 789      9E6A9597 
 789      16B1E268 
 789      D6340391 
 789      8B
 790 0e58 E3D9DDCD 		.ascii	"\343\331\335\315v\266U\315\"\252f\012\252\256\246>\257"
 790      76B655CD 
 790      22AA660A 
 790      AAAEA63E 
 790      AF
 791 0e69 D43055EB 		.ascii	"\3240U\353>7\003\004*\356\264\010\360\264\034`6\001"
 791      3E370304 
 791      2AEEB408 
 791      F0B41C60 
 791      3601
 792 0e7b 58F7E848 		.ascii	"X\367\350H\244\023\212\243/\030bF\303;4B(|f\301\351"
 792      A4138AA3 
 792      2F186246 
 792      C33B3442 
 792      287C66C1 
 793 0e90 8CC8E98C 		.ascii	"\214\310\351\214\234\323Y\302)\252\340\374\250\026e"
 793      9CD359C2 
 793      29AAE0FC 
 793      A81665
 794 0e9f 524EF3CF 		.ascii	"RN\363\317\356\275v!ja\350T\325s]Y=TU<y\345RU[\273\036"
 794      EEBD7621 
 794      6A61E854 
 794      D5735D59 
 794      3D54553C 
 795 0eba 67DADB4C 		.ascii	"g\332\333L\304<\242\3519A\323\220\232\253\211\304\251"
 795      C43CA2E9 
 795      3941D390 
 795      9AAB89C4 
 795      A9
 796 0ecb 74CD7EE1 		.ascii	"t\315~\341\342PG`\354FB\306\345\210\000s\020\335\341"
 796      E2504760 
 796      EC4642C6 
 796      E5880073 
 796      10DDE1
 797 0ede E6CE1360 		.ascii	"\346\316\023`\267\200\030\241B\012\254{\371B\247\010"
 797      B78018A1 
 797      420AAC7B 
 797      F942A708 
 798 0eee 82022B5D 		.ascii	"\202\002+]\355\034\26407\276%\202(  .\010 \242/\004"
 798      ED1CB430 
 798      37BE2582 
 798      2820202E 
 798      0820A22F 
 799 0f03 26AB1988 		.ascii	"&\253\031\210\201Ht\242\330\024\242\3024\\\276\210 "
 799      814874A2 
 799      D814A2C2 
 799      345CBE88 
 799      20
 800 0f14 5F405048 		.ascii	"_@PH\020d%\254\374\034UR\000\347\243W\023T6\025\276"
 800      106425AC 
ARM GAS  C:\Users\CHRIST~1\AppData\Local\Temp\cc351EOy.s 			page 65


 800      FC1C5552 
 800      00E7A357 
 800      13543615 
 801 0f29 4464F932 		.ascii	"Dd\3712Q\331-\245E\202\250\327\221(\211\210\002\022"
 801      51D92DA5 
 801      4582A8D7 
 801      91288988 
 801      0212
 802 0f3b EEA228EA 		.ascii	"\356\242(\352\242 \252\210\210\252\217\233iQ\242V*k"
 802      A220AA88 
 802      88AA8F9B 
 802      6951A256 
 802      2A6B
 803 0f4d A5B22CC9 		.ascii	"\245\262,\311\231(\333aV\366U\311\334\003\215M\371%"
 803      9928DB61 
 803      56F655C9 
 803      DC038D4D 
 803      F925
 804 0f5f 44FE6541 		.ascii	"D\376eA\327\234\362\311\034'\006\240~\031\335\257\017"
 804      D79CF2C9 
 804      1C2706A0 
 804      7E19DDAF 
 804      0F
 805 0f70 ABF92521 		.ascii	"\253\371%!\342\212E\004\305\002\202Rj\356\251\252J\007"
 805      E28A4504 
 805      C5028252 
 805      6AEEA9AA 
 805      4A07
 806 0f82 D44D115C 		.ascii	"\324M\021\\\213[|\242!\010\360\262\217\305\301\312\202"
 806      8B5B7CA2 
 806      2108F0B2 
 806      8FC5C1CA 
 806      82
 807 0f93 834D00E5 		.ascii	"\203M\000\345\004@\231\331\343\305\335]."
 807      044099D9 
 807      E3C5DD5D 
 807      2E
 808 0fa0 0C003CD1 		.ascii	"\014\000<\321\236\2778f\012\327\022*\356\212\210\340"
 808      9EBF3866 
 808      0AD7122A 
 808      EE8A88E0 
 809 0fb0 8A80A082 		.ascii	"\212\200\240\202 \230\356\011\177\244B\243\024A\362"
 809      2098EE09 
 809      7FA442A3 
 809      1441F2
 810 0fbf 83C91447 		.ascii	"\203\311\024GQ\205~Q\205J\221A\245\300\240\2120h\032"
 810      51857E51 
 810      854A9141 
 810      A5C0A08A 
 810      30681A
 811 0fd2 ADC955A3 		.ascii	"\255\311U\2439\255\315\254\355\033\031\355\346\315j"
 811      39ADCDAC 
 811      ED1B19ED 
 811      E6CD6A
 812 0fe1 55D3502E 		.ascii	"U\323P.L\271\220\352b;kk\211f5\202f\343%\243\003*1\226"
 812      4CB990EA 
 812      623B6B6B 
ARM GAS  C:\Users\CHRIST~1\AppData\Local\Temp\cc351EOy.s 			page 66


 812      89663582 
 812      66E325A3 
 813 0ff9 F32F8ED0 		.ascii	"\363/\216\320X\0062"
 813      580632
 814 1000 EEAA88EC 		.ascii	"\356\252\210\354\252\200\254\216 \2737\277X\247E\341"
 814      AA80AC8E 
 814      20BB37BF 
 814      58A745E1 
 815 1010 0EF49D63 		.ascii	"\016\364\235cBA\022\373\034\243\003\317q\315\213qU\354"
 815      424112FB 
 815      1CA303CF 
 815      71CD8B71 
 815      55EC
 816 1022 D30FD31F 		.ascii	"\323\017\323\037A?\374\301\241N-\275\277D\336\037\206"
 816      413FFCC1 
 816      A14E2DBD 
 816      BF44DE1F 
 816      86
 817 1033 9D6A65AF 		.ascii	"\235je\257\036\273\361\353\305\212W\351\245J\366\251"
 817      1EBBF1EB 
 817      C58A57E9 
 817      A54AF6A9 
 818 1043 88132E24 		.ascii	"\210\023.$\343\3673\331\356\3513L_\227^\376\347(\212"
 818      E3F733D9 
 818      EEE9334C 
 818      5F975EFE 
 818      E7288A
 819 1056 CA9A8FEF 		.ascii	"\312\232\217\357\031tFGhg<\277\263\023\241c\244\303"
 819      19744647 
 819      68673CBF 
 819      B313A163 
 819      A4C3
 820 1068 DF588A79 		.ascii	"\337X\212y\206l\255\177\332l\256\177\332\273\337K\""
 820      866CAD7F 
 820      DA6CAE7F 
 820      DABBDF4B 
 820      22
 821 1079 AFF15AC1 		.ascii	"\257\361Z\301\2527\345\353\037X~f\204T\0248\233\227"
 821      AA37E5EB 
 821      1F587E66 
 821      84541438 
 821      9B97
 822 108b 9F6B9FB8 		.ascii	"\237k\237\270\333\331B\256\003D\334\262\\{>Q-]\302\254"
 822      DBD942AE 
 822      0344DCB2 
 822      5C7B3E51 
 822      2D5DC2AC 
 823 109f DBD7AC3D 		.ascii	"\333\327\254=\203\310\332\223.\241\261\340\026\020\334"
 823      83C8DA93 
 823      2EA1B1E0 
 823      1610DC
 824 10ae 8EAC2EA1 		.ascii	"\216\254.\241\361\353\235\314\261\273jTI\365|T\335\373"
 824      F1EB9DCC 
 824      B1BB6A54 
 824      49F57C54 
 824      DDFB
 825 10c0 3BF3D273 		.ascii	";\363\322s\232,=\357\300\310\333\"\364vq\351\271f\013"
ARM GAS  C:\Users\CHRIST~1\AppData\Local\Temp\cc351EOy.s 			page 67


 825      9A2C3DEF 
 825      C0C8DB22 
 825      F47671E9 
 825      B9660B
 826 10d3 A313505A 		.ascii	"\243\023PZC\014R\216\217\266\316\332\243Vj\332\247\017"
 826      430C528E 
 826      8FB6CEDA 
 826      A3566ADA 
 826      A70F
 827 10e5 82B35C50 		.ascii	"\202\263\\P7\355\244\267\204\267\331\243>\332)\214\015"
 827      37EDA4B7 
 827      84B7D9A3 
 827      3EDA298C 
 827      0D
 828 10f6 0C446892 		.ascii	"\014Dh\222v\202\203\262\356\222\345j\360\233\337\247"
 828      768283B2 
 828      EE92E56A 
 828      F09BDFA7 
 829 1106 A1EE8BC5 		.ascii	"\241\356\213\305Y\316\234\353\006\267\014SH0\211\264"
 829      59CE9CEB 
 829      06B70C53 
 829      483089B4 
 830 1116 9EC3F1F4 		.ascii	"\236\303\361\3641\364>L8\335\200\276\327\272\376\326"
 830      31F43E4C 
 830      38DD80BE 
 830      D7BAFED6 
 831 1126 F5B8C706 		.ascii	"\365\270\307\006`=\372@\217\036\013\313wM\322\007\216"
 831      603DFA40 
 831      8F1E0BCB 
 831      774DD207 
 831      8E
 832 1137 5E24DFC0 		.ascii	"^$\337\300\177\020\361\274@\211\026\250)+\233\216\334"
 832      7F10F1BC 
 832      408916A8 
 832      292B9B8E 
 832      DC
 833 1148 7130DB12 		.ascii	"q0\333\022V\302\275t\213f\020\030\367\213\366\354}\203"
 833      56C2BD74 
 833      8B661018 
 833      F78BF6EC 
 833      7D83
 834 115a 3D0740B6 		.ascii	"=\007@\2665\034 \352E\322x\204\023\012u\244\257\342"
 834      351C20EA 
 834      45D27884 
 834      130A75A4 
 834      AFE2
 835 116c 7B6A9B9C 		.ascii	"{j\233\234P4\355<\210\036n\346\3201\332\211\255N\257"
 835      5034ED3C 
 835      881E6EE6 
 835      D031DA89 
 835      AD4EAF
 836 117f D2A013B4 		.ascii	"\322\240\023\264s\341\374r\241\226$\264N(\224\351)Q"
 836      73E1FC72 
 836      A19624B4 
 836      4E2894E9 
 836      2951
 837 1191 854E36EB 		.ascii	"\205N6\353\324#\222\315#B6\247\007FuZ\274]y\204k\244"
ARM GAS  C:\Users\CHRIST~1\AppData\Local\Temp\cc351EOy.s 			page 68


 837      D42392CD 
 837      234236A7 
 837      0746755A 
 837      BC5D7984 
 838 11a7 D91FA348 		.ascii	"\331\037\243H\3302\300E\2654!\317\001e\023\301|\361"
 838      D832C045 
 838      B53421CF 
 838      016513C1 
 838      7CF1
 839 11b9 8B90019E 		.ascii	"\213\220\001\236ssd\273\033\251\353\202\260\375\306"
 839      737364BB 
 839      1BA9EB82 
 839      B0FDC6
 840 11c8 81FEB168 		.ascii	"\201\376\261h\210Q\362\364a\203;7\006\352[\010\230Y"
 840      8851F2F4 
 840      61833B37 
 840      06EA5B08 
 840      9859
 841 11da 881F7241 		.ascii	"\210\037rA\027\250f5\305\345E\216\250\204vfVN\224\262"
 841      17A86635 
 841      C5E5458E 
 841      A8847666 
 841      564E94B2 
 842 11ee 0CDF88E7 		.ascii	"\014\337\210\347\202\301\330X\015{=\202\013\302\334"
 842      82C1D858 
 842      0D7B3D82 
 842      0BC2DC
 843 11fd 8DC10807 		.ascii	"\215\301\010\007t\215\015\\\276\322\353\210\332HG\333"
 843      748D0D5C 
 843      BED2EB88 
 843      DA4847DB 
 844 120d D37F324C 		.ascii	"\323\1772L\213\337\003\271\272:\272\272m\260|$\234\002"
 844      8BDF03B9 
 844      BA3ABABA 
 844      6DB07C24 
 844      9C02
 845 121f AB4C22BC 		.ascii	"\253L\"\2745\004H\226\230S\026\341|\001\271r\363\320"
 845      35044896 
 845      985316E1 
 845      7C01B972 
 845      F3D0
 846 1231 5E409B81 		.ascii	"^@\233\2016\207d\233\266\203ylK\004+\374\020\024^B6"
 846      3687649B 
 846      B683796C 
 846      4B042BFC 
 846      10145E42 
 847 1246 1EADCDA1 		.ascii	"\036\255\315\241r\203\356\234>\003\302\247\242\205\226"
 847      7283EE9C 
 847      3E03C2A7 
 847      A28596
 848 1255 D00629DF 		.ascii	"\320\006)\337\361\026q\253eZ\316v\315[\264\211\177\240"
 848      F11671AB 
 848      655ACE76 
 848      CD5BB489 
 848      7FA0
 849 1267 05E13980 		.ascii	"\005\3419\200\030\226SK\236\300%\016xf\361t\370\234"
 849      1896534B 
ARM GAS  C:\Users\CHRIST~1\AppData\Local\Temp\cc351EOy.s 			page 69


 849      9EC0250E 
 849      7866F174 
 849      F89C
 850 1279 3E1DB28D 		.ascii	">\035\262\215q\011\267\011\253\334$O\350\003\3754a\226"
 850      7109B709 
 850      ABDC244F 
 850      E803FD34 
 850      6196
 851 128b 2C13C6BA 		.ascii	",\023\306\272y\2370n\337\316\274\013\375l\333\002O["
 851      799F306E 
 851      DFCEBC0B 
 851      FD6CDB02 
 851      4F5B
 852 129d 0FACDB56 		.ascii	"\017\254\333V(t\331\265\0135Z4@\035_\0222\372\312\005"
 852      2874D9B5 
 852      0B355A34 
 852      401D5F12 
 852      32FACA05 
 853 12b1 3D271DF5 		.ascii	"='\035\365\311\370\370Z;\216\274\331r\265\376\272\340"
 853      C9F8F85A 
 853      3B8EBCD9 
 853      72B5FEBA 
 853      E0
 854 12c2 25B05E61 		.ascii	"%\260^a\250V\361\003\266\322\225{\015hLp|e\201\250\316"
 854      A856F103 
 854      B6D2957B 
 854      0D684C70 
 854      7C6581A8 
 855 12d7 8B5A0603 		.ascii	"\213Z\006\003Zf\243\336\260\217\2620\310vF\004\277\254"
 855      5A66A3DE 
 855      B08FB230 
 855      C8764604 
 855      BFAC
 856 12e9 D8F00B33 		.ascii	"\330\360\0133\345 5\345\212\265\242\3374&3\206\025\331"
 856      E52035E5 
 856      8AB5A2DF 
 856      34263386 
 856      15D9
 857 12fb 92881895 		.ascii	"\222\210\030\225\212\236\260*Z0]|\363\245\011\015\012"
 857      8A9EB02A 
 857      5A305D7C 
 857      F3A5090D 
 857      0A
 858 130c 74A21FC4 		.ascii	"t\242\037\304\225F\326\272\300\234e\335R!J\267o\264"
 858      9546D6BA 
 858      C09C65DD 
 858      52214AB7 
 858      6FB4
 859 131e 9439CEDB 		.ascii	"\2249\316\333\202\217\3438\017Vn\340\202\224\3468_A"
 859      828FE338 
 859      0F566EE0 
 859      8294E638 
 859      5F41
 860 1330 747386BB 		.ascii	"ts\206\273R5\365C\232\310\233\361>A\377L\015{\272\035"
 860      5235F543 
 860      9AC89BF1 
 860      3E41FF4C 
ARM GAS  C:\Users\CHRIST~1\AppData\Local\Temp\cc351EOy.s 			page 70


 860      0D7BBA1D 
 861 1344 C2895CD8 		.ascii	"\302\211\\\330v$\315\011%\022P\\\374\353k\365P\350h"
 861      7624CD09 
 861      2512505C 
 861      FCEB6BF5 
 861      50E868
 862 1357 A7AA66EE 		.ascii	"\247\252f\356\252\022e\323Nru\3415\204\362i\347iF\326"
 862      AA1265D3 
 862      4E7275E1 
 862      3584F269 
 862      E76946D6 
 863 136b 188F8A68 		.ascii	"\030\217\212h'.$\375\261\013*\247\235\374\270\300x\036"
 863      272E24FD 
 863      B10B2AA7 
 863      9DFCB8C0 
 863      781E
 864 137d D5D1CE85 		.ascii	"\325\321\316\205\240\341F\015\352 \035\273\302\362\211"
 864      A0E1460D 
 864      EA201DBB 
 864      C2F289
 865 138c 2B6AF2E1 		.ascii	"+j\362\341\001\324\004Ws\372\025\264J\336\305D\000\372"
 865      01D40457 
 865      73FA15B4 
 865      4ADEC544 
 865      00FA
 866 139e 04E59BF2 		.ascii	"\004\345\233\362\257\356+qO+\334:\265\305\026\230\204"
 866      AFEE2B71 
 866      4F2BDC3A 
 866      B5C51698 
 866      84
 867 13af FC889CDC 		.ascii	"\374\210\234\334rk\020\277S\236X\037o\302\256\304[M"
 867      726B10BF 
 867      539E581F 
 867      6FC2AEC4 
 867      5B4D
 868 13c1 D18CDCE6 		.ascii	"\321\214\334\346\366r\323\004\015\" \262\231\217a\312"
 868      F672D304 
 868      0D2220B2 
 868      998F61CA 
 869 13d1 CD5CA812 		.ascii	"\315\\\250\022\006\037f\334\260?\343\301\267G\301\217"
 869      061F66DC 
 869      B03FE3C1 
 869      B747C18F 
 870 13e1 C7A01D87 		.ascii	"\307\240\035\207\026\003-\026Z\234R\232\001]\023\222"
 870      16032D16 
 870      5A9C529A 
 870      015D1392 
 871 13f1 178E5172 		.ascii	"\027\216Qr\354k\366\305\207\277\244\232\342\215\307"
 871      EC6BF6C5 
 871      87BFA49A 
 871      E28DC7
 872 1400 48EBD4D4 		.ascii	"H\353\324\3240\340\227\221\247\307\307\225\250\207\306"
 872      30E09791 
 872      A7C7C795 
 872      A887C6
 873 140f E140E3D0 		.ascii	"\341@\343\320i^\036\207f\334\311\200\365\333\3426\307"
 873      695E1E87 
ARM GAS  C:\Users\CHRIST~1\AppData\Local\Temp\cc351EOy.s 			page 71


 873      66DCC980 
 873      F5DBE236 
 873      C7
 874 1420 63417D0C 		.ascii	"cA}\014\216\307$\030\227(\306#\266\023\021\3371\237"
 874      8EC72418 
 874      9728C623 
 874      B61311DF 
 874      319F
 875 1432 19A1468F 		.ascii	"\031\241F\217i\214\204t\004\376\030\315\320\363\307"
 875      698C8474 
 875      04FE18CD 
 875      D0F3C7
 876 1441 8F4F27B0 		.ascii	"\217O'\260o\204\377\024\272]U\307\313x\255\370\345\036"
 876      6F84FF14 
 876      BA5D55C7 
 876      CB78ADF8 
 876      E51E
 877 1453 BE2E16D2 		.ascii	"\276.\026\322\023J\374\335\320\266\315\\\232\222|64"
 877      134AFCDD 
 877      D0B6CD5C 
 877      9A927C36 
 877      34
 878 1464 95DD7609 		.ascii	"\225\335v\011\317WnZ\356\337\022\304\357\341\334\350"
 878      CF576E5A 
 878      EEDF12C4 
 878      EFE1DCE8 
 879 1474 CA3C2D6E 		.ascii	"\312<-n8\321\036\231\234\211\312\311\317\213\227\315"
 879      38D11E99 
 879      9C89CAC9 
 879      CF8B97CD 
 880 1484 5FDE1606 		.ascii	"_\336\026\006\233\336\012\334.\331\371\313\0005\335"
 880      9BDE0ADC 
 880      2ED9F9CB 
 880      0035DD
 881 1493 D83AF414 		.ascii	"\330:\364\024\330\341\244R\374\206\370\277\234 \337"
 881      D8E1A452 
 881      FC86F8BF 
 881      9C20DF
 882 14a2 109F56E2 		.ascii	"\020\237V\342\217\004\314\232\271\261/\272\016\205\344"
 882      8F04CC9A 
 882      B9B12FBA 
 882      0E85E4
 883 14b1 C438A028 		.ascii	"\3048\240(*$!f\270W#\375\356\363\032\371&.\033\206f"
 883      2A242166 
 883      B85723FD 
 883      EEF31AF9 
 883      262E1B86 
 884 14c6 8A434F2B 		.ascii	"\212CO+\315\037r\255\001\222e\005\010H\031(\350mP\242"
 884      CD1F72AD 
 884      01926505 
 884      08481928 
 884      E86D50A2 
 885 14da 042AE579 		.ascii	"\004*\345y\304T\272mUrl\253R\005\2177\221\330Kg\001"
 885      C454BA6D 
 885      55726CAB 
 885      52058F37 
 885      91D84B67 
ARM GAS  C:\Users\CHRIST~1\AppData\Local\Temp\cc351EOy.s 			page 72


 886 14ef D0191150 		.ascii	"\320\031\021P\266\222)\363d4bR\263>\226E\305_o\"\204"
 886      B69229F3 
 886      64346252 
 886      B33E9645 
 886      C55F6F22 
 887 1504 D7617EB9 		.ascii	"\327a~\271F\0265\271\312\365\202\023pv\337<w~\214#\331"
 887      461635B9 
 887      CAF58213 
 887      7076DF3C 
 887      777E8C23 
 888 1519 8DEBBFF9 		.ascii	"\215\353\277\371UY\313\323\020\223i\270\206\303\344"
 888      5559CBD3 
 888      109369B8 
 888      86C3E4
 889 1528 5C2A48B9 		.ascii	"\\*H\271\0001!0\341\232\220,\210\027\226X\002\342\320"
 889      00312130 
 889      E19A902C 
 889      88179658 
 889      02E2D0
 890 153b 39C4C8CD 		.ascii	"9\304\310\315\261(\177\2231{\220\206<^\012v!Jl\016\371"
 890      B1287F93 
 890      317B9086 
 890      3C5E0A76 
 890      214A6C0E 
 891 1550 876B5E5A 		.ascii	"\207k^Z\336\376\003\335G\306{\330w\031\271\371\003\002"
 891      DEFE03DD 
 891      47C67BD8 
 891      7719B9F9 
 891      0302
 892 1562 C94B4B31 		.ascii	"\311KK1\0216\301#\006`m\300XS\030\032\234\010\027\301"
 892      1136C123 
 892      06606DC0 
 892      5853181A 
 892      9C0817C1 
 893 1576 AC7910F8 		.ascii	"\254y\020\370\205\320\316C\313\207V\000\355\234R\372"
 893      85D0CE43 
 893      CB875600 
 893      ED9C52FA 
 894 1586 6AEBE51F 		.ascii	"j\353\345\037(<\274\362o\226\303\273\201\326\300;H\341"
 894      283CBCF2 
 894      6F96C3BB 
 894      81D6C03B 
 894      48E1
 895 1598 E12A3EC4 		.ascii	"\341*>\304\310\315\323\201\364\255\007[>/\321\352sA"
 895      C8CDD381 
 895      F4AD075B 
 895      3E2FD1EA 
 895      7341
 896 15aa 295F3E57 		.ascii	")_>W\205\206,8\241S4>\256\007-\214\330K\227\317c\365"
 896      85862C38 
 896      A153343E 
 896      AE072D8C 
 896      D84B97CF 
 897 15c0 47B0D78B 		.ascii	"G\260\327\213\201\373%\321\353\027\224\033lj^\004\332"
 897      81FB25D1 
 897      EB17941B 
 897      6C6A5E04 
ARM GAS  C:\Users\CHRIST~1\AppData\Local\Temp\cc351EOy.s 			page 73


 897      DA
 898 15d1 7E5BCDF1 		.ascii	"~[\315\361\236\307\350\324\010\377\275L\341a5\371ba"
 898      9EC7E8D4 
 898      08FFBD4C 
 898      E16135F9 
 898      6261
 899 15e3 8429B681 		.ascii	"\204)\266\201S\020\221\365t\031ff\256\300W\360.\202"
 899      531091F5 
 899      74196666 
 899      AEC057F0 
 899      2E82
 900 15f5 F27B7853 		.ascii	"\362{xS\260l\"\224\223\256\214\357X\274j,Q\322\215u"
 900      B06C2294 
 900      93AE8CEF 
 900      58BC6A2C 
 900      51D28D75 
 901 1609 380271C2 		.ascii	"8\002q\302\370D\032By\316\364\313\236\243\005w\224d"
 901      F8441A42 
 901      79CEF4CB 
 901      9EA30577 
 901      9464
 902 161b 4D0E37D9 		.ascii	"M\0167\331\242\274\354\301\363\323.6\027\345eJ\274("
 902      A2BCECC1 
 902      F3D32E36 
 902      17E5654A 
 902      BC28
 903 162d BFA2648B 		.ascii	"\277\242d\213\362\352\221\323\376\360\204]\203w\263"
 903      F2EA91D3 
 903      FEF0845D 
 903      8377B3
 904 163c 5211DDCE 		.ascii	"R\021\335\316\202\262\010T\\\251h&8\265\334\316*W\342"
 904      82B20854 
 904      5CA96826 
 904      38B5DCCE 
 904      2A57E2
 905 164f 27EDA323 		.ascii	"'\355\243#s\375jTB\241\204_\033\270\313\276\021~\013"
 905      73FD6A54 
 905      42A1845F 
 905      1BB8CBBE 
 905      117E0B
 906 1662 EFE1B45E 		.ascii	"\357\341\264^\353c\337\337\205\343\351\366t\353\334"
 906      EB63DFDF 
 906      85E3E9F6 
 906      74EBDC
 907 1671 712D6AA0 		.ascii	"q-j\240\264)wn/p6+\\\265P\341p\010\000\365\304x\256"
 907      B429776E 
 907      2F70362B 
 907      5CB550E1 
 907      700800F5 
 908 1688 414C488E 		.ascii	"ALH\216|\241Y\005\311Q\251\304\3245$!\253\205\364=\226"
 908      7CA15905 
 908      C951A9C4 
 908      D4352421 
 908      AB85F43D 
 909 169d F2328A97 		.ascii	"\3622\212\227R'\276\211:\2775\375\225\0358\255\243\206"
 909      5227BE89 
 909      3ABF35FD 
ARM GAS  C:\Users\CHRIST~1\AppData\Local\Temp\cc351EOy.s 			page 74


 909      951D38AD 
 909      A386
 910 16af 6C5B9F78 		.ascii	"l[\237x\030b\012\014\203\350\252\205\264\2055\000\336"
 910      18620A0C 
 910      83E8AA85 
 910      B4853500 
 910      DE
 911 16c0 9F960CAE 		.ascii	"\237\226\014\256\200+\377\310+\270:\342\265\270g\263"
 911      802BFFC8 
 911      2BB83AE2 
 911      B5B867B3 
 912 16d0 F16A9B4A 		.ascii	"\361j\233J\324\013J\274C\277\351\255\230^V\312\225\020"
 912      D40B4ABC 
 912      43BFE9AD 
 912      985E56CA 
 912      9510
 913 16e2 BDD24060 		.ascii	"\275\322@`\2211\244\203'\253\345\374r\366\231\271\032"
 913      9131A483 
 913      27ABE5FC 
 913      72F699B9 
 913      1A
 914 16f3 3BEA6648 		.ascii	";\352fH\245\203MiM\202\264FZ+\347#C\027\331\177\207"
 914      A5834D69 
 914      4D82B446 
 914      5A2BE723 
 914      4317D97F 
 915 1708 C1FF1F40 		.ascii	"\301\377\037@\370O(\033\351\177B\311\033Nh\341\344`"
 915      F84F281B 
 915      E97F42C9 
 915      1B4E68E1 
 915      E460
 916 171a AE839AD7 		.ascii	"\256\203\232\327\210\2327\010\230&\012\346\006\001S"
 916      889A3708 
 916      98260AE6 
 916      060153
 917 1729 10B238A6 		.ascii	"\020\2628\246\331\300\362$\334\346\247'\012\213oB\360"
 917      D9C0F224 
 917      DCE6A727 
 917      0A8B6F42 
 917      F0
 918 173a 2E48CFD0 		.ascii	".H\317\320\035\213oZ\233\225\322\310na\221\335B\"\273"
 918      1D8B6F5A 
 918      9B95D2C8 
 918      6E6191DD 
 918      4222BB
 919 174d 35B762D0 		.ascii	"5\267b\320L\034\376\206O\265\270\233\204>\354J\346c"
 919      4C1CFE86 
 919      4FB5B89B 
 919      843EEC4A 
 919      E663
 920 175f 2729F33C 		.ascii	"')\363<\213\007\312V\306\274\225\020wLWD;\240V\032\177"
 920      8B07CA56 
 920      C6BC9510 
 920      774C5744 
 920      3BA0561A 
 921 1774 D5D159B7 		.ascii	"\325\321Y\267\265,\354\333{5mQ\370\013\274@\323_\177"
 921      B52CECDB 
ARM GAS  C:\Users\CHRIST~1\AppData\Local\Temp\cc351EOy.s 			page 75


 921      7B356D51 
 921      F80BBC40 
 921      D35F7F
 922 1787 46760EDB 		.ascii	"Fv\016\333\304\300o\223\007~;\011\374\241S\217\343\235"
 922      C4C06F93 
 922      077E3B09 
 922      FCA1538F 
 922      E39D
 923 1799 D00BCA2C 		.ascii	"\320\013\312,\371\306\304E\201Yo;Ji\0173u\200\223>#"
 923      F9C6C445 
 923      81596F3B 
 923      4A690F33 
 923      7580933E 
 924 17ae 3B955C87 		.ascii	";\225\\\207\310\254C\316\354\026avo\264\316\023\205"
 924      C8AC43CE 
 924      EC166176 
 924      6FB4CE13 
 924      85
 925 17bf BA105EE7 		.ascii	"\272\020^\347\362O\026:\243x\332\211\252\253OSC"
 925      F24F163A 
 925      A378DA89 
 925      AAAB4F53 
 925      43
 926 17d0 72739D78 		.ascii	"rs\235x \331*\314\271\\\313\221to4o\031'vf\224\333~"
 926      20D92ACC 
 926      B95CCB91 
 926      746F346F 
 926      19277666 
 927 17e7 06EF22E9 		.ascii	"\006\357\"\351~WH\367\324\231\352d{A\361I\315\365\213"
 927      7E5748F7 
 927      D499EA64 
 927      7B41F149 
 927      CDF58B
 928 17fa 239D81A6 		.ascii	"#\235\201\246\215!?\300t\334m\001*\0075\005\367,\321"
 928      8D213FC0 
 928      74DC6D01 
 928      2A073505 
 928      F72CD1
 929 180d DE2368A3 		.ascii	"\336#h\243C\317\005jP\033E\330WT\334\342\"\332\261\334"
 929      43CF056A 
 929      501B45D8 
 929      5754DCE2 
 929      22DAB1DC 
 930 1821 D28EDDA2 		.ascii	"\322\216\335\242\352\335rf\367\011\2633\213KQ\316\250"
 930      EADD7266 
 930      F709B333 
 930      8B4B51CE 
 930      A8
 931 1832 9B329B59 		.ascii	"\2332\233Y\274d/\232q\245\325\302\214=\"\257\0369\257"
 931      BC642F9A 
 931      71A5D5C2 
 931      8C3D22AF 
 931      1E39AF
 932 1845 5ECAAB61 		.ascii	"^\312\253az\214C\303\224WS\311\2130j\250\026s]lm\354"
 932      7A8C43C3 
 932      945753C9 
 932      8B306AA8 
ARM GAS  C:\Users\CHRIST~1\AppData\Local\Temp\cc351EOy.s 			page 76


 932      16735D6C 
 933 185b 4CD2A019 		.ascii	"L\322\240\031B\240Lm(\231v\340\354\351\347\337n\207"
 933      42A04C6D 
 933      289976E0 
 933      ECE9E7DF 
 933      6E87
 934 186d C827DAC1 		.ascii	"\310'\332\301\261\3538\363'\332\303P\361\007\225\366"
 934      B1EB38F3 
 934      27DAC350 
 934      F10795F6 
 935 187d C0610812 		.ascii	"\300a\010\022\343\001$\006\376\372\033_!_\204\257#\247"
 935      E3012406 
 935      FEFA1B5F 
 935      215F84AF 
 935      23A7
 936 188f 92CFC6A1 		.ascii	"\222\317\306\241\313\015(\315\237\215\343\007\214\372"
 936      CB0D28CD 
 936      9F8DE307 
 936      8CFA
 937 189d AB596AA9 		.ascii	"\253Yj\251c0\211\350\231\207\3043\375\202g\006\372\206"
 937      633089E8 
 937      9987C433 
 937      FD826706 
 937      FA86
 938 18af AA9D99FA 		.ascii	"\252\235\231\372\313\323h\252h\314d\202\320\016\341"
 938      CBD368AA 
 938      68CC6482 
 938      D00EE1
 939 18be 5C3125D7 		.ascii	"\\1%\327'\352\337'\327\177\204\350\037\330t6X\203\026"
 939      27EADF27 
 939      D77F84E8 
 939      1FD87436 
 939      588316
 940 18d1 5D6CCE0B 		.ascii	"]l\316\013'\2622c\035mo\341?&xF\005<\221Os\316\3311"
 940      27B23263 
 940      1D6D6FE1 
 940      3F267846 
 940      053C914F 
 941 18e9 3CAFF350 		.ascii	"<\257\363PY\261\311\004\353\270:%\246\343\036\211h\036"
 941      59B1C904 
 941      EBB83A25 
 941      A6E31E89 
 941      681E
 942 18fb C9D18C11 		.ascii	"\311\321\214\0214\267W\317\036\322\242\210u\004M\346"
 942      34B757CF 
 942      1ED2A288 
 942      75044DE6 
 943 190b 44593DFB 		.ascii	"DY=\373\317Rx\017\265/#!\233\355\251\216\341\333\243"
 943      CF52780F 
 943      B52F2321 
 943      9BEDA98E 
 943      E1DBA3
 944 191e E5090D5A 		.ascii	"\345\011\015Z\233\245mR(mst60\231:\236\252\344\305\353"
 944      9BA56D52 
 944      286D7374 
 944      3630993A 
 944      9EAAE4C5 
ARM GAS  C:\Users\CHRIST~1\AppData\Local\Temp\cc351EOy.s 			page 77


 945 1933 09F86882 		.ascii	"\011\370h\202\024\257)R\274&\205\002\277\232\2306\243"
 945      14AF2952 
 945      BC268502 
 945      BF9A9836 
 945      A3
 946 1944 914F0736 		.ascii	"\221O\0076\251\317V/tj\305\351\240B\230\016\246\331"
 946      A9CF562F 
 946      746AC5E9 
 946      A042980E 
 946      A6D9
 947 1956 749000D3 		.ascii	"t\220\000\323\2018x\234M\007O\311t\020\032s\261_+\255"
 947      8138789C 
 947      4D074FC9 
 947      74101A73 
 947      B15F2BAD 
 948 196a 460516D5 		.ascii	"F\005\026\325\350\031\253F\317h\351\2729:\245B\211\324"
 948      E819AB46 
 948      CF68E9BA 
 948      393AA542 
 948      89D4
 949 197c 3CAFFA02 		.ascii	"<\257\372\002_\263/\327\235%[\314\033\331\026\363\245"
 949      5FB32FD7 
 949      9D255BCC 
 949      1BD916F3 
 949      A5
 950 198d BAAC697B 		.ascii	"\272\254i{\233\346\231\027\3143A+\277)xq\324Qn\2369"
 950      9BE69917 
 950      CC33412B 
 950      BF297871 
 950      D4516E9E 
 951 19a2 C03C4B30 		.ascii	"\300<K0?'\012\317\233\025\256\013\251\320\312\315c\223"
 951      3F270ACF 
 951      9B15AE0B 
 951      A9D0CACD 
 951      6393
 952 19b4 3AB221A4 		.ascii	":\262!\244\317\201\231\347\366_\004\246\327\004n\341"
 952      CF8199E7 
 952      F65F04A6 
 952      D7046EE1 
 953 19c4 1698698E 		.ascii	"\026\230i\216\203i\304\2013\3144\213\3044\247V\226\223"
 953      8369C481 
 953      33CC348B 
 953      C434A756 
 953      9693
 954 19d6 9DA5A6B9 		.ascii	"\235\245\246\271da\232%f\232%b\232\210\241\304t\036"
 954      64619A25 
 954      669A2562 
 954      9A88A1C4 
 954      741E
 955 19e8 6553D344 		.ascii	"eS\323DwW\274\346\231\304\272\277\244\022\205\2719\305"
 955      7757BCE6 
 955      99C4BABF 
 955      A41285B9 
 955      39C5
 956 19fa 626E7EC1 		.ascii	"bn~\301$\276$\022\323jJ\332-\366\032\213-\346\235e&"
 956      24BE2412 
 956      D36A4ADA 
ARM GAS  C:\Users\CHRIST~1\AppData\Local\Temp\cc351EOy.s 			page 78


 956      2DF61A8B 
 956      2DE69D65 
 957 1a0f 7199482C 		.ascii	"q\231H,-\030\177\241\224\022\227X\300[a\304+\204\370"
 957      2D187FA1 
 957      94129758 
 957      C05B61C4 
 957      2B84F8
 958 1a22 72DAC2A2 		.ascii	"r\332\302\242\213\224\270\334\202\370\025#~E\210WN\036"
 958      8B94B8DC 
 958      82F81523 
 958      7E458857 
 958      4E1E
 959 1a34 3B8D5011 		.ascii	";\215P\021\325\245\260{$\322\342\245N\207E\376\255*"
 959      D5A5B07B 
 959      24D2E2A5 
 959      4E8745FE 
 959      AD2A
 960 1a46 A5AFB592 		.ascii	"\245\257\265\222V\026N\012\345\340\3322\312\011=B+\353"
 960      56164E0A 
 960      E5E0DA32 
 960      CA093D42 
 960      2BEB
 961 1a58 752526E4 		.ascii	"u%&\344^\213\011\370Z\236\200&\025N\300\2637\233\262"
 961      5E8B09F8 
 961      5A9E8026 
 961      154EC0B3 
 961      379BB2
 962 1a6b D4A8699D 		.ascii	"\324\250i\235\315r\3201\025}Oc~\313\027\244\"\027\343"
 962      CD72D031 
 962      157D4F63 
 962      7ECB17A4 
 962      2217E3
 963 1a7e FAA72FD9 		.ascii	"\372\247/\331~\347\037\242\302\020\203U\014cJ\347\314"
 963      7EE71FA2 
 963      C2108355 
 963      0C634AE7 
 963      CC
 964 1a8f 2B478611 		.ascii	"+G\206\021V\274\251\227\013o\341\311\304\036\323q\201"
 964      56BCA997 
 964      0B6FE1C9 
 964      C41ED371 
 964      81
 965 1aa0 2AF17313 		.ascii	"*\361s\023\225\014a(A\230q\373\350\260\026uS\204\367"
 965      950C6128 
 965      419871FB 
 965      E8B01675 
 965      5384F7
 966 1ab3 EE8794B1 		.ascii	"\356\207\224\261\325\243\003\336\273?\177\265De3\346"
 966      D5A303DE 
 966      BB3F7FB5 
 966      446533E6 
 967 1ac3 C3552CE6 		.ascii	"\303U,\346\017\251H\314OO\236\311[S\022\204\217\361"
 967      0FA948CC 
 967      4F4F9EC9 
 967      5B531284 
 967      8FF1
 968 1ad5 145C846A 		.ascii	"\024\\\204j\2750\210\354\3355%?_\023\3636\251\257v\314"
ARM GAS  C:\Users\CHRIST~1\AppData\Local\Temp\cc351EOy.s 			page 79


 968      BD3088EC 
 968      DD35253F 
 968      5F13F336 
 968      A9AF76CC 
 969 1ae9 17F26249 		.ascii	"\027\362bI\310{\314JB\244\212F\341I\210Bqp\230\212F"
 969      C87BCC4A 
 969      42A48A46 
 969      E1498842 
 969      7170988A 
 970 1afe 61940A47 		.ascii	"a\224\012G\341\203\251\301!\213(<a\021+\321*\032+p\004"
 970      E183A9C1 
 970      218B283C 
 970      61112BD1 
 970      2A1A2B70 
 971 1b13 E2C99BF1 		.ascii	"\342\311\233\361cvR\342Z\013\342\303\214\3700!n>\232"
 971      637652E2 
 971      5A0BE2C3 
 971      8CF83021 
 971      6E3E9A
 972 1b26 B16A8F46 		.ascii	"\261j\217F\251\355\002+\023n\251l\027\366\030\2254\260"
 972      A9ED022B 
 972      136EA96C 
 972      17F61895 
 972      34B0
 973 1b38 16E29E6C 		.ascii	"\026\342\236lg>{|\322~ [\214+\240\343\216\210^;\"\367"
 973      673E7B7C 
 973      D27E205B 
 973      8C2BA0E3 
 973      8E885E3B 
 974 1b4e 5A2CF15A 		.ascii	"Z,\361ZN\357\331d\036%\275E\337x\225\205\275dk\324\015"
 974      4EEFD964 
 974      1E25BD45 
 974      DF789585 
 974      BD646BD4 
 975 1b63 D0BD1174 		.ascii	"\320\275\021t\370,[f&\3415\377\305\241\225J%\275\215"
 975      F82C5B66 
 975      26E135FF 
 975      C5A1954A 
 975      25BD8D
 976 1b76 1791A347 		.ascii	"\027\221\243G\227\306\034m:\365\230\340\324\004\352"
 976      97C61C6D 
 976      3AF598E0 
 976      D404EA
 977 1b85 D486C9D2 		.ascii	"\324\206\311\322\373.r\247\306\2536sGU\230\3748q\323"
 977      FB2E72A7 
 977      C6AB3673 
 977      475598FC 
 977      3871D3
 978 1b98 31C14DF3 		.ascii	"1\301M\363'_<\\\263\354\267I\235qa\265\004\211N\355"
 978      275F3C5C 
 978      B3ECB749 
 978      9D7161B5 
 978      04894EED 
 979 1bac 1F674E4D 		.ascii	"\037gNMdN\315\006\247\212\203\343\230S\223\210S\303"
 979      644ECD06 
 979      A78A83E3 
 979      98539388 
ARM GAS  C:\Users\CHRIST~1\AppData\Local\Temp\cc351EOy.s 			page 80


 979      53C3
 980 1bbe 17CEA559 		.ascii	"\027\316\245Y\024\200,\013?%3?\341\343\237m\335\272"
 980      14802C0B 
 980      3F25333F 
 980      E1E39F6D 
 980      DDBA
 981 1bd0 8DFEF30B 		.ascii	"\215\376\363\013\330f0n\0130xl\363\330\353\341\347\353"
 981      D866306E 
 981      0B30786C 
 981      F3D8EBE1 
 981      E7EB
 982 1be2 B9D5C3EE 		.ascii	"\271\325\303\356\323\237\377f\313'\333\267+\326\343"
 982      D39FFF66 
 982      CB27DBB7 
 982      2BD6E3
 983 1bf1 BE97D1CB 		.ascii	"\276\227\321\313\317W\367\265\273\301\313}\227\267^"
 983      CF57F7B5 
 983      BBC1CB7D 
 983      97B75E
 984 1c00 E3A1FBFD 		.ascii	"\343\241\373\375>\375>\275\332_\347\253?`\324\372\353"
 984      3EFD3EBD 
 984      DA5FE7AB 
 984      3F60D4FA 
 984      EB
 985 1c11 0C7A776F 		.ascii	"\014zwo\177\203\227\237V\247\333\347\345k|\367\207:"
 985      7F83979F 
 985      56A7DBE7 
 985      E56B7CF7 
 985      873A
 986 1c23 A38FC78F 		.ascii	"\243\217\307\217\277\3607\370\3551\270\373l\331\355"
 986      BFF037F8 
 986      ED31B8FB 
 986      6CD9ED
 987 1c32 E5AD0FD8 		.ascii	"\345\255\017\330\342v\340\243\017~\360\305\036\337}"
 987      E276E0A3 
 987      0F7EF0C5 
 987      1EDF7D
 988 1c41 5B8C7E7E 		.ascii	"[\214~~\336\001[\334\015>[\364>\273\364\236\236z\317"
 988      DE015BDC 
 988      0D3E5BF4 
 988      3EBBF49E 
 988      9E7ACF
 989 1c54 2F3EDCF2 		.ascii	"/>\334\362\303w\266\177\370\366\357\337{\333\307\375"
 989      C377B67F 
 989      F8F6EFDF 
 989      7BDBC7FD 
 990 1c64 4B3FC317 		.ascii	"K?\303\027p\363m_?_\375\333z\367]^_x\371zx\357\363\324"
 990      70F36D5F 
 990      3F5FFDDB 
 990      7AF75D5E 
 990      5F78F97A 
 991 1c7c 7FE1E3EE 		.ascii	"\177\341\343\356\261\327\313W\377\205\316S\277\333}"
 991      B1D7CB57 
 991      FF85CE53 
 991      BFDB7D
 992 1c8b 9FB75167 		.ascii	"\237\267Qg<\350\257\017\330\272Wa'\210\335\365\037!"
 992      3CE8AF0F 
ARM GAS  C:\Users\CHRIST~1\AppData\Local\Temp\cc351EOy.s 			page 81


 992      D8BA5761 
 992      2788DDF5 
 992      1F21
 993 1c9d 36E060C0 		.ascii	"6\340`\300\027\272\000\243'\310\000Y\032#VUg|Of>\177"
 993      17BA00A3 
 993      27C80059 
 993      1A235655 
 993      677C4F66 
 994 1cb3 3F833160 		.ascii	"?\2031`\333O\177\365\371'\237\037\330\346\341\347\343"
 994      DB4F7FF5 
 994      F9279F1F 
 994      D8E6E1E7 
 994      E3
 995 1cc4 0FE20D01 		.ascii	"\017\342\015\001\333>\375\344\023\260\252\000\324\336"
 995      DB3EFDE4 
 995      13B0AA00 
 995      D4DE
 996 1cd2 5FE7633C 		.ascii	"_\347c<\340\355\025`T\373\020\353i|t~\373}\365\0068"
 996      E0ED1560 
 996      54FB10EB 
 996      697C747E 
 996      FB7DF506 
 997 1ce7 12A36A7C 		.ascii	"\022\243j|\366\031\365\007tF;\217\275:r\012\346\325"
 997      F619F507 
 997      74463B8F 
 997      BD3A720A 
 997      E6D5
 998 1cf9 FBEBC107 		.ascii	"\373\353\301\007\276{\034\364_\353}\215>\356\001_\351"
 998      BE7B1CF4 
 998      5FEB7D8D 
 998      3EEE015F 
 998      E9
 999 1d0a 8C2A6014 		.ascii	"\214*`\024\260\307^\247c\212k\330Q\005Wu\330'p$\014"
 999      B0C75EA7 
 999      638A6BD8 
 999      51055775 
 999      D8277024 
 1000 1d1f 41E27E77 		.ascii	"A\342~wp\240\357\036\027`i\334\013\276\362\014\320a"
 1000      70A0EF1E 
 1000      176069DC 
 1000      0BBEF20C 
 1000      D061
 1001 1d31 04CED28E 		.ascii	"\004\316\322\216\316\210\374u\373\324\372\375\230\275"
 1001      CE88FC75 
 1001      FBD4FAFD 
 1001      98BD
 1002 1d3f 7ABF1150 		.ascii	"z\277\021P\372\303!@\357\343\257\012\320y\370\032U\320"
 1002      FAC32140 
 1002      EFE3AF0A 
 1002      D079F81A 
 1002      55D0
 1003 1d51 404C0085 		.ascii	"@L\000\205\351\010\274\340\236\273\377^?\203^\265\337"
 1003      E908BCE0 
 1003      9EBBFF5E 
 1003      3F835EB5 
 1003      DF
 1004 1d62 6834F8AF 		.ascii	"h4\370\257\247\354 \030v\353\015z_\017\275\316\010\014"
ARM GAS  C:\Users\CHRIST~1\AppData\Local\Temp\cc351EOy.s 			page 82


 1004      A7EC2018 
 1004      76EB0D7A 
 1004      5F0FBDCE 
 1004      080C
 1005 1d74 FC767DE9 		.ascii	"\374v}\351o\247?\340e\364\360\363\324\253\015\236\007"
 1005      6FA73FE0 
 1005      65F4F0F3 
 1005      D4AB0D9E 
 1005      07
 1006 1d85 01971A47 		.ascii	"\001\227\032G\314\356\000{\032-\037\001W\341h\304\327"
 1006      CCEE007B 
 1006      1A2D1F01 
 1006      57E168C4 
 1006      D7
 1007 1d96 E1E8AFDB 		.ascii	"\341\350\257\333\355\355\276'@c\364\201Q\244\037`t7"
 1007      EDEDBE27 
 1007      4063F481 
 1007      51A41F60 
 1007      7437
 1008 1da8 EAED8CE4 		.ascii	"\352\355\214\344\000\214!\364\334}\364J\217\275\356"
 1008      008C21F4 
 1008      DC7DF44A 
 1008      8FBDEE
 1009 1db7 06B8E9E7 		.ascii	"\006\270\351\347\355\251\307G_\375~\275\001,\343a<\200"
 1009      EDA9C747 
 1009      5FFD7EBD 
 1009      012CE361 
 1009      3C80
 1010 1dc9 0CDBDFE5 		.ascii	"\014\333\337\345\275\015v\006\375\036p\252\316\370\275"
 1010      BD0D7606 
 1010      FD1E70AA 
 1010      CEF8BD
 1011 1dd8 377A0BA2 		.ascii	"7z\013\242\336\240\007\367\300\250\355\320\336\341\015"
 1011      DEA007F7 
 1011      C0A8EDD0 
 1011      DEE10D
 1012 1de7 3FE20D1F 		.ascii	"?\342\015\037\361\206\017y\303\007\274\341}\336\360"
 1012      F1860F79 
 1012      C307BCE1 
 1012      7DDEF0
 1013 1df6 9E031E80 		.ascii	"\236\003\036\200\215\015\274\177\360\315\274t_\177\350"
 1013      8D0DBC7F 
 1013      F0CDBC74 
 1013      5F7FE8
 1014 1e05 836305B2 		.ascii	"\203c\005\262\007|\210\361\342\240!\007\375\327\366"
 1014      077C88F1 
 1014      E2A02107 
 1014      FDD7F6
 1015 1e14 66470066 		.ascii	"fG\000f\037\177\010K;f;\343:\211\217\210\241],z:\343"
 1015      1F7F084B 
 1015      3B663BE3 
 1015      3A898F88 
 1015      A15D2C7A 
 1016 1e2a 16996C16 		.ascii	"\026\231l\026\243 6\300c\257'\210\374O6\011\300\245"
 1016      A32036C0 
 1016      63AF2788 
 1016      FC4F3609 
ARM GAS  C:\Users\CHRIST~1\AppData\Local\Temp\cc351EOy.s 			page 83


 1016      C0A5
 1017 1e3c 70DFD536 		.ascii	"p\337\3256\203\203\001B\230\332f\002N\207\373\266Q\220"
 1017      83830142 
 1017      98DA6602 
 1017      4E87FBB6 
 1017      5190
 1018 1e4e F2B157B1 		.ascii	"\362\261W\261qm\331\320\031\355\261\004/\037=Q\363\023"
 1018      716DD9D0 
 1018      19EDB104 
 1018      2F1F3D51 
 1018      F313
 1019 1e60 20F8C5AE 		.ascii	" \370\305\256/\365\036\306\035\276^\306\315o\250E\012"
 1019      2FF51EC6 
 1019      1DBE5EC6 
 1019      CD6FA845 
 1019      0A
 1020 1e71 474ABDD3 		.ascii	"GJ\275\323k\217\257\273\267\223\264\263\303\205\366"
 1020      6B8FAFBB 
 1020      B793B4B3 
 1020      C385F6
 1021 1e80 3E36F8B9 		.ascii	">6\370\271{z\270\007\010\214\315\375\035\016\364\302"
 1021      7B7AB807 
 1021      088CCDFD 
 1021      1D0EF4C2 
 1022 1e90 6F210576 		.ascii	"o!\005vj\305\363\365\342\351\257\001\221\337>\343\316"
 1022      6AC5F3F5 
 1022      E2E9AF01 
 1022      91DF3EE3 
 1022      CE
 1023 1ea1 B7D65C02 		.ascii	"\267\326\\\002\271;=\366\376\326\375+\375>\377\235\016"
 1023      B93B3DF6 
 1023      FED6FD2B 
 1023      FD3EFF9D 
 1023      0E
 1024 1eb2 A4F32BF0 		.ascii	"\244\363+\360\305\301\035\353\3309\230\\\357\271\317"
 1024      C5C11DEB 
 1024      D839985C 
 1024      EFB9CF
 1025 1ec1 5B8F397F 		.ascii	"[\2179\177n<\360\267~\036_\355t\"\367>\365\333\351\255"
 1025      6E3CF0B7 
 1025      7E1E5FED 
 1025      7422F73E 
 1025      F5DBE9AD 
 1026 1ed5 D7FBEF74 		.ascii	"\327\373\357t$7~\343\353\215om\224\336\022\304\362\036"
 1026      24377EE3 
 1026      EB8D6F6D 
 1026      94DE12C4 
 1026      F21E
 1027 1ee7 7B79A38F 		.ascii	"{y\243\217\332o\367\356\000\275Qc0\2224\373\013\233"
 1027      DA6FF7EE 
 1027      00BD5163 
 1027      309234FB 
 1027      0B9B
 1028 1ef9 F63562F3 		.ascii	"\3665b\363\2573\372\350<\334\275\275v\031\334\211\211"
 1028      AF33FAE8 
 1028      3CDCBDBD 
 1028      7619DC89 
ARM GAS  C:\Users\CHRIST~1\AppData\Local\Temp\cc351EOy.s 			page 84


 1028      89
 1029 1f0a 8D5A1F77 		.ascii	"\215Z\037w\010M\022)\310s\027\311tlk\275\017T\312]\373"
 1029      084D1229 
 1029      C87317C9 
 1029      746C6BBD 
 1029      0F54CA5D 
 1030 1f1f F6D8FBBB 		.ascii	"\366\330\373\273\373zy\340\222\340,\275\014y\364\265"
 1030      FB7A79E0 
 1030      92E02CBD 
 1030      0C79F4B5 
 1031 1f2f 1127BFDD 		.ascii	"\021'\277\335\327F\270\342mt\327\300\011\216P|\334\275"
 1031      D746B8E2 
 1031      6D74D7C0 
 1031      098E507C 
 1031      DCBD
 1032 1f41 CFD7036E 		.ascii	"\317\327\003n\340\003d \\\300\345\012\307\347\327^\006"
 1032      E0036420 
 1032      5CC0E50A 
 1032      C7E7D75E 
 1032      06
 1033 1f52 E33E776F 		.ascii	"\343>wo\035v\245A\215G\270\033\\,.\352\214\337\221\323"
 1033      1D76A541 
 1033      8D47B81B 
 1033      5C2C2EEA 
 1033      8CDF91D3 
 1034 1f66 D12AE300 		.ascii	"\321*\343\000\324\336\340\026|\351\217\254\334\207\372"
 1034      D4DEE016 
 1034      7CE98FAC 
 1034      DC87FA
 1035 1f75 65C0478D 		.ascii	"e\300G\215\201\345\264\201\345\264\001\347\264\332@"
 1035      81E5B481 
 1035      E5B401E7 
 1035      B4DA40
 1036 1f84 B2082E92 		.ascii	"\262\010.\222d\000K\343\231\307\363 \031j\017$\373\014"
 1036      64004BE3 
 1036      99C7F320 
 1036      196A0F24 
 1036      FB0C
 1037 1f96 50788C8E 		.ascii	"Px\214\216\342E\2109\263)"
 1037      E2458839 
 1037      B329
 1038 1fa0 9CBD3C71 		.ascii	"\234\275<q\020\322D\333\357\316\346\252\017\336\203"
 1038      10D244DB 
 1038      EFCEE6AA 
 1038      0FDE83
 1039 1faf 5A2B9C68 		.ascii	"Z+\234h\003\214_\201Y\367\200E\035D\023\032\2654\367"
 1039      038C5F81 
 1039      59F78045 
 1039      1D44131A 
 1039      B534F7
 1040 1fc2 BC204E9D 		.ascii	"\274 N\235t\304.:\335\326\017\336\177\367];\241\207"
 1040      74C42E3A 
 1040      DDD60FDE 
 1040      7FF75D3B 
 1040      A187
 1041 1fd4 83E36000 		.ascii	"\203\343`\000u\363\033r\347 \316-ZI\366\021Z`\007^\327"
 1041      75F31B72 
ARM GAS  C:\Users\CHRIST~1\AppData\Local\Temp\cc351EOy.s 			page 85


 1041      E720CE2D 
 1041      5A49F611 
 1041      5A60075E 
 1042 1fe9 7DFCD39D 		.ascii	"}\374\323\235\377\363\227\277\332\341\344\356\275\337"
 1042      FFF397BF 
 1042      DAE1E4EE 
 1042      BDDF
 1043 1ff7 FD600008 		.ascii	"\375`\000\010\362\206Y\356\277"
 1043      F28659EE 
 1043      BF
 1044 2000 49F980E9 		.ascii	"I\371\200\351\267}\362\371\316\035;Ev\270\312x\370\374"
 1044      B77DF2F9 
 1044      CE1D3B45 
 1044      76B8CA78 
 1044      F8FC
 1045 2012 2F908FE7 		.ascii	"/\220\217\347\025\002\000\007\240=a\217\231;S\330\276"
 1045      15020007 
 1045      A03D618F 
 1045      993B53D8 
 1045      BE
 1046 2023 7EA084BF 		.ascii	"~\240\204\277\361\240J\3671T\232\267\350\305\335^\273"
 1046      F1A04AF7 
 1046      31549AB7 
 1046      E8C5DD5E 
 1046      BB
 1047 2034 FDC0783E 		.ascii	"\375\300x>~_\353-T\372P\332{o\273E\357G\353I0\177\252"
 1047      7E5FEB2D 
 1047      54FA50DA 
 1047      7B6FBB45 
 1047      EF47EB49 
 1048 204b 37FE1CE0 		.ascii	"7\376\034\340|\216'\247\235\214\035\231\021\275|\003"
 1048      7C8E27A7 
 1048      9D8C1D99 
 1048      11BD7C03 
 1049 205b F4060B0B 		.ascii	"\364\006\013\013}\360.\370\350\327{=a\310N\275\367\356"
 1049      7DF02EF8 
 1049      E8D77B3D 
 1049      61C84EBD 
 1049      F7EE
 1050 206d DFFD67DB 		.ascii	"\337\375g\333aM\253\034h\"\035\377\341\373\377\017{"
 1050      614DAB1C 
 1050      68221DFF 
 1050      E1FBFF0F 
 1050      7B
 1051 207e 0E40E3   		.ascii	"\016@\343"
 1052              		.text
 1053              		.section	.gnu.lto_.symtab.67ee54fd,"",%progbits
 1054 0000 6368436F 		.ascii	"chCondObjectInit\000"
 1054      6E644F62 
 1054      6A656374 
 1054      496E6974 
 1054      00
 1055 0011 00       		.ascii	"\000"
 1056 0012 00       		.ascii	"\000"
 1057 0013 00       		.ascii	"\000"
 1058 0014 00000000 		.ascii	"\000\000\000\000\000\000\000\000"
 1058      00000000 
ARM GAS  C:\Users\CHRIST~1\AppData\Local\Temp\cc351EOy.s 			page 86


 1059 001c 92010000 		.ascii	"\222\001\000\000"
 1060 0020 6368436F 		.ascii	"chCondSignal\000"
 1060      6E645369 
 1060      676E616C 
 1060      00
 1061 002d 00       		.ascii	"\000"
 1062 002e 00       		.ascii	"\000"
 1063 002f 00       		.ascii	"\000"
 1064 0030 00000000 		.ascii	"\000\000\000\000\000\000\000\000"
 1064      00000000 
 1065 0038 94010000 		.ascii	"\224\001\000\000"
 1066 003c 6368436F 		.ascii	"chCondSignalI\000"
 1066      6E645369 
 1066      676E616C 
 1066      4900
 1067 004a 00       		.ascii	"\000"
 1068 004b 00       		.ascii	"\000"
 1069 004c 00       		.ascii	"\000"
 1070 004d 00000000 		.ascii	"\000\000\000\000\000\000\000\000"
 1070      00000000 
 1071 0055 96010000 		.ascii	"\226\001\000\000"
 1072 0059 6368436F 		.ascii	"chCondBroadcast\000"
 1072      6E644272 
 1072      6F616463 
 1072      61737400 
 1073 0069 00       		.ascii	"\000"
 1074 006a 00       		.ascii	"\000"
 1075 006b 00       		.ascii	"\000"
 1076 006c 00000000 		.ascii	"\000\000\000\000\000\000\000\000"
 1076      00000000 
 1077 0074 98010000 		.ascii	"\230\001\000\000"
 1078 0078 6368436F 		.ascii	"chCondBroadcastI\000"
 1078      6E644272 
 1078      6F616463 
 1078      61737449 
 1078      00
 1079 0089 00       		.ascii	"\000"
 1080 008a 00       		.ascii	"\000"
 1081 008b 00       		.ascii	"\000"
 1082 008c 00000000 		.ascii	"\000\000\000\000\000\000\000\000"
 1082      00000000 
 1083 0094 9A010000 		.ascii	"\232\001\000\000"
 1084 0098 6368436F 		.ascii	"chCondWaitS\000"
 1084      6E645761 
 1084      69745300 
 1085 00a4 00       		.ascii	"\000"
 1086 00a5 00       		.ascii	"\000"
 1087 00a6 00       		.ascii	"\000"
 1088 00a7 00000000 		.ascii	"\000\000\000\000\000\000\000\000"
 1088      00000000 
 1089 00af 9E010000 		.ascii	"\236\001\000\000"
 1090 00b3 6368436F 		.ascii	"chCondWait\000"
 1090      6E645761 
 1090      697400
 1091 00be 00       		.ascii	"\000"
 1092 00bf 00       		.ascii	"\000"
 1093 00c0 00       		.ascii	"\000"
ARM GAS  C:\Users\CHRIST~1\AppData\Local\Temp\cc351EOy.s 			page 87


 1094 00c1 00000000 		.ascii	"\000\000\000\000\000\000\000\000"
 1094      00000000 
 1095 00c9 A0010000 		.ascii	"\240\001\000\000"
 1096 00cd 6368436F 		.ascii	"chCondWaitTimeoutS\000"
 1096      6E645761 
 1096      69745469 
 1096      6D656F75 
 1096      745300
 1097 00e0 00       		.ascii	"\000"
 1098 00e1 00       		.ascii	"\000"
 1099 00e2 00       		.ascii	"\000"
 1100 00e3 00000000 		.ascii	"\000\000\000\000\000\000\000\000"
 1100      00000000 
 1101 00eb A5010000 		.ascii	"\245\001\000\000"
 1102 00ef 6368436F 		.ascii	"chCondWaitTimeout\000"
 1102      6E645761 
 1102      69745469 
 1102      6D656F75 
 1102      7400
 1103 0101 00       		.ascii	"\000"
 1104 0102 00       		.ascii	"\000"
 1105 0103 00       		.ascii	"\000"
 1106 0104 00000000 		.ascii	"\000\000\000\000\000\000\000\000"
 1106      00000000 
 1107 010c A7010000 		.ascii	"\247\001\000\000"
 1108 0110 636800   		.ascii	"ch\000"
 1109 0113 00       		.ascii	"\000"
 1110 0114 02       		.ascii	"\002"
 1111 0115 00       		.ascii	"\000"
 1112 0116 00000000 		.ascii	"\000\000\000\000\000\000\000\000"
 1112      00000000 
 1113 011e 35020000 		.ascii	"5\002\000\000"
 1114 0122 63685363 		.ascii	"chSchWakeupS\000"
 1114      6857616B 
 1114      65757053 
 1114      00
 1115 012f 00       		.ascii	"\000"
 1116 0130 02       		.ascii	"\002"
 1117 0131 00       		.ascii	"\000"
 1118 0132 00000000 		.ascii	"\000\000\000\000\000\000\000\000"
 1118      00000000 
 1119 013a AC010000 		.ascii	"\254\001\000\000"
 1120 013e 63685363 		.ascii	"chSchReadyI\000"
 1120      68526561 
 1120      64794900 
 1121 014a 00       		.ascii	"\000"
 1122 014b 02       		.ascii	"\002"
 1123 014c 00       		.ascii	"\000"
 1124 014d 00000000 		.ascii	"\000\000\000\000\000\000\000\000"
 1124      00000000 
 1125 0155 B0010000 		.ascii	"\260\001\000\000"
 1126 0159 63685363 		.ascii	"chSchRescheduleS\000"
 1126      68526573 
 1126      63686564 
 1126      756C6553 
 1126      00
 1127 016a 00       		.ascii	"\000"
ARM GAS  C:\Users\CHRIST~1\AppData\Local\Temp\cc351EOy.s 			page 88


 1128 016b 02       		.ascii	"\002"
 1129 016c 00       		.ascii	"\000"
 1130 016d 00000000 		.ascii	"\000\000\000\000\000\000\000\000"
 1130      00000000 
 1131 0175 B3010000 		.ascii	"\263\001\000\000"
 1132 0179 63684D74 		.ascii	"chMtxLockS\000"
 1132      784C6F63 
 1132      6B5300
 1133 0184 00       		.ascii	"\000"
 1134 0185 02       		.ascii	"\002"
 1135 0186 00       		.ascii	"\000"
 1136 0187 00000000 		.ascii	"\000\000\000\000\000\000\000\000"
 1136      00000000 
 1137 018f B7010000 		.ascii	"\267\001\000\000"
 1138 0193 63685363 		.ascii	"chSchGoSleepS\000"
 1138      68476F53 
 1138      6C656570 
 1138      5300
 1139 01a1 00       		.ascii	"\000"
 1140 01a2 02       		.ascii	"\002"
 1141 01a3 00       		.ascii	"\000"
 1142 01a4 00000000 		.ascii	"\000\000\000\000\000\000\000\000"
 1142      00000000 
 1143 01ac BB010000 		.ascii	"\273\001\000\000"
 1144 01b0 63684D74 		.ascii	"chMtxUnlockS\000"
 1144      78556E6C 
 1144      6F636B53 
 1144      00
 1145 01bd 00       		.ascii	"\000"
 1146 01be 02       		.ascii	"\002"
 1147 01bf 00       		.ascii	"\000"
 1148 01c0 00000000 		.ascii	"\000\000\000\000\000\000\000\000"
 1148      00000000 
 1149 01c8 BD010000 		.ascii	"\275\001\000\000"
 1150 01cc 63685363 		.ascii	"chSchGoSleepTimeoutS\000"
 1150      68476F53 
 1150      6C656570 
 1150      54696D65 
 1150      6F757453 
 1151 01e1 00       		.ascii	"\000"
 1152 01e2 02       		.ascii	"\002"
 1153 01e3 00       		.ascii	"\000"
 1154 01e4 00000000 		.ascii	"\000\000\000\000\000\000\000\000"
 1154      00000000 
 1155 01ec C2010000 		.ascii	"\302\001\000\000"
 1156              		.text
 1157              		.section	.gnu.lto_.opts,"",%progbits
 1158 0000 272D666D 		.ascii	"'-fmath-errno' '-fsigned-zeros' '-ftrapping-math' '"
 1158      6174682D 
 1158      6572726E 
 1158      6F272027 
 1158      2D667369 
 1159 0033 2D666E6F 		.ascii	"-fno-trapv' '-fno-openmp' '-fno-openacc' '-mcpu=cor"
 1159      2D747261 
 1159      70762720 
 1159      272D666E 
 1159      6F2D6F70 
ARM GAS  C:\Users\CHRIST~1\AppData\Local\Temp\cc351EOy.s 			page 89


 1160 0066 7465782D 		.ascii	"tex-m4' '-mno-thumb-interwork' '-mthumb' '-O2' '-fo"
 1160      6D342720 
 1160      272D6D6E 
 1160      6F2D7468 
 1160      756D622D 
 1161 0099 6D69742D 		.ascii	"mit-frame-pointer' '-falign-functions=16' '-ffuncti"
 1161      6672616D 
 1161      652D706F 
 1161      696E7465 
 1161      72272027 
 1162 00cc 6F6E2D73 		.ascii	"on-sections' '-fdata-sections' '-fno-common' '-flto"
 1162      65637469 
 1162      6F6E7327 
 1162      20272D66 
 1162      64617461 
 1163 00ff 2700     		.ascii	"'\000"
 1164              		.text
 1165              		.comm	__gnu_lto_v1,1,1
 1166              		.comm	__gnu_lto_slim,1,1
 1167              		.ident	"GCC: (GNU Tools for Arm Embedded Processors 7-2017-q4-major) 7.2.1 20170904 (release) [ARM
ARM GAS  C:\Users\CHRIST~1\AppData\Local\Temp\cc351EOy.s 			page 90


DEFINED SYMBOLS
                            *ABS*:00000000 chcond.c
                            *COM*:00000001 __gnu_lto_v1
                            *COM*:00000001 __gnu_lto_slim

NO UNDEFINED SYMBOLS
