ARM GAS  C:\Users\CHRIST~1\AppData\Local\Temp\cc36zMGe.s 			page 1


   1              		.cpu cortex-m4
   2              		.eabi_attribute 20, 1
   3              		.eabi_attribute 21, 1
   4              		.eabi_attribute 23, 3
   5              		.eabi_attribute 24, 1
   6              		.eabi_attribute 25, 1
   7              		.eabi_attribute 26, 1
   8              		.eabi_attribute 30, 2
   9              		.eabi_attribute 34, 1
  10              		.eabi_attribute 18, 4
  11              		.file	"testevt.c"
  12              		.section	.gnu.lto_.profile.67eea12c,"",%progbits
  13 0000 789C6363 		.ascii	"x\234cc```\003bF\206\235\034\337\231\000\005\220\001"
  13      60606003 
  13      6246869D 
  13      1CDF9900 
  13      059001
  14 0013 C8       		.ascii	"\310"
  15              		.text
  16              		.section	.gnu.lto_.icf.67eea12c,"",%progbits
  17 0000 789C6363 		.ascii	"x\234cc``\250b@\000\021\206\331\215\213~\2612~\336y"
  17      6060A862 
  17      40001186 
  17      D98D8B7E 
  17      B1327EDE 
  18 0015 E5263BD3 		.ascii	"\345&;\323\327\237G\327\2633\037m\337y\214\207\345\362"
  18      D79F47D7 
  18      B3331F6D 
  18      DF798C87 
  18      E5F2
  19 0027 B5F36B58 		.ascii	"\265\363kXY\273\246\314[\312\317\266\345\301\243\237"
  19      59BBA6CC 
  19      5BCACFB6 
  19      E5C1A39F 
  20 0037 4CEC6092 		.ascii	"L\354`\222\003Lrn[\364\371\013\027\027X\015\367\274"
  20      034C726E 
  20      5BF4F90B 
  20      1717580D 
  20      F7BC
  21 0049 6FA77E72 		.ascii	"o\247~r\363\234\2717\365\004\223\300\366\235O\216\362"
  21      F39CB937 
  21      F50493C0 
  21      F69D4F8E 
  21      F2
  22 005a 0ADE3CD7 		.ascii	"\012\336<\327x\227O\350\303\254\363\177Y\205\273\017"
  22      78974FE8 
  22      C3ACF37F 
  22      5985BB0F 
  23 006a 6E7DCD28 		.ascii	"n}\315(r\363\350\355\003<\242\233\372\366/\342\023["
  23      72F3E8ED 
  23      033CA29B 
  23      FAF62FE2 
  23      135B
  24 007c B3FBDD7C 		.ascii	"\263\373\335|^\006\000\203\014@\004"
  24      5E060083 
  24      0C4004
  25              		.text
ARM GAS  C:\Users\CHRIST~1\AppData\Local\Temp\cc36zMGe.s 			page 2


  26              		.section	.gnu.lto_.jmpfuncs.67eea12c,"",%progbits
  27 0000 789CAD56 		.ascii	"x\234\255V[O\023A\024\236\263\333n\227^\266\350\223"
  27      5B4F1341 
  27      149EB3DB 
  27      6E975EB6 
  27      E893
  28 0012 0F3CC84F 		.ascii	"\017<\310OQ\177\205?\305'4\202&\336M@\015\251\001\203"
  28      517F853F 
  28      C5273482 
  28      26DE4D40 
  28      0DA90183 
  29 0026 3782202A 		.ascii	"7\202 *\240-(\264\200 rQ\274\326+\336\201\022ElD\205"
  29      A02D28B4 
  29      80207251 
  29      BCD62BDE 
  29      8112456C 
  30 003c 52CFCC1C 		.ascii	"R\317\314\034\241\333\335i\226\306M\266\351\316|\347"
  30      A1DBDD69 
  30      96C64DB6 
  30      E9CE7CE7 
  31 004c 3BD73973 		.ascii	";\3279s\014\306\330n\2131\223\311'\302\000\030\213\351"
  31      0CC6D86E 
  31      8B3193C9 
  31      27C20018 
  31      8BE9
  32 005e 4C837A1D 		.ascii	"L\203z\035Z~vMZ\207\365\230\0160\310\340\006T1\030\360"
  32      5A7E764D 
  32      5A87F598 
  32      0E30C8E0 
  32      06543118 
  33 0073 E15FFC61 		.ascii	"\341_\374a\010,@6\317\375j\014Id\212A\027!S\022\251"
  33      082C4036 
  33      CFFD6A0C 
  33      49648A41 
  33      17215312 
  34 0088 15228F35 		.ascii	"\025\"\2175\034M\202D&\031t\0232)\221:c>\016zX\333\031"
  34      1C4D8244 
  34      26197413 
  34      3229913A 
  34      633E0E7A 
  35 009f D3394803 		.ascii	"\3239H\003\037\364\020\306'\325\342v*\323\230\266\252"
  35      1FF410C6 
  35      27D5E276 
  35      2AD398B6 
  35      AA
  36 00b0 A169EF99 		.ascii	"\241i\357\231\3551]g\2702wq\344\247U\223\333\273-\246"
  36      ED315D67 
  36      B8327771 
  36      E4A75593 
  36      DBBB2DA6 
  37 00c4 FBE02654 		.ascii	"\373\340&T#\356\026\324\0101\316\274\232\317\347\243"
  37      23EE16D4 
  37      0831CEBC 
  37      9ACFE7A3 
  38 00d4 A021F054 		.ascii	"\240!\360T]j*\300\231q\003\342P\305_\241r\377\237\376"
  38      5D6A2AC0 
  38      997103E2 
ARM GAS  C:\Users\CHRIST~1\AppData\Local\Temp\cc36zMGe.s 			page 3


  38      50C55FA1 
  38      72FF9FFE 
  39 00e8 1FC4E06F 		.ascii	"\037\304\340oF;\030$J\023\370\221\240\027\011\370\213"
  39      463B1824 
  39      4A13F891 
  39      A01709F8 
  39      8B
  40 00f9 EBF7C64E 		.ascii	"\353\367\306N_\016\363u\003\002\320G&\007\204\311\202"
  40      5F0EF375 
  40      0302D047 
  40      260784C9 
  40      82
  41 010a 3FB5D479 		.ascii	"?\265\324y),]\322\3416\355\353b\237\255\253\301\247"
  41      292C5DD2 
  41      E136EDEB 
  41      629FADAB 
  41      C1A7
  42 011c 50450055 		.ascii	"PE\000U\334\201*\\\352>8~-(\227\000\372\311\344x|\341"
  42      DC812A5C 
  42      EA3E387E 
  42      2D289700 
  42      FAC9E478 
  43 0132 65004D36 		.ascii	"e\000M6c\272\331\254\363\330\014\2246\331D\276$\232"
  43      63BAD9AC 
  43      F3D80C94 
  43      36D944BE 
  43      249A
  44 0144 8B2F2B85 		.ascii	"\213/+\205\253@\\\012q)R4\234_\036\210J\3335\030$\333"
  44      AB405C0A 
  44      71295234 
  44      9C5F1E88 
  44      4ADB3518 
  45 015a 35A7EDDC 		.ascii	"5\247\355\334\330\022\326\0159\255S\232c\323\33754r"
  45      D812D60D 
  45      39AD539A 
  45      63D3DF35 
  45      3472
  46 016c C094FA01 		.ascii	"\300\224\372\001\206I?\250\365\233\356\372\357\226\241"
  46      86493FA8 
  46      F59BEEFA 
  46      EF96A1
  47 017b 9F33F535 		.ascii	"\2373\3655\035i\015\312\324j0bs\237o\277\036mm\023\305"
  47      1D690DCA 
  47      D46A3062 
  47      739F6FBF 
  47      1E6D6D13 
  48 0190 1A84BC10 		.ascii	"\032\204\274\020\036%\210\370\0220\205A\367\240\006"
  48      1E2588F8 
  48      12308541 
  48      F7A006
  49 019f 8F86EBD6 		.ascii	"\217\206\353\326\030n\225a\352z\235\030\030\215\373"
  49      186E9561 
  49      EA7A9D18 
  49      188DFB
  50 01ae B648818B 		.ascii	"\266H\201\213]\2068\234\316\365\200b\335T\254W\310\023"
  50      5D86389C 
  50      CEF58062 
ARM GAS  C:\Users\CHRIST~1\AppData\Local\Temp\cc36zMGe.s 			page 4


  50      DD54AC57 
  50      C813
  51 01c0 1E7249BC 		.ascii	"\036rI\274\206\232\307\325\201\347\002W\027\342\277"
  51      869AC7D5 
  51      81E70257 
  51      17E2BF
  52 01cf 2332800C 		.ascii	"#2\200\014&\210\374_\353\300\375\206\\\303q\012pV\207"
  52      2688FC5F 
  52      EBC0FD86 
  52      5CC3710A 
  52      705687
  53 01e2 490264F5 		.ascii	"I\002d\365\215\303\345\214\337T\011\225E:B\274r\270"
  53      8DC3E58C 
  53      DF540995 
  53      453A42BC 
  53      72B8
  54 01f4 F1DA9E82 		.ascii	"\361\332\236\202r\022\316\261\342 \242\367E\372\303"
  54      7212CEB1 
  54      E220A2F7 
  54      45FAC3
  55 0203 8A90A084 		.ascii	"\212\220\240\204\275q\025T*cA\207\"\364\242\351D\242"
  55      BD711554 
  55      2A634187 
  55      22F4A2E9 
  55      44A2
  56 0215 3622CB7C 		.ascii	"6\"\313|T\203\007$=Z|\3206\004\012\334\016\237\022="
  56      54830724 
  56      3D5A7CD0 
  56      36040ADC 
  56      0E9F123D 
  57 0229 EB6181DB 		.ascii	"\353a\201\333y\347\301\016c\200\2471\002\323\205e$\371"
  57      79E7C10E 
  57      6380A731 
  57      02D38565 
  57      24F9
  58 023b 5C9D3044 		.ascii	"\\\2350Dg;\237X\245\316\345\207G\204\361\273\032U\374"
  58      673B9F58 
  58      A5CEE587 
  58      4784F1BB 
  58      1A55FC
  59 024e 2D92F371 		.ascii	"-\222\363q\245=aIy\003\036\223\274\341\210\211\"\212"
  59      A53D6149 
  59      79031E93 
  59      BCE18889 
  59      228A
  60 0260 48903D54 		.ascii	"H\220=T\267L\267A\000\236\330Z\253-\250\242X\3262\357"
  60      B74CB741 
  60      009ED85A 
  60      AB2DA8A2 
  60      58D632EF 
  61 0274 32117902 		.ascii	"2\021y\002\374\360\324f\255ZCcov\314/5\230\360\2140"
  61      FCF0D466 
  61      AD5A4363 
  61      6F76CC2F 
  61      3598F08C 
  62 0289 E6264C6C 		.ascii	"\346&Ll\353\271\220\000IP\001\317\011S\341%\357\345"
  62      EBB99000 
ARM GAS  C:\Users\CHRIST~1\AppData\Local\Temp\cc36zMGe.s 			page 5


  62      495001CF 
  62      0953E125 
  62      EFE5
  63 029b E539EDCC 		.ascii	"\3459\355\314\363\346\023\233[|\220\243\304\006\341"
  63      F3E6139B 
  63      5B7C90A3 
  63      C406E1
  64 02aa 056182DE 		.ascii	"\005a\202\336\023\373,]\033'\247C\360\222\344C\233\210"
  64      13FB2C5D 
  64      1B27A743 
  64      F092E443 
  64      9B88
  65 02bc DACA6C7D 		.ascii	"\332\312l}\232\010\302\360\2120ag\324\024\355\363\265"
  65      9A08C2F0 
  65      8A306167 
  65      D414EDF3 
  65      B5
  66 02cd BA7DBE29 		.ascii	"\272}\276)\243}z\350\227.\206\360\376\366\266\314\213"
  66      A37D7AE8 
  66      972E86F0 
  66      FEF6B6CC 
  66      8B
  67 02de 253973FD 		.ascii	"%9s\375{H\326\252\017f\354c\216\213\366\377R=\234\373"
  67      7B48D6AA 
  67      0F66EC63 
  67      8E8BF6FF 
  67      523D9CFB 
  68 02f2 9DBA7AB8 		.ascii	"\235\272z\270\300\373\276\223\253\241jC\216W\021\036"
  68      C0FBBE93 
  68      ABA16A43 
  68      8E57111E 
  69 0302 E06F67BF 		.ascii	"\340og\277\266\323pd\301{1^}(=jX\330i>\"\035\276\230"
  69      B6D37064 
  69      C17B315E 
  69      7D283D6A 
  69      58D8693E 
  70 031a 7FFB3914 		.ascii	"\177\3739\024\305\3272\037\037\244#\027\201O\264\037"
  70      C5D7321F 
  70      1FA42317 
  70      814FB41F 
  71 032a F1547CEA 		.ascii	"\361T|\352\202\312\275\332\267\246IR\013>\023\306r\026"
  71      82CABDDA 
  71      B7A64952 
  71      0B3E13C6 
  71      7216
  72 033c 94E2D2F8 		.ascii	"\224\342\322\370R\356\200\342,\211\331r\251:\226\262"
  72      52EE80E2 
  72      2C89D972 
  72      A93A96B2 
  73 034c 1D867421 		.ascii	"\035\206t!\012s\344B\324\341\202\300N/\216\237\015I"
  73      0A73E442 
  73      D4E182C0 
  73      4E2F8E9F 
  73      0D49
  74 035e 6C25CC13 		.ascii	"l%\314\023\266\322\201\255d\342:*1t\376\033\234T7\231"
  74      B6D281AD 
  74      64E23A2A 
ARM GAS  C:\Users\CHRIST~1\AppData\Local\Temp\cc36zMGe.s 			page 6


  74      3174FE1B 
  74      9C543799 
  75 0372 87994F25 		.ascii	"\207\231O%\352a\\s\025\305E\373\024\275E\3209\201<\020"
  75      EA615C73 
  75      15C545FB 
  75      14BD45D0 
  75      39813C10 
  76 0386 13E7AE4C 		.ascii	"\023\347\256L\212\240E\261\223el\235\254\344=\354N\350"
  76      8AA045B1 
  76      93656C9D 
  76      ACE43DEC 
  76      4EE8
  77 0398 6450DD7A 		.ascii	"dP\335z\336\031\324\367\336V\317\331Q\350\262O3\336"
  77      DE19D4F7 
  77      DE56CFD9 
  77      51E8B24F 
  77      33DE
  78 03aa B2E595CA 		.ascii	"\262\345\225\312C\366<Q1\337\216\235\273\230\266\203"
  78      43F63C51 
  78      31DF8E9D 
  78      BB98B683 
  79 03ba FD05BA02 		.ascii	"\375\005\272\002\275\277"
  79      BDBF
  80              		.text
  81              		.section	.gnu.lto_.inline.67eea12c,"",%progbits
  82 0000 789C6363 		.ascii	"x\234cc``Pbf\200\003^\006\006V^F\006& \223m\201<\210"
  82      60605062 
  82      6680035E 
  82      0606565E 
  82      46062620 
  83 0019 6260E266 		.ascii	"b`\342f``\004B\354\342L8\304\2315\214\016\200\244\245"
  83      60600442 
  83      ECE24C38 
  83      C499358C 
  83      0E80A4A5 
  84 002d 36E4C265 		.ascii	"6\344\302e\230y\030@*\241\024\013/\210\232\340\207\237"
  84      98791840 
  84      2AA1140B 
  84      2F889AE0 
  84      879F
  85 003f CBCA0764 		.ascii	"\313\312\007d\2034\303\031l8ld\307!\316\201C\234\223"
  85      8334C319 
  85      6C386C64 
  85      C721CE81 
  85      439C93
  86 0052 815B1555 		.ascii	"\201[\025U\034j5\324\003\020\0167\003\207$\026U\023"
  86      1C6A35D4 
  86      03100E37 
  86      03872416 
  86      5513
  87 0064 FCA0CA78 		.ascii	"\374\240\312x4\2160Z\001\025t0\236\252EQ\302\010\367"
  87      348E305A 
  87      01157430 
  87      9EAA4551 
  87      C208F7
  88 0077 02231750 		.ascii	"\002#\027P\210]\000\350\005\240.0\202\310\203|\304\014"
  88      885D00E8 
ARM GAS  C:\Users\CHRIST~1\AppData\Local\Temp\cc36zMGe.s 			page 7


  88      05A02E30 
  88      82C8837C 
  88      C40C
  89 0089 E44DF043 		.ascii	"\344M\360C\366;\232>\204c\030\031\360(#\327x\314\340"
  89      F63B9A3E 
  89      84631819 
  89      F02823D7 
  89      78CCE0
  90 009c 45370EEA 		.ascii	"E7\016\352\002\204iXL\301\027\261\023\374\004\030T\314"
  90      02846958 
  90      4CC117B1 
  90      13FC0418 
  90      54CC
  91 00ae 812124B4 		.ascii	"\201!$\264\302\015\036@`]\330\235\205\215\007q\202 "
  91      C20D1E40 
  91      605DD89D 
  91      858D0771 
  91      8220
  92 00c0 83A22E90 		.ascii	"\203\242.\220\3157\301\011n\016D\031\\5v.\314\035B\014"
  92      CD37C109 
  92      6E0E4419 
  92      5C35762E 
  92      CC1D420C 
  93 00d4 AA7AF8DC 		.ascii	"\252z\370\334A\224a\014\000\376U:\035"
  93      4194610C 
  93      00FE553A 
  93      1D
  94              		.text
  95              		.section	.gnu.lto_.pureconst.67eea12c,"",%progbits
  96 0000 789C6363 		.ascii	"x\234cc``\220\001b^\006\011F\011&\011f\0116\011v\011"
  96      60609001 
  96      625E0609 
  96      46092609 
  96      66093609 
  97 0016 0E094E09 		.ascii	"\016\011N\011n\011\236]\214\002\022\202\022B\022\000"
  97      6E099E5D 
  97      8C021282 
  97      12421200 
  98 0026 1FD00279 		.ascii	"\037\320\002y"
  99              		.text
 100              		.section	.gnu.lto_h3.67eea12c,"",%progbits
 101 0000 789C2550 		.ascii	"x\234%P=K\003A\020\235\267sY\257Q\013K\017\011(\204"
 101      3D4B0341 
 101      109DB773 
 101      59AF510B 
 101      4B0F0928 
 102 0015 34971FA5 		.ascii	"4\227\037\245)l\365\260\275\215\006.\242\202\205F\220"
 102      296CF5B0 
 102      BD8D062E 
 102      A2828546 
 102      90
 103 0026 15024152 		.ascii	"\025\002AR\252\030?\316\352P[\203J:\261\211`!A\020\304"
 103      AA183FCE 
 103      EA505B83 
 103      4A3AB189 
 103      60214110 
 104 003b CEE8EC65 		.ascii	"\316\350\354e\330\307\314\354\274y\373XMD3 *J\236\025"
ARM GAS  C:\Users\CHRIST~1\AppData\Local\Temp\cc36zMGe.s 			page 8


 104      D8C7CCEC 
 104      BC79FB58 
 104      4D443320 
 104      2A4A9E15 
 105 004f 80096AB7 		.ascii	"\200\011j\267GT\363\025\340\012\343\203b\205\030\333"
 105      4754F315 
 105      E00AE383 
 105      628518DB 
 106 005f BCC7B84D 		.ascii	"\274\307\270M\336SU\356\030\211\354\240\257\217\314"
 106      DE5355EE 
 106      1889ECA0 
 106      AF8FCC
 107 006e A361CB44 		.ascii	"\243a\313DM\201\013\234\243,\264\247\372\251\345-\231"
 107      4D810B9C 
 107      A32CB4A7 
 107      FAA9E52D 
 107      99
 108 007f 009EB45F 		.ascii	"\000\236\264_\017\207oS\256U(J{\331\331\371`\236\003"
 108      0F876F53 
 108      AE55284A 
 108      7BD9D9F9 
 108      609E03
 109 0092 499DD45E 		.ascii	"I\235\324^\357\247K\307\271`\277\315f\301\262\020\300"
 109      EFA74BC7 
 109      B960BFCD 
 109      66C1B210 
 109      C0
 110 00a3 22880B04 		.ascii	"\"\210\013\004\350\" \271\"\\\241\344\370\203\263\321"
 110      E82220B9 
 110      225CA1E4 
 110      F883B3D1 
 111 00b3 FEA4F6C6 		.ascii	"\376\244\366\306\017\342\032\232\304=\235<\02723\372"
 111      0FE21A9A 
 111      C43D9D3C 
 111      173233FA 
 112 00c3 4B4CF63D 		.ascii	"KL\366=/dj\010\304\274\311h\223\225\25362\032\242\336"
 112      2F646A08 
 112      C4BCC968 
 112      9395AB36 
 112      321AA2DE 
 113 00d7 1AA87C45 		.ascii	"\032\250|Et\322t\3702\021\377\032\337\262\327d\321@"
 113      74D274F8 
 113      3211FF1A 
 113      DFB2D764 
 113      D140
 114 00e9 8AD80DDA 		.ascii	"\212\330\015\332?\335^\356\265\200;\302\015\002\313"
 114      3FDD5EEE 
 114      B5803BC2 
 114      0D02CB
 115 00f8 9A3EB1DE 		.ascii	"\232>\261\336\322\371\252\213\206\360ES\311\227\205"
 115      D2F9AA8B 
 115      86F04553 
 115      C99785
 116 0107 61657CA2 		.ascii	"ae|\242\352jTY\211\362\\]\213\302ER\313K\377\010\025"
 116      EA6A5459 
 116      89F25C5D 
 116      8BC24552 
ARM GAS  C:\Users\CHRIST~1\AppData\Local\Temp\cc36zMGe.s 			page 9


 116      CB4BFF08 
 117 011c 626D     		.ascii	"bm"
 118              		.text
 119              		.section	.gnu.lto_h2.67eea12c,"",%progbits
 120 0000 789C2550 		.ascii	"x\234%P=K\003A\020\235\267sY\017D-,=$\240\020\322\\"
 120      3D4B0341 
 120      109DB773 
 120      590F442D 
 120      2C3D24A0 
 121 0017 7E94A6B0 		.ascii	"~\224\246\260\325\303\36661p\021\025,4B8\341@$\245\212"
 121      D5C3F636 
 121      31701115 
 121      2C344238 
 121      E14024A5 
 122 002c 9F677504 		.ascii	"\237gu\004[\305\004;\261\211 (A\020,l\214\316^\206}"
 122      5BC5043B 
 122      B1892028 
 122      41102C6C 
 122      8CCE5E86 
 123 0041 CCCCCE9B 		.ascii	"\314\314\316\233\267\217\325D4\013\242\242\3449\001"
 123      B78FD544 
 123      340BA2A2 
 123      E43901
 124 0050 98A0761F 		.ascii	"\230\240v\037\210j\256\002la\\P\250\020b\233\367\030"
 124      886AAE02 
 124      6C615C50 
 124      A810629B 
 124      F718
 125 0062 DDE82D55 		.ascii	"\335\350-U\345\216\221\310\016\372\372\320<\032\216"
 125      E58E91C8 
 125      0EFAFAD0 
 125      3C1A8E
 126 0071 99A825B0 		.ascii	"\231\250%\260\201s\224\205\326k\234\306\274%\023\300"
 126      81739485 
 126      D66B9CC6 
 126      BC2513C0 
 127 0081 91F6EBBE 		.ascii	"\221\366\353\276\375:m[\205\242\264W\235\235\017\346"
 127      FD3A6D5B 
 127      85A2B457 
 127      9D9D0FE6 
 128 0091 7990D451 		.ascii	"y\220\324Q\355\345n\246t\234\013>\035\261Y\214Y\010"
 128      EDE56EA6 
 128      749C0B3E 
 128      1DB1598C 
 128      5908
 129 00a3 6011C425 		.ascii	"`\021\304%<\\\300#\271\"\\\243d\371\203\263\321\376"
 129      3C5CC023 
 129      B9225CA3 
 129      64F983B3 
 129      D1FE
 130 00b5 9476C60F 		.ascii	"\224v\306\017\342\006\232\304=\235\364\013\231\031\375"
 130      E2069AC4 
 130      3D9DF40B 
 130      9919FD
 131 00c4 4526FB5E 		.ascii	"E&\373^\02025\005b\336d\264\311\312V\033\031\015\321"
 131      10323505 
 131      62DE64B4 
ARM GAS  C:\Users\CHRIST~1\AppData\Local\Temp\cc36zMGe.s 			page 10


 131      C9CA561B 
 131      190DD1
 132 00d7 48062A5F 		.ascii	"H\006*_\021\2354\035>O\204\277\306\215\331i\261h Eh"
 132      119D341D 
 132      3E4F84BF 
 132      C68DD969 
 132      B1682045 
 133 00ec 07C9FB4F 		.ascii	"\007\311\373O{\322z-\240K\270\205\027\263\246O\324\023"
 133      7BD27A2D 
 133      A04BB885 
 133      17B3A64F 
 133      D413
 134 00fe 9DAFDA68 		.ascii	"\235\257\332h\012_4\225|\231\357W\306'\250\256\005\225"
 134      0A5F3495 
 134      7C99EF57 
 134      C627A8AE 
 134      0595
 135 0110 D520CFD5 		.ascii	"\325 \317\325\365\300_\"\265\262\374\017\004\333bg"
 135      F5C05F22 
 135      B5B2FC0F 
 135      04DB6267 
 136              		.text
 137              		.section	.gnu.lto_h1.67eea12c,"",%progbits
 138 0000 789C2550 		.ascii	"x\234%P=K\003A\020\235\267sY\257Q\013K\017\011(\204"
 138      3D4B0341 
 138      109DB773 
 138      59AF510B 
 138      4B0F0928 
 139 0015 34971FA5 		.ascii	"4\227\037\245)l\365\260\275\215\006.\242\021\013\023"
 139      296CF5B0 
 139      BD8D062E 
 139      A2110B13 
 140 0025 414E0888 		.ascii	"AN\010\210\244T\361\363\2546b\253D\261\023\233\010\026"
 140      A454F1F3 
 140      AC3662AB 
 140      44B1139B 
 140      0816
 141 0037 1204C1D6 		.ascii	"\022\004\301\326\350\354e\330\307\314\354\274y\373X"
 141      E8EC65D8 
 141      C7CCECBC 
 141      79FB58
 142 0046 4D443320 		.ascii	"MD3 *J\236\025\200\011j\367\221\250\346+\300\025\306"
 142      2A4A9E15 
 142      80096AF7 
 142      91A8E62B 
 142      C015C6
 143 0059 07C50A31 		.ascii	"\007\305\0121\266y\217q\227|d\252\3345\022v\277\257"
 143      B6798F71 
 143      977C64AA 
 143      DC351276 
 143      BFAF
 144 006b 0F4DDF70 		.ascii	"\017M\337p\312Dm\201\013\234\243,\264\247\372i\312["
 144      CA446D81 
 144      0B9CA32C 
 144      B4A7FA69 
 144      CA5B
 145 007d 32013C69 		.ascii	"2\001<i\277\037\016\336\247\\\253P\224\366\252\333\374"
ARM GAS  C:\Users\CHRIST~1\AppData\Local\Temp\cc36zMGe.s 			page 11


 145      BF1F0EDE 
 145      A75CAB50 
 145      94F6AADB 
 145      FC
 146 008e 649E0349 		.ascii	"d\236\003I\235\324\336\356\247K\307\271\340\313\021"
 146      9DD4DEEE 
 146      A74BC7B9 
 146      E0CB11
 147 009d 9B859485 		.ascii	"\233\205\224\205\000\026A\\\"\300\005\002\222+\3025"
 147      0016415C 
 147      22C00502 
 147      922BC235 
 148 00ad 4A8E3F38 		.ascii	"J\216?8\033\265&\2657~\0207\320$\356\351\344\271`\315"
 148      1BB526B5 
 148      377E1037 
 148      D024EEE9 
 148      E4B960CD 
 149 00c1 E82F31F6 		.ascii	"\350/1\366g^\310\324\020\210yci\223\225\2536,\015Q\357"
 149      675EC8D4 
 149      10887963 
 149      699395AB 
 149      362C0D51 
 150 00d6 0C54BE22 		.ascii	"\014T\276\":Y6|\235\210\177\215\237\262\327f\321@\206"
 150      3A59367C 
 150      9D887F8D 
 150      9FB2D766 
 150      D14086
 151 00e9 D80D765A 		.ascii	"\330\015vZ\315\036\234\327\002z\204[\004)k\372\302z"
 151      CD1E9CD7 
 151      027A845B 
 151      04296BFA 
 151      C27A
 152 00fb 47E7AB2E 		.ascii	"G\347\253.\032\302\027M%_\026\206\225\361\211\252\253"
 152      1AC2174D 
 152      255F1686 
 152      95F189AA 
 152      AB
 153 010c 516525CA 		.ascii	"Qe%\312su-\012\027I-/\375\003\315\266a\260"
 153      73752D0A 
 153      17492D2F 
 153      FD03CDB6 
 153      61B0
 154              		.text
 155              		.section	.gnu.lto_evt1_execute.67eea12c,"",%progbits
 156 0000 789CA597 		.ascii	"x\234\245\227[P\024G\024\206\373t\317\316.W/\220\304"
 156      5B501447 
 156      1486FB74 
 156      CFCE2E57 
 156      2F90C4
 157 0013 2865A155 		.ascii	"(e\241U\244\342\013\224y\3625\3611\225\207\344)\017"
 157      A4E20B94 
 157      79F235F1 
 157      319587E4 
 157      290F
 158 0025 C94B0855 		.ascii	"\311K\010U\246\3122V \2762rq\327\240\206\200.\270Yd"
 158      A6CA3256 
 158      20BE3272 
ARM GAS  C:\Users\CHRIST~1\AppData\Local\Temp\cc36zMGe.s 			page 12


 158      71D7A086 
 158      802EB859 
 159 003a 55E41292 		.ascii	"U\344\022\222\212\226\010A#n\210\006\304\033\336#\212"
 159      8A960841 
 159      236E8806 
 159      C41BDE23 
 159      8A
 160 004b AEA21815 		.ascii	"\256\242\030\025Q\324\200\250H\316\351^\206]\034\326"
 160      51D480A8 
 160      48CEE95E 
 160      865D1CD6 
 161 005b 316EB1CD 		.ascii	"1n\261\315\364L\3679\377\371\373\333\351\031\23516\177"
 161      F44CF739 
 161      FFF9FBDB 
 161      E9199D31 
 161      367F
 162 006d 26639FE1 		.ascii	"&c\237\341\377O\360\013N\006\274\3648c\253]\234\353"
 162      FF4FF00B 
 162      4E06BCF4 
 162      3863AB5D 
 162      9CEB
 163 007f C1C5CC88 		.ascii	"\301\305\314\210\027\335i\314H\024\341\236&{Z\270\347"
 163      17DD69CC 
 163      4814E19E 
 163      267B5AB8 
 163      E7
 164 0090 903D07E8 		.ascii	"\220=\007\350j\212\016@\007\206\013X>\027\232C\207|"
 164      6A8A0E40 
 164      07860B58 
 164      3E179A43 
 164      877C
 165 00a2 5827360A 		.ascii	"X'6\012hw\367\267\362Eu\006~\202\025=z\225\321m\010"
 165      6877F7B7 
 165      F2457506 
 165      7E82153D 
 165      7A95D16D 
 166 00b7 BF60CC8B 		.ascii	"\277`\314\213_\372\300nX\304p\334\320\263\252\226\270"
 166      5FFAC06E 
 166      58C470DC 
 166      D0B3AA96 
 166      B8
 167 00c8 12BC0490 		.ascii	"\022\274\004\220\212\335\261+\245\245N\352r\010\000"
 167      8ADDB12B 
 167      A5A54EEA 
 167      720800
 168 00d7 F62F1757 		.ascii	"\366/\027W\337t\211\371@Cw\037\3624\306gl7\202\030r"
 168      DF7489F9 
 168      4043771F 
 168      F234C667 
 168      6C378218 
 169 00ec D837BBDC 		.ascii	"\3307\273\3340:\015\315/\0044\203\300\260\260\007\322"
 169      303A0DCD 
 169      2F043483 
 169      C0B0B007 
 169      D2
 170 00fd A009D264 		.ascii	"\240\011\322dx\034^U\333\373\241X(g\036\031j~\240\205"
 170      781C5E55 
ARM GAS  C:\Users\CHRIST~1\AppData\Local\Temp\cc36zMGe.s 			page 13


 170      DBFBA158 
 170      28671E19 
 170      6A7EA085 
 171 0111 675E9F6D 		.ascii	"g^\237m\324\030\234\246\375f9\355\332\256\347\233\222"
 171      D4189CA6 
 171      FD6639ED 
 171      DAAEE79B 
 171      92
 172 0122 740D5A21 		.ascii	"t\015Z!\003Z C\011\206\275\2403`\214O\234\376\365\224"
 172      035A2043 
 172      0986BDA0 
 172      33608C4F 
 172      9CFEF594 
 173 0136 23683C1F 		.ascii	"#h<\037w\033\301\301\271\235\217\006f\315\001\346\027"
 173      771BC1C1 
 173      B99D8F06 
 173      66CD01E6 
 173      17
 174 0147 1AA74650 		.ascii	"\032\247FP\243Q\343\304\306\021OGIt\224BG\251t\304\230"
 174      A351E3C4 
 174      C6114F47 
 174      49749442 
 174      47A974C4 
 175 015c 07A3A271 		.ascii	"\007\243\242qF\220\255\025\234\216\012\203\254\0378"
 175      4690AD15 
 175      9C8E0A83 
 175      AC1F38
 176 016b 093859B4 		.ascii	"\0118Y\264\323/\224#\032\031t\314\327\227\254\034I\247"
 176      D32F9423 
 176      1A1974CC 
 176      D797AC1C 
 176      49A7
 177 017d AACE8706 		.ascii	"\252\316\207\006\342\304;\262\254\235\276\021\303\205"
 177      E2C43BB2 
 177      AC9DBE11 
 177      C385
 178 018b 65190528 		.ascii	"e\031\005(\3037wk\2412D\207\375\252\262\337\261\262"
 178      C337776B 
 178      A1324487 
 178      FDAAB2DF 
 178      B1B2
 179 019d 7DE1CAA0 		.ascii	"}\341\312\240\0152p\212\267\270\375\204\364W\227\021"
 179      0D32708A 
 179      B7B8FD84 
 179      F4579711 
 180 01ad 5A5B072E 		.ascii	"Z[\007.:\363\307\014\027\236\010\010e@S\341PYr\000\266"
 180      3AF3C70C 
 180      179E0808 
 180      654053E1 
 180      50597200 
 181 01c2 805F3821 		.ascii	"\200_8!\210\353y\200B\340\205\266\241\256\276d\034\354"
 181      88EB7980 
 181      42E085B6 
 181      A1AEBE64 
 181      1CEC
 182 01d4 318CC0BD 		.ascii	"1\214\300\275\3652\306\037\270J\312\233v\310g\267\241"
 182      F532C61F 
ARM GAS  C:\Users\CHRIST~1\AppData\Local\Temp\cc36zMGe.s 			page 14


 182      B84ACA9B 
 182      76C867B7 
 182      A1
 183 01e5 C037DA73 		.ascii	"\3007\332s\337\373\256ic\221Z\377a]P~i\243W@\204\315"
 183      DFFBAE69 
 183      63915AFF 
 183      615D507E 
 183      69A35740 
 184 01fb 0CFE041D 		.ascii	"\014\376\004\035\016R\004l\354(:\024\241\250\271\343"
 184      0E52046C 
 184      EC283A14 
 184      A1A8B9E3 
 185 020b D25357D6 		.ascii	"\322SW\326/\224$t\247}\336\027h-\374\205\2226\341D\012"
 185      2F942474 
 185      A77DDE17 
 185      682DFC85 
 185      9236E144 
 186 0220 CCA003B2 		.ascii	"\314\240\003\262\354\004\355\264.3T\262O\310:\017\233"
 186      EC04EDB4 
 186      2E3354B2 
 186      4FC83A0F 
 186      9B
 187 0231 7576619D 		.ascii	"uva\235\375P\220N=Y\223\331{\325\0059\"\027\344\245"
 187      FD50904E 
 187      3D5993D9 
 187      7BD50539 
 187      2217E4A5 
 188 0245 D28E4EB3 		.ascii	"\322\216N\263\002\017\325\012\0343\225\035W\312\002"
 188      020FD50A 
 188      1C33951D 
 188      57CA02
 189 0254 7793C26A 		.ascii	"w\223\302j\316\272=\203\016\361\221\264\273\363\321"
 189      CEBA3D83 
 189      0EF191B4 
 189      BBF3D1
 190 0263 DE80FEA2 		.ascii	"\336\200\376\2422\007\234\260P\326-\225\325\034\276"
 190      32079CB0 
 190      50D62D95 
 190      D51CBE
 191 0272 5C2F3099 		.ascii	"\\/0\2311\221\314!\341\227\271NN\315\265\271n\254[\210"
 191      3191CC21 
 191      E197B94E 
 191      4ECDB5B9 
 191      6EAC5B88 
 192 0286 8F65AEE2 		.ascii	"\217e\256\342\365\347\202\011/\346r\301)\213\\\247e"
 192      F5E78209 
 192      2FE672C1 
 192      298B5CA7 
 192      65
 193 0297 AE3DEEA3 		.ascii	"\256=\356\243\273\342\011K\027\000\234\301k\003\340"
 193      BBE2094B 
 193      17009CC1 
 193      6B03E0
 194 02a6 0EDD291B 		.ascii	"\016\335)\033J\234BR\371c\235f\220B\362/\014\024\217"
 194      4A9C4252 
 194      F9639D66 
 194      9042F22F 
ARM GAS  C:\Users\CHRIST~1\AppData\Local\Temp\cc36zMGe.s 			page 15


 194      0C148F
 195 02b9 02EA2C2E 		.ascii	"\002\352,.\3149\022IM\264\303q^\374\331\237\245k\347"
 195      CC391249 
 195      4DB4C371 
 195      5EFCD99F 
 195      A56BE7
 196 02cc B1003BEE 		.ascii	"\261\000;\356\377m\355~:Y\177\301\264\276\007\362\243"
 196      FF6DED7E 
 196      3A597FC1 
 196      B4BE07F2 
 196      A3
 197 02dd 0D4B8F72 		.ascii	"\015K\217r\353\"\006\301\242pHogC\243\374m\307\3038"
 197      EB2206C1 
 197      A270486F 
 197      6743A3FC 
 197      6DC7C338 
 198 02f1 7E66C025 		.ascii	"~f\300%H\363\213\204I\242\216D\022EeF\364N\277\016m"
 198      48F38B84 
 198      49A28E44 
 198      12456546 
 198      F44EBF0E 
 199 0306 BDF668BB 		.ascii	"\275\366h\273<\015m#\212\266+f\311\2410\001C\023\004"
 199      3C0D6D23 
 199      8AB62B66 
 199      C9A13001 
 199      431304
 200 0319 BC126157 		.ascii	"\274\022aW\245\232\272\3623ng\230\260\021EX\313\204"
 200      A59ABAF2 
 200      336E6798 
 200      B0114558 
 200      CB84
 201 032b 67D7A6C6 		.ascii	"g\327\246\306\177%\252\372d\374\337\253\3275\204\251"
 201      7F25AAFA 
 201      64FCDFAB 
 201      D73584A9 
 202 033b E2703D06 		.ascii	"\342p=\006UOt\232A\252\310'K\252n\340\002\364\223\260"
 202      554F749A 
 202      41AAC827 
 202      4BAA6EE0 
 202      02F493B0 
 203 034f 7E6BAA6E 		.ascii	"~k\252n\320\265\2336\251\372'\006U\267L\213oK\252\""
 203      D0B59B36 
 203      A9FA2706 
 203      55B74C8B 
 203      6F4BAA22 
 204 0363 4C4A8F72 		.ascii	"LJ\217r\350\016\006\301\242^@\2507\012\232\253Q\275"
 204      E80E06C1 
 204      A25E40A8 
 204      370A9AAB 
 204      51BD
 205 0375 BED74168 		.ascii	"\276\327Ah\300\036Bw\247A\350\251Bh\320\254\357\236"
 205      C01E4277 
 205      A741E8A9 
 205      4268D0AC 
 205      EF9E
 206 0387 DA32F68E 		.ascii	"\3322\366\216\366\324o\371|\352\226\361\014\267\214"
 206      F6D46FF9 
ARM GAS  C:\Users\CHRIST~1\AppData\Local\Temp\cc36zMGe.s 			page 16


 206      7CEA96F1 
 206      0CB78C
 207 0396 01732DB4 		.ascii	"\001s-\264\250\265\270\217\225\014Q\004l|\"\311\216"
 207      A8B5B88F 
 207      950C5104 
 207      6C7C22C9 
 207      8E
 208 03a7 A807D3ED 		.ascii	"\250\007\323\355\032\333\336>\235@\266>\234\3306\356"
 208      1ADBDE3E 
 208      9D40B63E 
 208      9CD836EE 
 209 03b7 53E04790 		.ascii	"S\340G\220\205\322\012\233\335\015B%\211\267\231\347"
 209      85D20A9B 
 209      DD0D4225 
 209      89B799E7 
 210 03c7 DFE93692 		.ascii	"\337\3516\2226\265\221\014\233\325\217Dn$T)\322Y,{>"
 210      36B5910C 
 210      9BD58F44 
 210      6E245429 
 210      D2592C7B 
 211 03dc 01D1A912 		.ascii	"\001\321\251\022\275\364\310\000\217\025]M\007;\326"
 211      BDF4C800 
 211      8F155D4D 
 211      073BD6
 212 03eb B888EA24 		.ascii	"\270\210\352$\274W\216B\032\212\363\213dv\003\212.."
 212      BC578E42 
 212      1A8AF38B 
 212      6476038A 
 212      2E2E
 213 03fd 9D9C6E6E 		.ascii	"\235\234nn\364\0320x\022^\302\265B\260\3564|\324\300"
 213      F41A3078 
 213      125EC2B5 
 213      42B0EE34 
 213      7CD4C0
 214 0410 548131F9 		.ascii	"T\2011\371\313\232\302\353\014\257\3201\325S\233 ?\213"
 214      CB9AC2EB 
 214      0CAFD031 
 214      D5539B20 
 214      3F8B
 215 0422 01F29859 		.ascii	"\001\362\230Y\352\363\330\267\307q\310\367\213\231\377"
 215      EAF3D8B7 
 215      C771C8F7 
 215      8B99FF
 216 0431 1B4B83DB 		.ascii	"\033K\203\333\302r5\267\306r\373\006\2710\005|Bm!\217"
 216      C27235B7 
 216      C672FB06 
 216      B930057C 
 216      426D218F 
 217 0445 8165A953 		.ascii	"\201e\251SPBK,\213\270\016\305\034#`\343\023N;\242\326"
 217      50424B2C 
 217      8BB80EC5 
 217      1C2360E3 
 217      134E3BA2 
 218 045a F09760E9 		.ascii	"\360\227`\351\346a,\213(\260\207Ob)\223\244\330\314"
 218      E6612C8B 
 218      28B0874F 
 218      622993A4 
ARM GAS  C:\Users\CHRIST~1\AppData\Local\Temp\cc36zMGe.s 			page 17


 218      D8CC
 219 046c B3D6BAF8 		.ascii	"\263\326\272\370PI\247\302\362;\263\372\022\036\201"
 219      5049A7C2 
 219      F23BB3FA 
 219      121E81
 220 047b 25551A81 		.ascii	"%U\032\201%\267\304r\035\227\254\034\032\037\011\316"
 220      25B7C472 
 220      1D97AC1C 
 220      1A1F09CE 
 221 048b 50587258 		.ascii	"PXrX\317\021\313\224)X\362\010\0165\326\026\037\346"
 221      CF11CB94 
 221      2958F208 
 221      0E35D616 
 221      1FE6
 222 049d 7047F2F4 		.ascii	"pG\362\364\034n\340\3668\374\336\272>\311a\251Y\333"
 222      1C6EE0F6 
 222      38FCDEBA 
 222      3EC961A9 
 222      59DB
 223 04af 0F3CE60D 		.ascii	"\017<\346\015\265\214\277\026\207\345\3668\3348\015"
 223      B58CBF16 
 223      87E5F638 
 223      DC380D
 224 04be 878D8AC3 		.ascii	"\207\215\212\303M\246Zo,\0167\"\207\345\323pX\201\034"
 224      4DA65A6F 
 224      2C0E3722 
 224      87E5D370 
 224      58811C
 225 04d1 56122E95 		.ascii	"V\022.\225\204H\252\035Q\233_\306\241o\202\303\012\012"
 225      8448AA1D 
 225      519B5FC6 
 225      A16F82C3 
 225      0A0A
 226 04e3 FC237288 		.ascii	"\374#r\2106\205J\272\262%'\244\204\300lr\203Zja3\257"
 226      36854ABA 
 226      B22527A4 
 226      84C06C72 
 226      835A6A61 
 227 04f9 3FC6BA55 		.ascii	"?\306\272U\231NlA'&)\324,)\254V\244\264?\330Y\227\250"
 227      994E6C41 
 227      272629D4 
 227      2C29AC56 
 227      A4B43FD8 
 228 0510 28141020 		.ascii	"(\024\020 \012\305\024\012\265\010\012\035l@\204)\334"
 228      0AC5140A 
 228      B5080A1D 
 228      6C408429 
 228      DC
 229 0521 6F45E12C 		.ascii	"oE\341,\257pb\354\255*\266yK\235-\037s\013\237\034x"
 229      AF7062EC 
 229      AD2AB679 
 229      4B9D2D1F 
 229      730B9F1C 
 230 0536 487AE7E0 		.ascii	"Hz\347\340\211\000\276\324\320\271\321\223w=\011X\334"
 230      8900BED4 
 230      D0B9D193 
 230      773D0958 
ARM GAS  C:\Users\CHRIST~1\AppData\Local\Temp\cc36zMGe.s 			page 18


 230      DC
 231 0547 EA997E91 		.ascii	"\352\231~\221\002\333\261\272m\\UWX\263\273\030pt%."
 231      02DBB1BA 
 231      6D5C5557 
 231      58B3BB18 
 231      7074252E 
 232 055b 752D508C 		.ascii	"u-P\214\032\263\276\035\222\313\303]\025\365\211\352"
 232      1AB3BE1D 
 232      92CBC35D 
 232      15F589EA 
 233 056b 69C509B5 		.ascii	"i\305\011\265\0347\365T\251\254o\203\260\220\366\206"
 233      1C37F554 
 233      A9AC6F83 
 233      B090F686 
 234 057b 57B8505A 		.ascii	"W\270PZ\235\222f\2763&\201\006\365\234\0365\333\357"
 234      9D9266BE 
 234      33268106 
 234      F59C1E35 
 234      DBEF
 235 058d F82E242F 		.ascii	"\370.$/\370\264\332\250D7\337\244A\267j;\206\223\225"
 235      F8B4DAA8 
 235      4437DFA4 
 235      41B76A3B 
 235      869395
 236 05a0 043CF516 		.ascii	"\004<\365\0264\360\005*\377O\004\376\034\351\210\036"
 236      34F0052A 
 236      FF4F04FE 
 236      1CE9881E 
 237 05b0 7E17BD0D 		.ascii	"~\027\275\015\355\227\032\332db\272Q\323\023~(X\346"
 237      ED971ADA 
 237      6462BA51 
 237      D3137E28 
 237      58E6
 238 05c2 58D26C78 		.ascii	"X\322lxP<\242\337\310\227\310AqrH\213\325\220\237q\310"
 238      503CA2DF 
 238      C897C841 
 238      7172488B 
 238      D5909F71 
 239 05d7 20BED3CA 		.ascii	" \276\323\312\217\007\035\302\320\330\233\227\231\231"
 239      8F071DC2 
 239      D0D89B97 
 239      9999
 240 05e5 A5FEF272 		.ascii	"\245\376\362rr\363\262\276\311\223\377sV\345ef3\221"
 240      72F3B2BE 
 240      C993FF73 
 240      56E56566 
 240      3391
 241 05f7 B3FC3DFC 		.ascii	"\263\374=\374.\0269\271+\027\232\343\276\316\245Q_\255"
 241      2E1639B9 
 241      2B179AE3 
 241      BECEA551 
 241      5FAD
 242 0609 C85EFEED 		.ascii	"\310^\376\355\2279Y\331\313rV\345\254\310\313\315\\"
 242      973959D9 
 242      CB7256E5 
 242      ACC8CBCD 
 242      5C
ARM GAS  C:\Users\CHRIST~1\AppData\Local\Temp\cc36zMGe.s 			page 19


 243 061a 46C357EA 		.ascii	"F\303W\352\252\247\275\377\301R\366\037L\267b\206"
 243      AAA7BDFF 
 243      C152F61F 
 243      4CB76286 
 244              		.text
 245              		.section	.gnu.lto_es1.67eea12c,"",%progbits
 246 0000 789C6363 		.ascii	"x\234cc``\260\004bY\006\010\230\302\314\270s\347\233"
 246      6060B004 
 246      62590608 
 246      98C2CCB8 
 246      73E79B
 247 0013 DBECF57F 		.ascii	"\333\354\365\177\033:\032\032\036t\377\026`\234\303"
 247      1B3A1A1A 
 247      1E74FF16 
 247      609CC3
 248 0022 CCB08019 		.ascii	"\314\260\200\031\"5\263\351\366w~\213m\015\035\013\032"
 248      2235B3E9 
 248      F6777E8B 
 248      6D0D1D0B 
 248      1A
 249 0033 04E63033 		.ascii	"\004\34603Nef`\334\314X\317\300\270\205\321\202AZOO"
 249      4E656660 
 249      DCCC58CF 
 249      C0B885D1 
 249      82415A4F 
 250 0048 1F824A52 		.ascii	"\037\202JR\213K\364\213J\300tjY\211^2\003\000\257b\035"
 250      8B4BF48B 
 250      4AC0746A 
 250      59895E32 
 250      0300AF62 
 251 005d E6       		.ascii	"\346"
 252              		.text
 253              		.section	.gnu.lto_evhndl.67eea12c,"",%progbits
 254 0000 789C6363 		.ascii	"x\234cc``\350\004bY\006\010\230\302\314\270s\347\233"
 254      6060E804 
 254      62590608 
 254      98C2CCB8 
 254      73E79B
 255 0013 DBECF57F 		.ascii	"\333\354\365\177\033:\032\032\036t\257f\316\234\303"
 255      1B3A1A1A 
 255      1E74AF66 
 255      CE9CC3
 256 0022 CC308D19 		.ascii	"\3140\215\031\"u\364\377\367\003\374\335\314s\230\031"
 256      2275F4FF 
 256      F703FCDD 
 256      CC739819 
 257 0032 19995055 		.ascii	"\031\231PU.\370\306\004V\307\210n\304\202g\020\011&"
 257      2EF8C604 
 257      56C7886E 
 257      C4826710 
 257      0926
 258 0044 B0C4B7A3 		.ascii	"\260\304\267\243\023W\360[lk\350X\320`0\207\231\211"
 258      1357F05B 
 258      6C6BE858 
 258      D0603087 
 258      9989
 259 0056 D1508671 		.ascii	"\321P\206q\033c=\243\221\014\343V \265\205Q\206q3c="
ARM GAS  C:\Users\CHRIST~1\AppData\Local\Temp\cc36zMGe.s 			page 20


 259      1B633DA3 
 259      910CE356 
 259      20B58551 
 259      86713363 
 260 006b 03E37646 		.ascii	"\003\343vF\013\006i==}\010*I-.\321/*\001\323\251e%z"
 260      0B06693D 
 260      3D7D082A 
 260      492D2ED1 
 260      2F2A01D3 
 261 0083 C90C0070 		.ascii	"\311\014\000pp;D"
 261      703B44
 262              		.text
 263              		.section	.gnu.lto_evt1_setup.67eea12c,"",%progbits
 264 0000 789C254F 		.ascii	"x\234%O\261J\003Q\020\334y\233\\\256\221|@\314\007\244"
 264      B14A0351 
 264      10DC799B 
 264      5CAE917C 
 264      40CC07A4 
 265 0014 B9FC853F 		.ascii	"\271\374\205?\"\371\001=\322\3363\012I\310\025)46'\004"
 265      22F9013D 
 265      D2DE330A 
 265      49C81529 
 265      34362704 
 266 0028 2C442C44 		.ascii	",D,DL\002W\004\036\251\254$\330\212\215\205U\260\012"
 266      4C025704 
 266      1EA9AC24 
 266      D88A8D85 
 266      55B00A
 267 003b 588889F3 		.ascii	"X\210\211\363\356\2067\274awg\226\015DdE6\311\006\011"
 267      EE8637BC 
 267      61776796 
 267      0D446445 
 267      36C90609 
 268 004f 1598F1AB 		.ascii	"\025\230\361\253\310Yh\000/l\010I\014\022\244z\251X"
 268      C8596800 
 268      2F6C0849 
 268      0C12A47A 
 268      A958
 269 0061 F5BF72D3 		.ascii	"\365\277r\323\272\263\204\273^\0047vm5S\221\011\351"
 269      BAB384BB 
 269      5E043776 
 269      6D355391 
 269      09E9
 270 0073 8167B484 		.ascii	"\201g\264\204s\237O\273\253\203\240R\3261C \240x|\253"
 270      739F4FBB 
 270      AB83A052 
 270      D6314320 
 270      A0787CAB 
 271 0087 3ABBDBF7 		.ascii	":\273\333\367\255\333\336by\304\336\200\344\026\353"
 271      ADDBDE62 
 271      79C4DE80 
 271      E416EB
 272 0096 64A8C6AB 		.ascii	"d\250\306\253s'\033\\L\177R-\\\214\312\363\315{-\371"
 272      73271B5C 
 272      4C7F522D 
 272      5C8CCAF3 
 272      CD7B2DF9 
ARM GAS  C:\Users\CHRIST~1\AppData\Local\Temp\cc36zMGe.s 			page 21


 273 00aa B361A698 		.ascii	"\263a\246\230(c0G\342\033\037/\367\017:\342z\203=Q\307"
 273      28633047 
 273      E21B1F2F 
 273      F70F3AE2 
 273      7A833D51 
 274 00bf 028799AA 		.ascii	"\002\207\231\252|\2437\375MQ\370=\00641\331\360\302"
 274      7CA337FD 
 274      4D51F83D 
 274      063431D9 
 274      F0C2
 275 00d1 286A972F 		.ascii	"(j\227/\356\234\306\355\223\270\370;\3358:\226\177\335"
 275      EE9CC6ED 
 275      93B8F83B 
 275      DD383A96 
 275      7FDD
 276 00e3 024D86   		.ascii	"\002M\206"
 277              		.text
 278              		.section	.gnu.lto_evt2_setup.67eea12c,"",%progbits
 279 0000 789C254F 		.ascii	"x\234%O=k\002Q\020\334y\233\234G \370\003\022\177\300"
 279      3D6B0251 
 279      10DC799B 
 279      9C4720F8 
 279      03127FC0 
 280 0014 35E7FFF0 		.ascii	"5\347\377\360o\210\177\300\034i\357\305\010\032La\341"
 280      6F887FC0 
 280      1C69EFC5 
 280      081A4C61 
 280      E1
 281 0025 47738290 		.ascii	"Gs\202\220B\202\205\204\250p\335\303*\225\204\264!M"
 281      42828584 
 281      A870DDC3 
 281      2A9584B4 
 281      214D
 282 0037 0A2B4965 		.ascii	"\012+Ie\253f\236\016o\330a\367\315,\033\210\310\212"
 282      AB669E0E 
 282      6FD861F7 
 282      CD2C1B88 
 282      C88A
 283 0049 2C913724 		.ascii	",\2217$T`\272k\221\207\320\000^\330\020\222\032\244"
 283      5460BA6B 
 283      9187D000 
 283      5ED81092 
 283      1AA4
 284 005b 78D69E62 		.ascii	"x\326\236b\325\332\344&\232X\302\015\273W#\373i5S\221"
 284      D5DAE426 
 284      9A58C20D 
 284      BB5723FB 
 284      69355391 
 285 006f 01E98177 		.ascii	"\001\351\201wD\302\177\277o\207\376upq\356c\216@@1\373"
 285      44C27FBF 
 285      6F87FE75 
 285      7071EE63 
 285      8E404031 
 286 0084 BA74F670 		.ascii	"\272t\366plY\267{\301\260\302Y\233\344\026\353\344I"
 286      6C59B77B 
 286      C1B0C259 
 286      9BE416EB 
ARM GAS  C:\Users\CHRIST~1\AppData\Local\Temp\cc36zMGe.s 			page 22


 286      E449
 287 0096 8D578F4E 		.ascii	"\215W\217N\266h\216\247\314\360.\226<\337~\027\322\275"
 287      B6688EA7 
 287      CCF02E96 
 287      3CDF7E17 
 287      D2BD
 288 00a8 0D33C540 		.ascii	"\0153\305@\031\203\005R?\370\371x\235j\207\353\015\216"
 288      19830552 
 288      3FF8F978 
 288      9D6A87EB 
 288      0D8E
 289 00ba 44114BDC 		.ascii	"D\021K\334f\252\362\207\306x\326\303\311\357\321\246"
 289      66AAF287 
 289      C678D6C3 
 289      C9EFD1A6 
 290 00ca 89C98617 		.ascii	"\211\311\206\027\306q\371\374\222\332]R\256'\247Z\273"
 290      C671F9FC 
 290      92DA5D52 
 290      AE27A75A 
 290      BB
 291 00db 4FE2AAFC 		.ascii	"O\342\252\374\003\203\"L\272"
 291      0383224C 
 291      BA
 292              		.text
 293              		.section	.gnu.lto_evt3_setup.67eea12c,"",%progbits
 294 0000 789C254F 		.ascii	"x\234%O=O\002Q\020\334y+\3075\206\037 \374\000\232\343"
 294      3D4F0251 
 294      10DC792B 
 294      C735861F 
 294      20FC009A 
 295 0015 A7F8230C 		.ascii	"\247\370#\014\177@/\264\367\370H\300hA\241\330\234\201"
 295      7F402FB4 
 295      F7F848C0 
 295      6841A1D8 
 295      9C81
 296 0027 C4C2180B 		.ascii	"\304\302\030\013b\024\222\353^\250\250\010\2415ZXh!"
 296      621492EB 
 296      5EA8A808 
 296      A1355A58 
 296      6821
 297 0039 B1D21270 		.ascii	"\261\322\022p\3361y\2237\331\335\231\315\006\"2#+\344"
 297      DE317993 
 297      37D9DD99 
 297      CD062232 
 297      232BE4
 298 004c 11091598 		.ascii	"\021\011\025\230\376B\244\031\032\300\013\033B\022\203"
 298      FE42A419 
 298      1AC00B1B 
 298      421283
 299 005b 04977AA5 		.ascii	"\004\227z\245\230u?3S\275\267\204\273y/\335\332\245"
 299      98753F33 
 299      53BDB784 
 299      BB792FDD 
 299      DAA5
 300 006d D5544506 		.ascii	"\325TE\006\244\007\236Q\025\316}<m\257\017\203\203}"
 300      A4079E51 
 300      15CE7D3C 
ARM GAS  C:\Users\CHRIST~1\AppData\Local\Temp\cc36zMGe.s 			page 23


 300      6DAF0F83 
 300      837D
 301 007f 1D2F0804 		.ascii	"\035/\010\004\024\343U\301\331\355\256k\335\357\035"
 301      14E355C1 
 301      D9EDAE6B 
 301      DDEF1D
 302 008e FE8ED9EB 		.ascii	"\376\216\331\353\221\334b\235\234\253\361\252\355d\215"
 302      91DC629D 
 302      9CABF1AA 
 302      ED648D
 303 009d CEE86BA8 		.ascii	"\316\350k\250\271\213QY\266~-&\033\033\246\212\2012"
 303      B98B5159 
 303      B67E2D26 
 303      1B1BA68A 
 303      8132
 304 00af 061324BE 		.ascii	"\006\023$\276\3616\177x\324\013\2567\330\021%LQNU\345"
 304      F1367F78 
 304      D40BAE37 
 304      D811254C 
 304      514E55E5 
 305 00c3 07ADD1F7 		.ascii	"\007\255\321\367\020\271\337\243G\023\223\015/\214\242"
 305      10B9DFA3 
 305      4713930D 
 305      2F8CA2
 306 00d2 DAFEC5F5 		.ascii	"\332\376\305\365\263\270v\032\347\177\275\021G'\362"
 306      B3B8761A 
 306      E77FBD11 
 306      4727F2
 307 00e1 0F2A514D 		.ascii	"\017*QM\376"
 307      FE
 308              		.text
 309              		.section	.gnu.lto_thread2.67eea12c,"",%progbits
 310 0000 789C9553 		.ascii	"x\234\225SMk\023Q\024\275g^\276:\320\340\302\235A\202"
 310      4D6B1351 
 310      14BD675E 
 310      BE3AD0E0 
 310      C29D4182 
 311 0014 504A37C9 		.ascii	"PJ7\311\277\020\361o\304\201\012R\213\211\335\270\310"
 311      BF10F16F 
 311      C4810A52 
 311      8B89DDB8 
 311      C8
 312 0025 334D6982 		.ascii	"3Mi\202\202\242M\2242\312H\225\342*-\326j\264\3261~"
 312      82A24D94 
 312      32CA4895 
 312      E22A2DD6 
 312      6AB4D631 
 313 003a D59A34A9 		.ascii	"\325\2324\251.\\\010R\014\324M\020\"\202\024I\365\276"
 313      2E5C0852 
 313      0CD44D10 
 313      22821449 
 313      F5BE
 314 004c 17188CA6 		.ascii	"\027\030\214\246\242\217L\346\275w\357=\367\234{\230"
 314      A28F4CE6 
 314      BD77EF3D 
 314      F79C7B98 
 315 005c 0011D505 		.ascii	"\000\021\325\005\321a~\037\340\007\202`\\\334 :\033"
ARM GAS  C:\Users\CHRIST~1\AppData\Local\Temp\cc36zMGe.s 			page 24


 315      D1617E1F 
 315      E0078260 
 315      5CDC203A 
 315      1B
 316 006d 3200B591 		.ascii	"2\000\265\221!P\332@\032\347\305\214@ez\273l\214\314"
 316      2150DA40 
 316      1AE7C58C 
 316      40657ABB 
 316      6C8CCC
 317 0080 4B5EEE95 		.ascii	"K^\356\225e\363\252lHas}\221\037\265p\007#\234\266\231"
 317      65F3AA6C 
 317      4861737D 
 317      911FB570 
 317      07239CB6 
 318 0095 5DB0C539 		.ascii	"]\260\3059\216\000>>\266k\263\315\260:\032\210\362\261"
 318      8E003E3E 
 318      B66BB3CD 
 318      B03A1A88 
 318      F2B1
 319 00a7 EAE64BA6 		.ascii	"\352\346K\2468\010\342}3\277\363\311\034\276%eF\272"
 319      3808E27D 
 319      33BFF3C9 
 319      1CBE2565 
 319      46BA
 320 00b9 0D1CB185 		.ascii	"\015\034\261\205\3002\004\303\341.\"XB\204\370\212p"
 320      C03204C3 
 320      E12E2258 
 320      4284F88A 
 320      70
 321 00ca 0FC32AFB 		.ascii	"\017\303*\373\343\342na0\340\353\266\303}\004\010\274"
 321      E3E26E61 
 321      30E0EBB6 
 321      C37D0408 
 321      BC
 322 00db 29BDF1BB 		.ascii	")\275\361\273r\367\307\264t\2537\361\366\250\237(\307"
 322      72F7C7B4 
 322      74AB37F1 
 322      F6A89F28 
 322      C7
 323 00ec 71262F5D 		.ascii	"q&/]\312\013C\355&]\332\206\241 \256\275\333j\015\210"
 323      CA0B43ED 
 323      265DDA86 
 323      A120AEBD 
 323      DB6A0D88 
 324 0100 A86EBE30 		.ascii	"\250n\2760\373M\206\206\346t\363\017\267\367\335\230"
 324      FB4D8686 
 324      E674F30F 
 324      B7F7DD98 
 325 0110 946BD267 		.ascii	"\224k\322g\013\037\312\275\024\264\262\007\030\342\222"
 325      0B1FCABD 
 325      14B4B207 
 325      18E292
 326 011f E254A51E 		.ascii	"\342T\245\036TR|\032\241\\n\275\017\246;2\304\027\216"
 326      54527C1A 
 326      A15C6EBD 
 326      0FA63B32 
 326      C4178E
ARM GAS  C:\Users\CHRIST~1\AppData\Local\Temp\cc36zMGe.s 			page 25


 327 0132 22C5774B 		.ascii	"\"\305wK\223\355Ka\007\327a\013?Vxr\017\025\004\007"
 327      93ED4B61 
 327      07D7610B 
 327      3F567872 
 327      0F150407 
 328 0146 56DBEBCD 		.ascii	"V\333\353\3150'\347\244t\276\317h\214Gp\320\325\261"
 328      3027E7A4 
 328      74BECF68 
 328      8C4770D0 
 328      D5B1
 329 0158 8A34B530 		.ascii	"\2124\2650\265\265\370\345\214'4\253\347|y\305T\315"
 329      B5B5F8E5 
 329      8C2734AB 
 329      E77C79C5 
 329      54CD
 330 016a B5DEA2C0 		.ascii	"\265\336\242\300\257s\300c\004\340\252r\365\327\313"
 330      AF73C063 
 330      04E0AA72 
 330      F5D7CB
 331 0179 87730D15 		.ascii	"\207s\015\025'<a\350\177\341Z\351\3175\252\210>\365"
 331      273C61E8 
 331      7FE15AE9 
 331      CF35AA88 
 331      3EF5
 332 018b 883E439A 		.ascii	"\210>C\232\343\245VygP\315!\010\302sDl\021\342\011g"
 332      E3A55679 
 332      6750CD21 
 332      08C27344 
 332      6C11E209 
 333 01a0 A22A47B3 		.ascii	"\242*G\263e1Y\247\263_\327\3646\037(\262\243\204\027"
 333      653159A7 
 333      B35FD7F4 
 333      361F28B2 
 333      A38417
 334 01b3 5D56854E 		.ascii	"]V\205N\341\202\350\002}\025x\251\220L\017\351\177="
 334      E182E802 
 334      7D1578A9 
 334      904C0FE9 
 334      7F3D
 335 01c5 5AD31EF5 		.ascii	"Z\323\036\365\012\305\237B_\355a\312\\A\233\262\356"
 335      0AC59F42 
 335      5FED61CA 
 335      5C419BB2 
 335      EE
 336 01d6 697DBDB7 		.ascii	"i}\275\267)\015Su\353kJ\225GPS\345\265\376\246TUl\243"
 336      290D5375 
 336      EB6B4A95 
 336      475053E5 
 336      B5FEA654 
 337 01ed 9F297DB8 		.ascii	"\237)}\270\326\377bJ\303#\272\311Y\277\273\240\350\321"
 337      D6FF624A 
 337      C323BAC9 
 337      59BFBBA0 
 337      E8D1
 338 01ff 67649CF9 		.ascii	"gd\234\371B7K\255\034\367\340\357\301\340\317=\026\213"
 338      42374BAD 
 338      1CF7E0EF 
ARM GAS  C:\Users\CHRIST~1\AppData\Local\Temp\cc36zMGe.s 			page 26


 338      C1E0CF3D 
 338      168B
 339 0211 777F292B 		.ascii	"w\177)+\231\212\237J\351\2675\221\212%\010\343\302J"
 339      998A9F4A 
 339      E9B73591 
 339      8A2508E3 
 339      C24A
 340 0223 8E1FF232 		.ascii	"\216\037\3622N&U\374\370X\342\304\351cV<1jMXc\251dl"
 340      4E2655FC 
 340      F858E2C4 
 340      E963563C 
 340      316A4D58 
 341 023b 947E024C 		.ascii	"\224~\002L\252U\302"
 341      AA55C2
 342              		.text
 343              		.section	.gnu.lto_es2.67eea12c,"",%progbits
 344 0000 789C6363 		.ascii	"x\234cc``\260\004bY\006\010\230\302\314\270s\347\233"
 344      6060B004 
 344      62590608 
 344      98C2CCB8 
 344      73E79B
 345 0013 DBECF57F 		.ascii	"\333\354\365\177\033:\032\032\036t\377\021`\234\303"
 345      1B3A1A1A 
 345      1E74FF11 
 345      609CC3
 346 0022 CCB08019 		.ascii	"\314\260\200\031\"5\263\351\366w~\213m\015\035\013\032"
 346      2235B3E9 
 346      F6777E8B 
 346      6D0D1D0B 
 346      1A
 347 0033 04E63033 		.ascii	"\004\34603Nef`\334\314X\317\300\270\205\321\202AZOO"
 347      4E656660 
 347      DCCC58CF 
 347      C0B885D1 
 347      82415A4F 
 348 0048 1F824A52 		.ascii	"\037\202JR\213K\364\213J\300tjY\211^2\003\000\257\250"
 348      8B4BF48B 
 348      4AC0746A 
 348      59895E32 
 348      0300AFA8 
 349 005c 1DE7     		.ascii	"\035\347"
 350              		.text
 351              		.section	.gnu.lto_thread1.67eea12c,"",%progbits
 352 0000 789C6D50 		.ascii	"x\234mP\261N\002A\020\235w\003\307y\211Vv\\\324\216"
 352      B14E0241 
 352      109D7703 
 352      C7798956 
 352      765CD48E 
 353 0014 D0C06F18 		.ascii	"\320\300o\030?\301\326\320\033\275\330\336\212\030 "
 353      3FC1D6D0 
 353      1BBDD8DE 
 353      8A1820
 354 0023 9A680168 		.ascii	"\232h\001h\310\025\024\032K$\210zj\342\306\032\015\332"
 354      C815141A 
 354      4B24887A 
 354      6AE2C61A 
 354      0DDA
ARM GAS  C:\Users\CHRIST~1\AppData\Local\Temp\cc36zMGe.s 			page 27


 355 0035 5A298934 		.ascii	"Z)\2114\304\304\304\306\002t\026Z'\273\231\231\235\367"
 355      C4C4C4C6 
 355      0274165A 
 355      27BB9999 
 355      9DF7
 356 0047 E6CDAC4D 		.ascii	"\346\315\254MD\253 Z\024\237\224\013&X\207OD\333\216"
 356      44AB205A 
 356      149F940B 
 356      2658874F 
 356      44DB8E
 357 005a 05984039 		.ascii	"\005\230@9\240\300B\200}\2560\036\212\037\221\225>S"
 357      A0C04280 
 357      7DAE301E 
 357      8A1F9195 
 357      3E53
 358 006c 62FAA8EE 		.ascii	"b\372\250\356\036\253\236\342\220\211jr\215\241\215"
 358      1EAB9EE2 
 358      90896A72 
 358      8DA18D
 359 007b B4C09E0B 		.ascii	"\264\300\236\013\347!\357I\005\210I\372\365X\357\317"
 359      E721EF49 
 359      058849FA 
 359      F558EFCF 
 360 008b 99D4C292 		.ascii	"\231\324\302\222\244]]n\272\274\000\222\270_\376\031"
 360      A45D5D6E 
 360      BABC0092 
 360      B85FFE19 
 361 009b B8A953A5 		.ascii	"\270\251S\245\362J\367\260\0342\343\022,\355\320\201"
 361      F24AF7B0 
 361      1C32E312 
 361      2CEDD081 
 362 00ab 870B7824 		.ascii	"\207\013x$O\204+\244\014\372\2755\256\316\332\261\251"
 362      4F842BA4 
 362      0CFABD35 
 362      AECEDAB1 
 362      A9
 363 00bc 1CAE6193 		.ascii	"\034\256a\223\314N\315\227\270V\343\337\242\322\335"
 363      CC4ECD97 
 363      B856E3DF 
 363      A2D2DD
 364 00cb 13B457E2 		.ascii	"\023\264W\342\242j\360T\022\224\254\2404\225\3312\321"
 364      A26AF054 
 364      1294ACA0 
 364      3495D932 
 364      D1
 365 00dc 8EA6210A 		.ascii	"\216\246!\012\215{\351d\270\342\242h\370\232\010F\312"
 365      8D7BE964 
 365      B8E2A268 
 365      F89A0846 
 365      CA
 366 00ed 09395663 		.ascii	"\0119Vci\206\010\201)TG\325\203\311\006q|3n\340\205"
 366      69860881 
 366      295447D5 
 366      83C90671 
 366      7C336EE0 
 367 0102 6C0B79B7 		.ascii	"l\013y\267\3616\377\0177Q\023\001\302\255p\353l\376"
 367      F136FF0F 
ARM GAS  C:\Users\CHRIST~1\AppData\Local\Temp\cc36zMGe.s 			page 28


 367      37511301 
 367      C2AD70EB 
 367      6CFE
 368 0114 A953ECB6 		.ascii	"\251S\354\266\\Cw\000\334\031\366\014}\"\337\030T0\241"
 368      5C437700 
 368      DC19F60C 
 368      7D22DF18 
 368      5430A1
 369 0127 1B2B899E 		.ascii	"\033+\211\236\014%\304d&\223\235\036?\267\351g7\374"
 369      0C25C464 
 369      26939D1E 
 369      3FB7E967 
 369      37FC
 370 0139 89CF6DF9 		.ascii	"\211\317m\371\2315\302\372\037K\340xf"
 370      9935C2FA 
 370      1F4BE078 
 370      66
 371              		.text
 372              		.section	.gnu.lto_evt2_execute.part.0.67eea12c,"",%progbits
 373 0000 789CAD5A 		.ascii	"x\234\255ZkP\024W\026\356\333wf\230\027\003\3423:*h"
 373      6B501457 
 373      16EEDB77 
 373      66981703 
 373      E2333A2A 
 374 0015 48448D23 		.ascii	"HD\215#j\022\177l\245v+[[\225\332\365\317f\377m\325"
 374      6A127F6C 
 374      A5762B5B 
 374      5B95DAF5 
 374      CF66FF6D 
 375 002a A65C43E5 		.ascii	"\246\\C\345Q\030\263H\254\335\332\037\264\002\202\022"
 375      5118B348 
 375      ACDDDA1F 
 375      B4028212 
 376 003a 37047534 		.ascii	"7\004u48\310\304'j\360\035\015\017\021\021\025| *\212"
 376      38C8C427 
 376      6AF01D0D 
 376      0F111115 
 376      7C202A8A 
 377 004e 8A0F1005 		.ascii	"\212\017\020\005\211\210/\262\212\012\3569\367\366\014"
 377      89882FB2 
 377      8A0AEE39 
 377      F7F60C
 378 005d 3D3DDDE3 		.ascii	"==\335\343\020\227\322K\337\276\347\236\363\335s\316"
 378      1097D24B 
 378      DFBEE79E 
 378      F3DD73CE 
 379 006d 3D8F5693 		.ascii	"=\217V\223 \010K'\013B\021\021\204\026x&\203\004\022"
 379      20084B27 
 379      0B421111 
 379      84167826 
 379      830412
 380 0080 9D5B070F 		.ascii	"\235[\007\017\321Dd\277E1\2522Q\220\254\264\336)Hv*"
 380      D14464BF 
 380      4531AA32 
 380      5190ACB4 
 380      DE294876 
 381 0095 CF0C6C66 		.ascii	"\317\014lf\220gF63\3123\023\233\231\344Y\004\233E\310"
ARM GAS  C:\Users\CHRIST~1\AppData\Local\Temp\cc36zMGe.s 			page 29


 381      90674636 
 381      33CA3313 
 381      9B99E459 
 381      049B45C8 
 382 00a9 33339B99 		.ascii	"33\233\231\345\231\205\315,\362\314\312fVyfc3\233<\263"
 382      E59985CD 
 382      2CF2CCCA 
 382      66567966 
 382      63339B3C 
 383 00be B3995D9E 		.ascii	"\263\231]\236E\262Y\244<s\260\231\203D!\336\205\346"
 383      45B259A4 
 383      3C73B099 
 383      834421DE 
 383      85E6
 384 00d0 2842F041 		.ascii	"(B\360A2\023!-Z\244\006\243)\302l\261\332\354\221\216"
 384      3213212D 
 384      5AA406A3 
 384      29C26CB1 
 384      DAEC918E 
 385 00e4 289246BE 		.ascii	"(\222F\276\246+(\251\312j+\021\0236K\360S\271\352\202"
 385      A62B28A9 
 385      CA6A2B11 
 385      13364BF0 
 385      53B9EA82 
 386 00f8 B540AA97 		.ascii	"\265@\252\227\250\207\012\202\033\376\342\017\331C\022"
 386      A8870A82 
 386      1BFEE20F 
 386      D94312
 387 0107 04A03B93 		.ascii	"\004\240;\223\261\323Cs`\211\020\003L\037\234\312ou"
 387      B1D34373 
 387      60891003 
 387      4C1F9CCA 
 387      6F75
 388 0119 E05424B1 		.ascii	"\340T$\2610\315\364>\177&\3221\004)O\265=\337\025\031"
 388      30CDF43E 
 388      7F26D231 
 388      04294FB5 
 388      3DDF1519 
 389 012d BF5E9216 		.ascii	"\277^\222\026I\225\017'\346K\225\031\261\036J\311>B"
 389      49950F27 
 389      E64B9519 
 389      B11E4AC9 
 389      3E42
 390 013f 8127F991 		.ascii	"\201'\371\2218\311^\342d\274\221\317\363\202\375\026"
 390      38C95EE2 
 390      64BC91CF 
 390      F382FD16 
 391 014f CE76084C 		.ascii	"\316v\010L{\257\347\346Fp\266^\002\363k\231\205\355"
 391      7BAFE7E6 
 391      4670B65E 
 391      02F36B99 
 391      85ED
 392 0161 663A91F1 		.ascii	"f:\221\361\335s${\233\025\370V\002\322\256\2551\313"
 392      DD73247B 
 392      9B15F856 
 392      02D2AEAD 
 392      31CB
ARM GAS  C:\Users\CHRIST~1\AppData\Local\Temp\cc36zMGe.s 			page 30


 393 0173 25A94632 		.ascii	"%\251F2x\250\201\224r\316%\300\371\247~\316\005\233"
 393      78A88194 
 393      72CE25C0 
 393      F9A77ECE 
 393      059B
 394 0185 AEFE914E 		.ascii	"\256\376\221Na;O<\330\367\320 \357\274\031#m\220D\334"
 394      613B4F3C 
 394      D8F7D020 
 394      EFBC1923 
 394      6D9044DC 
 395 0199 56AEB9ED 		.ascii	"V\256\271\355H\337\376l\003\235\306\366](<_\343\220"
 395      48DFFE6C 
 395      039DC6F6 
 395      5D283C5F 
 395      E390
 396 01ab 4FD2B675 		.ascii	"O\322\266u\314\367\351\\\242\221Th\236\345\306\256\276"
 396      CCF7E95C 
 396      A2915468 
 396      9EE5C6AE 
 396      BE
 397 01bc 95912603 		.ascii	"\225\221&\0039H\342\311\001\370[\006\177\367\223xT%"
 397      3948E2C9 
 397      01F85B06 
 397      7FF79378 
 397      5425
 398 01ce A9242636 		.ascii	"\251$&6P?]\006S\371\205\322\030\221-\270)\023\271\361"
 398      503F5D06 
 398      53F985D2 
 398      18912DB8 
 398      2913B9F1 
 399 01e2 FA93161B 		.ascii	"\372\223\026\033\235\301\236\267W_~\344\023\337\236"
 399      9DC19EB7 
 399      575F7EE4 
 399      13DF9E
 400 01f1 F5DEB9C3 		.ascii	"\365\336\271\303\213\245\334\205f\324eUH\371\207A&9"
 400      8BA5DC85 
 400      66D46555 
 400      48F98741 
 400      2639
 401 0203 444CA41A 		.ascii	"DL\244\032\204\252\344\265\035\004\034\325(NTl\021\310"
 401      84AAE4B5 
 401      1D041CD5 
 401      284E546C 
 401      11C8
 402 0215 11203F1A 		.ascii	"\021 ?\032L\336\264f\362\337\004\\pS\212k\355\345Y\015"
 402      4CDEB466 
 402      F2DF045C 
 402      70538A6B 
 402      EDE5590D 
 403 0229 84FE9BC1 		.ascii	"\204\376\233\301\353l\313\2564\310\360N\027M\350\271"
 403      EB6CCBAE 
 403      34C8F04E 
 403      174DE8B9 
 404 0239 785B92F2 		.ascii	"x[\222\362$\342\241&R\023\002\037g\334\325c\"\265\210"
 404      24E2A126 
 404      5213021F 
 404      67DCD563 
ARM GAS  C:\Users\CHRIST~1\AppData\Local\Temp\cc36zMGe.s 			page 31


 404      22B588
 405 024c F318F236 		.ascii	"\363\030\3626\004`9\016XN\240\276`Pm[\225\353HP\252"
 405      0460390E 
 405      584EA0BE 
 405      60506D5B 
 405      95EB4850 
 406 0261 EBD7AAE8 		.ascii	"\353\327\252\350\024\212>\011r\352tTT\027\254\242\323"
 406      148A3E09 
 406      72EA7454 
 406      5417ACA2 
 406      D3
 407 0272 405EAFA7 		.ascii	"@^\257\247\242z\277\212^Y-g\021\333\231`\265\234\003"
 407      A27ABF8A 
 407      5E592D67 
 407      11DB9960 
 407      B59C03
 408 0285 F90DA896 		.ascii	"\371\015\250\226\206`\265\354\266\375_\324r\001E\237"
 408      8660B5EC 
 408      B6FD5FD4 
 408      7201459F 
 409 0295 07398D3A 		.ascii	"\0079\215:ji\014V\313E \277\244\247\226K\377?\2654!"
 409      6A690C56 
 409      CB4520BF 
 409      A4A7964B 
 409      FF3FB534 
 410 02aa B6CBC16A 		.ascii	"\266\313\301j\271\002\362\257\242Z`\200\310\355\200"
 410      B902F2AF 
 410      A25A6080 
 410      C8ED80
 411 02b9 B5BD556B 		.ascii	"\265\275Uk\312L(+\217\307\264\235\365R\372o=4\202\335"
 411      CA4C282B 
 411      8FC7B49D 
 411      F552FA6F 
 411      3D3482DD 
 412 02cd C4E94E32 		.ascii	"\304\351N2\225\013!\327H\274\212\272\362\220\270\032"
 412      950B21D7 
 412      48BC8ABA 
 412      F290B81A 
 413 02dd AF7810E9 		.ascii	"\257x\020\351uF\272\353n\317!\037i\375!\221E\003*\250"
 413      7546BAEB 
 413      6ECF211F 
 413      69FD2191 
 413      45032AA8 
 414 02f1 C193665D 		.ascii	"\301\223f]bs0q\313@8\337\030\010\347V]bK0\361\315\201"
 414      62733071 
 414      CB4038DF 
 414      1808E756 
 414      5D624B30 
 415 0308 C0B83510 		.ascii	"\300\2705\020\030m\003\201\321\316c&\213\235\030C!\226"
 415      186D0381 
 415      D1CE6326 
 415      8B9D1843 
 415      2196
 416 031a EE386B94 		.ascii	"\3568k\224\244\276\027Y\222t\33158\231\010\370N\024"
 416      A4BE1759 
 416      9274D935 
 416      389908F8 
ARM GAS  C:\Users\CHRIST~1\AppData\Local\Temp\cc36zMGe.s 			page 32


 416      4E14
 417 032c C0461407 		.ascii	"\300F\024\007\003\014V\243\200\233L\360h\213\200\301"
 417      030C56A3 
 417      809B4CF0 
 417      688B80C1 
 418 033c 62C69716 		.ascii	"b\306\227\026\034\2548\265\261=v\234G\342\036\007\016"
 418      1CAC38B5 
 418      B13D769C 
 418      47E21E07 
 418      0E
 419 034d 513844B3 		.ascii	"Q8D\263\225A\370\030\203\303`6\037\202\217Cq\030\306"
 419      9541F818 
 419      83C36036 
 419      1F828F43 
 419      7118C6
 420 0360 E6C3F171 		.ascii	"\346\303\361q\004\016\257!\217\221L\332(\224\346D\366"
 420      040EAF21 
 420      8F914CDA 
 420      2894E644 
 420      F6
 421 0371 A3F1E518 		.ascii	"\243\361\345\030\034\306\3424\226\355\211\303\3718\334"
 421      1CC6E234 
 421      96ED89C3 
 421      F938DC
 422 0380 331E87D7 		.ascii	"3\036\207\327q\210g+o\340\343\2338L@\232\004\306m\""
 422      7188672B 
 422      6FE0E39B 
 422      384C409A 
 422      04C66D22 
 423 0394 729B84DB 		.ascii	"r\233\204\333'\343\313\267p\230\202S\027>ME\352D\266"
 423      27E3CBB7 
 423      70988253 
 423      173E4D45 
 423      EA44B6
 424 03a7 7B1A3E4E 		.ascii	"{\032>N\307a\006\014\366\267\361\351\035\034\336\305"
 424      C761060C 
 424      F6B7F1E9 
 424      1D1CDEC5 
 425 03b7 E94C7C12 		.ascii	"\351L|\022\204lH\336\230\370\263i4\376\246K\340\316"
 425      846C48DE 
 425      98F8B369 
 425      34FEA64B 
 425      E0CE
 426 03c9 E2EF4E92 		.ascii	"\342\357N\222\341\335\3466b\244\310\247\230_KJ:\233"
 426      E1DDE636 
 426      62A4C8A7 
 426      985F4B4A 
 426      3A9B
 427 03db 22D27A25 		.ascii	"\"\322z%\210\015\221nj\004\003\334&ix\275\256\326l\331"
 427      880D916E 
 427      6A0403DC 
 427      266978BD 
 427      AED66CD9 
 428 03ef C6D2BD95 		.ascii	"\306\322\275\225\274\200\237(\322A\234\036\352\020\332"
 428      BC809F28 
 428      D2419C1E 
 428      EA10DA
ARM GAS  C:\Users\CHRIST~1\AppData\Local\Temp\cc36zMGe.s 			page 33


 429 03fe C8A258DC 		.ascii	"\310\242X\334\216P\200\205\3603I\337\233u\340\222\235"
 429      8E508085 
 429      F03349DF 
 429      9B75E092 
 429      9D
 430 040f B3143957 		.ascii	"\263\0249Wwf\325i\226\305\215`\255\237\301\264\235$"
 430      7766D569 
 430      96C58D60 
 430      AD9FC1B4 
 430      9D24
 431 0421 339653D0 		.ascii	"3\226S\320@\241Qnj\002\241w\270P\177\215\021M\014\244"
 431      40A1516E 
 431      6A02A177 
 431      B8507F8D 
 431      114D0CA4 
 432 0435 933881A1 		.ascii	"\2238\201\241\207\016\022n\221\214\246\367\373\267\373"
 432      870E126E 
 432      918CA6F7 
 432      FBB7FB
 433 0444 B94700F7 		.ascii	"\271G\000\367\273\262\343,\0017\255w\302\001\323\275"
 433      BBB2E32C 
 433      0137AD77 
 433      C201D3BD 
 434 0454 2DC358B6 		.ascii	"-\303X\266\015\024\024\343F\275\220.\020\344\241\203"
 434      0D1414E3 
 434      46BD902E 
 434      10E4A183 
 435 0464 E1186270 		.ascii	"\341\030bpP\232z/tP\"\367\230'guH\007\014(\337Db\311"
 435      509A7A2F 
 435      745022F7 
 435      98276775 
 435      48070C28 
 436 047c 7D58BB43 		.ascii	"}X\273C\026\335\270\347^\321:B\025\265Z\217\275G\345"
 436      16DDB8E7 
 436      5ED13A42 
 436      15B55A8F 
 436      BD47E5
 437 048f 90690E0E 		.ascii	"\220i\016\016\217S\377*\220\007\270fQ\257\235(\372\315"
 437      8F53FF2A 
 437      9007B866 
 437      51AF9D28 
 437      FACD
 438 04a1 3C942590 		.ascii	"<\224%\220\207\301\341\356\021\350\276\033\303]7\206"
 438      87C1E1EE 
 438      11E8BE1B 
 438      C35D3786 
 439 04b1 3B225C44 		.ascii	";\"\\D\205\257+\334\375\304\032\327A\012\245\325Pk\015"
 439      85AF2BDC 
 439      FDC41AD7 
 439      410AA5D5 
 439      506B0D
 440 04c4 C10DC5AD 		.ascii	"\301\015\305\255e\222\331 \002\352_H\034\013\250\367"
 440      6592D920 
 440      02EA5F48 
 440      1C0BA8F7 
 441 04d4 3B1B9A44 		.ascii	";\033\232DxC\376\013\332E\334\002y\314j\271\242\212"
 441      7843FE0B 
ARM GAS  C:\Users\CHRIST~1\AppData\Local\Temp\cc36zMGe.s 			page 34


 441      DA45DC02 
 441      79CC6AB9 
 441      A28A
 442 04e6 C3B7EC71 		.ascii	"\303\267\354q\235\362\356\241H\373p\373\356\3636\266"
 442      9DF2EEA1 
 442      48FB70FB 
 442      EEF336B6 
 443 04f6 FB09EE26 		.ascii	"\373\011\356&=\304\300L\317t \200\325\253J{:\217U\257"
 443      3DC4C04C 
 443      CF742080 
 443      D5AB4A7B 
 443      3A8F55AF 
 444 050a 539733ED 		.ascii	"S\2273\355\355\357\355\361\235\331\252>W\335\201!\200"
 444      EDEFEDF1 
 444      9DD9AA3E 
 444      57DD8121 
 444      80
 445 051b F829AED9 		.ascii	"\370)\256\331\324k\255''\217\026\3103\\\263\007\234"
 445      D46BAD27 
 445      278F16C8 
 445      335CB307 
 445      9C
 446 052c F7391CB3 		.ascii	"\3679\034\263\027\317\333\213\3667(\355?\214\345\272"
 446      17CFDB8B 
 446      F63728ED 
 446      3F8CE5BA 
 447 053c BAE2C7F7 		.ascii	"\272\342\307\367\255|\212\234\220\302[\320n\361\222"
 447      AD7C8A9C 
 447      90C25BD0 
 447      6EF192
 448 054b B560C7E1 		.ascii	"\265`\307\341\344\005\030\260\017\017\213\226k;Q\357"
 448      E40518B0 
 448      0F0F8B96 
 448      6B3B51EF 
 449 055b 70154B19 		.ascii	"p\025K\031\013\245\346=\2051Ey@1\202H\242\227\254\204"
 449      0BA5E63D 
 449      85314579 
 449      40318248 
 449      A297AC84 
 450 056f 0B83A204 		.ascii	"\013\203\242\004\262Pt\341I\233\037\355y\221\214\347"
 450      B25074E1 
 450      499B1FED 
 450      79918CE7 
 451 057f 603991F9 		.ascii	"`9\221\371\013f \245xT\377\"Qa~\236\201d\223\364\025"
 451      0B6620A5 
 451      7854FF22 
 451      51617E9E 
 451      816493F4 
 452 0594 B654D87C 		.ascii	"\266T\330|\332F2\201\244\213\006\015\325f\210L\265\315"
 452      DA463281 
 452      A48B060D 
 452      D566884C 
 452      B5CD
 453 05a6 1B57948E 		.ascii	"\033W\224\216a2P\275\351\356\305;n\272\307r\2477\362"
 453      613250BD 
 453      E9EEC53B 
 453      6EBAC772 
ARM GAS  C:\Users\CHRIST~1\AppData\Local\Temp\cc36zMGe.s 			page 35


 453      A737F2
 454 05b9 73AFEC5D 		.ascii	"s\257\354]\371\215|%\273\241\342\006\226\376\313\270"
 454      F98D7C25 
 454      BBA1E206 
 454      96FECBB8 
 455 05c9 1F2FA311 		.ascii	"\037/\243\021\366-\252\350\270\234i\345\333LJ\260\257"
 455      F62DAAE8 
 455      B89C69E5 
 455      DB4C4AB0 
 455      AF
 456 05da 315DA53F 		.ascii	"1]\245?=\370\310\001\027b\004\274\360R\236g{\316\334"
 456      3DF8C801 
 456      176204BC 
 456      F0529E67 
 456      7BCEDC
 457 05ed CDB681B6 		.ascii	"\315\266\201\266\026F{\350H\222%\246\221\305\"WW\365"
 457      16467BE8 
 457      489225A6 
 457      91C52257 
 457      57F5
 458 05ff B77772AD 		.ascii	"\267wr\255\211;\244\\I\002\277\030E\262AQd\"\273\013"
 458      893BA45C 
 458      4902BF18 
 458      45B24151 
 458      6422BB0B 
 459 0613 64899888 		.ascii	"d\211\230\210\342J{\212r\272\327\031\325\345\310^\333"
 459      E24A7B8A 
 459      72BAD719 
 459      D5E5C85E 
 459      DB
 460 0624 E7723912 		.ascii	"\347r9\022\031`\314\245\242\211\344\210A\265\302\261"
 460      1960CCA5 
 460      A289E488 
 460      41B5C2B1 
 461 0634 CB3376CC 		.ascii	"\3133v\314\020p\305\015!F\271\341k\330\260\0146\340"
 461      1070C50D 
 461      2146B9E1 
 461      6BD8B00C 
 461      36E0
 462 0646 904F2394 		.ascii	"\220O#\224'r\022\325\025wz!\036\341\273\275\351\017"
 462      277212D5 
 462      15777A21 
 462      1EE1BBBD 
 462      E90F
 463 0658 F21CDCFE 		.ascii	"\362\034\334\376\243\3117p\240\377\310\007\332w\354"
 463      A3C93770 
 463      A0FFC807 
 463      DA77EC
 464 0667 CA3333D8 		.ascii	"\31233\330\037~\274\353WA<\033Cr\231\361\011\223\204"
 464      1F7EBCEB 
 464      57413C1B 
 464      437299F1 
 464      099384
 465 067a 244F1BD3 		.ascii	"$O\033\3233E\231d+0\260\220oE\327J\010\237\214\200\344"
 465      33459964 
 465      2B30B090 
 465      6F45D74A 
ARM GAS  C:\Users\CHRIST~1\AppData\Local\Temp\cc36zMGe.s 			page 36


 465      089F8C80 
 466 068f 8177E0B1 		.ascii	"\201w\340\261;z7:\020o>5+1Y\030\246\362\252SGM\\\376"
 466      3B7A373A 
 466      106F3E35 
 466      2B315918 
 466      A6F2AA53 
 467 06a7 58004D96 		.ascii	"X\000M\226\313\342\033\262.^\263q\336\240O3Y\301dS\246"
 467      CBE21BB2 
 467      2E5EB371 
 467      DEA04F33 
 467      59C16453 
 468 06bc 1681AC64 		.ascii	"\026\201\254d\254\321\360\267\335\023\270\005-\300\036"
 468      ACD1F0B7 
 468      DD13B805 
 468      2DC01E
 469 06cb 032FC44F 		.ascii	"\003/\304O\250J\370;k\340\241c\3354\012\314\341\026"
 469      A84AF83B 
 469      6BE0A163 
 469      DD340ACC 
 469      E116
 470 06dd D3046EF1 		.ascii	"\323\004n\361\302\334\322\214H\036CkD\262J\204 jQl\311"
 470      C2DCD28C 
 470      481E436B 
 470      44B24A84 
 470      206A516C 
 471 06f2 66B2E3DC 		.ascii	"f\262\343\334\260\314Z\222\325b\032@\364\320qx\254\206"
 471      B0CC5A92 
 471      D5621A40 
 471      F4D07178 
 471      AC86
 472 0704 A51D145F 		.ascii	"\245\035\024_+\2174^\255\346\361^\320\206J\315\257\223"
 472      2B8F345E 
 472      ADE6F15E 
 472      D0864ACD 
 472      AF93
 473 0716 7C50F377 		.ascii	"|P\363w\3629\257\177\335\376\203\005\374\006u\3709*"
 473      F239AF7F 
 473      DDFE8305 
 473      FC0675F8 
 473      392A
 474 0728 658DC271 		.ascii	"e\215\302q<b\"\034B\300L\364\310\227\211lA\231h\020"
 474      3C62221C 
 474      42C04CF4 
 474      C897896C 
 474      41996810 
 475 073c 5016C099 		.ascii	"P\026\300\231\264\323\216\215+\352j\223\234v\354\374"
 475      B4D38E8D 
 475      2BEA6A93 
 475      9C76ECFC 
 476 074c 82946FAD 		.ascii	"\202\224o\255y\026\311/\310&\003Y+\242\336\026\313y"
 476      7916C92F 
 476      C8260359 
 476      2BA2DE16 
 476      CB79
 477 075e 27325044 		.ascii	"'2PD\274\233\306\200\210B\221\345\235\332\015\245\317"
 477      BC9BC680 
 477      884291E5 
ARM GAS  C:\Users\CHRIST~1\AppData\Local\Temp\cc36zMGe.s 			page 37


 477      9DDA0DA5 
 477      CF
 478 076f ED5C6746 		.ascii	"\355\\gF\342E\225\301\225\263{\350\033\312\324\023\251"
 478      E24595C1 
 478      95B37BE8 
 478      1BCAD413 
 478      A9
 479 0780 C83506A1 		.ascii	"\3105\006\241\302JY\352\273\365W\276\352\340\247\370"
 479      C24A59EA 
 479      BBF557BE 
 479      EAE0A7F8 
 480 0790 31EBE42E 		.ascii	"1\353\344.+\317|\204|/*3_\224f\346[\307\021\334|V\\"
 480      2BCF7C84 
 480      7C2F2A33 
 480      5F9466E6 
 480      5BC711DC 
 481 07a7 EAE0084C 		.ascii	"\352\340\010Ld=\"p\2502_\224B\274Q\350\244,\227\277"
 481      643D2270 
 481      A8325F94 
 481      42BC51E8 
 481      A42C97BF 
 482 07bb F069305A 		.ascii	"\360i0Z3\227o\320\325`4O\334\313\256\312\032\034\004"
 482      33976FD0 
 482      D560344F 
 482      DCCBAECA 
 482      1A1C04
 483 07ce AF54     		.ascii	"\257T"
 484 07d0 993A4613 		.ascii	"\231:F\023\357F\216\267{i\346c9SG\220M\210w\220\012"
 484      EF468EB7 
 484      7B69E663 
 484      39534790 
 484      4D887790 
 485 07e5 6F8C02AF 		.ascii	"o\214\002\257I\330KXj\3368\\#5\277\351\206\204,\220"
 485      49D84B58 
 485      6ADE385C 
 485      2335BFE9 
 485      86842C90 
 486 07f9 CD22A6E6 		.ascii	"\315\"\246\346\011\3143J\264\350\340PC\200\256\210#"
 486      09CC334A 
 486      B4E8E050 
 486      4380AE88 
 486      23
 487 080a E8BBD372 		.ascii	"\350\273\323r'\222k\332H\266\210\354\214\270\365\340"
 487      27926BDA 
 487      48B688EC 
 487      8CB8F5E0 
 488 081a 2A592583 		.ascii	"*Y%\203\203v\017\205\335[uU2XV\311uY%C\340\0252V\250"
 488      83760F85 
 488      DD5B7555 
 488      325856C9 
 488      75592543 
 489 0833 64A8A64A 		.ascii	"d\250\246J\266q@\371e\335\307\215\\%f\362\003\252d\210"
 489      B67140F9 
 489      65DDC78D 
 489      5C2566F2 
 489      03AA6488 
 490 0847 4A254315 		.ascii	"J%C\025*\211\020\252x9\326\356\303;L\323\204\305\272"
ARM GAS  C:\Users\CHRIST~1\AppData\Local\Temp\cc36zMGe.s 			page 38


 490      2A8910AA 
 490      7839D6EE 
 490      C33B4CD3 
 490      84C5BA
 491 085a 788771BC 		.ascii	"x\207q\274\305>\274\303\341\225\312\204#4\361n\347x"
 491      C53EBCC3 
 491      E195CA84 
 491      2334F16E 
 491      E778
 492 086c B7EDDB58 		.ascii	"\267\355\333XJ8^\013\331\201x\207\253\360\216P\3405"
 492      4A385E0B 
 492      D9817887 
 492      ABF08E50 
 492      E035
 493 087e 0B239805 		.ascii	"\013#\230\005{\265,#\027W;\305W)\256v\211\361aTSu!\252"
 493      7BB52C23 
 493      17573BC5 
 493      5729AE76 
 493      89F16154 
 494 0896 A9DDA26E 		.ascii	"\251\335\242n5\005\314\005\262G\014\252\246\366B~\371"
 494      3505CC05 
 494      B2470CAA 
 494      A6F6427E 
 494      F9
 495 08a7 11A32F0C 		.ascii	"\021\243/\014\376\324\255Q(\355\323L\335\373E_U\204"
 495      FED4AD51 
 495      28EDD34C 
 495      DDFB455F 
 495      5584
 496 08b9 FC5F5A15 		.ascii	"\374_Z\025\325\205\250\212~\022\365\253\242\0221\250"
 496      D585A88A 
 496      7E12F5AB 
 496      A21231A8 
 497 08c9 2A2A05B8 		.ascii	"**\005\270e\210\273\014s\320k\003\256y\312}5O)29\240"
 497      6588BB0C 
 497      73D06B03 
 497      AE79CA7D 
 497      354F2932 
 498 08df AC790025 		.ascii	"\254y\000%\373<\302k\236\263\320\203\005\0269\015\241"
 498      FB3CC26B 
 498      9EB3D083 
 498      0516390D 
 498      A1
 499 08f0 8B9C0A4D 		.ascii	"\213\234\012MM\035\014(r\316\366\0279^\217\\\344\214"
 499      4D1D0C28 
 499      72CEF617 
 499      395E8F5C 
 499      E48C
 500 0902 84636814 		.ascii	"\204ch\0245#yQ\263$K.jF\205U\305T\206\250b\016)\222"
 500      35237951 
 500      B3244B2E 
 500      6A468555 
 500      C55486A8 
 501 091a 5155C82A 		.ascii	"QU\310*&\317\241]\305\034\006\345W\353V1\325\301U\314"
 501      26CFA15D 
 501      C51C06E5 
 501      57EB5631 
ARM GAS  C:\Users\CHRIST~1\AppData\Local\Temp\cc36zMGe.s 			page 39


 501      D5C155CC 
 502 092e 11D87014 		.ascii	"\021\330p\024\025}\024\255\345\014\247l9\026\272l\251"
 502      157D14AD 
 502      E50CA76C 
 502      3916BA6C 
 502      A9
 503 093f F1952D47 		.ascii	"\361\225-G\364\312\226Z\271lA\002r\\Y\266T#\210\321"
 503      F4CA965A 
 503      B96C4102 
 503      725C59B6 
 503      542388D1 
 504 0953 41758A53 		.ascii	"Au\212S\267N9\341\253S\016#\257\223\376:e\203G\256S"
 504      B74E39E1 
 504      AB530E23 
 504      AF93FE3A 
 504      658347AE 
 505 0968 C6003F75 		.ascii	"\306\000?u\2352V\263N9\305\352\224Q\274.\031\023\242"
 505      9D3256B3 
 505      4E39C5EA 
 505      9451BC2E 
 505      1913A2
 506 097b 2EA9C3BA 		.ascii	".\251\303\272\304\031\\\227\274\264\0209\035\252\020"
 506      C4195C97 
 506      BCB41039 
 506      1DAA10
 507 098a A957D8FE 		.ascii	"\251W\330\376\014\026\"cY\316\330\341\221cp\254f\316"
 507      0C162263 
 507      59CED8E1 
 507      916370AC 
 507      66CE
 508 099c 38AB1B83 		.ascii	"8\253\033\203c\271&N=\220cp\034:q`\3411N\263\3608\307"
 508      63B9264E 
 508      3D906370 
 508      1C3A7160 
 508      E1314EB3 
 509 09b3 6370EFFD 		.ascii	"cp\357\375\372^\271\360\260\222\006\324\011\\\2038U"
 509      FA5EB9F0 
 509      B09206D4 
 509      095C8338 
 509      55
 510 09c4 E1314E11 		.ascii	"\3411N\021\206-\202\205\327\035\347\377\301\027\307"
 510      862D8285 
 510      D71DE7FF 
 510      C117C7
 511 09d3 030855A1 		.ascii	"\003\010U\241\361\272f\324?\317%6^\312(\221\243\276"
 511      F1BA66D4 
 511      3FCF2536 
 511      5ECA2891 
 511      A3BE
 512 09e5 8D5C4089 		.ascii	"\215\\@\211\343UQ\377u\2058\253\300\353\2142\237\202"
 512      E35551FF 
 512      758538AB 
 512      C0EB8C32 
 512      9F82
 513 09f7 E2359354 		.ascii	"\3425\223T\243\256\202\342y\222\352\365)\350\015x\245"
 513      A3AE82E2 
 513      7992EAF5 
ARM GAS  C:\Users\CHRIST~1\AppData\Local\Temp\cc36zMGe.s 			page 40


 513      29E80D78 
 513      A5
 514 0a08 4A526F6A 		.ascii	"JRoj\302\275\310\341>\273\275\342\222\014\327N.!\334"
 514      C2BDC8E1 
 514      3EBBBDE2 
 514      920CD74E 
 514      2E21DC
 515 0a1b 375470DF 		.ascii	"7Tp\337T\300\265\011\274\314hq\352\227\031\227\3452"
 515      54C0B509 
 515      BCCC6871 
 515      EA971997 
 515      E532
 516 0a2d C3871388 		.ascii	"\303\207\023\210\012\032\233;-\264[d\225\356\316\374"
 516      0A1A9B3B 
 516      2DB45B64 
 516      95EECEFC 
 517 0a3d C79259CE 		.ascii	"\307\222Y\316Z\327\266\216\364}\363O Mbp\316\272\"\006"
 517      5AD7B68E 
 517      F47DF34F 
 517      204D6270 
 517      CEBA2206 
 518 0a51 748409EA 		.ascii	"t\204\011\352Z9\301\013\327F\345\242\023\3115p\321\253"
 518      5A39C10B 
 518      D746E5A2 
 518      13C93570 
 518      D1AB
 519 0a63 B28B563C 		.ascii	"\262\213V<8\336\352\340\376\357}\354a<\256\243\223\262"
 519      38DEEAE0 
 519      FEEF7DEC 
 519      613CAEA3 
 519      93B2
 520 0a75 4BD00C58 		.ascii	"K\320\014X\301\375\363{\236\344t-\012\012O\245\016\212"
 520      C1FDF37B 
 520      9EE4742D 
 520      0A0A4FA5 
 520      0E8A
 521 0a87 00E41035 		.ascii	"\000\344\0205, \342\264@\304\271\201\267\025\206p \265"
 521      2C20E2B4 
 521      40C4B981 
 521      B7158670 
 521      20B5
 522 0a99 2A2029C2 		.ascii	"* )\302Ms\353\216\021\305P\010\333\311M\026\0038g\201"
 522      4D73EB8E 
 522      11C55008 
 522      DBC94D16 
 522      03386781 
 523 0aad DC125DE1 		.ascii	"\334\022]\341pm\323>hsNA\004;i\273\377\244\267\341\244"
 523      706DD33E 
 523      68734E41 
 523      043B69BB 
 523      FFA4B7E1 
 524 0ac2 7ECFC143 		.ascii	"~\317\301C)\3553 \223t\210\361A\320\014\301\320~\326"
 524      29ED3320 
 524      937488F1 
 524      41D00CC1 
 524      D07ED6
 525 0ad5 B1C1336E 		.ascii	"\261\3013n\203;~d\235!mP\0166\350\320\261\301]\260A"
ARM GAS  C:\Users\CHRIST~1\AppData\Local\Temp\cc36zMGe.s 			page 41


 525      833B7E64 
 525      9D216D50 
 525      0E36E8D0 
 525      B1C15DB0 
 526 0aea 176AAB4B 		.ascii	"\027j\253K\303\006\032\220\356\275\314\006\367}6\270"
 526      C3061A90 
 526      EEBDCC06 
 526      F77D36B8 
 527 0afa 8B5C1F68 		.ascii	"\213\\\037h\330@\203\353C=\033\254\3456x\344?i\267\322"
 527      D84083EB 
 527      433D1BAC 
 527      E53678E4 
 527      3F69B7D2 
 528 0b0e 061DAF62 		.ascii	"\006\035\257b\203_4l\240\341\036\377\325\261\301\013"
 528      835F346C 
 528      A0E11EFF 
 528      D5B1C10B 
 529 0b1e 6E83C77E 		.ascii	"n\203\307~dO82o\217SFs>+\273\313H\327\360\177\354\250"
 529      644F3832 
 529      6F8F5346 
 529      733E2BBB 
 529      CB48D7F0 
 530 0b35 E92EF59A 		.ascii	"\351.\365\232\202\241\331I\217\006\264\247\014\332\206"
 530      82A1D949 
 530      8F06B4A7 
 530      0CDA86
 531 0b44 DA6B4514 		.ascii	"\332kE\024\244I>iv\366\261\231\011{\246\026\366\335"
 531      A4493E69 
 531      76F6B199 
 531      097BA616 
 531      F6DD
 532 0b56 E6DE7A4A 		.ascii	"\346\336zJ\013\271\260\314e\027*m\301\302\214\344\271"
 532      0BB9B0CC 
 532      65172A6D 
 532      C1C28CE4 
 532      B9
 533 0b67 86B05E28 		.ascii	"\206\260^(iyl\316\002+\346\325\021\225\373,\257p0\032"
 533      69796CCE 
 533      022BE6D5 
 533      1195FB2C 
 533      AF70301A 
 534 0b7b 00853A93 		.ascii	"\000\205:\223\275hx\200\027\365\201\027\275@{\277\020"
 534      BD687880 
 534      17F58117 
 534      BD407BBF 
 534      10
 535 0b8c D5116D92 		.ascii	"\325\021m\222\033*\271>\\\223hZX\221g!\325\324x,\252"
 535      1B2AB93E 
 535      5C93685A 
 535      58916721 
 535      D5D4782C 
 536 0ba1 7B11F5A9 		.ascii	"{\021\365\251;\235\246\005\352(6@A\031\300\004N\305"
 536      3B9DA605 
 536      EA283640 
 536      4119C004 
 536      4EC5
 537 0bb3 03FEE47E 		.ascii	"\003\376\344~\227\371E\3512x&\305\254\367U\334)S\235"
ARM GAS  C:\Users\CHRIST~1\AppData\Local\Temp\cc36zMGe.s 			page 42


 537      97F945E9 
 537      327826C5 
 537      ACF755DC 
 537      29539D
 538 0bc6 76B43D7D 		.ascii	"v\264=}\261\366\341\274\353\013\230;e\371\317\227M\271"
 538      B1F6E1BC 
 538      EB0B983B 
 538      65F9CF97 
 538      4DB9
 539 0bd8 857B7D16 		.ascii	"\205{}\026\036\220\007-ah6/o\310\212\220=\210\011\260"
 539      1E90072D 
 539      6168362F 
 539      6FC88A90 
 539      3D8809B0 
 540 0bec B37FB260 		.ascii	"\263\177\262`\374\227\252\371\017\310ir\030\377C\315"
 540      FC97AAF9 
 540      0FC86972 
 540      18FF43CD 
 541 0bfc BB1FD878 		.ascii	"\273\037\330x{k _\323\020>T\357\300-\010\013\025\245"
 541      7B6B205F 
 541      D3103E54 
 541      EFC02D08 
 541      0B15A5
 542 0c0f E943CBA0 		.ascii	"\351C\313\240\345\372\017\244U6h\370\3202\\\373F\313"
 542      E5FA0FA4 
 542      553668F8 
 542      D0325CFB 
 542      46CB
 543 0c21 8734D49C 		.ascii	"\2074\324\234\033\302\207\276\365\3538\217\371\220B"
 543      1BC287BE 
 543      F5EB388F 
 543      F99042
 544 0c30 4BB1012A 		.ascii	"K\261\001*ZN\361\277\037\004\373\020\236\240\177\266"
 544      5A4EF1BF 
 544      1F04FB10 
 544      9EA07FB6 
 545 0c40 24609683 		.ascii	"$`\226\2033\366\025a\264~\017\272\202\276J\017\272\222"
 545      33F61561 
 545      B47E0FBA 
 545      82BE4A0F 
 545      BA92
 546 0c52 86D38356 		.ascii	"\206\323\203V\207\350A\241z\321\353AW\242uV\321\240"
 546      87E841A1 
 546      7AD1EB41 
 546      57A27556 
 546      D1A0
 547 0c64 1E743580 		.ascii	"\036t5\200\371\016-\360\035\015\331\203\362\217\\\352"
 547      F90E2DF0 
 547      1D0DD983 
 547      F28F5CEA 
 548 0c74 CE6A0DF5 		.ascii	"\316j\015\365\365\240\310\377\245=hu\210\036\324C\365"
 548      F5A0C8FF 
 548      A53D6875 
 548      881ED443 
 548      F5
 549 0c85 7BD0021A 		.ascii	"{\320\002\032\324\203\256\005\270\205\210\033\206|:"
 549      D483AE05 
ARM GAS  C:\Users\CHRIST~1\AppData\Local\Temp\cc36zMGe.s 			page 43


 549      B885881B 
 549      867C3A
 550 0c94 61C03DA8 		.ascii	"a\300=\250\227\312=\350Zd\362=U\364\240\200\222\375"
 550      97CA3DE8 
 550      5A64F23D 
 550      55F4A080 
 550      92FD
 551 0ca6 2F06DE83 		.ascii	"/\006\336\203\326\006\365\240'B\367\240\35345\265\236"
 551      D606F5A0 
 551      2742F7A0 
 551      EB3435B5 
 551      9E
 552 0cb7 2A7BD0DA 		.ascii	"*{\320\332\376\036\264\250@\356A\023\340\030\032=h\002"
 552      FE1EB4A8 
 552      40EE4113 
 552      E0181A3D 
 552      6802
 553 0cc9 EF41B7F9 		.ascii	"\357A\267\371z\320\211a\365\240\033\250~\017\272\221"
 553      7AD08961 
 553      F5A01BA8 
 553      7E0FBA91 
 554 0cd9 F6F7219B 		.ascii	"\366\367!\233h\250\036\364\202N\017\272\031\224_D\365"
 554      68A81EF4 
 554      824E0FBA 
 554      19945F44 
 554      F5
 555 0cea 7AD0221A 		.ascii	"z\320\"\032\324\203n\201\015[Q\321[\321Z\223\302\351"
 555      D4836E81 
 555      0D5B51D1 
 555      5BD15A93 
 555      C2E9
 556 0cfc 41B7D190 		.ascii	"A\267\321\220=\350\017T\356A\267P\235\036\264\230\362"
 556      3DE80F54 
 556      EE41B750 
 556      9D1EB498 
 556      F2
 557 0d0d 1E1409C8 		.ascii	"\036\024\011\310v\252\350A\213\020\304\344\240\036t"
 557      76AAE841 
 557      8B10C4E4 
 557      A01E74
 558 0d1c 926E0FBA 		.ascii	"\222n\017\272\203\312=\350f\344\265\223\372z\320\037"
 558      83CA3DE8 
 558      66E4B593 
 558      FA7AD01F 
 559 0d2c 0AE41EF4 		.ascii	"\012\344\036\364-\340\247\356A\247h\366\240\273(\366"
 559      2DE0A7EE 
 559      41A768F6 
 559      A0BB28F6 
 560 0d3c A013790F 		.ascii	"\240\023y\017\372\226V\017\372\032\017R\273Y\014\273"
 560      FA96560F 
 560      FA1A0F52 
 560      BB590CBB 
 561 0d4c 51FEED73 		.ascii	"Q\376\355s[\334&\252\370\267\265{\005]\305h\374\325"
 561      5BDC26AA 
 561      F8B7B57B 
 561      055DC568 
 561      FCD5
ARM GAS  C:\Users\CHRIST~1\AppData\Local\Temp\cc36zMGe.s 			page 44


 562 0d5e 6CC35B64 		.ascii	"l\303[d\017\215\343;\366\322\264_\321\262\376HC\264"
 562      0F8DE33B 
 562      F6D2B45F 
 562      D1B2FE48 
 562      43B4
 563 0d70 ACFB14AE 		.ascii	"\254\373\024\256\262\237B\313:\205\265\254\373\013\214"
 563      B29F42CB 
 563      3A85B5AC 
 563      FB0B8C
 564 0d7f DA9F4847 		.ascii	"\332\237HG\002\335OpB\3377Qe?&;\374\335_\344n\314\205"
 564      02DD4F70 
 564      42DF3751 
 564      653F263B 
 564      FCDD5FE4 
 565 0d96 FE1ED8AE 		.ascii	"\376\036\330\256N\325lWKxnX\377s\311a\371\023g$)\245"
 565      4ED56C57 
 565      4B786E58 
 565      FF73C961 
 565      F9136724 
 566 0dac 4E76635C 		.ascii	"Nvc\\\252vu\252\242!\263\013\374#\347\301\002\271\177"
 566      AA7675AA 
 566      A221B30B 
 566      FC23E7C1 
 566      02B97F
 567 0dbf 4CD4EC1F 		.ascii	"L\324\354\037\313\250^\377\230(\177\224},#\236\006\257"
 567      CBA85EFF 
 567      98287F94 
 567      7D2C239E 
 567      06AF
 568 0dd1 54FDE374 		.ascii	"T\375\343t\315\376\261\234#\356\275\262\260O\344\210"
 568      CDFEB19C 
 568      23EEBDB2 
 568      B04FE488 
 569 0de1 1DE40022 		.ascii	"\035\344\000\"\236\246\352\037\247+\340F2\270\351\336"
 569      9EA6EA1F 
 569      A72BE046 
 569      32B8E9DE 
 570 0df1 5B5A0946 		.ascii	"[Z\011F\356\037+\250\3573u\246\267C\213n\212\233\216"
 570      EE1F2BA8 
 570      EF3375A6 
 570      B7438B6E 
 570      8A9B8E
 571 0e04 C22F5E61 		.ascii	"\302/^a\226d\225!\322\351!\177:\255\012]\222\035F\277"
 571      96649521 
 571      D2E9217F 
 571      3AAD0A5D 
 571      921D46BF 
 572 0e18 73314C77 		.ascii	"s1LwC`\252\0163\305\037\011\201\351\250\037\323\261"
 572      4360AA0E 
 572      33C51F09 
 572      81E9A81F 
 572      D3B1
 573 0e2a D029BE86 		.ascii	"\320)\276\206c\372\265E_\255F\321\247\241\276\343:E"
 573      63FAB545 
 573      5FAD46D1 
 573      A7A1BEE3 
 573      3A45
ARM GAS  C:\Users\CHRIST~1\AppData\Local\Temp\cc36zMGe.s 			page 45


 574 0e3c DF235EF4 		.ascii	"\337#^\364\235\360\243=I\323x\230}\222s\353\234M\035"
 574      9DF0A33D 
 574      49D37898 
 574      7D9273EB 
 574      9C4D1D
 575 0e4f 669F401F 		.ascii	"f\237@\037W\353\257\236\234\001\221\363\024D\316:\214"
 575      57EBAF9E 
 575      9C0191F3 
 575      1444CE3A 
 575      8C
 576 0e60 3A7518B4 		.ascii	":u\030\264f\204\203\3524\325k\345\206\224\227\022TS"
 576      668483EA 
 576      34D56BE5 
 576      86949712 
 576      5453
 577 0e72 3D957BB9 		.ascii	"=\225{\271S\310\371\214\234\374r\312?a\276_\313S9x>"
 577      53C8F98C 
 577      9CFC72CA 
 577      3F61BE5F 
 577      CB533978 
 578 0e87 E15EFA76 		.ascii	"\341^\372v\230\202\317\206\260\3349\277.\032@\027\375"
 578      9882CF86 
 578      B0DC39BF 
 578      2E1A4017 
 578      FD
 579 0e98 17E81DED 		.ascii	"\027\350\035\355\357E\334W\266?\354\336n\342\027(\212"
 579      EF45DC57 
 579      B63FECDE 
 579      6EE21728 
 579      8A
 580 0ea9 5CC00BF4 		.ascii	"\\\300\013\364\266\352\002\275\243\270@\016\270@r\345"
 580      B6EA02BD 
 580      A3B8400E 
 580      B84072E5 
 581 0eb9 35206337 		.ascii	"5 c7\206W\341_\3241\366cn\354K\376\003^\016i\354\247"
 581      8657E15F 
 581      D431F663 
 581      6EEC4BFE 
 581      035E0E69 
 582 0ecf 60EC461D 		.ascii	"`\354F\035c7\201\261\257\240I\256\240\261\337\015\007"
 582      633781B1 
 582      AFA049AE 
 582      A0B1DF0D 
 582      07
 583 0ee0 D5D5971A 		.ascii	"\325\325\227\032\373\232\317\330M\310\371\272\317\330"
 583      FB9ACFD8 
 583      4DC8F9BA 
 583      CFD8
 584 0eee 07B8B11B 		.ascii	"\007\270\261\033\325\306\236\031\246\340\346\020\306"
 584      D5C69E19 
 584      A6E0E610 
 584      C6
 585 0efb 6EF1EBE2 		.ascii	"n\361\353\342\206\302\330\202\246\251[\271\251\317\336"
 585      86C2D882 
 585      A6A95BB9 
 585      A9CFDE
 586 0f0a 3F5960E3 		.ascii	"?Y`\343\246\216&7\321\3243\321\324h\327(\366\277\207"
ARM GAS  C:\Users\CHRIST~1\AppData\Local\Temp\cc36zMGe.s 			page 46


 586      A68E2637 
 586      D1D433D1 
 586      D468D728 
 586      F6BF87
 587 0f1d A0B6BCB2 		.ascii	"\240\266\274\262\345\000\213\344\030z\2605n\256\314"
 587      E5008BE4 
 587      187AB035 
 587      6EAECC
 588 0f2c 33CEDC27 		.ascii	"3\316\334'e\003\0368\336-:\023\013\320+\026FR\246E\322"
 588      65031E38 
 588      DE2D3A13 
 588      0BD02B16 
 588      4652A645 
 589 0f41 06245DE0 		.ascii	"\006$]\340!\354'\033\252\007`\014\263QS\246\270\370"
 589      21EC271B 
 589      AA07600C 
 589      B35153A6 
 589      B8F8
 590 0f53 9FD4A4F9 		.ascii	"\237\324\244\371\251\256\224T\366;iA\352\2249\202-u"
 590      A9AE9454 
 590      F63B6941 
 590      EA943982 
 590      2D75
 591 0f65 76CA2749 		.ascii	"v\312'I\251\037\245~67\211&%O\203\277\211dn\304\374"
 591      A91FA57E 
 591      36378926 
 591      254F83BF 
 591      89646EC4 
 592 0f7a 7FCDC737 		.ascii	"\177\315\3077c\374;\347\315\307}\237}1'\371\253\217"
 592      63FC3BE7 
 592      CDC77D9F 
 592      7D3127F9 
 592      AB8F
 593 0f8c 935C733E 		.ascii	"\223\\s>\205\315\237\012cu\227a?\254\033\027\314N\376"
 593      85CD9F0A 
 593      63759761 
 593      3FAC1B17 
 593      CC4EFE
 594 0f9f 2A       		.ascii	"*"
 595 0fa0 294145F5 		.ascii	")AE\365\345\274\224\324\371\256\337\375y\326\373\263"
 595      E5BC94D4 
 595      F9AEDFFD 
 595      79D6FBB3 
 596 0fb0 FE09A473 		.ascii	"\376\011\244s\346\245$}\264\340\335\271@?YI\231\364"
 596      E6A5247D 
 596      B4E0DDB9 
 596      403F5949 
 596      99F4
 597 0fc2 CF54D7FB 		.ascii	"\317T\327\373\263>\374\340\303~\266H9g\356\037\276\372"
 597      B33EFCE0 
 597      C37EB648 
 597      3967EE1F 
 597      BEFA
 598 0fd4 620E1047 		.ascii	"b\016\020G\317\372\360\317\261\177\237=?\351\313\224"
 598      CFFAF0CF 
 598      B17F9F3D 
 598      3FE9CB94 
ARM GAS  C:\Users\CHRIST~1\AppData\Local\Temp\cc36zMGe.s 			page 47


 599 0fe4 CF26C7C6 		.ascii	"\317&\307\306O\025\304\024!bn\322\334y)\377\022\\JF"
 599      4F15C414 
 599      21626ED2 
 599      DC7929FF 
 599      125C4A46 
 600 0ff8 9FCE4E96 		.ascii	"\237\316N\226e~\370\227"
 600      657EF897 
 601 1000 59D3A7B9 		.ascii	"Y\323\247\271\376\364\247\337\273\376\362\301\254\005"
 601      FEF4A7DF 
 601      BBFEF2C1 
 601      AC05
 602 100e 89AEF9A9 		.ascii	"\211\256\371\251\037%'\177\014\274&\205\001\021\365"
 602      1F25277F 
 602      0CBC2685 
 602      0111F5
 603 101d 9102B4E3 		.ascii	"\221\002\264\343u\017\235\372iJ\322\354\217\361\340"
 603      750F9DFA 
 603      694AD2EC 
 603      8FF1E0
 604 102c 3469FE97 		.ascii	"4i\376\227\343t\351\222\026$}\221\312\311\222\2774\361"
 604      E374E992 
 604      16247D91 
 604      CAC992BF 
 604      34F1
 605 103e 99F83BE1 		.ascii	"\231\370;\341\177*\274\341\377"
 605      7F2ABCE1 
 605      FF
 606              		.text
 607              		.section	.gnu.lto_evt2_execute.67eea12c,"",%progbits
 608 0000 789C7594 		.ascii	"x\234u\224\317O\023A\024\307\347\355\333\335\226\266"
 608      CF4F1341 
 608      14C7E7ED 
 608      DBDD96B6 
 609 0010 9480DC6C 		.ascii	"\224\200\334lH/\034\340\000A\377\004\217\236\374\013"
 609      482F1CE0 
 609      0041FF04 
 609      8F9EFC0B 
 610 0020 8C318D31 		.ascii	"\2141\2151\221\0136^;BkK\344@\242\224\204l\003\006#"
 610      910B365E 
 610      3B426B4B 
 610      E440A294 
 610      846C0306 
 611 0035 0207410A 		.ascii	"\002\007A\012XE\\*\225\362\273\230\2101\0040\376\250"
 611      58455C2A 
 611      95F2BB98 
 611      88310430 
 611      FEA8
 612 0047 896930E0 		.ascii	"\211i0\340\301\003\277|\263\263\204\037\326\311\316"
 612      C103BF7C 
 612      B3B3841F 
 612      D6C9CE
 613 0056 9B7D9DF9 		.ascii	"\233}\235\371~\337|f'\325\031c\243*c\027i\274B\035\034"
 613      7EDF7C66 
 613      27D51963 
 613      A32A6317 
 613      69BC421D 
 614 006b 0C94F625 		.ascii	"\014\224\366%\306\356:\025E7\033\030wa\316\307\270\007"
ARM GAS  C:\Users\CHRIST~1\AppData\Local\Temp\cc36zMGe.s 			page 48


 614      C6EE3A15 
 614      45371B18 
 614      7761CEC7 
 614      B807
 615 007d ED4CB532 		.ascii	"\355L\2652\325\3164+\323@\027\022\320\001\304\310\235"
 615      D5CE342B 
 615      D3401712 
 615      D001C4C8 
 615      9D
 616 008e C0420AAA 		.ascii	"\300B\012\252\232\016!h\303\207\010\351h>\245\324\364"
 616      9A0E2168 
 616      C38708E9 
 616      683EA5D4 
 616      F4
 617 009f 716A66E7 		.ascii	"qjf\347\252+\301s\034\015d,N]4\030\201\032F\353V\302"
 617      AA2BC173 
 617      1C0D642C 
 617      4E5D3418 
 617      811A46EB 
 618 00b5 4306DEA7 		.ascii	"C\006\336\247)\000\225\322\355\305\256\257^\221*\340"
 618      290095D2 
 618      EDC5AEAF 
 618      5E912AE0 
 619 00c5 A734D2B3 		.ascii	"\2474\322\263\267\253`\025\210\225\213\371\275\341\322"
 619      B7AB6015 
 619      88958BF9 
 619      BDE1D2
 620 00d4 EA5ECE9B 		.ascii	"\352^\316\233\271\271S\333\305\315\260\337@\2041@\362"
 620      B9B953DB 
 620      C5CDB0DF 
 620      40843140 
 620      F2
 621 00e5 8451F041 		.ascii	"\204Q\360A\022|\226\267\360\331K\214\227H\333JJ\367"
 621      127C96B7 
 621      F0D94B8C 
 621      9748DB4A 
 621      4AF7
 622 00f7 37DBDB1D 		.ascii	"7\333\333\035\322\266\007(\337\210t\377pb\255\345;\222"
 622      D2B60728 
 622      DF8874FF 
 622      7062ADE5 
 622      3B92
 623 0109 890DBAC8 		.ascii	"\211\015\272\310\327\244\235n\015T<\340<\313U\003Ux"
 623      D7A49D6E 
 623      0D543CE0 
 623      3CCB5503 
 623      5578
 624 011b 299D53E4 		.ascii	")\235S\344\374\342\3309\361d\3752\326Y\312\371\355\261"
 624      FCE2D839 
 624      F164FD32 
 624      D659CAF9 
 624      EDB1
 625 012d 1DD5567E 		.ascii	"\035\325V~\253\340\217\271\"d\023Ee\231\203\361\230"
 625      ABE08FB9 
 625      22641345 
 625      659983F1 
 625      98
ARM GAS  C:\Users\CHRIST~1\AppData\Local\Temp\cc36zMGe.s 			page 49


 626 013e 8A172CDD 		.ascii	"\212\027,\335j\367\207\254\327&\311\017T=j\221\0255"
 626      6AF787AC 
 626      D726C90F 
 626      543D6A91 
 626      1535
 627 0150 982CCAF2 		.ascii	"\230,\312\362e\370\240\243TW\341\015T\303k\352\257\250"
 627      65F8A0A3 
 627      5457E10D 
 627      54C36BEA 
 627      AFA8
 628 0162 8F43B53C 		.ascii	"\217C\265<J0Ag@\243\230~\366^3\371\301a\224\233\033"
 628      4A304167 
 628      40A3987E 
 628      F65E33F9 
 628      C161949B 
 629 0177 B5D9E4E6 		.ascii	"\265\331\344\346\271J`\006\352\212\010(\202*\202&\202"
 629      B94A6006 
 629      EA8A0828 
 629      822A8226 
 629      82
 630 0188 2E829B09 		.ascii	".\202\233\011\221\327\212\345Vd,F\246\364E\271\311Z"
 630      91D78AE5 
 630      56642C46 
 630      A6F445B9 
 630      C95A
 631 019a 51116F2D 		.ascii	"Q\021o-&+@\270\347W\007Z\245h?\251Ta\315\021\332\347"
 631      262B40B8 
 631      E757075A 
 631      A5683FA9 
 631      5461CD11 
 632 01b0 4E031D71 		.ascii	"N\003\035q\024\265\247 $&f\347:\237z\304)k\340\2004"
 632      14B5A720 
 632      242666E7 
 632      3A9F7AC4 
 632      296BE080 
 633 01c5 F80C745A 		.ascii	"\370\014tZ\332\337\035\232\320v\241\373\037\265B\352"
 633      DADF1D9A 
 633      D076A1FB 
 633      1FB542EA 
 634 01d5 B752BD9E 		.ascii	"\267R\275\236\355\037\264nB\011\034R+\203i\351\220\207"
 634      ED1FB46E 
 634      42091C52 
 634      2B8369E9 
 634      9087
 635 01e7 66BF908B 		.ascii	"f\277\220\213\375\221\005\373\011-\311\350\372G\217"
 635      FD9105FB 
 635      092DC9E8 
 635      FA478F
 636 01f6 B404E93A 		.ascii	"\264\004\351:\032]\030v\311\322\000\031:\273\002D\374"
 636      1A5D1876 
 636      C9D20019 
 636      3ABB0244 
 636      FC
 637 0207 728572BA 		.ascii	"r\205r\272\250+\216\204\010\357d\321\344\364\314=\247"
 637      A82B8E84 
 637      08EF64D1 
 637      E4F4CC3D 
ARM GAS  C:\Users\CHRIST~1\AppData\Local\Temp\cc36zMGe.s 			page 50


 637      A7
 638 0218 D0B94937 		.ascii	"\320\271I7\003>24\320\303\276Cx\355\322\261<\036I/["
 638      033E3234 
 638      D0C3BE43 
 638      78EDD2B1 
 638      3C1E492F 
 639 022d D7470706 		.ascii	"\327G\007\006Y\373\313\264\222O\316g\037\317\356\021"
 639      59FBCBB4 
 639      924FCE67 
 639      1FCFEE11 
 640 023d A2B728E2 		.ascii	"\242\267(\342,U+\316\343\225<\373G<(-&\272\333\372m"
 640      2C552BCE 
 640      E3953CFB 
 640      473C282D 
 640      26BADBFA 
 641 0252 1E05E64E 		.ascii	"\036\005\346N\361\250Ey\346%O\346\360\217Y&y\024X\020"
 641      F1A84579 
 641      E6254FE6 
 641      F08F5926 
 641      79145810 
 642 0266 3C788647 		.ascii	"<x\206G=\001\240\262I\227\015\320\033\267\001\312\213"
 642      3D01A0B2 
 642      49970DD0 
 642      1BB701CA 
 642      8B
 643 0277 022CFE17 		.ascii	"\002,\376\027\240\\\002$>\331\000\232\264\230\372\374"
 643      A05C0224 
 643      3ED9009A 
 643      B498FAFC 
 644 0287 7CDB2D01 		.ascii	"|\333-\001TX:\005\240\027\005X\226\000\351\235\241>"
 644      54583A05 
 644      A0170558 
 644      9600E99D 
 644      A13E
 645 0299 8F0440C8 		.ascii	"\217\004@\310\011\000\355\014\200~\002@c\005\264\000"
 645      0900ED0C 
 645      807E0240 
 645      6305B400 
 646 02a9 8A5DCED2 		.ascii	"\212]\316\3228\0012X!c\203\316Y\254\327\355\033\275"
 646      38013258 
 646      216383CE 
 646      59ACD7ED 
 646      1BBD
 647 02bb 058AFC1B 		.ascii	"\005\212\374\033\212\321\375\245\237(;_WW/\237`\340"
 647      8AD1FDA5 
 647      9F283B5F 
 647      57572F9F 
 647      60E0
 648 02cd 76B0BE29 		.ascii	"v\260\276)h\215\201;\301\272\353\314\035\274\326t#\020"
 648      688D813B 
 648      C1BAEBCC 
 648      1DBCD674 
 648      2310
 649 02df BC1ABCD9 		.ascii	"\274\032\274\331\030\300\300\255\013\324\033\240\361"
 649      18C0C0AD 
 649      0BD41BA0 
 649      F1
ARM GAS  C:\Users\CHRIST~1\AppData\Local\Temp\cc36zMGe.s 			page 51


 650 02ec 2F64E189 		.ascii	"/d\341\211-"
 650      2D
 651              		.text
 652              		.section	.gnu.lto_evt3_execute.part.1.67eea12c,"",%progbits
 653 0000 789C7D93 		.ascii	"x\234}\223Mk\024A\020\206\373\235\352\356\031\327| "
 653      4D6B1441 
 653      1086FB9D 
 653      EAEE19D7 
 653      7C20
 654 0012 7873887B 		.ascii	"xs\210{\011\222K\202\277\301\243W\377\201\344\350E\027"
 654      09924B82 
 654      BFC1A357 
 654      FF81E4E8 
 654      4517
 655 0024 AFDBE683 		.ascii	"\257\333\346\203\335\240\007A]!L\320`@DE\305h\334\325"
 655      DDA00741 
 655      5D214CD0 
 655      60404445 
 655      C568DCD5 
 656 0038 24EB6A60 		.ascii	"$\353j`=$\256\202\036\014\271\030\315AC@\274\010\352"
 656      3D24AE82 
 656      1E0CB918 
 656      CD414340 
 656      BC08EA
 657 004b C6AAE9DD 		.ascii	"\306\252\351\335h>\260\231\351\352\252\251\251z\336"
 657      683EB099 
 657      E9EAAAA9 
 657      A97ADE
 658 005a EE19AB94 		.ascii	"\356\031\253\224:AJ\035f{\234o\204\012\366\342\022/"
 658      3A414A1D 
 658      667B9C6F 
 658      840AF6E2 
 658      122F
 659 006c 2C82D406 		.ascii	",\202\324\006\201\251\036U.C\215X\271\016jy:\3654\214"
 659      81A91E55 
 659      2E438D58 
 659      B90E6A79 
 659      3AF5348C 
 660 0080 E49C8B0C 		.ascii	"\344\234\213\014 \013\027A\345m@\332 \217\013t\231P"
 660      200B1741 
 660      E56D40DA 
 660      208F0B74 
 660      9950
 661 0092 2BAC9583 		.ascii	"+\254\225\203\276\233\216G\365\352\217\356\011\327p"
 661      BE9B8E47 
 661      F5EA8FEE 
 661      09D770
 662 00a1 9470BF12 		.ascii	"\224p\277\022\3372\360\020}\212\363\336\214\334O\350"
 662      DF32F010 
 662      7D8AF3DE 
 662      8CDC4FE8 
 663 00b1 3C3F0234 		.ascii	"<?\0024\273\337\026\307W\273\304\015\220ew\2419S\324"
 663      BBDF16C7 
 663      57BBC40D 
 663      906577A1 
 663      3953D4
 664 00c4 D403C97C 		.ascii	"\324\003\311|\177\355]\275\253\367\206sC\256\2721\337"
ARM GAS  C:\Users\CHRIST~1\AppData\Local\Temp\cc36zMGe.s 			page 52


 664      7FED5DBD 
 664      ABF78673 
 664      43AEBA31 
 664      DF
 665 00d5 3339ECEA 		.ascii	"39\354\352N'Dx\014\342\252x\204\030\323\210\323\352"
 665      4E274478 
 665      0CE2AA78 
 665      8418D388 
 665      D3EA
 666 00e7 9CFEF141 		.ascii	"\234\376\361A\363J\247\325\230A\2574\305\023\330\326"
 666      F34AA7D5 
 666      9841AF34 
 666      C513D8D6 
 667 00f7 C4CD257A 		.ascii	"\304\315%z\357\255q\256\271Yp\356\303\221\203\007\240"
 667      EFAD71AE 
 667      B95970EE 
 667      C3918307 
 667      A0
 668 0108 2416A884 		.ascii	"$\026\250\2044\311\244S\337\310\322\312\024\246~$K\245"
 668      34C9A453 
 668      DFC8D2CA 
 668      14A67E24 
 668      4BA5
 669 011a 8A2C4264 		.ascii	"\212,Bd\027\311\212\2451\012R\273\216\321\353\253SF"
 669      17C98AA5 
 669      310A52BB 
 669      8ED1EBAB 
 669      5346
 670 012c DA8C1318 		.ascii	"\332\214\023\030\242\\^_\016\363\277]\224\220)\221t"
 670      A25C5E5F 
 670      0EF3BF5D 
 670      94902991 
 670      74
 671 013d 2E232F74 		.ascii	".#/t+\365[\267S\331\026\233<\272QA\314\341\305\311;"
 671      2BF55BB7 
 671      53D9169B 
 671      3CBA5141 
 671      CCE1C5C9 
 672 0152 4B56C221 		.ascii	"KV\302!2x\2128\241H\255a(+\025\245?WU_0<]\230\270\324"
 672      32788A38 
 672      A148AD61 
 672      282B15A5 
 672      3F57555F 
 673 016c E9BB04BE 		.ascii	"\351\273\004\276Qi\264\366:\224\0279\001\317x\027\030"
 673      5169B4F6 
 673      3A941739 
 673      01CF7817 
 673      18
 674 017d 25EB3368 		.ascii	"%\3533h;\307\276\022\303*\314z\216\255\355\317@c\016"
 674      3BC7BE12 
 674      C32ACC7A 
 674      8EADEDCF 
 674      40630E
 675 0190 31174C68 		.ascii	"1\027Lh\277\372\214\221\345c\177_\337\252\256\271\372"
 675      BFFA8C91 
 675      E5637F5F 
 675      DFAAAEB9 
ARM GAS  C:\Users\CHRIST~1\AppData\Local\Temp\cc36zMGe.s 			page 53


 675      FA
 676 01a1 7C6B8FC7 		.ascii	"|k\217\307\210T#N5\177mk\326\2734\363N\241\312\275D"
 676      8854234E 
 676      357F6D6B 
 676      D6BB34F3 
 676      4EA1CABD 
 677 01b6 E0DE8AB4 		.ascii	"\340\336\212\264W4\333Vd8\264C\202\335S\302s/\341\325"
 677      5734DB56 
 677      6438B443 
 677      82DD53C2 
 677      732FE1D5 
 678 01ca 54E55787 		.ascii	"T\345W\207\227`P\023\011f\207\004\373\017\263Vs\231"
 678      97605013 
 678      09668704 
 678      FB0FB356 
 678      7399
 679 01dc 94F97B9B 		.ascii	"\224\371{\2339\334\305\314'\214\027\377e\016=\363J\233"
 679      39DCC5CC 
 679      278C17FF 
 679      650E3DF3 
 679      4A9B
 680 01ee 39E2D036 		.ascii	"9\342\3206f\265'\361KO\374\351\347\335J\227'\266X\020"
 680      66B527F1 
 680      4B4FFCE9 
 680      E7DD4A97 
 680      27B65810 
 681 0202 E2488805 		.ascii	"\342H\210\005\317\244\337\321\006\002\377\227\024\371"
 681      CFA4DFD1 
 681      0602FF97 
 681      14F9
 682 0210 3839C0DE 		.ascii	"89\300\336\241\376\376\001\177\345\006\317\344\006N"
 682      A1FEFE01 
 682      7FE506CF 
 682      E4064E
 683 021f E7523B78 		.ascii	"\347R;x6\327\177R\341\324\037\267=\0128"
 683      36D77F52 
 683      E1D41FB7 
 683      3D0A38
 684              		.text
 685              		.section	.gnu.lto_evt3_execute.67eea12c,"",%progbits
 686 0000 789C7D93 		.ascii	"x\234}\223AO\023A\024\307\337\177\337\354\264\326\226"
 686      414F1341 
 686      14C7DF7F 
 686      DFECB4D6 
 686      96
 687 0011 36D19B1B 		.ascii	"6\321\233\033\344\302\201K\211\237\300\203\237\300\317"
 687      E4C2814B 
 687      899FC083 
 687      9FC0CF
 688 0020 60387AD1 		.ascii	"`8z\321\306kG\012\002\321\203&Z\023\262F\210&\304p\000"
 688      C66B470A 
 688      02D18326 
 688      5A13B246 
 688      8826C470 
 689 0035 43152B02 		.ascii	"C\025+\002k\005\355EA\023\275\020.\032{0\015\211^\324"
 689      6B05ED45 
 689      4113BD10 
ARM GAS  C:\Users\CHRIST~1\AppData\Local\Temp\cc36zMGe.s 			page 54


 689      2E1A7B30 
 689      0D895ED4 
 690 0049 03D4373B 		.ascii	"\003\3247;\255B!N\272o\372\336\316\374\337\357?\231"
 690      AD42214E 
 690      BA6FFADE 
 690      CEFCDFEF 
 690      3F99
 691 005b D54434C5 		.ascii	"\325D4\305D\247e>/\017\022\004\357\346;\242\253I\317"
 691      44A7653E 
 691      2F0F1204 
 691      EFE63BA2 
 691      AB49CF
 692 006e D3D11932 		.ascii	"\323\321\0312)\336\014\310\244\271\235\2518S\355\314"
 692      29DE0CC8 
 692      A4B99DA9 
 692      3853EDCC 
 693 007e 8F331FDA 		.ascii	"\2173\037\332n\201\006\354l\222\240\242\307\312\327"
 693      6E8106EC 
 693      6C92A0A2 
 693      C7CAD7
 694 008d 28E206DF 		.ascii	"(\342\006\337f\324\306\032Uo`\306\310\210\356\376\312"
 694      66D4C61A 
 694      556F60C6 
 694      C888EEFE 
 694      CA
 695 009e DE339B86 		.ascii	"\3363\233\206C\351Z\226\307\016,`\200d\335\373\221\371"
 695      43E95A96 
 695      C70E2C60 
 695      8064DDFB 
 695      91F9
 696 00b0 90AFCB2B 		.ascii	"\220\257\313+@I\372\375\355\344\227\036\233z\350\223"
 696      4049FAFD 
 696      EDE4971E 
 696      9B7AE893 
 697 00c0 747D6F71 		.ascii	"t}oq\\q/\354\312O\367?\326{\372\037\0303l\242\235\325"
 697      5C712FEC 
 697      CA4FF73F 
 697      D67BFA1F 
 697      18336CA2 
 698 00d6 DEE992A9 		.ascii	"\336\351\222\251\033\0252\343)XT\361\004\001*\010bu"
 698      1B1532E3 
 698      295854F1 
 698      04012A08 
 698      6275
 699 00e8 59FEF9F1 		.ascii	"Y\376\371\361\336\235\214VXD\277k\212g\320\004\231m"
 699      DE9D8C56 
 699      5844BF6B 
 699      8A67D004 
 699      996D
 700 00fa 69EE831F 		.ascii	"i\356\203\037\231\275\326\230\211\032g\353\225\215\223"
 700      99BDD698 
 700      891A67EB 
 700      958D93
 701 0109 2740212B 		.ascii	"'@!+\317\006\266A\331\340\333\240mH\221\335\224\211"
 701      CF06B641 
 701      D9E0DBA0 
 701      6D4891DD 
ARM GAS  C:\Users\CHRIST~1\AppData\Local\Temp\cc36zMGe.s 			page 55


 701      9489
 702 011b 632E8E44 		.ascii	"c.\216D\343\"*\336MD\023\354\331\177\245\210\232\030"
 702      E3222ADE 
 702      4D4413EC 
 702      D97FA588 
 702      9A18
 703 012d 9D9A7DE8 		.ascii	"\235\232}\350\333V\223\234\022\212j\265\271\225(\356"
 703      DB56939C 
 703      128A6AB5 
 703      B99528EE 
 704 013d 9A64C87E 		.ascii	"\232d\310~\231m\367*\212\026o\273\376h6\366\255\321"
 704      996DF72A 
 704      8A166FBB 
 704      FE6836F6 
 704      ADD1
 705 014f 9291C573 		.ascii	"\222\221\305s\004R\236kV\177g\\\231\260\204 \344\004"
 705      04529E6B 
 705      567F675C 
 705      99B08420 
 705      E404
 706 0161 3530DC67 		.ascii	"50\334g\025m[Q\245o(U\306\226oe\\\027\270F\345\321\332"
 706      156D5B51 
 706      A56F2855 
 706      C6966F65 
 706      5C17B846 
 707 0178 46C26E94 		.ascii	"F\302n\224&x!\307 (}n\205w\220#Y\026\\\302\262\343\250"
 707      267821C7 
 707      20287D6E 
 707      85779023 
 707      59165CC2 
 708 018f ACBDB996 		.ascii	"\254\275\271\226\264\373\216\001XA \202\241\364\370"
 708      B4FB8E01 
 708      58412082 
 708      A1F4F8
 709 019e 8A91AD73 		.ascii	"\212\221\255s\377\266\377UW\242\276\332>\344\011f\332"
 709      FFB6FF55 
 709      57A2BEDA 
 709      3EE40966 
 709      DA
 710 01af 0CDAAE17 		.ascii	"\014\332\256\027:\2563\207\\\3139!\222n\326\342\321"
 710      3AAE3387 
 710      5CCB3921 
 710      926ED6E2 
 710      D1
 711 01c0 9E32CED3 		.ascii	"\2362\316\323v\307\023K\251\313\204:\322\304Kgb\275"
 711      76C7134B 
 711      A9CB843A 
 711      D2C44B67 
 711      62BD
 712 01d2 F533CA3A 		.ascii	"\3653\312:\023\036j\326\004w\231P\373\250\025\255\244"
 712      131E6AD6 
 712      04779950 
 712      FBA815AD 
 712      A4
 713 01e3 DAD44B1D 		.ascii	"\332\324K\035\352\334!j%\362\257\376K\235s\324\273\035"
 713      EADC216A 
 713      25F2AFFE 
ARM GAS  C:\Users\CHRIST~1\AppData\Local\Temp\cc36zMGe.s 			page 56


 713      4B9D73D4 
 713      BB1D
 714 01f5 6A5F4A5D 		.ascii	"j_J]\324\372H\3525G]\3731?\223v\324b\301R\373]\324z"
 714      D4FA48EA 
 714      35475DFB 
 714      313F9376 
 714      D462C152 
 715 020d 1FB54F4D 		.ascii	"\037\265OM\216\2519\276\310\007\205\217\227\345=\341"
 715      8EA939BE 
 715      C807858F 
 715      97E53DE1 
 716 021d B508879C 		.ascii	"\265\010\207\234\216\327\353\366\225\334\201\347\276"
 716      8ED7EBF6 
 716      95DC81E7 
 716      BE
 717 022a B871B919 		.ascii	"\270q\271\031R\222\354T>?\350~\205\241\313\205\301K"
 717      5292EC54 
 717      3E3FE87E 
 717      85A1CB85 
 717      C14B
 718 023c 85781EBA 		.ascii	"\205x\036\272R\310_ \\\374\003t\264&\332"
 718      52C85F20 
 718      5CFC0374 
 718      B426DA
 719              		.text
 720              		.section	.gnu.lto_patternevt.67eea12c,"",%progbits
 721 0000 789C6363 		.ascii	"x\234cc``X\017\304\262\014\0200\205\231qZ\353\241\363"
 721      6060580F 
 721      C4B20C10 
 721      30859971 
 721      5AEBA1F3 
 722 0014 ECDDCC73 		.ascii	"\354\335\314s\230\031\030A\334C\2376,\347\001q\031\031"
 722      98191841 
 722      DC439F36 
 722      2CE70171 
 722      1919
 723 0026 9981DCE6 		.ascii	"\231\201\334\346_\373?\363\325\377m\230\321\320\360"
 723      5FFB3FF3 
 723      D5FF6D98 
 723      D1D0F0
 724 0035 A0FB3427 		.ascii	"\240\3734'H\331\002f\210\306\243\377\277\037\340\207"
 724      48D90266 
 724      88C6A3FF 
 724      BF1FE087 
 725 0045 A8644255 		.ascii	"\250dBU\271`\251\032X\035#X\035\262\304B\210\004\023"
 725      B960A91A 
 725      581D2358 
 725      1DB2C442 
 725      880413
 726 0058 58E2C3FC 		.ascii	"X\342\303\374\323\233\330,\2665t,hp\230\303\314\304"
 726      D39BD82C 
 726      B635742C 
 726      687098C3 
 726      CCC4
 727 006a 6828C3B8 		.ascii	"h(\303\270\203\261\236\321H\206q;\220\332\306(\303\270"
 727      83B19ED1 
 727      4886713B 
ARM GAS  C:\Users\CHRIST~1\AppData\Local\Temp\cc36zMGe.s 			page 57


 727      90DAC628 
 727      C3B8
 728 007c 15486F01 		.ascii	"\025Ho\001\322\233\031e\030\030w2Z0H\353\351\351CPI"
 728      D29B1965 
 728      18187732 
 728      5A3048EB 
 728      E9E94350 
 729 0091 6A71897E 		.ascii	"jq\211~Q\011\230N-+\321Kf\000\000Q\235FG"
 729      5109984E 
 729      2D2BD14B 
 729      66000051 
 729      9D4647
 730              		.text
 731              		.section	.gnu.lto_testevt1.67eea12c,"",%progbits
 732 0000 789C6363 		.ascii	"x\234cc``X\004\304\016\014\0200\205\231q\347\3167\267"
 732      60605804 
 732      C40E0C10 
 732      30859971 
 732      E7CE37B7 
 733 0014 D9EBFF36 		.ascii	"\331\353\3776t44<\350\276\317\314<\207\231a\0323DjZ"
 733      7434343C 
 733      E8BECFCC 
 733      3C879961 
 733      1A33446A 
 734 0029 EBA1F3EC 		.ascii	"\353\241\363\354\335 \021F4\225\013\276\362\201\325"
 734      DD201146 
 734      34950BBE 
 734      F281D5
 735 0038 3182D5AD 		.ascii	"1\202\325\255\337s\177.\267\242\334\374\206\031\012"
 735      DF737F2E 
 735      B7A2DCFC 
 735      86190A
 736 0047 7398C14A 		.ascii	"s\230\301Joo^\261\223\023\250t\006P\351G\240R&\306m"
 736      6F6F5EB1 
 736      9313A874 
 736      0650E947 
 736      A05226C6 
 737 005c 8C8A60B5 		.ascii	"\214\212`\265\375\277.L\340\261\330\326\320\261\240"
 737      FDBF2E4C 
 737      E0B1D8D6 
 737      D0B1A0
 738 006b C1610E33 		.ascii	"\301a\0163\363T\240\331\333\031\353\247232n\005QL\214"
 738      F354A0D9 
 738      DB19EBA7 
 738      3233326E 
 738      05514C8C 
 739 007f 5B1865A6 		.ascii	"[\030e\246233nf\254g`\334\301h\301 \255\247\247\017"
 739      3233336E 
 739      66AC6760 
 739      DCC168C1 
 739      20ADA7A7 
 740 0094 4125A9C5 		.ascii	"A%\251\305%\372E%`:\265\254D/\231A\311\265,5\257\244"
 740      25FA4525 
 740      603AB5AC 
 740      442F9941 
 740      C9B52C35 
 741 00aa 5847A128 		.ascii	"XG\241(5=\263\270\244(\261$3?O!1/E!%\263\270 \261$9"
ARM GAS  C:\Users\CHRIST~1\AppData\Local\Temp\cc36zMGe.s 			page 58


 741      353DB3B8 
 741      A428B124 
 741      333F4F21 
 741      312F4521 
 742 00c5 8301006B 		.ascii	"\203\001\000kXOm"
 742      584F6D
 743              		.text
 744              		.section	.gnu.lto_testevt2.67eea12c,"",%progbits
 745 0000 789C6363 		.ascii	"x\234cc``X\004\304\226\014\0200\205\231q\347\3167\267"
 745      60605804 
 745      C4960C10 
 745      30859971 
 745      E7CE37B7 
 746 0014 D9EBFF36 		.ascii	"\331\353\3776t44<\350>\303\316<\207\231a\0323DjZ\353"
 746      7434343C 
 746      E83EC3CE 
 746      3C879961 
 746      1A33446A 
 747 002a A1F3ECDD 		.ascii	"\241\363\354\335 \021F4\225\013V\312\201\3251\202\325"
 747      20114634 
 747      950B56CA 
 747      81D53182 
 747      D5
 748 003b 7D7EDAD2 		.ascii	"}~\332\322\300\252(7\277a\206\302\034f\260\322s\377"
 748      C0AA2837 
 748      BF6186C2 
 748      1C66B0D2 
 748      73FF
 749 004d B6ADE602 		.ascii	"\266\255\346\002*\235\001T\272\024\250\224\211q\033"
 749      2A9D0154 
 749      BA14A894 
 749      89711B
 750 005c A32258ED 		.ascii	"\243\"X\355\255\3353\027\361Zlk\350X\320\3400\207\231"
 750      ADDD3317 
 750      F15A6C6B 
 750      E858D0E0 
 750      308799
 751 006f 792AD0EC 		.ascii	"y*\320\354\355\214\365S\231\031\031\267\202(&\306-\214"
 751      ED8CF553 
 751      991919B7 
 751      822826C6 
 751      2D8C
 752 0081 32539999 		.ascii	"2S\231\231\03173\32630\356`\264`\220\326\323\323\207"
 752      193733D6 
 752      3330EE60 
 752      B46090D6 
 752      D3D387
 753 0094 A092D4E2 		.ascii	"\240\222\324\342\022\375\242\0220\235ZV\242\227\314"
 753      12FDA212 
 753      309D5A56 
 753      A297CC
 754 00a3 20ED5A96 		.ascii	" \355Z\226\232WR\254\243P\236\230Y\242\220\230\227\242"
 754      9A5752AC 
 754      A3509E98 
 754      59A29098 
 754      97A2
 755 00b5 9054949F 		.ascii	"\220T\224\237\230\222\234X\\\302\000\000\367\233K\353"
ARM GAS  C:\Users\CHRIST~1\AppData\Local\Temp\cc36zMGe.s 			page 59


 755      98929C58 
 755      5CC20000 
 755      F79B4BEB 
 756              		.text
 757              		.section	.gnu.lto_testevt3.67eea12c,"",%progbits
 758 0000 789C6363 		.ascii	"x\234cc``X\004\304\372\014\0200\205\231q\347\3167\267"
 758      60605804 
 758      C4FA0C10 
 758      30859971 
 758      E7CE37B7 
 759 0014 D9EBFF36 		.ascii	"\331\353\3776t44<\350^\303\311<\207\231a\0323DjZ\353"
 759      7434343C 
 759      E85EC3C9 
 759      3C879961 
 759      1A33446A 
 760 002a A1F3ECDD 		.ascii	"\241\363\354\335 \021F4\225\013V\252\202\3251\202\325"
 760      20114634 
 760      950B56AA 
 760      82D53182 
 760      D5
 761 003b 3DFF7865 		.ascii	"=\377xe/\277\242\334\374\206\031\012s\230\301J\017\365"
 761      2FBFA2DC 
 761      FC86190A 
 761      7398C14A 
 761      0FF5
 762 004d 4CF8C807 		.ascii	"L\370\310\007T:\003\250t)P)\023\3436FE\260\332K7\347"
 762      543A03A8 
 762      74295029 
 762      13E33646 
 762      45B0DA4B 
 763 0063 5CE6B3D8 		.ascii	"\\\346\263\330\326\320\261\240\301a\0163\363T\240\331"
 763      D6D0B1A0 
 763      C1610E33 
 763      F354A0D9 
 764 0073 DB19EBA7 		.ascii	"\333\031\353\247232n\005QL\214[\030e\246233nf\254g`"
 764      3233326E 
 764      05514C8C 
 764      5B1865A6 
 764      3233336E 
 765 008b DCC168C1 		.ascii	"\334\301h\301 \255\247\247\017A%\251\305%\372E%`:\265"
 765      20ADA7A7 
 765      0F4125A9 
 765      C525FA45 
 765      25603AB5 
 766 009f AC442F99 		.ascii	"\254D/\231A\320\265,5\257\244XG\241$375\277\264\244"
 766      41D0B52C 
 766      35AFA458 
 766      47A12433 
 766      3735BFB4 
 767 00b4 98010039 		.ascii	"\230\001\0009CH\356"
 767      4348EE
 768              		.text
 769              		.section	.gnu.lto_.symbol_nodes.67eea12c,"",%progbits
 770 0000 789C5D90 		.ascii	"x\234]\220\311n\023A\020\206\253\252\275\342\001<\003"
 770      C96E1341 
 770      1086ABAA 
 770      BDE2013C 
ARM GAS  C:\Users\CHRIST~1\AppData\Local\Temp\cc36zMGe.s 			page 60


 770      03
 771 0011 26899DC4 		.ascii	"&\211\235\304KH\330$N~\000\336\005\211\334@\342\010"
 771      4B48D824 
 771      4E7E00DE 
 771      0589DC40 
 771      E208
 772 0023 12350983 		.ascii	"\0225\011\203\015X\304H\221\202\304\205\310X<\003\034"
 772      0D58C448 
 772      9182C485 
 772      C8583C03 
 772      1C
 773 0034 238D8494 		.ascii	"#\215\204\224\003H\360\002\030\232=\020\366\020\226"
 773      0348F002 
 773      189A3D10 
 773      F61096
 774 0043 40774F23 		.ascii	"@wO#\321s\351\277\353\353\372\377\352\356\034\000le"
 774      D173E9BF 
 774      EBEBFAFF 
 774      EAEE1C00 
 774      6C65
 775 0055 D4426F90 		.ascii	"\324Bo\220\011\256?\000`\200\273\253kaN\261\327\310"
 775      09AE3F00 
 775      6080BBAB 
 775      6B614EB1 
 775      D7C8
 776 0067 22CD5E21 		.ascii	"\"\315^!g\322l\0039\233b\331\347\210a\013@d\337\"\230"
 776      67D26C03 
 776      399B62D9 
 776      E788610B 
 776      4064DF22 
 777 007c 0DBD44CE 		.ascii	"\015\275D\316\245\235\357\221\363i\366\031\271\220f"
 777      A59DEF91 
 777      F369F619 
 777      B99066
 778 008b 1F90313D 		.ascii	"\037\2201=\341\005R\022\274\211\212\246\014\253\304"
 778      E1055212 
 778      BC898AA6 
 778      0CABC4
 779 009a 45CBF05E 		.ascii	"E\313\360^\270\026\236P\206\005\022\015\365\324l\217"
 779      B8169E50 
 779      8605120D 
 779      F5D46C8F 
 780 00aa 32462F52 		.ascii	"2F/RV+}D\336\225\366\017\210K)?}A\366\322\227\370\206"
 780      562B7D44 
 780      DE95F60F 
 780      884B293F 
 780      7D41F6D2 
 781 00c1 B985960E 		.ascii	"\271\205\226\016{\207\371d\363\011\013\311\346+\026"
 781      7B87F964 
 781      F3090BC9 
 781      E62B16
 782 00d0 CD067F22 		.ascii	"\315\006\177\"\3576>\200P\007\341\017\344=\016\330F"
 782      EF363E80 
 782      5007E10F 
 782      E43D0ED8 
 782      46
 783 00e1 DEEB802D 		.ascii	"\336\353\200-\344\262\003\276#\373\016\370\205\0348"
ARM GAS  C:\Users\CHRIST~1\AppData\Local\Temp\cc36zMGe.s 			page 61


 783      E4B203BE 
 783      23FB0EF8 
 783      851C38
 784 00f0 E037F23E 		.ascii	"\3407\362>\007\\!\336\357\200\313\304\025\007\\%>\340"
 784      075C21DE 
 784      EF80CBC4 
 784      15075C25 
 784      3EE0
 785 0102 809078CC 		.ascii	"\200\220x\314\001\213\304\343\016\370\203<\341\200\210"
 785      018BC4E3 
 785      0EF8833C 
 785      E18088
 786 0111 B8EA804B 		.ascii	"\270\352\200K\3045\007\354 O:\240C<\345\200.\361\264"
 786      C43507EC 
 786      204F3AA0 
 786      433CE580 
 786      2EF1B4
 787 0124 03AE11D7 		.ascii	"\003\256\021\327\035\260D\334p@\237\270\371?\0200\006"
 787      1DB044DC 
 787      70409FB8 
 787      F93F1030 
 787      06
 788 0135 C3273B28 		.ascii	"\303';(\320*Y\025\223 G\211\306\335\215\272\020U\210"
 788      D02A5915 
 788      93204789 
 788      C6DD8DBA 
 788      105588
 789 0148 7B5A6B10 		.ascii	"{Zk\020-mfu=\354k\255\201\354\337']G\313Z' ~\334\026"
 789      2D6D6675 
 789      3DEC6BAD 
 789      81ECDF27 
 789      5D47CB5A 
 790 0161 621CA492 		.ascii	"b\034\244\222\334T\222\226\267Z\260Z\234\206\330h\035"
 790      DC549296 
 790      B75AB05A 
 790      9C86D868 
 790      1D
 791 0172 A291ADB5 		.ascii	"\242\221\255\265\226\352\311y\251\221\234{U\220w\214"
 791      96EAC979 
 791      A9919C7B 
 791      5590778C 
 792 0182 0C6F2B51 		.ascii	"\014o+Q\263\007F$\013o\026b\326'\221ZU\354\005\341\035"
 792      B3074624 
 792      0B6F1662 
 792      D627915A 
 792      55EC05E1 
 793 0197 04795E78 		.ascii	"\004y^x\207!Rk\013\342s\302k\202<+<\365\2243z\215N\033"
 793      8721526B 
 793      0BE273C2 
 793      6B823C2B 
 793      3CF59433 
 794 01af D7BC71CD 		.ascii	"\327\274q\315\033\327)3\342\244\366F\317\312\302;\004"
 794      1BD72933 
 794      E2A4F646 
 794      CFCAC23B 
 794      04
 795 01c0 C3A765ED 		.ascii	"\303\247e\355\226\267P\333\243\233fz|C\350v\271\"\314"
ARM GAS  C:\Users\CHRIST~1\AppData\Local\Temp\cc36zMGe.s 			page 62


 795      96B750DB 
 795      A39B667A 
 795      7C43E876 
 795      B922CC
 796 01d3 5D562ABA 		.ascii	"]V*\2723^V2\007C-\263\352\365\025\323\371\250m:\037"
 796      335E5632 
 796      07432DB3 
 796      EAF515D3 
 796      F9A86D3A 
 797 01e8 B64DA7FE 		.ascii	"\266M\247\376\032\225\035\353/\363f@\366\264\266`h\264"
 797      1A951DEB 
 797      2FF36640 
 797      F6B4B660 
 797      68B4
 798 01fa 09F1F671 		.ascii	"\011\361\366qs\031\375v\317\376My\316\352L\362\007e"
 798      7319FD76 
 798      CFFE4D79 
 798      CEEA4CF2 
 798      0765
 799 020c 15334A6A 		.ascii	"\0253Jj\251\332U\031w\224[\225QW\245\253Z\032\365`\260"
 799      A9DA5519 
 799      77945B95 
 799      5157A5AB 
 799      5A1AF560 
 800 0221 DE16BE3A 		.ascii	"\336\026\276:\326\245\177\014dG\253r\353v\377\250\031"
 800      D6A57F0C 
 800      6447AB72 
 800      EB76FFA8 
 800      19
 801 0232 E6DB61FE 		.ascii	"\346\333a\376\221dH\360O-\017\222\266\300\272\002\233"
 801      916448F0 
 801      4F2D0F92 
 801      B6C0BA02 
 801      9B
 802 0243 12D8D4C0 		.ascii	"\022\330\324\300\207\305\3656\374\005\364\264M\271"
 802      87C5F536 
 802      FC05F4B4 
 802      4DB9
 803              		.text
 804              		.section	.gnu.lto_.refs.67eea12c,"",%progbits
 805 0000 789C158D 		.ascii	"x\234\025\215K\012\302`\014\204'\323\261\325\277\266"
 805      4B0AC260 
 805      0C8427D3 
 805      B1D5BFB6 
 806 0010 D5BE28BA 		.ascii	"\325\276(\272\020\021\274\204\202W\023q!^\310\255G\020"
 806      1011BC84 
 806      82571371 
 806      215EC8AD 
 806      4710
 807 0022 DCB8F306 		.ascii	"\334\270\363\006\012z\000M!_\036\303$\211\001\\\234"
 807      0A7A004D 
 807      215F1EC3 
 807      2489015C 
 807      9C
 808 0033 2C32917D 		.ascii	",2\221}$T\016UTMu\320\214\232S\013hI\2558X\273M\321"
 808      24540E55 
 808      544D75D0 
ARM GAS  C:\Users\CHRIST~1\AppData\Local\Temp\cc36zMGe.s 			page 63


 808      8C9A530B 
 808      6849AD38 
 809 004b 80A4111C 		.ascii	"\200\244\021\034\365\033!\266\300\320\215\221M\221\227"
 809      F51B21B6 
 809      C0D08D91 
 809      4D9197
 810 005a 4C1B2B5A 		.ascii	"L\033+Zd\033\344[\246;+\2560\335@\307\302\035\354\321"
 810      641BE45B 
 810      A63B2BAE 
 810      30DD40C7 
 810      C21DECD1 
 811 006e C3EBD39F 		.ascii	"\303\353\323\237\276\200\374\355g>\260\342\353\372\317"
 811      BE80FCED 
 811      673EB0E2 
 811      EBFACF
 812 007d F5BD4107 		.ascii	"\365\275A\007\243\216\206p2\206\263E\025k6l=\307\214"
 812      A38E8670 
 812      3286B345 
 812      156B366C 
 812      3DC78C
 813 0090 BC4B38F1 		.ascii	"\274K8\361i\310\022\177\255\270\022\271"
 813      69C8127F 
 813      ADB812B9 
 814              		.text
 815              		.section	.gnu.lto_.decls.67eea12c,"",%progbits
 816 0000 789CB57C 		.ascii	"x\234\265|yXTW\266o\235\332U\305\014FL^\272\333\356"
 816      79585457 
 816      B66F9DDA 
 816      55C50C46 
 816      4C5EBADB 
 817 0015 EBCBA53B 		.ascii	"\353\313\245;\364\344\224\274N\372\336\364\355NL\272"
 817      F4E494BC 
 817      4EFADEF4 
 817      ED4E4CBA 
 818 0025 93F7DAEE 		.ascii	"\223\367\332\356\3764\375n\362\275\334\313%XQ:\014^"
 818      FE34FD6E 
 818      F2BDDCCB 
 818      2558513A 
 818      0C5E
 819 0037 2863EC7F 		.ascii	"(c\354\177\272\020\004\031\024\020T\006\225I\004\025"
 819      BA100419 
 819      14105406 
 819      95490415 
 820 0047 04140541 		.ascii	"\004\024\005Af\001\231gdF\001\231AA\231D\345\255=\234"
 820      66019967 
 820      64460199 
 820      41419944 
 820      E5AD3D9C 
 821 005b 3A0355EA 		.ascii	":\003U\352\375\356\327\365\271\254\263\367Y{\255\337"
 821      FDEED7F5 
 821      B9ACB3F7 
 821      597BADDF 
 822 006b 5E6BEDB5 		.ascii	"^k\355\265\367>g\027\032\205Bq\3433\205b\235\265B\361"
 822      F73E6717 
 822      1A854271 
 822      E3338562 
 822      9DB542F1 
ARM GAS  C:\Users\CHRIST~1\AppData\Local\Temp\cc36zMGe.s 			page 64


 823 007f 99B942B1 		.ascii	"\231\271B\261\002\237W\241\256\004h\015\373\256\000"
 823      029F57A1 
 823      AE04680D 
 823      FBAE00
 824 008e FA1CA80A 		.ascii	"\372\034\250\012\250\032\250\023h\020h\030\350\032\247"
 824      A81AA813 
 824      68106818 
 824      E81AA7
 825 009d 50A401BD 		.ascii	"P\244\001\275\011\327N@\327\341:\037\350\006P!\020\376"
 825      09D74E40 
 825      D7E13A1F 
 825      E8065021 
 825      10FE
 826 00af BC015406 		.ascii	"\274\001T\006\327\345@\225@U@5@\365@\215@\315@\255@"
 826      D7E54095 
 826      40554035 
 826      40F5408D 
 826      40CD40AD 
 827 00c4 B7813A81 		.ascii	"\267\201:\201z\200\372\200\006\200F\201\246\201\036"
 827      7A80FA80 
 827      06804681 
 827      A6811E
 828 00d3 022D02AD 		.ascii	"\002-\002\255\000!\245Ba\016d\015\364\012\320: \007"
 828      0021A542 
 828      610E640D 
 828      F40AD03A 
 828      2007
 829 00e5 A01F01FD 		.ascii	"\240\037\001\375\014h#\320f\240\255@o\003\375\022\350"
 829      0C6823D0 
 829      66A0AD40 
 829      6F03FD12 
 829      E8
 830 00f6 9F817E05 		.ascii	"\237\201~\005d\011X~\015\337\357\003m\003\372\030\350"
 830      6409587E 
 830      0DDFEF03 
 830      6D03FA18 
 830      E8
 831 0107 1A501E50 		.ascii	"\032P\036P\035P\003P\023P\213R!\371\204\"\205\302\014"
 831      1D500350 
 831      13508B52 
 831      21F98422 
 831      85C20C
 832 011a BEFF0368 		.ascii	"\276\377\003h-\320:f\233V%\265\317]\326W\334\254\222"
 832      2DD03A66 
 832      9B5625B5 
 832      CF5DD657 
 832      DCAC92
 833 012d 61977F22 		.ascii	"a\227\177\"\376\0132\252L\3108\371_\220QcB\306i\220"
 833      FE0B32AA 
 833      4CC838F9 
 833      5F905163 
 833      42C66990 
 834 0141 F11D998C 		.ascii	"\361\035\231\214\024\216\372\023\373\022\3734\233\243"
 834      148EFA13 
 834      FB12FB34 
 834      9BA3
 835 014f 3E6E5352 		.ascii	">nSR\337>\203r\273\222\306\301,\366\025\\/\300w\207"
ARM GAS  C:\Users\CHRIST~1\AppData\Local\Temp\cc36zMGe.s 			page 65


 835      DF3E8372 
 835      BB92C6C1 
 835      2CF6155C 
 835      2FC07787 
 836 0163 92C64307 		.ascii	"\222\306C\007\320\024\366\237R\210\223\021(c\365Y\360"
 836      D014F69F 
 836      52889311 
 836      2863F559 
 836      F0
 837 0174 9F8582FA 		.ascii	"\237\205\202\372\273\027\356\017*\251\037G\224\202_"
 837      BB17EE0F 
 837      2AA91F47 
 837      94825F
 838 0183 A799AF31 		.ascii	"\247\231\2571n\354\233_\313\354\357\253\242\367xl\274"
 838      6EEC9B5F 
 838      CBECEFAB 
 838      A2F7786C 
 838      BC
 839 0194 5CFCE158 		.ascii	"\\\374\341X\033\361\347o\300\017\335T4\263\376u\260"
 839      1BF1E76F 
 839      C00FDD54 
 839      34B3FE75 
 839      B0
 840 01a5 7AA490C6 		.ascii	"z\244\220\306\240\374\223\000\014*f\233Q\326w\245R\260"
 840      A0FC9300 
 840      0C2A669B 
 840      51D677A5 
 840      52B0
 841 01b7 69238B3F 		.ascii	"i#\213?\371'\371\005\355\232M\264;\377\202v\255&\332"
 841      F927F905 
 841      ED9A4DB4 
 841      3BFF8276 
 841      AD26DA
 842 01ca 05433B2B 		.ascii	"\005C;+\205\324\207N\"\373\2141Yf\360=\016d\305d`]x"
 842      85D4874E 
 842      22FB8C31 
 842      5966F03D 
 842      0E64C564 
 843 01e1 1C4E8AC6 		.ascii	"\034N\212\306\020o\363m2=\001/\260\371*~D\307\227\034"
 843      106FF36D 
 843      323D012F 
 843      B0F92A7E 
 843      44C7971C 
 844 01f5 D338C382 		.ascii	"\3238\303\2021L)i\\\255am\261?pn\340\307\262\374\223"
 844      314C2969 
 844      5CAD616D 
 844      B13F706E 
 844      E0C7B2FC 
 845 020a 010C9B65 		.ascii	"\001\014\233e2q^Ia\361yGA\343v\021\350+Q\036\302q\214"
 845      32715E49 
 845      61F17947 
 845      41E37611 
 845      E82B511E 
 846 0221 ED896D29 		.ascii	"\355\211m)\216\333i\270\266W\322\034\365\020\276\177"
 846      8EDB69B8 
 846      B657D21C 
 846      F510BE7F 
ARM GAS  C:\Users\CHRIST~1\AppData\Local\Temp\cc36zMGe.s 			page 66


 847 0231 0AF27F02 		.ascii	"\012\362\177\002\264\200s\007|\377\016\276\177\013\364"
 847      B4807307 
 847      7CFF0EBE 
 847      7F0BF4
 848 0240 73B8BE0A 		.ascii	"s\270\276\012\337\321@\273\201w#\242\271\355\037\241"
 848      DFD140BB 
 848      817723A2 
 848      B9ED1FA1 
 849 0250 BC095FE3 		.ascii	"\274\011_\343\034\003\337?\205\357\002\234;D\343\006"
 849      1C03DF3F 
 849      85EF029C 
 849      3B44E306 
 850 0260 8F99672C 		.ascii	"\217\231g,\007\362\343D\015\372\177\000\374iP>\006\024"
 850      07F2E344 
 850      0DFA7F00 
 850      FC69503E 
 850      0614
 851 0272 CB515B7E 		.ascii	"\313Q[~_A\363\336V\270\3676\320/\200\336C\324\347xl"
 851      5F41F3DE 
 851      56B8F736 
 851      D02F80DE 
 851      43D4E778 
 852 0287 E0DCF62F 		.ascii	"\340\334\366/P\376\015\320\007@\037\002\375\026\350"
 852      50FE0DD0 
 852      07401F02 
 852      FD16E8
 853 0296 13A0DF23 		.ascii	"\023\240\337#\232\367\260\375\214\345>\361X\303>\307"
 853      9AF7B0FD 
 853      8CE53EF1 
 853      58C33EC7 
 854 02a6 B970918D 		.ascii	"\271p\221\215;\214G\234\373\214\371\377\012\310\267"
 854      3B8C479C 
 854      FB8CF9FF 
 854      0AC8B7
 855 02b5 7B8EEDB1 		.ascii	"{\216\355\261\335y\033c\273\213\355\274\035\332\266"
 855      DD791B63 
 855      BB8BEDBC 
 855      1DDAB6
 856 02c4 B358C1BA 		.ascii	"\263X\301\272p^\337\314r\364C\226\353\345\237\353\320"
 856      705EDFCC 
 856      72F44396 
 856      EBE59FEB 
 856      D0
 857 02d5 C65AA68F 		.ascii	"\306Z\246\217\327\363\007Du`\375\357\312|\312\353\300"
 857      D7F30744 
 857      7560FDEF 
 857      CA7CCAEB 
 857      C0
 858 02e6 F3C62F99 		.ascii	"\363\306/\231|>\337\313?\005 \307\346\005:\344\362\377"
 858      7C3EDFCB 
 858      3F0520C7 
 858      E6053AE4 
 858      F2FF
 859 02f8 08F5DD4C 		.ascii	"\010\365\335L\217FA\347&\271\236\036#\375\211U\323\370"
 859      8F4641E7 
 859      26B99E1E 
 859      23FD8955 
ARM GAS  C:\Users\CHRIST~1\AppData\Local\Temp\cc36zMGe.s 			page 67


 859      D3F8
 860 030a AE52523D 		.ascii	"\256RR=\265\"<\270\276\205\3155\0152\234qj:Nq\\}\012"
 860      B5223CB8 
 860      BE85CD35 
 860      0D329C71 
 860      6A3A4E71 
 861 0321 8C7F06BA 		.ascii	"\214\177\006\272\245\244u7q\236\007*\007*ec\227\237"
 861      A5A47537 
 861      719E072A 
 861      072A6563 
 861      979F
 862 0333 47E59F24 		.ascii	"G\345\237$\221\234\317@\306\347/\220\323\311\346b\371"
 862      919CCF40 
 862      C6E72F90 
 862      D3C9E662 
 862      F9
 863 0344 274524E7 		.ascii	"'E$\347\337@\306\277\277@N\037\233\317\345\237H\304"
 863      DF40C6BF 
 863      BF404E1F 
 863      9BCFE59F 
 863      48C4
 864 0356 1D3A927E 		.ascii	"\035:\222~\3222\030q\032K\016\2574\314\240j\350\301"
 864      D2321871 
 864      1A4B0EAF 
 864      34CCA06A 
 864      E8C1
 865 0368 E36B2A5A 		.ascii	"\343k*Z\245\207\317\267P\2251rYo\213\224\034nq\2550"
 865      A587CFB7 
 865      50953172 
 865      596F8B94 
 865      1C6E71AD 
 866 037d E319B731 		.ascii	"\343\031\2671MO?\346\277RpW9\304\213;\035\335\223e\213"
 866      4D4F3FE6 
 866      BF527057 
 866      39C48B3B 
 866      1DDD9365 
 867 0392 7E44189B 		.ascii	"~D\030\233\3742O!\220\263\326\222SAq\246.f\320\026\212"
 867      FC324F21 
 867      90B3D692 
 867      534171A6 
 867      2E66D016 
 868 03a7 EB2CB90D 		.ascii	"\353,\271\015\221HY\330\222\353g\3039Z\236\303R\212"
 868      914859D8 
 868      92EB67C3 
 868      395A9EC3 
 868      528A
 869 03b9 2BAFBDE9 		.ascii	"+\257\275\351\023\240\327+\271|\316\222\313\341@\013"
 869      13A0D72B 
 869      B97CCE92 
 869      CBE1400B 
 870 03c9 B7112402 		.ascii	"\267\021$\002\006\370\3770f\211\367\325[|\254\340\256"
 870      06F8FF30 
 870      6689F7D5 
 870      5B7CACE0 
 870      AE
 871 03da 73EBB95C 		.ascii	"s\353\271\\n\275\202\313\343\0341B\314\307eC\345\025"
 871      6EBD82CB 
ARM GAS  C:\Users\CHRIST~1\AppData\Local\Temp\cc36zMGe.s 			page 68


 871      E31C3142 
 871      CCC76543 
 871      E515
 872 03ec A8042DB3 		.ascii	"\250\004-\263K\017\262U\350\014\207\021(\257D<\211\262"
 872      4B0FB255 
 872      E80C8711 
 872      28AF443C 
 872      89B2
 873 03fe 35E85848 		.ascii	"5\350XH\333z\365\020\326Q\010:n\010:@\245)%\005\306"
 873      DB7AF510 
 873      D651083A 
 873      6E083A40 
 873      A5292505 
 874 0413 952C342D 		.ascii	"\225,4-\234\262C\201\304\036\312\322\342^g\203\216\376"
 874      9CB24381 
 874      C41ECAD2 
 874      E25E6783 
 874      8EFE
 875 0425 EA77A31F 		.ascii	"\352w\243\037\353\365\033\270\022\320Q$\350(4\255\243"
 875      EBF51BB8 
 875      12D05124 
 875      E82834AD 
 875      A3
 876 0436 D8880EDC 		.ascii	"\330\210\016\334\034\364\264-\026<\266F\267\210\036"
 876      1CF4B42D 
 876      163CB646 
 876      B7881E
 877 0445 559AEF85 		.ascii	"U\232\357\205\007*\316q=\007<\034U\207\355\257\340*"
 877      072ACE71 
 877      3D073C1C 
 877      5587EDAF 
 877      E02A
 878 0457 40552973 		.ascii	"@U)s\001|b\364\240\346\301\337p5\\\233\223o\2509\250"
 878      017C62F4 
 878      A0E6C1DF 
 878      70355C9B 
 878      936FA839 
 879 046c D727E9D1 		.ascii	"\327'\351\321\353\012\356\255\365\334f\320P\006j\361"
 879      EB0AEEAD 
 879      F5DC66D0 
 879      50066AF1 
 880 047c 2D05570E 		.ascii	"-\005W\016\002ob\245\025Di\351lf\2125u\033\202\342\235"
 880      026F62A5 
 880      154469E9 
 880      6C668A35 
 880      751B82E2 
 881 0491 B0B2153B 		.ascii	"\260\262\025;K\0019\256\347\261+\270[D\302\246\365\\"
 881      4B0139AE 
 881      E7B12BB8 
 881      5B44C2A6 
 881      F55C
 882 04a3 25B5CCC1 		.ascii	"%\265\314\301\222S\221\346k\30307\374\367\033\216\200"
 882      925391E6 
 882      6BC33037 
 882      FCF71B8E 
 882      80
 883 04b4 13D8ABB8 		.ascii	"\023\330\253\270\265|#R\200\026\363\265\367\276o\035"
ARM GAS  C:\Users\CHRIST~1\AppData\Local\Temp\cc36zMGe.s 			page 69


 883      B57C2352 
 883      8016F3B5 
 883      F7BE6F1D 
 884 04c4 84F151F1 		.ascii	"\204\361Q\361P+jP\315\341\374C\276\201\267|e\241\330"
 884      502B6A50 
 884      CDE1FC43 
 884      BE81B77C 
 884      65A1D8
 885 04d7 8E425342 		.ascii	"\216BSB1\312\277\347\262\312$\264Z\036Z\015\205\266"
 885      31CABFE7 
 885      B2CA24B4 
 885      5A1E5A0D 
 885      85B6
 886 04e9 3C1AD9C9 		.ascii	"<\032\331\311\321\306X\326\301\374\316p;\032\216w\360"
 886      D1C658D6 
 886      C1FCCE70 
 886      3B1A8E77 
 886      F0
 887 04fa EDC1A6AA 		.ascii	"\355\301\246\252\006\215\012F\013q\235\207\012\3275"
 887      068D0A46 
 887      0B719D87 
 887      0AD735
 888 0509 3FA83D6D 		.ascii	"?\250=mEy\326@\361\214\177\254\303\353'H\337|\365k\224"
 888      4579D640 
 888      F18C7FAC 
 888      C3EB2748 
 888      DF7CF56B 
 889 051e DC7FBCC6 		.ascii	"\334\177\274\3065rT\276\202k\342^\207\377\0338\025\035"
 889      357254BE 
 889      826BE25E 
 889      87FF1B38 
 889      151D
 890 0530 08594712 		.ascii	"\010YG\022F\255\305\375\202\373\"p\315\2345\013\015"
 890      46ADC5FD 
 890      82FB2270 
 890      CD9C350B 
 890      0D
 891 0541 E03D515C 		.ascii	"\340=Q\\\374\324\026\325\321pJ.\036I\267\340\034\255"
 891      FCD416D5 
 891      D1704A2E 
 891      1E49B7E0 
 891      1CAD
 892 0553 693C3574 		.ascii	"i<5t\377,\246\021\307S\0334h\021\342\251\231\330\305"
 892      FF2CA611 
 892      C7531B34 
 892      6811E2A9 
 892      99D8C5
 893 0566 8478AE15 		.ascii	"\204x\256\025|+\321\220?=\267b'\270EE\304\325\003{\035"
 893      7C2BD190 
 893      3F3DB762 
 893      27B84545 
 893      C4D5037B 
 894 057b 41D34EDC 		.ascii	"A\323N\334B\014\206\271/\007\236*\267\343\261\037~\241"
 894      420C86B9 
 894      2F079E2A 
 894      B7E3B11F 
 894      7EA1
ARM GAS  C:\Users\CHRIST~1\AppData\Local\Temp\cc36zMGe.s 			page 70


 895 058d F0B6EAA5 		.ascii	"\360\266\352\245y\225X\370\355\347\011\217\352\037\357"
 895      799558F8 
 895      EDE7098F 
 895      EA1FEF
 896 059c 37171BA6 		.ascii	"7\027\033\246C\342\360N\346\360N\342\244\336[\347/\342"
 896      43E2F04E 
 896      E6F04EE2 
 896      A4DE5BE7 
 896      2FE2
 897 05ae 14F226CD 		.ascii	"\024\362&\315Nv8\025M^_\262\241U\304E\241\263g\315\320"
 897      4E763815 
 897      4D5E5FB2 
 897      A155C445 
 897      A1B367CD 
 898 05c3 136ABBFE 		.ascii	"\023j\273\376\316\345\036[\316\322\361\260A\272h\234"
 898      CEE51E5B 
 898      CED2F1B0 
 898      41BA689C 
 899 05d3 F501EE37 		.ascii	"\365\001\3567\3318\353\206\312.\250d\311g\376\315p\222"
 899      D938EB86 
 899      CA2EA864 
 899      C967FECD 
 899      7092
 900 05e5 7C7AC1F3 		.ascii	"|z\301\363=\202\221\337d\220\317\237\015O\324\240\000"
 900      3D8291DF 
 900      6490CF9F 
 900      0D4FD4A0 
 900      00
 901 05f6 4474E4C7 		.ascii	"Dt\344\307\336+W\232\322q\327\244\216\205\2647*H\362"
 901      DE2B579A 
 901      D271D7A4 
 901      8E85B437 
 901      2A48F2
 902 0609 B9033AFA 		.ascii	"\271\003:\372\005\035\275\274]*B\375B,Q\030U2\3274\031"
 902      051DBDBC 
 902      5D2A42FD 
 902      422C5118 
 902      5532D734 
 903 061e AD31A564 		.ascii	"\2551\245d\310\244\222\376\352\367h\366\031\004%\003"
 903      C8A492FE 
 903      EAF768F6 
 903      19042503 
 904 062e 82923B74 		.ascii	"\202\222;t\300\015\222\361]W\336\022e\206N\021E\252"
 904      C00D92F1 
 904      5D57DE12 
 904      65864E11 
 904      45AA
 905 0640 D89BD7A6 		.ascii	"\330\233\327\246\2558\013\232T\034\003H\232\360\015"
 905      AD380B9A 
 905      541C0348 
 905      9AF00D
 906 064f 5BC319D2 		.ascii	"[\303\031\322\304\030(\033\346`\263\300\215\000\313"
 906      C418281B 
 906      E660B3C0 
 906      8D00CB
 907 065e 28A8C239 		.ascii	"(\250\3029\005\327\220<\263\206\\\212\222\021\024\271"
 907      05D7903C 
ARM GAS  C:\Users\CHRIST~1\AppData\Local\Temp\cc36zMGe.s 			page 71


 907      B3865C8A 
 907      921114B9 
 908 066e 7B4232C2 		.ascii	"{B2\302e\320Y66t\330\022%\022\235\\\327\245\375(\203"
 908      65D05936 
 908      3674D812 
 908      25129D5C 
 908      D7A5FD28 
 909 0683 5EF2036C 		.ascii	"^\362\003l-\035`1\371\217\252\325\264h\016\305\302\370"
 909      2D1D6031 
 909      F98FAAD5 
 909      B4680EC5 
 909      C2F8
 910 0695 DC6A0DCA 		.ascii	"\334j\015\312\241\254\027\003[\016\240bj\036\3379\277"
 910      A1AC1703 
 910      5B0EA062 
 910      6A1EDF39 
 910      BF
 911 06a6 1A933E98 		.ascii	"\032\223>\2301i\236\322\357\002D\356\001\330\346\276"
 911      31699ED2 
 911      EF0244EE 
 911      01D8E6BE 
 912 06b6 DC36A0E0 		.ascii	"\3346\240\340v\362\303JkTG\265M]\250\014\324\240\333"
 912      76F2C34A 
 912      6B5447B5 
 912      4D5DA80C 
 912      D4A0DB
 913 06c9 B490337D 		.ascii	"\264\2203}1\307\206\302*\306\345\324\341SGY\206|\027"
 913      31C786C2 
 913      2AC6E5D4 
 913      E1534759 
 913      867C17
 914 06dc 8A01BE8F 		.ascii	"\212\001\276\217o\253\320 \345\325G.\307\331\240i\212"
 914      6FABD020 
 914      E5D5472E 
 914      C7D9A069 
 914      8A
 915 06ed F3BE6F6C 		.ascii	"\363\276ol\262\311x\\2\211s\340;\030\347\"\340\\0\202"
 915      B2C9785C 
 915      328973E0 
 915      3B18E722 
 915      E05C3082 
 916 0701 B3E7FE09 		.ascii	"\263\347\376\011\177\015\232\247\352\226r'Ni\220^E\012"
 916      7F0D9AA7 
 916      EA967227 
 916      4E69905E 
 916      450A
 917 0713 D50391BD 		.ascii	"\325\003\221\275J\024\240\222\200^\307@\237^\316.\267"
 917      4A14A092 
 917      805EC740 
 917      9F5ECE2E 
 917      B7
 918 0724 42A1F4E6 		.ascii	"B\241\364\346\345G\301\337A'\351\365\315\301\226[jt"
 918      E547C1DF 
 918      4127E9F5 
 918      CDC1965B 
 918      6A74
 919 0736 861682AF 		.ascii	"\206\026\202\257\370%\250P\006-\344\035\2771e\216\256"
ARM GAS  C:\Users\CHRIST~1\AppData\Local\Temp\cc36zMGe.s 			page 72


 919      F825A850 
 919      062DE41D 
 919      BF31658E 
 919      AE
 920 0747 D142C9D3 		.ascii	"\321B\311\323\316S\226\250\202\026\256\015WUXR\341z"
 920      CE5396A8 
 920      8216AE0D 
 920      57555852 
 920      E17A
 921 0759 0ECA4F92 		.ascii	"\016\312O\222\033:\314Q=\275\231\237s\243\202yq3\024"
 921      1B3ACC51 
 921      3DBD999F 
 921      73A38279 
 921      713314
 922 076c 43C2F495 		.ascii	"C\302\364\225V\3506\275Wq\347\351\254\035\032\240\205"
 922      56E836BD 
 922      5771E7E9 
 922      AC1D1AA0 
 922      85
 923 077d DB212DDD 		.ascii	"\333!-\335\0324J\012\312\234\232\236ed\230G\307\211"
 923      1A344A0A 
 923      CA9C9A9E 
 923      65649847 
 923      C789
 924 078f 09829596 		.ascii	"\011\202\225\226\\\240\362e&\321 \245\321\211:\366a"
 924      5CA0F265 
 924      26D120A5 
 924      D1893AF6 
 924      61
 925 07a0 EF980585 		.ascii	"\357\230\005\205\342\010\305\320\207\341\267\325h\232"
 925      E208C5D0 
 925      87E1B7D5 
 925      689A
 926 07ae 6AE7D723 		.ascii	"j\347\327#k\311z\204;\035\332v\015\241%z/0-\260\302"
 926      6BC97A84 
 926      3B1DDA76 
 926      0DA1257A 
 926      2F302DB0 
 927 07c3 16F9AA49 		.ascii	"\026\371\252I!\261(\177\322\014E\320\302"
 927      21B1287F 
 927      D20C45D0 
 927      C2
 928 07d0 4CFBC141 		.ascii	"L\373\301A\210dZ\270\333S\231i\213\316\321B\376Bl\276"
 928      88645AB8 
 928      DB539969 
 928      8BCED142 
 928      FE426CBE 
 929 07e4 1D4AA785 		.ascii	"\035J\247\205\272\301\225YK\224M\013M>\011`\307|\326"
 929      BAC19559 
 929      4B944D0B 
 929      4D3E0960 
 929      C77CD6
 930 07f7 46BF1C6D 		.ascii	"F\277\034m\215JHA\031[\232xEi\350t5\211\317h\350\364"
 930      8D4A4841 
 930      195B9A78 
 930      4569E874 
 930      3589CF68 
ARM GAS  C:\Users\CHRIST~1\AppData\Local\Temp\cc36zMGe.s 			page 73


 931 080d C997EA74 		.ascii	"\311\227\352t\224\361N\327\317\004=\261C\225T]\360\361"
 931      94F14ED7 
 931      CF043DB1 
 931      4395545D 
 931      F0F1
 932 081f A973B6A8 		.ascii	"\251s\266\250\201\026*\032\342\037\232\243\036Z\270"
 932      81162A1A 
 932      E21F9AA3 
 932      1E5AB8
 933 082e 1E7E0C50 		.ascii	"\036~\014P\015\320B_Tp\276\025\232\243\205\302\320\331"
 933      0DD0425F 
 933      5470BE15 
 933      9AA385C2 
 933      D0D9
 934 0840 5C0BF484 		.ascii	"\\\013\364\204\026\002\026\0072\355\320!\215\304\265"
 934      16021607 
 934      32EDD021 
 934      8DC4B5
 935 084f EBA86BA7 		.ascii	"\353\250k\247\375\356\335a\303\367u(&\265\226\315\252"
 935      FDEEDD61 
 935      C3F77528 
 935      26B596CD 
 935      AA
 936 0860 510865CD 		.ascii	"Q\010e\31584t\336\034\356\255\207\324\315\211\362\366"
 936      383474DE 
 936      1CEEAD87 
 936      D4CD89F2 
 936      F6
 937 0871 7A9AB7B3 		.ascii	"z\232\267\263\213\037\246\253P\004\341Uf\245\017\375"
 937      8B1FA6AB 
 937      5004E155 
 937      66A50FFD 
 938 0881 45580ACE 		.ascii	"EX\012\316\277\226\213\023K*\330\341\234`\207\365\314"
 938      BF968B13 
 938      4B2AD8E1 
 938      9C6087F5 
 938      CC
 939 0892 0CF2754C 		.ascii	"\014\362uL\012\030a=3B\262r=wVI\214p>.\365\246\015:"
 939      0A18613D 
 939      3342B272 
 939      3D775649 
 939      8C703E2E 
 940 08aa 4DE5F7A5 		.ascii	"M\345\367\245\337\257G\242u\340\033WH*\276\010\032\316"
 940      DFAF47A2 
 940      75E01B57 
 940      482ABE08 
 940      1ACE
 941 08bc 0B1A40A1 		.ascii	"\013\032@\241q\025\027\214\2538\030\321\222f\201\222"
 941      7115178C 
 941      AB3818D1 
 941      92668192 
 942 08cc A98A83E5 		.ascii	"\251\212\203\345aMf\374P\2276\277d\2449\237\257\035"
 942      614D66FC 
 942      509736BF 
 942      64A4399F 
 942      AF1D
 943 08de 69BE4E07 		.ascii	"i\276N\007$i\002\222\213J6\326\371\370]G\343\367f\352"
ARM GAS  C:\Users\CHRIST~1\AppData\Local\Temp\cc36zMGe.s 			page 74


 943      24690292 
 943      8B4A36D6 
 943      F9F85D47 
 943      E3F766EA 
 944 08f2 F53E1B94 		.ascii	"\365>\033\224N\015\034\034\362,\003\241\253T\375\324"
 944      4E0D1C1C 
 944      F22C03A1 
 944      AB54FDD4 
 945 0902 D1D41C8D 		.ascii	"\321\324\034\215q\365WL\252/%\203\3542\350\3162\242"
 945      71F5574C 
 945      AA2F2583 
 945      EC32E8CE 
 945      32A2
 946 0914 BBC07F76 		.ascii	"\273\300\177v/*\240\272\316\226e4\231\241r\252\253s"
 946      2F2AA0BA 
 946      CE966534 
 946      99A172AA 
 946      AB73
 947 0926 AE264214 		.ascii	"\256&B\024\264DH\016\010\271*\027b\004\3145\343\246"
 947      B444480E 
 947      08B92A17 
 947      6204CC35 
 947      E3A6
 948 0938 8C2B683A 		.ascii	"\214+h:\257B\365TY\326\251[K\026\226\254\361\341\347"
 948      AF42F554 
 948      59D6A95B 
 948      4B1696AC 
 948      F1E1E7
 949 094b 2E59F178 		.ascii	".Y\361xZ\\\271)Yh]W\212W\201yJk\2665\211\353\270\336"
 949      5A5CB929 
 949      59685D57 
 949      8A578179 
 949      4A6BB635 
 950 0963 A7426D54 		.ascii	"\247BmT\307\240\276\254E\211zi!=\251/\331\002\335\243"
 950      C7A0BEAC 
 950      45897A69 
 950      213DA92F 
 950      D902DDA3 
 951 0977 8582AE63 		.ascii	"\205\202\256c\2436h\202\026\372.=\273\241A\367i!\256"
 951      A3366882 
 951      16FA2E3D 
 951      BBA141F7 
 951      6921AE
 952 098a 6726DD0C 		.ascii	"g&\335\014\315R#\264\257\214\216\302B\322Q\244\030\226"
 952      CD5223B4 
 952      AF8C8EC2 
 952      42D251A4 
 952      1896
 953 099c 8386A159 		.ascii	"\203\206\241Y\012\375t\342\327H\314\331\375\250n\020"
 953      0AFD74E2 
 953      D748CCD9 
 953      FDA86E10 
 954 09ac 66581557 		.ascii	"fX\025W\242\264\346\212\005c9YS\200w\016V\264\230\243"
 954      A2B4E68A 
 954      05633959 
 954      5380770E 
 954      56B498A3 
ARM GAS  C:\Users\CHRIST~1\AppData\Local\Temp\cc36zMGe.s 			page 75


 955 09c0 04339A67 		.ascii	"\0043\232g\246[\237\330\240dZ\320/\025vi\320yZ\350>"
 955      A65B9FD8 
 955      A0645AD0 
 955      2F157669 
 955      D0795AE8 
 956 09d5 BE78C702 		.ascii	"\276x\307\002\245\321\302\255\266\340\"\310\327\264"
 956      A5D1C2AD 
 956      B6E022C8 
 956      D7B4
 957 09e3 90527347 		.ascii	"\220RsG\257F\227i\341FP\315\023st\225\026b\362\002\016"
 957      AF469769 
 957      E14650CD 
 957      13737495 
 957      1662F202 
 958 09f8 5AA25C5A 		.ascii	"Z\242\\Z\270\270\3620\324\032\345\323\302\342\215\246"
 958      B8B8F230 
 958      D41AE5D3 
 958      C2E28DA6 
 959 0a08 44251DC2 		.ascii	"D%\035\302\016P\274P\034|\013\321\200\213\207%\266U"
 959      0E50BC50 
 959      1C7C0BD1 
 959      808B8725 
 959      B655
 960 0a1a EDA1DA00 		.ascii	"\355\241\332\000s\316\201~\354\035\035\034\022q\177"
 960      73CE817E 
 960      EC1D1D1C 
 960      12717F
 961 0a29 8B5716D1 		.ascii	"\213W\026\321\231\363AG\364\361\245\034\351M\031\364"
 961      99F34147 
 961      F4F1A51C 
 961      E94D19F4 
 962 0a39 A64D692F 		.ascii	"\246Mi/\364?Q\211\215\177\035\273@A\233<\3768F_\354"
 962      F43F5189 
 962      8D7F1DBB 
 962      40419B3C 
 962      FE38465F 
 963 0a4e 87087BB5 		.ascii	"\207\010{\265\234}\023\346\336\"0\227~\"0W\031e\026"
 963      9C7D13E6 
 963      DE223097 
 963      7E223057 
 963      196516
 964 0a61 8B6E1671 		.ascii	"\213n\026qW\312\271\24789\373\200\210\275\\\316>\271"
 964      57CAB9A7 
 964      3839FB80 
 964      88BD5CCE 
 964      3EB9
 965 0a73 8AFDB188 		.ascii	"\212\375\261\210\275H\316~T)C>.\342\276i\334*\204;\234"
 965      BD48CE7E 
 965      5429433E 
 965      2EE2BE69 
 965      DC2A843B 
 966 0a88 2D97F5B0 		.ascii	"-\227\365\260a\340\352`$\324\302=\256\206\265\200\310"
 966      61E0EA60 
 966      24D4C23D 
 966      AE86B580 
 966      C8
 967 0a99 E0DA2184 		.ascii	"\340\332!\204\032\224\016\\#P\007P\023\320m\240f\240"
ARM GAS  C:\Users\CHRIST~1\AppData\Local\Temp\cc36zMGe.s 			page 76


 967      1A940E5C 
 967      23500750 
 967      13D06DA0 
 967      66A0
 968 0aab 56A07AA0 		.ascii	"V\240z\240\026\245\003Yf\321\010\033.\\\343\003\002"
 968      16A50359 
 968      66D1081B 
 968      2E5CE303 
 968      02
 969 0abc B104050B 		.ascii	"\261\004\005\013.\205\001X_\325\332D_\375\255\315\004"
 969      2E850158 
 969      5FD5DA44 
 969      5FFDADCD 
 969      04
 970 0acd 5985F16E 		.ascii	"Y\205\361n\213\372Q-\352\307-\3436%\334x\346\034\230"
 970      8BFA512D 
 970      EAC72DE3 
 970      3625DC78 
 970      E61C98
 971 0ae0 9A568B47 		.ascii	"\232V\213G\240\230\027V\362\206\021\230\2632\376@\215"
 971      A0981756 
 971      F2861198 
 971      B332FE40 
 971      8D
 972 0af1 6648E0A1 		.ascii	"fH\340\241\254\211\253\251v\234\275\203c8\233\332\210"
 972      AC89ABA9 
 972      769CBD83 
 972      63389BDA 
 972      88
 973 0b02 250C2ABA 		.ascii	"%\014*\272@g7\263D/X\242\207\365\224\242\203\261\024"
 973      406737B3 
 973      442F58A2 
 973      87F594A2 
 973      83B114
 974 0b15 732F98C6 		.ascii	"s/\230\306\037\310\347\012\031\267\221\200\242\246\251"
 974      1FC8E70A 
 974      19B79180 
 974      A2A6A9
 975 0b24 3F4F4DD3 		.ascii	"?OM\323-5\015^\023\364\224\214+\321\022\035\015\023"
 975      2D350D5E 
 975      13F4948C 
 975      2BD1121D 
 975      0D13
 976 0b36 C317DB95 		.ascii	"\303\027\333\225\010\362\031.\234\352/\355c\213\207"
 976      08F2192E 
 976      9CEA2FED 
 976      638B87
 977 0b45 9B64D1D3 		.ascii	"\233d\321\323\037\031h\315\306\006~\240Q\321\264Rh\201"
 977      1F1968CD 
 977      C6067EA0 
 977      51D1B452 
 977      6881
 978 0b57 8228F395 		.ascii	"\202(\363\225\225\363\376\010\035#\205\367RZz&,\240"
 978      95F3FE08 
 978      1D2385F7 
 978      525A7A26 
 978      2CA0
ARM GAS  C:\Users\CHRIST~1\AppData\Local\Temp\cc36zMGe.s 			page 77


 979 0b69 6FD6F60E 		.ascii	"o\326\366\016\366\016\370\177\370\347\200\257\035\341"
 979      F60EF87F 
 979      F8E780AF 
 979      1DE1
 980 0b77 434792A3 		.ascii	"CG\222\243\303:\007r\313\301\321\301\332\032W::\030"
 980      C33A0772 
 980      CBC1D1C1 
 980      DA1A573A 
 980      3A18
 981 0b89 3E8E268C 		.ascii	">\216&\214\022\006\335\034bF\321#G\356\236\324(\301"
 981      1206DD1C 
 981      6246D123 
 981      47EE9ED4 
 981      28C1
 982 0b9b EAB1F2A3 		.ascii	"\352\261\362\243\324(\303`\224\025\216r\0331\212\310"
 982      D428C360 
 982      94158E72 
 982      1B318AC8 
 983 0bab 59231267 		.ascii	"Y#\022g\341v\324<\222\000\275\013\001z\007\007h\034"
 983      E176D43C 
 983      9200BD0B 
 983      017A0707 
 983      681C
 984 0bbd 681D6308 		.ascii	"h\035c\010\316\300\365i\344\300\235\002\212\005\212"
 984      CEC0F569 
 984      E4C09D02 
 984      8A058A
 985 0bcc 018A068A 		.ascii	"\001\212\006\212\002:\011t\002\3508P$\320A\240g\020"
 985      023A0974 
 985      02E83850 
 985      24D041A0 
 985      6710
 986 0bde B04F819E 		.ascii	"\260O\201\236\000-\003M\000\215\003\215JzQ\372\377h"
 986      002D034D 
 986      008D038D 
 986      4A7A51FA 
 986      FF68
 987 0bf0 E041F61C 		.ascii	"\340A\366\034\200\356\216\211;\360\2103>~\014\360\372"
 987      80EE8E89 
 987      3BF08833 
 987      3E7E0CF0 
 987      FA
 988 0c01 598BBF1F 		.ascii	"Y\213\277\037\274\372\256\265Id\030\341\345\371<'\003"
 988      BCFAAEB5 
 988      496418E1 
 988      E5F93C27 
 988      03
 989 0c12 38B72A7B 		.ascii	"8\267*{Lw\256\243\374\223`\331\307\306\371\345.\231"
 989      4C77AEA3 
 989      FC9360D9 
 989      C7C6F9E5 
 989      2E99
 990 0c24 92B86492 		.ascii	"\222\270d\222\216\037I\207\375\240\303x\310r\207\240"
 990      8E1F4987 
 990      FDA0C378 
 990      C87287A0 
 991 0c34 C353ACC3 		.ascii	"\303S\254\303K0Lf\001\360\014\320\264\004\364`\250\372"
ARM GAS  C:\Users\CHRIST~1\AppData\Local\Temp\cc36zMGe.s 			page 78


 991      4B304C66 
 991      01F00CD0 
 991      B404F460 
 991      A8FA
 992 0c46 59B65E1F 		.ascii	"Y\266^\037\250\341\356\003\212e\016ITHR\244\010\306"
 992      A8E1EE03 
 992      8A650E49 
 992      544852A4 
 992      08C6
 993 0c58 03098CFB 		.ascii	"\003\011\214\373\317\203\361\030T\277\030\306@\012\322"
 993      CF83F118 
 993      54BF18C6 
 993      400AD2
 994 0c67 9F7D9DC4 		.ascii	"\237}\235\304\330\023\343\030\370\004\004#\266\375\244"
 994      D813E318 
 994      F8040423 
 994      B6FDA4
 995 0c76 990F0984 		.ascii	"\231\017\011\204\207\300\366\214\261?\005\366)i(K\000"
 995      87C0F68C 
 995      B13F05F6 
 995      2969284B 
 995      00
 996 0c87 19EE2F02 		.ascii	"\031\356/\002\2109\006h\001\256\347\001\314#\371hY\022"
 996      88390668 
 996      01AEE701 
 996      CC23F968 
 996      5912
 997 0c99 8F161FB0 		.ascii	"\217\026\037\260\344\234\211i\306\270\016=kaZG\351&"
 997      E49C8969 
 997      C6B80E3D 
 997      6B615A47 
 997      E926
 998 0cab 1ACBFC68 		.ascii	"\032\313\374h\\-_\224\242\236]\242)jN\232\242\350\315"
 998      5C2D5F94 
 998      A29E5DA2 
 998      296A4E9A 
 998      A2E8CD
 999 0cbe 9158756A 		.ascii	"\221Xuj\3221\274x\300\3468(,\0360\267\201)T\275\224"
 999      D231BC78 
 999      C0E63828 
 999      2C1E30B7 
 999      812954BD 
 1000 0cd3 89979353 		.ascii	"\211\227\223S\306D\014\2370#\333_h\357+\264\237\"\355"
 1000      C6440C9F 
 1000      3023DB5F 
 1000      68EF2BB4 
 1000      9F22ED
 1001 0ce6 29DCEE60 		.ascii	")\334\356`\365\321\032\177}\2303y~\020 \037}\376\322"
 1001      F5D11A7F 
 1001      7D983379 
 1001      7E10201F 
 1001      7DFED2
 1002 0cf9 391D2F20 		.ascii	"9\035/ ?\243\375\303\373\264\303\306\331E\036\035\370"
 1002      3FA3FDC3 
 1002      FBB4C3C6 
 1002      D9451E1D 
 1002      F8
ARM GAS  C:\Users\CHRIST~1\AppData\Local\Temp\cc36zMGe.s 			page 79


 1003 0d0a A3E0D023 		.ascii	"\243\340\320#\214\333`\314\0209\367\354\037\250\354"
 1003      8CDB60CC 
 1003      1039F7EC 
 1003      1FA8EC
 1004 0d19 15E00A95 		.ascii	"\025\340\012\225\313>\252\2249gU\252\364\201\321o,U"
 1004      CB3EAA94 
 1004      396755AA 
 1004      F481D16F 
 1004      2C55
 1005 0d2b 525B5430 		.ascii	"R[T0[\017\231\260u\264/\2615\326\035.\330j\210\267\225"
 1005      5B0F99B0 
 1005      75B42FB1 
 1005      35D61D2E 
 1005      D86A88B7 
 1006 0d40 9E26DBF3 		.ascii	"\236&\333\363,||\321:\356\230q\210\244C\307\214!T\220"
 1006      2C7C7CD1 
 1006      3AEE9871 
 1006      88A443C7 
 1006      8C215490 
 1007 0d54 66185E04 		.ascii	"f\030^\004\300;\006\011(\034(\014(\004\310\037\350\020"
 1007      C03B0609 
 1007      281C280C 
 1007      2804C81F 
 1007      E810
 1008 0d66 901F12C7 		.ascii	"\220\037\022\307\323\343\355\324&\330=\021\240\020K"
 1008      D3E3EDD4 
 1008      26D83D11 
 1008      A0104B
 1009 0d75 30B9867A 		.ascii	"0\271\206zV+\312<\221/\342\236\375?Tt\000\262\346\216"
 1009      562BCA3C 
 1009      912FE29E 
 1009      FD3F5474 
 1009      00B2E68E 
 1010 0d89 9B6616A5 		.ascii	"\233f\026\245\207\303H\234\036\240\335\252\364\300?"
 1010      87C3489C 
 1010      1EA0DDAA 
 1010      F4C03F
 1011 0d98 03E46241 		.ascii	"\003\344bA f\307\275\015\206\336\006A\317\002\205\236"
 1011      2066C7BD 
 1011      0D86DE06 
 1011      41CF0285 
 1011      9E
 1012 0da9 E1E79CA9 		.ascii	"\341\347\234\251\352\373\263\243z\3751k\262\377=\301"
 1012      EAFBB3A3 
 1012      7AFD316B 
 1012      B2FF3DC1 
 1013 0db9 1A984E0F 		.ascii	"\032\230N\017\343\257\341T\202C)\206\361\032\311\015"
 1013      E3AFE154 
 1013      82432986 
 1013      F11AC90D 
 1014 0dc9 2CF0FDD5 		.ascii	",\360\375\3258\360\201g\365\252\010\334x\251\212\271"
 1014      38F08167 
 1014      F5AA08DC 
 1014      78A98AB9 
 1015 0dd9 F10874FD 		.ascii	"\361\010t\375\324Ku\375(p\012]?B\273nbN\345B\241\303"
 1015      D44B75FD 
 1015      28700A5D 
ARM GAS  C:\Users\CHRIST~1\AppData\Local\Temp\cc36zMGe.s 			page 80


 1015      3F42BB6E 
 1015      624EE542 
 1016 0def C2B46A08 		.ascii	"\302\264j\010\261\020\337`\034bX\324i!\304\206I\226"
 1016      B110DF60 
 1016      1C6258D4 
 1016      6921C486 
 1016      4996
 1017 0e01 35608BE3 		.ascii	"5`\213\343\261\301lx\346\271.\304A]\305\246&<\034\343"
 1017      B1C16C78 
 1017      E6B92EC4 
 1017      415DC5A6 
 1017      263C1CE3 
 1018 0e15 5EC45DFD 		.ascii	"^\304]\375\2610v\343M3S\274\355E\032lB\340Ym\302\371"
 1018      B13076E3 
 1018      4D3353BC 
 1018      ED451A6C 
 1018      42E0596D 
 1019 0e2b 1B6B7D7D 		.ascii	"\033k}}\365Q\233\311&6\211\015\003\266c\243\013\336"
 1019      F5519BC9 
 1019      2636890D 
 1019      03B663A3 
 1019      0BDE
 1020 0e3d 04A5685D 		.ascii	"\004\245h]\371^\224\276\330\007\221]g\2461\346\014\021"
 1020      F95E94BE 
 1020      D807915D 
 1020      67A631E6 
 1020      0C11
 1021 0e4f F3F83F53 		.ascii	"\363\370?Sf\274\273\3146\306,\236i\333\363X\274\303"
 1021      66BCBBCC 
 1021      36C62C9E 
 1021      69DBF358 
 1021      BCC3
 1022 0e61 968FCB95 		.ascii	"\226\217\313\225\017\307D\371B\275\353\227Bn\316\227"
 1022      0FC744F9 
 1022      42BDEB97 
 1022      426ECE97 
 1023 0e71 73AFDE05 		.ascii	"s\257\336\0054\213\330o\030g\027\273\342:s\005^\224"
 1023      348BD86F 
 1023      186717BB 
 1023      E23A7305 
 1023      5E94
 1024 0e83 16C8D957 		.ascii	"\026\310\331WoI\036\277K\245\343EE\237qv\021\364\351"
 1024      6F491EBF 
 1024      4BA5E345 
 1024      459F7176 
 1024      11F4E9
 1025 0e96 5CD6537E 		.ascii	"\\\326S~\336\03231o\261\236\276+\235\205Vs\213=\235"
 1025      DE1A3331 
 1025      6FB19EBE 
 1025      2B9D8556 
 1025      738B3D9D 
 1026 0eaa 4B33E398 		.ascii	"K3\343\230\211\314\270\362\010O08\300\007\205\250\035"
 1026      89CCB8F2 
 1026      084F3038 
 1026      C00785A8 
 1026      1D
 1027 0ebb 23891156 		.ascii	"#\211\021V\301\017O\036/\265C\011\026t\037\037\331\264"
ARM GAS  C:\Users\CHRIST~1\AppData\Local\Temp\cc36zMGe.s 			page 81


 1027      C10F4F1E 
 1027      2FB54309 
 1027      16741F1F 
 1027      D9B4
 1028 0ecd 02BB565A 		.ascii	"\002\273VZ\230yr:\207-\246\327A\361i\177X\230\031[K"
 1028      9879723A 
 1028      872DA6D7 
 1028      41F1697F 
 1028      5898195B 
 1029 0ee2 E3A74337 		.ascii	"\343\247C7\322\263B5(\227\3626d\265\370\330\242RR\260"
 1029      D2B34235 
 1029      2897F236 
 1029      64B5F8D8 
 1029      A25252B0 
 1030 0ef6 BC70682C 		.ascii	"\274ph,X\311\331\333\343\3651^'K2L\022Z\317%\"\350F"
 1030      58C9D9DB 
 1030      E3F5315E 
 1030      274B324C 
 1030      125ACF25 
 1031 0f0d 0242DC39 		.ascii	"\002B\3349\226a\322a\300]\204\014s\011(\025\350\002"
 1031      9661D261 
 1031      C05D840C 
 1031      73092815 
 1031      E802
 1032 0f1f 5006CB36 		.ascii	"P\006\3136\306[\237\207\026/\323\232\332\263\256\333"
 1032      C65B9F87 
 1032      162FD39A 
 1032      DAB3AEDB 
 1033 0f2f 819A1FA7 		.ascii	"\201\232\037\247\341Y\216*6\346-\226~\346\311\274\233"
 1033      E1598E2A 
 1033      36E62D96 
 1033      7EE6C9BC 
 1033      9B
 1034 0f40 024CC9C8 		.ascii	"\002L\311\310`2h#\254)\243X\264\340G\323\323\306\005"
 1034      60326823 
 1034      AC29A358 
 1034      B4E047D3 
 1034      D3C605
 1035 0f53 4A223DC5 		.ascii	"J\"=\305\214z4\015\222G<\222\361\033\315X)\222d\235"
 1035      8C7A340D 
 1035      92473C92 
 1035      F11BCD58 
 1035      2992649D 
 1036 0f67 463316DB 		.ascii	"F3\026\333\032\005 \214\357\234\261\3648\315k\302\261"
 1036      1A05208C 
 1036      EF9CB1F4 
 1036      38CD6BC2 
 1036      B1
 1037 0f78 F3508E6C 		.ascii	"\363P\216lU\244\365\211;rV\016L4J`\377\027\235W<\215"
 1037      55A4F589 
 1037      3B72560E 
 1037      4C344A60 
 1037      FF179D57 
 1038 0f8e 4CEFFFC6 		.ascii	"L\357\377\306AY&s\311epI\226\304\005}\321l"
 1038      41592673 
 1038      C9657049 
 1038      96C4057D 
ARM GAS  C:\Users\CHRIST~1\AppData\Local\Temp\cc36zMGe.s 			page 82


 1038      D16C
 1039 0fa0 04600B4C 		.ascii	"\004`\013L0V\3231\035\275\346 \216\351L$\337\374u?."
 1039      3056D331 
 1039      1DBDE620 
 1039      8EE94C24 
 1039      DFFC753F 
 1040 0fb5 3F68875A 		.ascii	"?h\207Z,\350\333\243\225\307+\020i&\000]\005\020\306"
 1040      2CE8DBA3 
 1040      95C72B10 
 1040      6926005D 
 1040      0510C6
 1041 0fc8 005115F3 		.ascii	"\000Q\025\363\321$Af\003\303\025\301\311\231\210\215"
 1041      D1244166 
 1041      03C315C1 
 1041      C999888D 
 1042 0fd8 8B9987C1 		.ascii	"\213\231\207\301?\022\357\220\263%\356\270F\335\201"
 1042      3F12EF90 
 1042      B325EEB8 
 1042      46DD81
 1043 0fe7 BF81F752 		.ascii	"\277\201\367R\332r\246%y\021\011I\237\276\207\214\217"
 1043      DA72A625 
 1043      79110949 
 1043      9FBE878C 
 1043      8F
 1044 0ff8 09CEB431 		.ascii	"\011\316\2641\371\3461\027"
 1044      F9E63117 
 1045 1000 E1378F39 		.ascii	"\3417\2179\210\275y\214\367\011n\221l\307\341\276H\331"
 1045      88BD798C 
 1045      F7096E91 
 1045      6CC7E1BE 
 1045      48D9
 1046 1012 75C44F45 		.ascii	"u\304OE\370\022\370\303\037\314FhL\276E\315C\354-\352"
 1046      F812F8C3 
 1046      1FCC4668 
 1046      4CBE45CD 
 1046      43EC2DEA 
 1047 1026 66FACC33 		.ascii	"f\372\3143\177zY%\177\277+@\311Gk\3716\244\000-\202"
 1047      7F7A5925 
 1047      7FBF2B40 
 1047      C9476BF9 
 1047      36A4002D 
 1048 103b 22038EDA 		.ascii	"\"\003\216\332\210\341@\265H\376\015\326\367\033\004"
 1048      88E140B5 
 1048      48FE0DD6 
 1048      F71B04
 1049 104a 4BE8D5EE 		.ascii	"K\350\325\356'vh\200\372\343P\303\2651\223oy\212\220"
 1049      27766880 
 1049      FAE350C3 
 1049      B531936F 
 1049      798A90
 1050 105d A9B72790 		.ascii	"\251\267'\220\244&Zq\222*D\226\\\001\222\277\004\203"
 1050      A4265A71 
 1050      922A4496 
 1050      5C0192BF 
 1050      0483
 1051 106f 5AFC6AA3 		.ascii	"Z\374j\243\244\240\310\252\237\353\345\260\235\327\020"
 1051      A4A0C8AA 
ARM GAS  C:\Users\CHRIST~1\AppData\Local\Temp\cc36zMGe.s 			page 83


 1051      9FEBE5B0 
 1051      9DD710
 1052 107e 47721CFD 		.ascii	"Gr\034\375\037\2761\221\362\012\377\341h=\324*\351\027"
 1052      1FBE3191 
 1052      F20AFFE1 
 1052      683DD42A 
 1052      E917
 1053 1090 63C505BE 		.ascii	"c\305\005\276\011g\250Q2\031J^.\371\307\004pb\251\364"
 1053      0967A851 
 1053      32194A5E 
 1053      2EF9C704 
 1053      7062A9F4 
 1054 10a4 3E55C77F 		.ascii	">U\307\177\024\224\237\342\021\332\321*\245\240L\324"
 1054      14949FE2 
 1054      11DAD12A 
 1054      A5A04CD4 
 1055 10b4 64155685 		.ascii	"d\025V\205\341\266\001\224\320I\216E\177\333d\310%\353"
 1055      E1B60194 
 1055      D0498E45 
 1055      7FDB64C8 
 1055      25EB
 1056 10c6 3B5C1FDC 		.ascii	";\\\037\334\375\\\241\0103w'\3317(\361~\206-\232\244"
 1056      FD5CA108 
 1056      337727D9 
 1056      3728F17E 
 1056      862D9AA4 
 1057 10da A93866B1 		.ascii	"\2518f\261r\334\362\215x}\361\0350l\241\372\310!\177"
 1057      72DCF28D 
 1057      787DF11D 
 1057      306CA1FA 
 1057      C8217F
 1058 10ed 588F70BF 		.ascii	"X\217p\277!1U*\330\026.\341\377\022t\207\343\212Q?\310"
 1058      2131552A 
 1058      D8162EE1 
 1058      FF127487 
 1058      E38A513F 
 1059 1102 2B436F40 		.ascii	"+Co@\353\311G738\024F\237\370\017\345\026\374\210I\352"
 1059      EBC94737 
 1059      33381446 
 1059      9FF80FE5 
 1059      16FC8849 
 1060 1117 FA316415 		.ascii	"\3721d\025\030\222z%\021tS\020tS.\250\234\010\362\317"
 1060      18927A25 
 1060      11745310 
 1060      74532EA8 
 1060      9C08F2CF 
 1061 112b 3B37A842 		.ascii	";7\250BQTP\321\225\232A\013&\251=\346\273\011\276\372"
 1061      515450D1 
 1061      959A410B 
 1061      26A93DE6 
 1061      BB09BEFA 
 1062 113f 543DF637 		.ascii	"T=\3667~K]!\210\252\220\213\252$\242\016O\214d#\024"
 1062      7E4B5D21 
 1062      88AA908B 
 1062      AA24A20E 
 1062      4F8C6423 
 1063 1154 4B45C576 		.ascii	"KE\305vt\034\341EU\177\327\000\012K\272%H\272%\227T"
ARM GAS  C:\Users\CHRIST~1\AppData\Local\Temp\cc36zMGe.s 			page 84


 1063      741CE145 
 1063      557FD700 
 1063      0A4BBA25 
 1063      48BA2597 
 1064 1169 45245D8E 		.ascii	"E$]\216\012\232\263Ag\250\244\205\360\233UvLR\251TR"
 1064      0A9AB341 
 1064      67A8A485 
 1064      F09B5576 
 1064      4C52A954 
 1065 117e B520A95A 		.ascii	"\265 \251Z.\251\206H:r\260\370\007(\201\012J\013Y\211"
 1065      2EA98648 
 1065      3A72B0F8 
 1065      0728810A 
 1065      4A0B5989 
 1066 1192 549B1CEB 		.ascii	"T\233\034\353ud\254{\260\241\336\3457\023\315+\035\027"
 1066      7564AC7B 
 1066      B0A1DEE5 
 1066      3713CD2B 
 1066      1D17
 1067 11a4 94021357 		.ascii	"\224\002\023W+(\255\225+\255'J\373\356\366\376\032]"
 1067      2B28AD95 
 1067      2BAD274A 
 1067      FBEEF6FE 
 1067      1A5D
 1068 11b6 A24A4F65 		.ascii	"\242JOe\217\217[\361\316\371\216DP\203 \250A.\250\221"
 1068      8F8F5BF1 
 1068      CEF98E44 
 1068      508320A8 
 1068      412EA891 
 1069 11ca 088A0A8B 		.ascii	"\010\212\012\213i\345\320u*\251\266\342\334\012\342"
 1069      69E5D075 
 1069      2AA9B6E2 
 1069      DC0AE2
 1070 11d9 EDE02891 		.ascii	"\355\340(\221\324$Hj\222Kj&\222*\342W\242-\320M*)*\275"
 1070      D424486A 
 1070      924B6A26 
 1070      922AE257 
 1070      A22DD04D 
 1071 11f1 295FC524 		.ascii	")_\305$=\376\027\211\244\026AR\213\\R+\221\324]\036"
 1071      3DFE1789 
 1071      A4164152 
 1071      8B5C522B 
 1071      91D45D1E 
 1072 1205 B8A4440D 		.ascii	"\270\244D\015/c\322v\211I\257\317e>3\347-\361\223\230"
 1072      2F63D276 
 1072      8949AFCF 
 1072      653E33E7 
 1072      2DF19398 
 1073 1219 78A21561 		.ascii	"x\242\025a&\256M\320\332&\327z\233h\315\251\356I\264"
 1073      26AE4DD0 
 1073      DA26D77A 
 1073      9B68CDA9 
 1073      EE49B4
 1074 122c 4483546B 		.ascii	"D\203Tktj\301\237\230\240F\016\"4l\003\301\336!H\351"
 1074      746AC19F 
 1074      98A0460E 
 1074      22346C03 
ARM GAS  C:\Users\CHRIST~1\AppData\Local\Temp\cc36zMGe.s 			page 85


 1074      C1DE2148 
 1075 1241 904BE924 		.ascii	"\220K\351$R\202*\226W\354\320\203\227\301\336-\301\336"
 1075      52822A96 
 1075      57ECD083 
 1075      97C1DE2D 
 1075      C1DE
 1076 1253 DC57E3CB 		.ascii	"\334W\343\313\017\326\201_\033\260\003\023\327%h\355"
 1076      0FD6815F 
 1076      1BB00313 
 1076      D72568ED 
 1077 1263 926BED21 		.ascii	"\222k\355!Z\357^\010\017D\310\317\212\276\023NyZmc\004"
 1077      5AEF5E08 
 1077      0F44C8CF 
 1077      8ABE134E 
 1077      795A6D63 
 1078 1278 7CAF20A6 		.ascii	"|\257 \246W.\246\217\210Y<\331\265d\203\302\251\230"
 1078      572EA68F 
 1078      88593CD9 
 1078      B56483C2 
 1078      A998
 1079 128a B3E9874E 		.ascii	"\263\351\207NX\221\251\254\302p\246fb,rVe\262CwI\207"
 1079      5891A9AC 
 1079      C270A666 
 1079      622C7256 
 1079      65B24377 
 1080 12a0 EEF07359 		.ascii	"\356\360sYp\307\275\3438\232\356\340-\342\244:\327\027"
 1080      70C7BDE3 
 1080      389AEEE0 
 1080      2DE2A43A 
 1080      D717
 1081 12b2 D24F0247 		.ascii	"\322O\002G\330\270~\001K?\242\007\016\270\001\202a\354"
 1081      D8B87E01 
 1081      4B3FA207 
 1081      0EB80182 
 1081      61EC
 1082 12c4 F6B37750 		.ascii	"\366\263wP\036\205\320\2333\323h+\236~\244\007\222\206"
 1082      1E85D09B 
 1082      33D3682B 
 1082      9E7EA407 
 1082      9286
 1083 12d6 10FF707A 		.ascii	"\020\377pz<\321o\230\236\377\201:\2065\247{\254SM\352"
 1083      3CD16F98 
 1083      9EFF813A 
 1083      8635A77B 
 1083      AC534DEA 
 1084 12ea 3EB7E4EE 		.ascii	">\267\344\356!Rw79k\305J\214\037\237x\020:0B:0\314w"
 1084      21527737 
 1084      396BC54A 
 1084      8C1F9F78 
 1084      103A3042 
 1085 1302 20BBF468 		.ascii	" \273\364h\241\015\353@\327\367b\364\245J\314\301\015"
 1085      A10DEB40 
 1085      D7F762F4 
 1085      A54ACCC1 
 1085      0D
 1086 1313 0AD80779 		.ascii	"\012\330\007y\354\243\004{\347\370\351\030;\324H\301"
 1086      ECA3047B 
ARM GAS  C:\Users\CHRIST~1\AppData\Local\Temp\cc36zMGe.s 			page 86


 1086      E7F8E918 
 1086      3BD448C1 
 1087 1323 2F556607 		.ascii	"/Uf\007QL\203\006\373\025\216=\314R\212;\204O\333\010"
 1087      514C8306 
 1087      FB158E3D 
 1087      CC528A3B 
 1087      844FDB08 
 1088 1337 1D9A3074 		.ascii	"\035\2320t(\364\\t\261-i\014u\3348E\177>j!\326\264\365"
 1088      28F45C74 
 1088      B12D690C 
 1088      75DC3845 
 1088      7F3E6A21 
 1089 134e A708F849 		.ascii	"\247\010\370I\036\374\304By\256-\003_\323\275\341|\266"
 1089      1EFCC442 
 1089      79AE2D03 
 1089      5FD3BDE1 
 1089      7CB6
 1090 1360 DE4F8D79 		.ascii	"\336O\215y\2701\001\376\030\017\177\232\300/\034\272"
 1090      B83101FE 
 1090      180F7F9A 
 1090      C02F1CBA 
 1091 1370 106A8DFA 		.ascii	"\020j\215\372(\374\206\231\332&%A\200mD\341W\235\252"
 1091      28FC8699 
 1091      DA262541 
 1091      806D44E1 
 1091      579DAA
 1092 1383 99B7E44D 		.ascii	"\231\267\344M\372\200\202z\220\224\330mm\332\244\263"
 1092      FA80827A 
 1092      9094D86D 
 1092      6DDAA4B3 
 1093 1393 04D50C8F 		.ascii	"\004\325\014\217\352\370\275\273}|L\324L\252\363\312"
 1093      EAF8BDBB 
 1093      7D7C4CD4 
 1093      4CAAF3CA 
 1094 13a3 FC8BFF44 		.ascii	"\374\213\377D\230\270\373\002\254\373<\254\207\004V"
 1094      98B8FB02 
 1094      ACFB3CAC 
 1094      870456
 1095 13b2 75CAC202 		.ascii	"u\312\302\002B\023\024\326hmM\255\031\201\220f\360t"
 1095      421314D6 
 1095      686D4DAD 
 1095      19819066 
 1095      F074
 1096 13c4 CACAE130 		.ascii	"\312\312\3410\352iX\204qs\024WQ\337\240\351\363^\013"
 1096      EA695884 
 1096      71731457 
 1096      51DFA0E9 
 1096      F35E0B
 1097 13d7 04D53C8F 		.ascii	"\004\325<\217*j\341\206\203\301T\357\305\021S\001\013"
 1097      2A6AE186 
 1097      83C154EF 
 1097      C5115301 
 1097      0B
 1098 13e8 F748C0F4 		.ascii	"\367H\300\364\210\307\264H0-\373\314\265\332\240e\212"
 1098      88C7B448 
 1098      302DFBCC 
 1098      B5DAA065 
ARM GAS  C:\Users\CHRIST~1\AppData\Local\Temp\cc36zMGe.s 			page 87


 1098      8A
 1099 13f9 69706124 		.ascii	"ipa$\235\232\352\201\301\323\365\241\261\231V\006\357"
 1099      9D9AEA81 
 1099      C1D3F5A1 
 1099      B1995606 
 1099      EF
 1100 140a 3FA698C2 		.ascii	"?\246\230\302\357\325Ui\014\340\227iegz62\200\177B\353"
 1100      EFD55569 
 1100      0CE09769 
 1100      65677A36 
 1100      32807F42 
 1101 141f E2160AC3 		.ascii	"\342\026\012\303L{\372\031A\377\224G\237\237tRo\315"
 1101      4C7BFA19 
 1101      41FF9447 
 1101      9F9F7452 
 1101      6FCD
 1102 1431 87E93F90 		.ascii	"\207\351?\2200\005\016nI\000\277\304\203_!\340\333\363"
 1102      30050E6E 
 1102      4900BFC4 
 1102      835F21E0 
 1102      DBF3
 1103 1443 A71F5BA3 		.ascii	"\247\037[\243\023\326&\303\364R\340\223\016I\336\032"
 1103      13D626C3 
 1103      F452E093 
 1103      0E49DE1A 
 1104 1453 942C140F 		.ascii	"\224,\024\017\252\260~\037\025\323\177s '\321\212\351"
 1104      AAB07E1F 
 1104      15D37F73 
 1104      2027D18A 
 1104      E9
 1105 1464 AF48FD41 		.ascii	"\257H\375A\202o\274#f\341\364*\003\000\270\244\000|"
 1105      826FBC23 
 1105      66E1F42A 
 1105      0300B8A4 
 1105      007C
 1106 1476 55C47A4B 		.ascii	"U\304zK\013\2656(\335\332\244\365\242\036\345\\\260"
 1106      0BB53628 
 1106      DDDAA4F5 
 1106      A21EE55C 
 1106      B0
 1107 1487 3418E590 		.ascii	"4\030\345\220\212T\372U\317}l\322&\001\004\223?\217"
 1107      8A54FA55 
 1107      CF7D6CD2 
 1107      26010493 
 1107      3F8F
 1108 1499 69F85253 		.ascii	"i\370RS\025\037g\363\251k\010&`\341\374\004L~<\246\303"
 1108      151F67F3 
 1108      A96B0826 
 1108      60E1FC04 
 1108      4C7E3CA6 
 1109 14ae 04534C58 		.ascii	"\004SLX\340-[TB1e\246\245\367\232\023\375x\035J1\351"
 1109      E02D5B54 
 1109      423165A6 
 1109      A5F79A13 
 1109      FD781D4A 
 1110 14c4 835B8FD9 		.ascii	"\203[\217\331\231\324\037L\364\007\361\372/F\027\376"
 1110      99D41F4C 
ARM GAS  C:\Users\CHRIST~1\AppData\Local\Temp\cc36zMGe.s 			page 88


 1110      F407F1FA 
 1110      2F4617FE 
 1111 14d4 8DA91F8C 		.ascii	"\215\251\037\2146\273TN\302\034x\270@\001@ \017 \204"
 1111      36BB544E 
 1111      C21C78B8 
 1111      40014020 
 1111      0F2084
 1112 14e7 00E818BB 		.ascii	"\000\350\030\273\334\0113\207i\257\024\316\204\017\330"
 1112      DC093387 
 1112      69AF14CE 
 1112      840FD8
 1113 14f6 D111091B 		.ascii	"\321\021\011\033\272\243\324(\255\327\213J\225&Q\205"
 1113      BAA3D428 
 1113      ADD78B4A 
 1113      95265185 
 1114 1506 1154A13C 		.ascii	"\021T\241<\252\373E\335[\014q\2769\225\3049\260pG\004"
 1114      AAFB45DD 
 1114      5B0C71BE 
 1114      3995C439 
 1114      B0704704 
 1115 151a 50477850 		.ascii	"PGxP\341\004Th\257\376\261\006=\241\240\236\204\372"
 1115      E1045468 
 1115      AFFEB106 
 1115      3DA1A09E 
 1115      84FA
 1116 152c CF487461 		.ascii	"\317Hta\343\010\312\"T\342\371\254o\356^\273\271\220"
 1116      E308CA22 
 1116      54E2F9AC 
 1116      6FEE5EBB 
 1116      B990
 1117 153e FD8B9202 		.ascii	"\375\213\222\002h\366\007.\356\230\240\357\030\257/"
 1117      68F6072E 
 1117      EE98A0EF 
 1117      18AF2F
 1118 154d 92E86B3B 		.ascii	"\222\350k;\337\236k\206\202m\210>#\233\251\214\322\263"
 1118      DF9E6B86 
 1118      826D883E 
 1118      239BA98C 
 1118      D2B3
 1119 155f 93E6E834 		.ascii	"\223\346\3504\271\257\254\316\234H\2632\234\266\034"
 1119      B9AFACCE 
 1119      9C48B332 
 1119      9CB61C
 1120 156e 89369B24 		.ascii	"\2116\233$\247-\243U\326\334IA\303u$;m)\336RqQ*G\321"
 1120      A72DA355 
 1120      D6DC4941 
 1120      C375243B 
 1120      6D29DE52 
 1121 1587 AE0AAF56 		.ascii	"\256\012\257V\217,\037\245\231\027\3139A\255|/t\254"
 1121      8F2C1FA5 
 1121      9917CB39 
 1121      41AD7C2F 
 1121      74AC
 1122 1599 98C6037E 		.ascii	"\230\306\003~\310\023C+\371\363\215\237\257>\337\370"
 1122      C813432B 
 1122      F9F38D9F 
 1122      AF3EDFF8 
ARM GAS  C:\Users\CHRIST~1\AppData\Local\Temp\cc36zMGe.s 			page 89


 1123 15a9 399DFFCF 		.ascii	"9\235\377\317.\335\317\261F\311\024m]\343B\236\271\251"
 1123      2EDDCFB1 
 1123      46C9146D 
 1123      5DE3429E 
 1123      B9A9
 1124 15bb 1D513CC0 		.ascii	"\035Q<\300\370\234\355\210N\253\326s\247T\206\035Q\372"
 1124      F89CED88 
 1124      4EABD673 
 1124      A754861D 
 1124      51FA
 1125 15cd 9BB923E4 		.ascii	"\233\271#\344ic\234\312\222;#\364\353sv\324\243\353"
 1125      69639CCA 
 1125      923B23F4 
 1125      EB7376D4 
 1125      A3EB
 1126 15df 72DF24CD 		.ascii	"r\337$\315~\230!\226b;\033\233\265\235\267\\\002\255"
 1126      7E982196 
 1126      623B1B9B 
 1126      B59DB75C 
 1126      02AD
 1127 15f1 EA6CB9DB 		.ascii	"\352l\271\333\305I\0225D\221\340\275$\342\275D>T\342"
 1127      C5491235 
 1127      4491E0BD 
 1127      24E2BD44 
 1127      3E54E2
 1128 1604 833AC2F9 		.ascii	"\203:\302\371\244\002\226\215Nf\356\0036\356\270\000"
 1128      A402968D 
 1128      4E66EE03 
 1128      36EEB800 
 1129 1614 E238EFBE 		.ascii	"\3428\357\276\2634\\\252b\032\325(\312\226\2367jh\352"
 1129      B3345CAA 
 1129      621AD528 
 1129      CA969E37 
 1129      6A68EA
 1130 1627 E267A086 		.ascii	"\342g\240\206n\307\363\205\243\372\303\226${p\311\202"
 1130      6EC7F385 
 1130      A3FAC396 
 1130      247B70C9 
 1130      82
 1131 1638 84645EC2 		.ascii	"\204d^\3029\"!7g\272\321\034%\333\232\034\206>\205\327"
 1131      39222137 
 1131      67BAD11C 
 1131      25DB9A1C 
 1131      863E85D7 
 1132 164c AFDB18EA 		.ascii	"\257\333\030\352Ri\337\302._\276n\307OL\347i]I\372b"
 1132      5269DFC2 
 1132      2E5FBE6E 
 1132      C74F4CE7 
 1132      695D49FA 
 1133 1661 A8D2F4C4 		.ascii	"\250\322\364\304t\221\364\367\002\337\337\351\313O\307"
 1133      7491F4F7 
 1133      02DFDFE9 
 1133      CB4FC7
 1134 1670 D442B8DE 		.ascii	"\324B\270\336\340\027+\300\306\245\010hSx\264i\004\355"
 1134      E0172BC0 
 1134      C6A50868 
 1134      5378B469 
ARM GAS  C:\Users\CHRIST~1\AppData\Local\Temp\cc36zMGe.s 			page 90


 1134      04ED
 1135 1682 C5DC6198 		.ascii	"\305\334a\230\006\012)\332\313\271Q\206<<K\227\013x"
 1135      060A29DA 
 1135      CBB95186 
 1135      3C3C4B97 
 1135      0B78
 1136 1694 D9952EB4 		.ascii	"\331\225.\264N\347[_\"\255K\312K\316\300r\201\266\036"
 1136      4EE75B5F 
 1136      22AD4BCA 
 1136      4BCEC072 
 1136      81B61E
 1137 16a7 CF0BEA30 		.ascii	"\317\013\3520\214\227n\207T\221\2652\004\011\031\274"
 1137      8C976E87 
 1137      5491B532 
 1137      040919BC 
 1138 16b7 844C22A1 		.ascii	"\204L\"\241\257\355\204\023\352\247\002\016\207=]6\254"
 1138      AFED8413 
 1138      EAA7020E 
 1138      873D5D36 
 1138      AC
 1139 16c8 567E4CD4 		.ascii	"V~L\324\343\306YB\343,\276\361e\3228\377d\032,\345'"
 1139      E3C65942 
 1139      E32CBEF1 
 1139      65D238FF 
 1139      641A2CE5 
 1140 16dd 99A96BD3 		.ascii	"\231\251k\323\2269\326z@h}Eh}\205o\235MZ\237\210h\010"
 1140      9639D67A 
 1140      40687D45 
 1140      687D856F 
 1140      9D4D5A9F 
 1141 16f4 4768C9B4 		.ascii	"Gh\311\264\243\006kk\342l\014)\354\032uJt}J\252\215"
 1141      A3066B6B 
 1141      E26C0C29 
 1141      EC1A754A 
 1141      747D4AAA 
 1142 1709 E9992597 		.ascii	"\351\231%\2278%\207w\312\211\345\376A\336)\217)(\340"
 1142      38258777 
 1142      CA89E5FE 
 1142      41DE298F 
 1142      2928E0
 1143 171c E0AE0AA0 		.ascii	"\340\256\012\240\256\362\240\256\023P\367\272\347\352"
 1143      AEF2A0AE 
 1143      1350F7BA 
 1143      E7EA
 1144 172a ACD0113B 		.ascii	"\254\320\021;\002\252\365pU\231\212\265.\375\211\241"
 1144      02AAF570 
 1144      55998AB5 
 1144      2EFD89A1 
 1145 173a 759ED03A 		.ascii	"u\236\320:\217o\235OZg&\325\300\0266\201\266\216\354"
 1145      8F6F9D4F 
 1145      5A6726D5 
 1145      C0163681 
 1145      B68EEC
 1146 174d BEDB67C7 		.ascii	"\276\333g\307ZW\013\255o\010\255o\360\255\013H\353'"
 1146      5A570BAD 
 1146      6F08AD6F 
 1146      F0AD0B48 
ARM GAS  C:\Users\CHRIST~1\AppData\Local\Temp\cc36zMGe.s 			page 91


 1146      EB27
 1147 175f 0DF3D916 		.ascii	"\015\363\331\026\350*m\355\033\337\030\251\374a\222"
 1147      E82A6DED 
 1147      1BDF18A9 
 1147      FC6192
 1148 176e BEB1986C 		.ascii	"\276\261\230l\275/&5\350\365\361Jr\\\272\220J\020\035"
 1148      BD2F2635 
 1148      E8F5F14A 
 1148      725CBA90 
 1148      4A101D
 1149 1781 B2C635FF 		.ascii	"\262\3065\377\256TpE\252\037B\323\331\370\244Z;t\203"
 1149      AE547045 
 1149      AA1F42D3 
 1149      D9F8A45A 
 1149      3B7483
 1150 1794 CAB91E17 		.ascii	"\312\271\036\027\223\304\201\234b\220\323\027\200`#"
 1150      93C4819C 
 1150      6290D317 
 1150      806023
 1151 17a3 A522CF9F 		.ascii	"\245\"\317\237\212\231\020a\355X\314\204\224\020!\267"
 1151      8A991061 
 1151      ED58CC84 
 1151      941021B7 
 1152 17b3 8E862C58 		.ascii	"\216\206,X\242b*\244\251\244[\257fB\360k\\\007\"\242"
 1152      A2622AA4 
 1152      A9A45BAF 
 1152      6642F06B 
 1152      5C0722A2 
 1153 17c7 74958852 		.ascii	"t\225\210R&\242\214\210H"
 1153      26A28C88 
 1153      48
 1154 17d0 EBA93F81 		.ascii	"\353\251?\201\320M*\242\375\\\341i3\3611q'\372\344\247"
 1154      D04D2AA2 
 1154      FD5CE169 
 1154      33F13171 
 1154      27FAE4A7 
 1155 17e4 5CB596D8 		.ascii	"\\\265\226\330\000\363\204\344\367-\252\304'\317Eg\252"
 1155      00F384E4 
 1155      F72DAAC4 
 1155      27CF4567 
 1155      AA
 1156 17f5 14C2812A 		.ascii	"\024\302\201*\034\252\376\367\306\315\305\322*T\253"
 1156      1CAAFEF7 
 1156      C6CDC5D2 
 1156      2A54AB
 1157 1804 C5E5DC4D 		.ascii	"\305\345\334M9\213Qg\322\021\331y\250^\257OPr\225\252"
 1157      398B5167 
 1157      D211D979 
 1157      A85EAF4F 
 1157      507295AA 
 1158 1818 B5DC4D83 		.ascii	"\265\334M\203\023\024\370\032\376\277E \337~\264Pj\211"
 1158      1314F81A 
 1158      FEBF4520 
 1158      DF7EB450 
 1158      6A89
 1159 182a 2A29E4C2 		.ascii	"*)\344\302\310\214(v\360\267\021\377\340\240z!\274\200"
 1159      C88C2876 
ARM GAS  C:\Users\CHRIST~1\AppData\Local\Temp\cc36zMGe.s 			page 92


 1159      F0B711FF 
 1159      E0A07A21 
 1159      BC80
 1160 183c 9DA9D5BF 		.ascii	"\235\251\325\277\212A\334\015h\261\244\367\027\311j"
 1160      8A41DC0D 
 1160      68B1A4F7 
 1160      17C96A
 1161 184b DF3FAE8E 		.ascii	"\337?\256\216\235\207\354\300O\265\363\237\306\347\250"
 1161      9D87ECC0 
 1161      4FB5F39F 
 1161      C6E7A8
 1162 185a D8195C1B 		.ascii	"\330\031\\\033(\257\214u&\261\207\340\0170\177i|\336"
 1162      28AF8C75 
 1162      26B187E0 
 1162      0F307F69 
 1162      7CDE
 1163 186c F75135D5 		.ascii	"\367Q5\325\365(\242\253\337\026\325\321\302Xz\013ll"
 1163      F528A2AB 
 1163      DF16D5D1 
 1163      C2587A0B 
 1163      6C6C
 1164 187e 5B494159 		.ascii	"[IAY\265\030\372\000\231\312\372\255*\323\207\301\337"
 1164      B518FA00 
 1164      99CAFAAD 
 1164      2AD387C1 
 1164      DF
 1165 188f 8E22870B 		.ascii	"\216\"\207\013[ \2477\0131\307\037$F\211~\371\031\266"
 1165      5B20A737 
 1165      0B31C71F 
 1165      2446897E 
 1165      F919B6
 1166 18a2 9CBDA383 		.ascii	"\234\275\243\203\321\007\236\260\311U\261\203H\240\342"
 1166      D1079EB0 
 1166      C955B183 
 1166      48A0E2
 1167 18b1 B64AFCB4 		.ascii	"\266J\374\264sd\331l\3612\371U\202\312\310C\343\341"
 1167      7364D96C 
 1167      F132F955 
 1167      82CAC843 
 1167      E3E1
 1168 18c3 93ECA131 		.ascii	"\223\354\2411V\334\004\212\261 #\017g\241\2373I\243"
 1168      56DC048A 
 1168      B120230F 
 1168      67A19F33 
 1168      49A3
 1169 18d5 6D1AB44C 		.ascii	"m\032\264L\373y\257\250\3733\316\321\236\252\230~\007"
 1169      FB79AFA8 
 1169      FB33CED1 
 1169      9EAA987E 
 1169      07
 1170 18e6 3F4FED82 		.ascii	"?O\355\202\226\035\002t\254\316\324\013\337N@i\0141"
 1170      961D0274 
 1170      ACCED40B 
 1170      DF4E4069 
 1170      0C31
 1171 18f8 CE01C375 		.ascii	"\316\001\303u\263\026(d\0151\355\375\273\276g\355\320"
 1171      B3162864 
ARM GAS  C:\Users\CHRIST~1\AppData\Local\Temp\cc36zMGe.s 			page 93


 1171      0D31EDFD 
 1171      BBBE67ED 
 1171      D0
 1172 1909 495A88AF 		.ascii	"IZ\210\2579\\o\201bi!3\314\307\007\241\213\264\340{"
 1172      395C6F81 
 1172      62692133 
 1172      CCC707A1 
 1172      8BB4E07B 
 1173 191d F06C1BD9 		.ascii	"\360l\033\331f\371>\377X!\352\310\312>k\3139\330;&\352"
 1173      66F93EFF 
 1173      5821EAC8 
 1173      CA3E6BCB 
 1173      39D83B26 
 1174 1932 FD7CC94B 		.ascii	"\375|\311K\273\256#\021\364\245]?\314\376}\200\376\256"
 1174      BBAE2311 
 1174      F4A55D3F 
 1174      CCFE7D80 
 1174      FEAE
 1175 1944 F1FE1BEF 		.ascii	"\361\376\033\357G/k\200\3731\000\375\270#\261|\373$"
 1175      472F6B80 
 1175      FB3100FD 
 1175      B823B17C 
 1175      FB24
 1176 1956 7D3D7357 		.ascii	"}=sW%\177\224}7p\0162\373U\202^y\243\342h\253\225\301"
 1176      257F947D 
 1176      37700E32 
 1176      FB55825E 
 1176      79A3E268 
 1177 196d 9623B1EA 		.ascii	"\226#\261\352n\372B\373\036\010\036\024\354y\3679\366"
 1177      6EFA42FB 
 1177      1E081E14 
 1177      EC79F739 
 1177      F6
 1178 197e 1C02DDC6 		.ascii	"\034\002\335\306p\340\225e\324X\240\015\272I\015\025"
 1178      70E09565 
 1178      D458A00D 
 1178      BA490D15 
 1179 198e D0555261 		.ascii	"\320URa\203jh\341n\310@5\207Zi!\254(\276\300\014\365"
 1179      836A68E1 
 1179      6EC84035 
 1179      875A6921 
 1179      AC28BEC0 
 1180 19a4 D0426A4E 		.ascii	"\320BjN\344E+4D\341e/\371\365)\015\253\256\341X\372"
 1180      E4452B34 
 1180      44E1652F 
 1180      F9F5290D 
 1180      ABAEE158 
 1181 19b9 787E12CC 		.ascii	"x~\022\3145\376\262\213\256\011\371\242kf>\342\216\035"
 1181      35FEB28B 
 1181      AE09F9A2 
 1181      6B663EE2 
 1181      8E1D
 1182 19cb 9AA2DA8A 		.ascii	"\232\242\332\212\263\363\256X\2439ZxX\325\037h\205\374"
 1182      B3F3AE58 
 1182      A3395A78 
 1182      58D51F68 
 1182      85FC
ARM GAS  C:\Users\CHRIST~1\AppData\Local\Temp\cc36zMGe.s 			page 94


 1183 19dd 5FA17796 		.ascii	"_\241w\226s\273\255\321\021R\260\354\352=\343o\311\321"
 1183      73BBADD1 
 1183      1152B0EC 
 1183      EA3DE36F 
 1183      C9D1
 1184 19ef 574B0E8E 		.ascii	"WK\016\216\366&\336-=\004UK\314\022\213p\275\240r\340"
 1184      F626DE2D 
 1184      3D04554B 
 1184      CC128B70 
 1184      BDA072E0 
 1185 1a03 E6801E03 		.ascii	"\346\200\036\003\315\002=R\311\316\225\364_domq\217"
 1185      CD023D52 
 1185      C9CE95F4 
 1185      5F646F6D 
 1185      718F
 1186 1a15 C6A0474B 		.ascii	"\306\240GK*\023\357s\014\376\251\242\207;f\200\361\201"
 1186      2A13EF73 
 1186      0CFEA9A2 
 1186      873B6680 
 1186      F181
 1187 1a27 60822595 		.ascii	"`\202%\225\275X\356X\215\3606\370\276\\\354\252\023"
 1187      BD58EE58 
 1187      8DF036F8 
 1187      BE5CECAA 
 1187      13
 1188 1a38 7CE3FF46 		.ascii	"|\343\377FG\341<\200\030\225s\213^\335\210,<\243\022"
 1188      47E13C80 
 1188      1895738B 
 1188      5EDD882C 
 1188      3CA312
 1189 1a4b BF9698A7 		.ascii	"\277\226\230\247\031\225\235\335\021I\2332*M\364\302"
 1189      19959DDD 
 1189      11499B32 
 1189      2A4DF4C2 
 1190 1a5b A5AF9746 		.ascii	"\245\257\227F\351\2224J\215\233w\232I{9\363\316\367"
 1190      E992344A 
 1190      8D9B779A 
 1190      497B39F3 
 1190      CEF7
 1191 1a6d B2574C78 		.ascii	"\262WLx\2250b\334\266|vI.\231/\266D\247\251\343\257"
 1191      953062DC 
 1191      B67C7649 
 1191      2E992FB6 
 1191      44A7A9E3 
 1192 1a82 F90D3FB5 		.ascii	"\371\015?\265C\331\244\2409\023\021Qb\316\221\303w\016"
 1192      43D9A4A0 
 1192      39131151 
 1192      62CE91C3 
 1192      770E
 1193 1a94 C64F342D 		.ascii	"\306O4-\203\350\247\014\225^\015\273Q\265\003\267\002"
 1193      83E8A70C 
 1193      955E0DBB 
 1193      51B503B7 
 1193      02
 1194 1aa5 687CE0FB 		.ascii	"h|\340\373\231\004Q\251+\265\014\006\364\204\265z\316"
 1194      990451A9 
 1194      2BB50C06 
ARM GAS  C:\Users\CHRIST~1\AppData\Local\Temp\cc36zMGe.s 			page 95


 1194      F484B57A 
 1194      CE
 1195 1ab6 CBBBF97E 		.ascii	"\313\273\371~\366\352\212\367\313S\023~a\246\354\247"
 1195      F6EA8AF7 
 1195      CB53137E 
 1195      61A6ECA7 
 1196 1ac6 A67C6A2C 		.ascii	"\246|j,\323V\214\312\214aD\267(\"\206\305\252\247\214"
 1196      D3568CCA 
 1196      8C6144B7 
 1196      282286C5 
 1196      AAA78C
 1197 1ad9 AAE64D17 		.ascii	"\252\346M\027Q}y\334\014\025\023k)\347r\202J\354\370"
 1197      517D79DC 
 1197      0C15136B 
 1197      29E77282 
 1197      4AECF8
 1198 1aec 1763AB8F 		.ascii	"\027c\253\217\240\201u^d)C\234\327\373\236\300q\356"
 1198      A081755E 
 1198      6429439C 
 1198      D7FB9EC0 
 1198      71EE
 1199 1afe A7B6E77C 		.ascii	"\247\266\347|\325\2068\177\252b\357\311r\013\246\266"
 1199      D586387F 
 1199      AA62EFC9 
 1199      720BA6B6 
 1200 1b0e D2F9713D 		.ascii	"\322\371q=\224\362zg\212\331\317\357\356\340\3514\263"
 1200      94F27A67 
 1200      8AD9CFEF 
 1200      EEE0E934 
 1200      B3
 1201 1b1f FEE8291B 		.ascii	"\376\350)\033\324N\375\031\361\254\262\014\262\013-"
 1201      D44EFD19 
 1201      F1ACB20C 
 1201      B20B2D
 1202 1b2e 14143F84 		.ascii	"\024\024?\204\025\320\020-D\027eV\302\242\224\026\356"
 1202      15D0102D 
 1202      44176556 
 1202      C2A29416 
 1202      EE
 1203 1b3f 279E1D55 		.ascii	"'\236\035U\242YZ\010\367\213\037\261CK\264\220\036\356"
 1203      A2595A08 
 1203      F78B1FB1 
 1203      434BB490 
 1203      1EEE
 1204 1b51 13A1443E 		.ascii	"\023\241D>k\351>\361\340@\271\031\012%\005\363\314\274"
 1204      6BE93EF1 
 1204      E040B919 
 1204      0A2505F3 
 1204      CCBC
 1205 1b63 F15C0D39 		.ascii	"\361\\\0159\364\0149\301\3010\3742\352D\307\305\202"
 1205      F40C39C1 
 1205      C130FC32 
 1205      EA44C7C5 
 1205      82
 1206 1b74 00FD71F5 		.ascii	"\000\375q\365\363\306_\351\327\302\253\323@\343\334"
 1206      F3C65FE9 
 1206      D7C2ABD3 
ARM GAS  C:\Users\CHRIST~1\AppData\Local\Temp\cc36zMGe.s 			page 96


 1206      40E3DC
 1207 1b83 92B7F422 		.ascii	"\222\267\364\"\366P9{\242\374tT\375\370\332\010=v%9"
 1207      F650397B 
 1207      A2FC7454 
 1207      FDF8DA08 
 1207      3D762539 
 1208 1b97 4CC5D84D 		.ascii	"L\305\330M\236\200\251\030\247A\004L&\307c\200z=\347"
 1208      9E80A918 
 1208      A741044C 
 1208      26C76380 
 1208      7A3DE7
 1209 1baa AFC60797 		.ascii	"\257\306\007\227\2304\354\317H\360g\004\370\361\004"
 1209      9834ECCF 
 1209      48F06704 
 1209      F8F104
 1210 1bb9 D049A030 		.ascii	"\320I\2400\240p\240cj\361\010h\037\027\235\211\014\221"
 1210      A070A063 
 1210      6AF10868 
 1210      1F179D89 
 1210      0C91
 1211 1bcb 635F7574 		.ascii	"c_utg\340/\264\247\370lD\260qnj\030\360\313\320\375"
 1211      67E02FB4 
 1211      A7F86C44 
 1211      B0716E6A 
 1211      18F0CBD0 
 1212 1be0 139040A3 		.ascii	"\023\220@\243\327\322\237q\224\337IP\312\343\320\200"
 1212      D7D29F71 
 1212      94DF4950 
 1212      CAE3D080 
 1213 1bf0 3B06B0BE 		.ascii	";\006\260\276,nC<f\224\205\342x\214\206vQB<b;\021\365"
 1213      2C6E433C 
 1213      669485E2 
 1213      788C8676 
 1213      51423C62 
 1214 1c07 8D8F9202 		.ascii	"\215\217\222\0025\350\034\215\021\277F\237\177B\231"
 1214      35E81C8D 
 1214      11BF469F 
 1214      7F4299
 1215 1c16 F47A6424 		.ascii	"\364zd$!\222\375\004\354\273xm[p\002\326\007\246\336"
 1215      2192FD04 
 1215      ECBB786D 
 1215      5B7002D6 
 1215      07A6DE
 1216 1c29 A19E51B3 		.ascii	"\241\236Q\263w\250\247\325\344%\352Tr\375e\274\014t"
 1216      77A8A7D5 
 1216      E425EA54 
 1216      72FD65BC 
 1216      0C74
 1217 1c3b B4E4FE26 		.ascii	"\264\344\376&\332\361;\262w1\341\003'-P\021\355r\364"
 1217      DAF13BB2 
 1217      7731E103 
 1217      272D5011 
 1217      ED72F4
 1218 1c4e 5CF6B2E1 		.ascii	"\\\366\262\341\027d\231\276\372W|\266\210N &A7\035\331"
 1218      176499BE 
 1218      FA577CB6 
 1218      884E2026 
ARM GAS  C:\Users\CHRIST~1\AppData\Local\Temp\cc36zMGe.s 			page 97


 1218      41371DD9 
 1219 1c62 E22F1EEC 		.ascii	"\342/\036\354\020\2476\374\244\361\332/\350O\032\023"
 1219      10A736FC 
 1219      A4F1DA2F 
 1219      E84F1A13 
 1220 1c72 D5965C82 		.ascii	"\325\226\\\202\3203G\266\343\017\360K\015\265B\325T"
 1220      D03347B6 
 1220      E30FF04B 
 1220      0DB542D5 
 1220      54
 1221 1c83 4964E840 		.ascii	"Id\350@\267\231\370g\322\225\344\3471\347\240\351Y\241"
 1221      B799F867 
 1221      D295E4E7 
 1221      31E7A0E9 
 1221      59A1
 1222 1c95 69A2DAF0 		.ascii	"i\242\332\360\233\216U@\222\215\000\301{\313\214nX["
 1222      9B8E5540 
 1222      928D00C1 
 1222      7BCB8C6E 
 1222      585B
 1223 1ca7 B7502D73 		.ascii	"\267P-s\201S\361\246\273r\336dW\372\373QoY\020\366R"
 1223      8153F1A6 
 1223      BB72DE64 
 1223      57FAFB51 
 1223      6F5910F6 
 1224 1cbc 2A004A11 		.ascii	"*\000J\021\000\235S\263\316L\014\007N\212v\026\257\023"
 1224      009D53B3 
 1224      CE4C0C07 
 1224      4E8A7616 
 1224      AF13
 1225 1cce C67A15EC 		.ascii	"\306z\025\354\215T\330\374\027\324ky'\340\321]{!m\224"
 1225      8D54D8FC 
 1225      17D46B79 
 1225      27E0D15D 
 1225      7B216D94 
 1226 1ce2 23A31BE7 		.ascii	"#\243\033\347\177\303i\276\232\373~z\375@1\207\331\271"
 1226      7FC369BE 
 1226      9AFB7E7A 
 1226      FD403187 
 1226      D9B9
 1227 1cf4 53A02503 		.ascii	"S\240%\003b\202\027\302\325\252dA<\277\310\006 \016"
 1227      628217C2 
 1227      D5AA6441 
 1227      3CBFC806 
 1227      200E
 1228 1d06 9DC38CDD 		.ascii	"\235\303\214\335\020\213\362\303V\263\007h\310\343\365"
 1228      108BF2C3 
 1228      56B30768 
 1228      C8E3F5
 1229 1d15 578F8A32 		.ascii	"W\217\2122\033B>d\325\271\312\346\277\322\223\222\370"
 1229      1B423E64 
 1229      D5B9CAE6 
 1229      BFD29392 
 1229      F8
 1230 1d26 984D3763 		.ascii	"\230M7c7\234q\3667\366#\202\327\025\\\015`\255\306X"
 1230      379C71F6 
 1230      37F62382 
ARM GAS  C:\Users\CHRIST~1\AppData\Local\Temp\cc36zMGe.s 			page 98


 1230      D7155C0D 
 1230      60ADC658 
 1231 1d3a 63191A72 		.ascii	"c\031\032rR\001\314\232\006\201\237\005\224\016t\011"
 1231      5201CC9A 
 1231      06819F05 
 1231      940E7409 
 1232 1d4a 2813E8A2 		.ascii	"(\023\350\2420\200\361\306\370\257\024\036^n7\312\341"
 1232      3080F1C6 
 1232      F8AF141E 
 1232      5E6E37CA 
 1232      E1
 1233 1d5b 35A856C1 		.ascii	"5\250V\301;@\341\341,>\314\330\015\323\201\370`\026"
 1233      3B40E1E1 
 1233      2C3ECCD8 
 1233      0DD381F8 
 1233      6016
 1234 1d6d 5BB32ED2 		.ascii	"[\263.\322\354\223\241\226\257Y\013\016\371\315\333"
 1234      EC93A196 
 1234      AF590B0E 
 1234      F9CDDB
 1235 1d7c A03E1A1F 		.ascii	"\240>\032\037\267\016\316\017Y\210\327\254\243eG\261"
 1235      B70ECE0F 
 1235      5988D7AC 
 1235      A36547B1 
 1236 1d8c D7AF82F4 		.ascii	"\327\257\202\364+\202\3273\324\366&{\236\015\275}\331"
 1236      2B82D733 
 1236      D4F6267B 
 1236      9E0DBD7D 
 1236      D9
 1237 1d9d 9EE3DDE6 		.ascii	"\236\343\335\346\360\324\020\336a\337\241\021\020\235"
 1237      F0D410DE 
 1237      61DFA111 
 1237      109D
 1238 1dab 9519A80F 		.ascii	"\225\031\250\017\273\311)\210\312*\266\267\345\205+"
 1238      BBC92988 
 1238      CA2AB6B7 
 1238      E5852B
 1239 1dba 700D7E9A 		.ascii	"p\015~\232\254\306\333\304\304\221\353C\226h\234&\203"
 1239      ACC6DBC4 
 1239      C491EB43 
 1239      96689C26 
 1239      83
 1240 1dcb C9A8605F 		.ascii	"\311\250`_\323?\221\317\345G?.\002\367\263\370\333\011"
 1240      D33F91CF 
 1240      E5473F2E 
 1240      02F7B3F8 
 1240      DB09
 1241 1ddd 56E29D2B 		.ascii	"V\342\235+\316\370\374j\010,G\2425\227\217\355\224\261"
 1241      CEF8FC6A 
 1241      082C47A2 
 1241      35978FED 
 1241      94B1
 1242 1def 88523BC0 		.ascii	"\210R;\300\030O\267\260\015\345\325d\013\013\\\\\016"
 1242      184FB7B0 
 1242      0DE5D564 
 1242      0B0B5C5C 
 1242      0E
ARM GAS  C:\Users\CHRIST~1\AppData\Local\Temp\cc36zMGe.s 			page 99


 1243 1e00 358AA82D 		.ascii	"5\212\250-\324\340\275\011A\030s\345b\014\207f)\302"
 1243      D4E0BD09 
 1243      411873E5 
 1243      620C8766 
 1243      29C2
 1244 1e12 89B6A651 		.ascii	"\211\266\246Qs\364\224\026\342\236,GK^\211\325I\016"
 1244      73F49416 
 1244      E29E2C47 
 1244      4B5E89D5 
 1244      490E
 1245 1e24 8814A8F9 		.ascii	"\210\024\250\3717H'\353\002s\225\310\337\236\264:8p"
 1245      374827EB 
 1245      027395C8 
 1245      DF9EB43A 
 1245      3870
 1246 1e36 AD9D4321 		.ascii	"\255\235C!\264P\032\321\\f\216\302i\241\355Yr\215-\212"
 1246      B4501AD1 
 1246      5C668EC2 
 1246      69A1ED59 
 1246      728D2D8A 
 1247 1e4a 21054D42 		.ascii	"!\005MB\335\221\333*\016\017-2\266\3609\324\024D\243"
 1247      DD91DB2A 
 1247      0E0F2D32 
 1247      B6F039D4 
 1247      1444A3
 1248 1e5d 0B047325 		.ascii	"\013\004s%\200\271\314T\2767\276\276(fMpW+\301\2517"
 1248      80B9CC54 
 1248      BE37BEBE 
 1248      28664D70 
 1248      572BC1A9 
 1249 1e72 C1891540 		.ascii	"\301\211\025@\345@\245\222yhx\201i\302'\000\213\344"
 1249      E540A592 
 1249      79687881 
 1249      69C22700 
 1249      8BE4
 1250 1e84 9AE4275E 		.ascii	"\232\344'^\347\305\270n\030\307%^N\323\303\353\230\271"
 1250      E7C5B86E 
 1250      18C7255E 
 1250      4ED3C3EB 
 1250      98B9
 1251 1e96 D0A868C9 		.ascii	"\320\250h\311\252\215\236\251*[\025\361y\331\311\355"
 1251      AA8D9EA9 
 1251      2A5B15F1 
 1251      79D9C9ED 
 1252 1ea6 9C3DEBE8 		.ascii	"\234=\353\350a\223\035U\030\355%~\230S\3279)\371\365"
 1252      61931D55 
 1252      18ED257E 
 1252      9853D739 
 1252      29F9F5
 1253 1eb9 FC2DB578 		.ascii	"\374-\265x\311^e\360]\302\221\346\207\222_\374\303-"
 1253      C95E65F0 
 1253      5DC291E6 
 1253      87925FFC 
 1253      C32D
 1254 1ecb 832A0557 		.ascii	"\203*\005W\255\026\376\020\003~q\0209r\325F\374\334"
 1254      AD16FE10 
 1254      037E7110 
ARM GAS  C:\Users\CHRIST~1\AppData\Local\Temp\cc36zMGe.s 			page 100


 1254      3972D546 
 1254      FCDC
 1255 1edd C594D8AA 		.ascii	"\305\224\330\252\344\344\213\022\2615\317\023[Q\266"
 1255      E4E48B12 
 1255      B135CF13 
 1255      5B51B6
 1256 1eec 3C64859F 		.ascii	"<d\205\237\277\320GX\205\347[\310#\254Z\010\336|\026"
 1256      BFD04758 
 1256      85E75BC8 
 1256      23AC5A08 
 1256      DE7C16
 1257 1eff BC425B5C 		.ascii	"\274B[\\\203\037\035\325\221\360\315\356\277=h\213\022"
 1257      831F1DD5 
 1257      91F0CDEE 
 1257      BF3D688B 
 1257      12
 1258 1f10 69841D6F 		.ascii	"i\204\035o\275;j\003r\036\340GX\247\327A\342\245\010"
 1258      BD3B6A03 
 1258      721EE047 
 1258      58A7D741 
 1258      E2A508
 1259 1f23 EB5709A9 		.ascii	"\353W\011\251gB\032\210\220\305\314\3001;t\221\012i"
 1259      67421A88 
 1259      90C5CCC0 
 1259      313B7491 
 1259      0A69
 1260 1f35 6C4F4F31 		.ascii	"lOO1gBJ\337\363\301\217\301\260\214\306U2\032\231\214"
 1260      67424ADF 
 1260      F3C18FC1 
 1260      B08CC655 
 1260      321A998C 
 1261 1f49 26226368 		.ascii	"&\"ch\344T\2535\312\2462\242\202b\033\0142\376\267A"
 1261      E454AB35 
 1261      CAA632A2 
 1261      82621B0C 
 1261      32FEB741 
 1262 1f5d 46F32A19 		.ascii	"F\363*\031\315LF\013\221q\251f\305\027\211\275vW2\342"
 1262      CD4C460B 
 1262      9171A966 
 1262      C51789BD 
 1262      765732E2 
 1263 1f71 5AA979F1 		.ascii	"Z\251y\3617V\2307\357+9\277\365L\302\334\306\230\333"
 1263      37569837 
 1263      EF2B39BF 
 1263      F54CC2DC 
 1263      C698DB
 1264 1f84 08F3E460 		.ascii	"\010\363\344`V\213D\362\254\204\271\2351\267\023\346"
 1264      568B44F2 
 1264      AC84B99D 
 1264      31B713E6 
 1265 1f94 E4AEEB9D 		.ascii	"\344\256\353\235\022\311\013\022\346\333\214\371"
 1265      12C90B12 
 1265      E6DB8CF9 
 1266 1fa0 3661CEC8 		.ascii	"6a\316\310\310\265\023\363NIx;\030o\007\341\365\255"
 1266      C8B513F3 
 1266      4E49783B 
 1266      186F07E1 
ARM GAS  C:\Users\CHRIST~1\AppData\Local\Temp\cc36zMGe.s 			page 101


 1266      F5AD
 1267 1fb2 8B382989 		.ascii	"\2138)\211\312\021\011s'c\356$\314\267\352\307\342\021"
 1267      CA110973 
 1267      2763EE24 
 1267      CCB7EAC7 
 1267      E211
 1268 1fc4 2AA0062D 		.ascii	"*\240\006-h8u\320\306\360\226\216>\365M_\314:ja\362"
 1268      683875D0 
 1268      C6F0968E 
 1268      3EF54D5F 
 1268      CC3A6A61 
 1269 1fd9 7D548F1A 		.ascii	"}T\217\032?\337\355V\363'\004\356\005\214\233\261\223"
 1269      3FDFED56 
 1269      F32704EE 
 1269      058C9BB1 
 1269      93
 1270 1fea 0A0DDD8E 		.ascii	"\012\015\335\216\351\035\243z=\000\361\343T\230\223"
 1270      E91DA37A 
 1270      3D00F1E3 
 1270      549893
 1271 1ff9 EB12268E 		.ascii	"\353\022&\216.\265\354"
 1271      2EB5EC
 1272 2000 C042AF9A 		.ascii	"\300B\257\232\274-H\274\027g\203\352\354M\277\311\014"
 1272      BC2D48BC 
 1272      176783EA 
 1272      EC4DBFC9 
 1272      0C
 1273 2011 3F18C619 		.ascii	"?\030\306\031\336\270\366\253Iev\373\3514[\003\356;"
 1273      DEB8F6AB 
 1273      496576FB 
 1273      E9345B03 
 1273      EE3B
 1274 2023 B4F2F1ED 		.ascii	"\264\362\361\355#\017\255M\002\037 \300\357\362\300"
 1274      230FAD4D 
 1274      021F20C0 
 1274      EFF2C0
 1275 2032 2BEEDDBB 		.ascii	"+\356\335\273\300\037\326\030\337D\217\267@b\007.\256"
 1275      C01FD618 
 1275      DF448FB7 
 1275      4062072E 
 1275      AE
 1276 2043 4F00DD27 		.ascii	"O\000\335'\007=H@'\207\306]P\243~\3236LJ\234\316\265"
 1276      073D4840 
 1276      2787C65D 
 1276      50A37ED3 
 1276      364C4A9C 
 1277 2059 31FDE662 		.ascii	"1\375\346b\230`\271\307c9t\351\324\005\336\210\245\357"
 1277      9860B9C7 
 1277      633974E9 
 1277      D405DE88 
 1277      A5EF
 1278 206b 312C6B31 		.ascii	"1,k1\0277$`\031\222c\031!XN\344\267\236\2278\037?\364"
 1278      17372460 
 1278      19926319 
 1278      21584EE4 
 1278      B79E9738 
 1279 2082 179C3FCA 		.ascii	"\027\234?\312\234?J\234_>\0322o)f\016\2200\2171\346"
ARM GAS  C:\Users\CHRIST~1\AppData\Local\Temp\cc36zMGe.s 			page 102


 1279      9C3F4A9C 
 1279      5F3E1A32 
 1279      6F29660E 
 1279      90308F31 
 1280 2097 31C2DC1C 		.ascii	"1\302\334\034\032|U\022\203\301\022\346q\306<N\230\037"
 1280      1A7C5512 
 1280      83C112E6 
 1280      71C63C4E 
 1280      981F
 1281 20a9 1DF7ADB4 		.ascii	"\035\367\255\264D3l\234&\347\216kx\343\376\312`\\\034"
 1281      44336C9C 
 1281      26E78E6B 
 1281      78E3FECA 
 1281      605C1C
 1282 20bc 11134287 		.ascii	"\021\023B\207&\344\035\232$\035\352jK\217\220\214\251"
 1282      26E41D9A 
 1282      241DEA6A 
 1282      4B8F908C 
 1282      A9
 1283 20cd 3089DA29 		.ascii	"0\211\332)\246v\212\250-\275\324>i!f\216\2200O3\346"
 1283      A6768AA8 
 1283      2DBDD43E 
 1283      6921668E 
 1283      90304F33 
 1284 20e2 693AB497 		.ascii	"i:\264\227\323\363\330\237\034\320@\261\250\326\357"
 1284      D3F3D89F 
 1284      1CD040B1 
 1284      A8D6EF
 1285 20f1 8695C975 		.ascii	"\206\225\311u\303\003~\335p\237.\246\037\005\035Z`\177"
 1285      C3037EDD 
 1285      709F2EA6 
 1285      1F051D5A 
 1285      607F
 1286 2103 4E09FF95 		.ascii	"N\011\377\225&\376\217P\254\243\177\204\342\342@d\015"
 1286      26FE8F50 
 1286      ACA37F84 
 1286      E2E24064 
 1286      0D
 1287 2114 273F9839 		.ascii	"'?\2309\013\353\321\0315\026\366\220$f\"\222\024\310"
 1287      0BEBD119 
 1287      3516F690 
 1287      24662292 
 1287      14C8
 1288 2126 C3F1E345 		.ascii	"\303\361\343E\354at\007\226\3372\234\340\307\2664\215"
 1288      EC617407 
 1288      96DF329C 
 1288      E0C7B634 
 1288      8D
 1289 2137 B85CD65E 		.ascii	"\270\\\326^\371@\205\364\353\250A\233\263>\302H}_\352"
 1289      F94085F4 
 1289      EBA8419B 
 1289      B33EC248 
 1289      7D5FEA
 1290 214a 4F9E4083 		.ascii	"O\236@\203\332\332\345:5\362\247\255\203\313\257V0\350"
 1290      DADAE53A 
 1290      35F2A7AD 
 1290      83CBAF56 
ARM GAS  C:\Users\CHRIST~1\AppData\Local\Temp\cc36zMGe.s 			page 103


 1290      30E8
 1291 215c B7C88B91 		.ascii	"\267\310\213\221\274\262|+\024Ho\016\006\015\224i\320"
 1291      BCB27C2B 
 1291      14486F0E 
 1291      060D9469 
 1291      D0
 1292 216d 515A88EB 		.ascii	"QZ\210\353\236\253\346\3201Z(h\356\371\015:I\257\347"
 1292      9EABE6D0 
 1292      315A2868 
 1292      EEF90D3A 
 1292      49AFE7
